:020000040800F2
:10000000681000209D0100082F190008F31800084F
:100010002D190008AF070008ED2E000800000000B1
:10002000000000000000000000000000AF01000818
:100030005508000800000000B3010008E519000899
:10004000B7010008B7010008B7010008B7010008B0
:10005000B7010008B7010008B7010008B7010008A0
:10006000B7010008B7010008B7010008B701000890
:10007000B7010008B7010008B7010008B701000880
:10008000B7010008B7010008B7010008B701000870
:10009000B7010008B7010008B7010008B701000860
:1000A000B7010008B7010008B7010008B701000850
:1000B000B7010008B7010008B7010008B701000840
:1000C000B7010008B7010008B7010008B701000830
:1000D000B7010008B7010008B7010008B701000820
:1000E000B7010008B7010008B7010008B701000810
:1000F000B7010008B7010008B7010008B701000800
:10010000B7010008B7010008B7010008B7010008EF
:10011000B7010008B7010008B7010008B7010008DF
:10012000B7010008B7010008B7010008B7010008CF
:10013000B7010008B7010008B7010008B7010008BF
:10014000B7010008B7010008B701000851190008FD
:10015000B7010008B7010008B7010008B70100089F
:10016000B7010008B7010008B7010008B70100088F
:10017000B7010008B7010008B7010008000000003F
:10018000B7010008B7010008DFF80CD000F044FA0E
:1001900000480047253800086810002006488047BE
:1001A00006480047FEE7FEE7FEE7FEE7FEE7FEE75C
:1001B000FEE7FEE7FEE7FEE7891A0008890100086E
:1001C00040EA01039B0703D009E008C9121F08C0D9
:1001D000042AFAD203E011F8013B00F8013B521E59
:1001E000F9D27047421C10F8011B0029FBD1801A7C
:1001F000704700F0004230F000400AD0C10D01F518
:100200006071C0F3160042EA0151C2084007114371
:10021000704700200146704730B50B46014600206C
:100220002022012409E021FA02F59D4205D303FAB8
:1002300002F5491B04FA02F52844151EA2F1010239
:10024000F1DC30BD2DE9F05F0546002092469B466B
:1002500088460646814640241BE0284641464746DC
:10026000224600F0FAF953465A46C01A914110D37B
:1002700011461846224600F0E1F92D1A67EB0108F5
:100280004F4622460120002100F0D8F917EB000963
:100290004E41201EA4F10104DFDC484631462A46C7
:1002A0004346BDE8F09F2DE9FE4F804681EA0300FA
:1002B000C00F0C46009021F0004123F00045B8EB40
:1002C0000200A94105D24046214690461C460B46F5
:1002D000024623F00040104347D0270DC7F30A0021
:1002E000C3F30A510290401A019040286BDAC3F31D
:1002F000130040F4801B0098924620B10023D2EBFB
:10030000030A63EB0B0B01985946C0F140025046BB
:1003100000F094F906460D4650465946019A00F001
:10032000ACF910EB08006141002487EA115284EA1D
:10033000E7731A4340D0009A62B3019A012A4FEA48
:10034000075215DC001B61EB02014FF0004202EA8C
:100350000752CDE90042001C41F5801132462B4680
:1003600000F0ACF903B0BDE8F08F40462146F9E754
:10037000001B61EB0201001C41F5801300185B417A
:100380002018A2F5001747EB030140EAD570B61913
:100390006D4111E06D084FEA360645EAC0754FEA37
:1003A0000752001B61EB0201001C41F58011490856
:1003B0004FEA30000019514132462B4603B0BDE8E8
:1003C000F04F00F06CB90098012240000023D0EB00
:1003D000020263EBE073009821464FEAE074B8EB49
:1003E000000061EB0401E9E783F000435BE781F083
:1003F000004158E72DE9FE4F81EA030404F0004470
:1004000021F0004100944FF0000B23F0004350EA2C
:1004100001045ED052EA03045BD0C3F30A54C1F373
:100420000A552C44A4F2F3340194A0FB0254C1F306
:10043000130141F48011C3F3130343F4801301FB50
:10044000024400FB034E840A970A44EA815447EAB7
:100450008357A4FB076802958D0A05FB07854FEAC1
:10046000932C04FB0C542705029D4FEA065847EADB
:100470001637B5EB08056EEB070C870E920E47EAB0
:10048000811742EA8312A7FB0201B6EB0B0164EB72
:1004900000042B0D43EA0C335E1844EB1C50DA4683
:1004A0005146E7FB0201C5F313044FEA0B3343EA5D
:1004B00014534FEA0432019C43EA0603A4F10C04EE
:1004C0000294009CCDE900B400F0F8F803B0BDE858
:1004D000F08F00200146F9E72DE9F04D81EA030491
:1004E00004F0004B21F0004514464FF0000A23F0C1
:1004F000004150EA050220D054EA01021DD0C5F3A4
:100500000A570246C5F31303C1F31300C1F30A5699
:1005100040F4801543F48013A7EB0608101BD64661
:1005200008F2FD3873EB050002D308F1010801E081
:1005300092185B41B8F1000F03DA00200146BDE8D4
:10054000F08D00204FF48011064684460EE0171B04
:1005500073EB050705D3121B63EB050306434CEA57
:10056000010C49084FEA300092185B4150EA01073C
:10057000EDD152EA030012D082EA040083EA0501B9
:10058000084305D0101BAB4106D20122002306E030
:1005900000224FF0004302E06FF0010253101AEB0B
:1005A00006004CEB085110EB0A0041EB0B01BDE8D3
:1005B000F04D00F074B8C1F30A52C1F3130140F2D8
:1005C000FF3341F480119A4202DA0020014670475D
:1005D00040F233439A42A2F2334202DC524200F02C
:1005E0003CB800F02BB8000030B5041E71F10004D7
:1005F00004DB4FF00044404264EB0101141E73F130
:10060000000405DB1C464FF00043524263EB040339
:10061000994208BF904230BD064C074D06E0E068A5
:1006200040F0010394E8070098471034AC42F6D339
:10063000FFF7AEFD2839000848390008202A04DBFE
:10064000203A00FA02F1002070479140C2F12003E5
:1006500020FA03F3194390407047202A04DB203A24
:1006600021FA02F00021704721FA02F3D040C2F1D2
:1006700020029140084319467047202A06DBCB1719
:10068000203A41FA02F043EAE07306E041FA02F34D
:10069000D040C2F12002914008431946704710B57E
:1006A000141E73F1000408DA401C41F10001921895
:1006B0005B411A4301D120F0010010BD2DE9F04D3E
:1006C00092469B4611B1B1FA81F202E0B0FA80F293
:1006D00020329046FFF7B2FF04460F4640EA0A0078
:1006E00041EA0B0153465A46084313D0114653EAD8
:1006F000010019D0C8F140025046FFF7AEFF054691
:100700000E46504659464246FFF798FF084305D02B
:10071000012004E020463946BDE8F08D0020054365
:1007200046EAE0762C4337430A986305E40AA0EBD7
:1007300008000022FD0A44EA47540A3002D500208E
:100740000146E9E7010510196941DDE9084500198D
:100750006941BDE8F04DA2E770B58C1810F8015B57
:1007600015F0070301D110F8013B2A1106D110F84A
:10077000012B03E010F8016B01F8016B5B1EF9D14E
:100780002B0705D40023521E0DD401F8013BFAE7D4
:1007900010F8013BCB1A921C03E013F8015B01F83F
:1007A000015B521EF9D5A142D8D3002070BDFEE7EF
:1007B000002070470020704710B5084C0648002202
:1007C0000749606001F05AFA05496068403901F054
:1007D0004FFA002010BD0000880200201C010020FC
:1007E000C801002010B50B4C094B027821785A54EF
:1007F000491CC9B22170402901D100212170014654
:10080000606801F035FA606801F016FA002010BD4A
:10081000080200201C01002070B50D460A4606465D
:1008200001460A48FFF7CCFC094C6068D0F8181262
:10083000D1F8141209B1012070BD2A46314601F0E9
:100840001DFA6068BDE8704001F058BAC801002088
:100850001C010020FEE731B500F0E8F8044600F086
:10086000E5F80099001B8842F9D338BD2DE9F84F0F
:10087000DFF888B100224FF001084FF0030A4FF073
:100880000F090BF1040E00BF0B6808FA02F42340B5
:10089000A3426ED14D68022D01D0122D0ED1D50884
:1008A00000EB850CDCF820505607F70E09FA07F626
:1008B000B5430E69BE402E43CCF820600668550053
:1008C0000F790AFA05FC07F0030726EA0C06AF4089
:1008D000374307604E68012E05D0022E03D0112E3B
:1008E00001D0122E0ED18668CF6826EA0C06AF40E2
:1008F000374387604668A6430C79C4F300149440DC
:1009000034434460C4688E6824EA0C04AE40264335
:10091000C6604C68E4006AD5394C256845F48045CA
:100920002560246822F0030504F480440094354CCB
:100930002E19D6F8084895072F0F09FA07F5AC438A
:10094000314DA84201D1002529E0304DA84201D106
:10095000012524E02E4DA84201D102251FE02D4D96
:10096000A84201D103251AE02B4DA84202D104254B
:1009700015E03CE0294DA84201D105250FE0284DA6
:10098000A84201D106250AE0264DA84201D107253B
:1009900005E0254DA84201D1082500E00925BD400C
:1009A0002543C6F80858DBF800405D464E689C4376
:1009B000F60300D51C432C60DEF8004075464E68F7
:1009C0009C43B60300D51C432C600C4D08352C68A5
:1009D0004E689C43F60200D51C432C60074D0C3535
:1009E0002C684E689C43B60200D51C432C60521CF8
:1009F000102AFFF449AFBDE8F88F0000003C014029
:100A0000443802400030014000000240000402402F
:100A100000080240000C0240001002400014024096
:100A200000180240001C02400020024001480068FB
:100A3000704700001801002002480168491C01604D
:100A400070470000180100200B4810B5016841F400
:100A500000710160016841F480610160016841F446
:100A600080710160032000F067F8002000F006F8B4
:100A700000F015F8002010BD003C024010B50446FF
:100A800000F04EFD4FF47A71B0FBF1F000F019FF69
:100A900000222146501E00F02FF8002010BD10B596
:100AA000032000F049F8002211466FF00B0000F01F
:100AB00023F8002211466FF00A0000F01DF8002212
:100AC00011466FF0090000F017F800221146101FC0
:100AD00000F012F80022BDE810401146501E00F050
:100AE0000BB800F01F02012191404009800000F185
:100AF000E020C0F800117047F0B40E4B1B680C46A4
:100B0000C3F30223C3F10705042D00D90425191DE1
:100B1000072901D2002300E0DB1E012606FA05F1B9
:100B2000491E214099409E40761E16403143F0BC3C
:100B300000F0FEBE0CED00E0064900F00702086878
:100B40004FF6FF03184040EA0220034A10430860B2
:100B5000704700000CED00E00000FA0500684162FB
:100B600000207047F0B500680023446A31B1856AFF
:100B70004FF4827604EB15444D1E0AE044EA02412C
:100B800081620FE006EB8307C7595B1C04EB174437
:100B9000DBB2AB42F6D34FF4807303EB810144EA3E
:100BA000024242500020F0BDD0F8B40301F0BCBABC
:100BB000C1EBC10200EB8202D0F8B403526C01F029
:100BC00029BAC1EBC10200EB8202D0F8B403D2F81B
:100BD000E82101F074BAD0F8B40301F0A7BA10B557
:100BE00004460A460B0601F07F00C0EBC00104EB8F
:100BF000810101D5383101E001F5EE710870D009AD
:100C0000487094F88003012809D0012084F88003FB
:100C1000206801F087FD002084F8800310BD0220C9
:100C200010BD70B50A460446090602F07F0005D5DE
:100C3000C0EBC00104EB8101383105E0C2EBC20119
:100C400004EB810101F5EE7100258D700870D0096B
:100C5000487094F88003012809D0012084F88003AB
:100C6000206801F016FF84F88053002070BD022038
:100C700070BD01F07F01C1EBC10100EB8100B0F854
:100C8000F40180B2704770B504460D460E0601F0BF
:100C90007F00C0EBC00104EB810101D5383101E0D8
:100CA00001F5EE71ED0908704D708A60CB7000D0CF
:100CB000C8800025022B00D10D7194F88003012813
:100CC00009D0012084F88003206801F07FFC2846C9
:100CD00084F8805370BD022070BD000070B50446DA
:100CE0000E4601F07F00C0EBC00104EB810100253E
:100CF000C1F8E821C1E97C3581F8DD5181F8DC01DA
:100D0000206901F5EE71012800D10A6194F8800391
:100D100001280DD0012084F880037006227C206811
:100D200008D001F017FF00BF84F88053002070BD89
:100D3000022070BD01F0EEFDF6E770B50D460446E9
:100D4000090605F07F0005D5C0EBC00104EB810169
:100D5000383105E0C5EBC50104EB810101F5EE7109
:100D600001228A700870E809487094F8800301280D
:100D700007D084F88023206801F0BDFE680602D009
:100D800007E0022070BD217C04F56172206801F04B
:100D900061FE002084F8800370BD70B504460E46E5
:100DA00001F07F00C0EBC00104EB810100254A6423
:100DB000C1E91335012381F8393001F8380F206972
:100DC000012800D10A6194F8800301280BD084F82F
:100DD00080337006227C206807D001F0BBFE84F8C7
:100DE0008053002070BD022070BD01F093FDF6E736
:100DF0002DE9F84F044600680026054601F0FEFF85
:100E0000002875D1206802F022F8002870D02068F0
:100E100002F01DF8800704D52068416901F0020145
:100E20004161206802F013F8010304F561704FF08E
:100E3000010B4FF0000A00904DD5206801F0E9FF4A
:100E4000074646E0F80742D0F1B2206801F0F7FF0C
:100E50008046C00728D005EB4611C1F808BB2069C1
:100E6000012811D1C6EBC60004EB8000D1F8101B9D
:100E7000D0F8E421C1F31201511AC0F8F411D0F8EE
:100E8000E8111144C0F8E811F1B22046FFF799FECD
:100E90002069012808D13EB9D4F8F00120B92068B2
:100EA0000121009A01F0D6FD5FEA087007D52046BF
:100EB00000F062FA05EB46110820C1F8080B5FEA62
:100EC000C86004D505EB46111020C1F8080B7F0857
:100ED000761C002FB6D1206801F0B9FF40034FF017
:100EE00040095ED5206801F08DFF0746002656E0D8
:100EF0007BE1F80751D0F1B2206801F091FF804604
:100F0000C00724D0D5F834180BFA06F08143C5F891
:100F1000341805EB4610C0F808B92069012807D13C
:100F2000C6EBC60004EB8000D0E9102111444164F7
:100F3000F1B22046FFF73CFE2069012807D136B9FF
:100F4000E06C20B920680121009A01F083FD5FEA7E
:100F5000087004D505EB46110820C1F808095FEABE
:100F6000C86004D505EB46111020C1F808095FEAF6
:100F7000486003D505EB4611C1F808995FEA88700F
:100F800004D505EB46110220C1F808095FEA0860A4
:100F900003D53146204600F0E1FC7F08761C002F87
:100FA000A7D1206801F053FF00280DDAD5F8040816
:100FB00020F00100C5F80408204600F0C3F92068BD
:100FC000416901F000414161206801F040FF0005E6
:100FD0000BD5D5F80808C00702D0204600F0E8F984
:100FE0002068416901F400614161206801F02FFF30
:100FF000C0044CD5D5F8040820F00100C5F8040859
:101000000021206801F0CAFE0020FF2107E000BF98
:1010100005EB4012C2F80819C2F8081B401C6268B0
:101020008242F5D84FF0FF30C5F81808D5F81C08F3
:1010300040F00110C5F81C08206B60B1D5F8840899
:1010400040F00B00C5F88408D5F8440840F00B00C8
:10105000C5F844080BE0D5F8140840F00B00C5F8BB
:101060001408D5F8100840F00B00C5F81008D5F8A2
:10107000000820F4FE60C5F80008217C2068009A72
:1010800001F0E8FC2068416901F480514161206869
:1010900001F0DDFE80041CD5206801F0D7FA20683D
:1010A000C16821F47051C160206801F089FE58B315
:1010B0000320C4F81490E0602068C16841F4A05196
:1010C000C160204600F02EF92068416901F400510A
:1010D0004161206801F0BBFEC00640D520688169EF
:1010E00021F010018161D5F8208008F00F00C0EBDD
:1010F000C00004EB8007C8F3434007F5EE770228F1
:101100000CD006281CD025E04FF40070C4F80CA0C9
:1011100060612068C16841F41051D1E747F6F07171
:1011200018EA010F16D0C8F30A1290462846F9684B
:1011300001F091FEF8684044F860B869404408E066
:1011400008222846009901F086FEB969C8F30A1002
:101150000844B8612068816941F01001816120680C
:1011600001F075FE000707D5204600F0EFF8206873
:10117000416901F008014161206801F068FEC00288
:1011800008D5F1B2204600F032F82068416901F438
:1011900080114161206801F05AFE800208D5F1B249
:1011A000204600F028F82068416901F400114161EF
:1011B000206801F04CFE400007D52046FFF7F4FC04
:1011C0002068416901F080414161206801F03FFEE3
:1011D00040070AD520684568680702D52046FFF712
:1011E000FAFC2068416829434160BDE8F88FD0F8D7
:1011F000B40300F0E9BFD0F8B40300F0E7BF00008B
:10120000F0B58BB004004FF0000556D0032084F8F1
:101210008103204600F054F8206801F075FB04F1CA
:10122000100128220F466846FEF7CAFF94E80F0017
:1012300001F026FA0021206801F01DFE01260020A1
:10124000C5EBC50104EB810181F8396001F8385F15
:10125000CD80C8708860C8606D1C48610F2DEFD3C9
:1012600000214FF4827300BFC1EBC10204EB820284
:1012700003EB810582F8DD0182F8DC11D18782F869
:10128000DF01C2F8E401C2F8E801C2F8F001226807
:101290005051491C0F29E7D3282239466846FEF7EA
:1012A0008FFF94E80F0001F08DFA84F881632068C5
:1012B00001F07BFA00200BB0F0BD0120FBE700003D
:1012C00000B5006887B0B0F1A04F25D14FF4C050F1
:1012D00000900220019000200290032003900A2039
:1012E000049069460D48FFF7C1FA0D48016841F0C6
:1012F000800101600A481030016841F480410160BA
:101300000068002200F48040059011464320FFF75A
:10131000F3FB4320FFF7E5FB07B000BD00000240F0
:101320003438024010B50446C068012100B90021DC
:10133000D4F8B40300F08EFFD4F8B403BDE8104035
:1013400000F057BFD0F8B40300F072BFD0F8B40378
:1013500000F074BF10B5044690F88003012809D04E
:10136000012084F88003206801F09BFD002084F8B0
:10137000800310BD022010BDD0F8B42300F56171C8
:10138000104600F071BF10B5044690F880030128A4
:101390000CD0012084F88003206801F0FAF920685D
:1013A00001F0E6FC002084F8800310BD022010BD8F
:1013B00010B50446D0F8B40300F091FF2068D0F8CF
:1013C000001E41F00101C0F8001E206A002804D070
:1013D0000248016841F00601016010BD10ED00E017
:1013E0002DE9F047DFF830A105460F46DAF8000096
:1013F00000F00F01F8B28146B94208D201468AF8DE
:101400000010DAF8000000F00F00B8426AD1287826
:10141000424C800705D52068A96820F0F0000843F9
:1014200020602878C0074FD03C49686808390128F7
:1014300019D002281AD0032818D009688907002972
:1014400050DA216821F0030101432160FFF7EEFA31
:101450000646686841F28838012810D002281AD060
:1014600003281ED02CE009688903E8E70968890190
:10147000E5E700BFFFF7DAFA811B41451DD8206878
:10148000C0F381000128F5D11EE000BFFFF7CEFABE
:10149000811B414511D82068C0F381000228F5D195
:1014A00012E02068FFF7C2FA801B4045F9D904E03A
:1014B000FFF7BCFA811B414502D90320BDE8F08744
:1014C000206810F00C0FF3D1DAF80010504601F04C
:1014D0000F01B94208D980F80090006800F00F00B1
:1014E000B84201D00120E9E72878400705D52068F7
:1014F000E96820F4E050084320602878000706D50A
:101500002068296920F4604040EAC1002060002082
:10151000FFF7B4FA0020D1E7003C0240083802404F
:1015200010B500F017F808490968F02292FAA2F203
:1015300001F0F001B2FA82F2D140044A515CC84095
:101540000349086010BD000008380240183900083F
:101550007C01002030B51948006810F00C011848D3
:1015600012D0441004290ED008290DD11349091FA7
:101570000A6802F03F030A68550247F6C07204D5B4
:10158000B4FBF3F003E0204630BDB0FBF3F00B6892
:101590000968134092FAA2F2B2FA82F2D340584399
:1015A0004FF4403292FAA2F201F44031B2FA82F2E0
:1015B000D140491C4900B0FBF1F030BD0838024071
:1015C0000024F4002DE9F84F0446DFF8CC820078BF
:1015D000A8F1040BC007ABF1040537D0D8F8001010
:1015E0004046C1F38101012908D00068C0F38100A1
:1015F00002280AD1DBF80000400206D528688003E3
:1016000024D56068002878D020E0A3492079891F7C
:101610000870606868B1FFF709FA064605E000BF88
:10162000FFF704FA801B642868D828688003F7D580
:101630000CE0FFF7FBF9064605E000BFFFF7F6F9FF
:10164000801B6428F0D828688003F7D42078934E54
:1016500080074FF0010A4FF0000742D5D8F800107C
:10166000404611F00C0F08D00068C0F3810002283A
:101670000AD1DBF80000400206D42868800714D5A0
:10168000E068012839D110E0E068D8B1C6F800A0C0
:10169000FFF7CCF9814605E0FFF7C8F9A0EB090098
:1016A0000228C1D828688007F6D52868F82292FA5F
:1016B000A2F22169B2FA82F220F0F80091400843C8
:1016C00028600EE03760FFF7B1F9814606E000BF01
:1016D000FFF7ACF9A0EB090002280FD828688007B3
:1016E000F6D42078000728D56D486169A1B1C0F80B
:1016F00000A0FFF79BF9814608E0CAE079E000BF4F
:10170000FFF794F9A0EB0900022872D862486C3008
:1017100000688007F4D510E00760FFF787F981467D
:1017200006E000BFFFF782F9A0EB0900022860D8AD
:1017300059486C3000688007F4D42078400749D5B8
:1017400055483830016841F080510160006800F070
:10175000805000905348016841F480710160FFF7A8
:1017600065F9814606E000BFFFF760F9A0EB0900CC
:1017700002283ED84B480068C005F5D5DFF818911F
:10178000207A09F1680989F80000A06888B1FFF79C
:101790004DF9009008E000BFFFF748F90099411AA1
:1017A00041F2883081426CD8D9F800008007F3D527
:1017B00010E0FFF73BF9009008E000BFFFF736F9B3
:1017C0000099411A41F2883081425AD8D9F8000074
:1017D0008007F3D4A069E0B3D8F80010C1F3810109
:1017E000022956D00228376604D0FFF71FF90446B5
:1017F0004AE046E0FFF71AF9074604E0FFF716F95A
:10180000C01B02283DD828688001F7D4D4E907011D
:10181000084347F6C07292FAA2F2616AB2FA82F203
:101820009140A26A4FF0FF3303EB52024FF4403372
:1018300093FAA3F3B3FA83F39A40114308434FF0AA
:10184000706292FAA2F2E16AB2FA82F2914008431F
:1018500000E01CE0CBF80000C6F860A0FFF7E6F857
:10186000044604E0FFF7E2F8001B022809D82868C4
:101870008001F7D50BE000BFFFF7D8F8001B022866
:1018800002D90320BDE8F88F28688001F4D4002035
:10189000F8E70120F6E70000083802400000474260
:1018A000800E4742007000404FF0E0210428086994
:1018B00003D020F004000861704740F00400FAE70C
:1018C000704710B5401EB0F1807F01D3012010BDDC
:1018D0004FF0E02460610F21601700F029F800202C
:1018E000A06107202061002010BD10B5FFF7E8FFC0
:1018F00010BDFEE710B500220849094800F067FB5B
:101900000849074800F00FFD0749054800F0A8F90D
:10191000BDE81040024800F053BD0000480100201F
:1019200088020020DC00002024010020FEE7704730
:101930000907090E002806DA00F00F0000F1E02088
:1019400080F8141D704700F1E02080F80014704703
:101950000148FFF74DBA0000AC0400202DE9F84F14
:101960000F46C1EBC70100EB810582460668D5E949
:101970001301441A286C3835A04200D20446E01CFA
:101980004FEA900806EB471916E0441AA868A042EF
:1019900000D20446E01C4FEA90089AF8100000902C
:1019A000A3B2FAB23046E96801F08CFAE868204444
:1019B000E860A8692044A861D9F8180980B24045B8
:1019C00005D9D5E90501814201D20028DDD134B91C
:1019D0000120D6F83418B8408143C6F834180020E6
:1019E000BDE8F88F10B5FFF727F8BDE81040FFF706
:1019F0007CBF000030B5224893B00025016841F05B
:101A000080510160006800F0805011901D4801680D
:101A100041F4804101600068022400F4804011908C
:101A20000120009001908005CDE906400820089033
:101A30004FF4A870CDE9090407200B906846FFF722
:101A4000C1FD0CA90F2081E831004FF4A0500F9088
:101A5000109005210CA8FFF7C3FCFFF761FD4FF4C0
:101A60007A71B0FBF1F0FFF72CFF0420FFF71CFFA9
:101A700000221146501EFFF73FF813B030BD0000A2
:101A800040380240007000401048016841F4700185
:101A900001600F48016841F0010101600C4A00211A
:101AA0000832116002680B4B1A400260031D0A4A9B
:101AB0001A60026822F48022026005480C3001603E
:101AC00002495806803908607047000088ED00E040
:101AD00000380240FFFFF6FE10300024D0F8180254
:101AE00020B10021C0F81412084670470220704748
:101AF00070B50546D0F8184200F023FBC4F80C027C
:101B0000D5F8180248B1D5F81C12D4F80402CA68F6
:101B100004F503719047002070BD022070BD70B5C0
:101B200004460025812100F06EFA0121204600F0D4
:101B30006AFA8221204600F066FAD4F8180250B101
:101B4000D4F81C0204F5067440688047206801F050
:101B500041FE00202060284670BD10B5D0E98641C6
:101B600059B194F80002FF2807D08B6894F801223D
:101B700021469847FF2084F80002002010BD000095
:101B80000A210180004870470400002043210180A1
:101B900000487047540000204321018000487047EE
:101BA0001000002043210180004870479800002069
:101BB0002DE9F0410446007C00254FF4007670B317
:101BC000402302228121204600F002FB4023022212
:101BD0000121204600F0FCFA08230322822120463E
:101BE00000F0F6FA4FF4077001F060FEC4F8180236
:101BF000F0B10746D4F81C02006880470020C7F8FF
:101C00001402C7F81802207CD7F8042290B14023B0
:101C10000121204600F0E6FA2846BDE8F081FFE702
:101C2000334602228121204600F0D2FA3346CEE725
:101C30000125F1E73346EBE710B5D0F8181269B18A
:101C4000027C002AD1F8042205D04023012100F0B3
:101C5000C9FA002010BD4FF40073F7E7022010BD51
:101C600002460220002902D00020C2F81C12704750
:101C7000D0F81802C0F8041200207047D0F81802FB
:101C8000C0F81022C0F808120020704770B5064650
:101C9000D0F8185208780C4610F0600121D02029A5
:101CA00027D1E288AAB10006607807D5D6F81C12C1
:101CB0008B6829469847E288294617E085F8000294
:101CC000A07985F80102E2882946304600F050F8F4
:101CD0000FE0D6F81C12607800228B6821469847E6
:101CE00007E060780A2804D103490122304600F059
:101CF00059F8002070BD00000000002010B5D0F899
:101D0000181289B1D1F814220AB1012010BD0122A4
:101D1000C1F81422B1F8102293B2D1F8082281211F
:101D200000F0E6FA002010BD022010BD10B5D0F87A
:101D3000142252689047002010BD134610B50A4681
:101D4000002100F04FFA002010BD134610B50A46DE
:101D5000002100F0CDFA002010BD10B5044680210E
:101D600000F0AFFA2046BDE81040002100F0A9BA0B
:101D700010B50323C0F80821C0F8F431C0F80C21D5
:101D800013460A46002100F02DFA002010BD10B5C0
:101D900005210023C0F8F4111A46194600F022FA72
:101DA000002010BD10B502238261C0F8F431C26179
:101DB00013460A46002100F09BFA002010BD10B522
:101DC00004210023C0F8F4111A46194600F090FAD5
:101DD000002010BD10B50A46024903A000F0D4F857
:101DE000004810BD6408002043444320436F6E66E2
:101DF00069670000122008800048704768010020D1
:101E000010B50A46024903A000F0BEF8004810BD14
:101E10006408002043444320496E74657266616320
:101E2000650000000420088000487047640100201D
:101E300010B50A46024903A000F0A6F8004810BDFC
:101E40006408002053544D6963726F656C65637458
:101E5000726F6E696373000010B50A46024903A0F1
:101E600000F092F8004810BD6408002053544D3330
:101E700032205669727475616C20436F6D506F72B9
:101E80007400000010B50A46024903A000F07CF877
:101E9000004810BD64080020303030303030303021
:101EA0003030314100000000F8B5044648880D4646
:101EB000010A08294BD2DFE801F04A0409174A4A0F
:101EC0004048D4F81012207C0A6832E0207C0226B8
:101ED0000028D4F8140205D0C16A68468847014634
:101EE000467041E0816AF8E7C0B206282FD2DFE8E9
:101EF00000F003080D12171CD4F81012207C4A6859
:101F000017E0D4F81012207C8A6812E0D4F810127E
:101F1000207CCA680DE0D4F81012207C0A6908E021
:101F2000D4F81012207C4A6903E0D4F81012207C07
:101F30008A6969469047014616E0207C38B9D4F892
:101F40001402416B68468847F5E7207C20B129469A
:101F50002046FFF702FFF8BDD4F81402016B684673
:101F60008847014607204870BDF800000028F2D0DD
:101F7000EA88002AEFD0824200D90246ADF800205C
:101F80002046FFF70FFFF8BD70B5002300281DD0D5
:101F90000446002502E06D1CEDB2641C2678002E7C
:101FA000F9D1022404EB45041480CC545B1C0322B9
:101FB000CA5400245B1C06E0CA545B1CDAB28C5481
:101FC000521CD3B2401C0278002AF5D170BD10B566
:101FD00080B1D0F8143213B10023C0F8143209B123
:101FE000C0F81012012180F8FC11027000F0AEF868
:101FF000002010BD022010BD10B5D0F82002FEF761
:1020000010FE002010BD10B5D0F82002FEF7E7FD4D
:10201000002010BD2DE9F0411746044641B1D4F827
:10202000140242698AB394F8FC01032842D043E0C9
:10203000D4F8F411002504F11400022933D1D0E9B9
:1020400002639E4207D9F31A83609AB2394620464A
:10205000FFF77BFE12E04068B0FBF3F103FB1101D8
:10206000A1B9984212D3D4F8F81188420ED20022B6
:1020700011462046FFF769FEC4F8F85100231A46BE
:102080001946204600F0AEF80DE012E0D4F8140234
:10209000C16829B194F8FC01032801D12046884782
:1020A0002046FFF774FE94F80002012804D184F85A
:1020B000005201E0204690470020BDE8F08170B555
:1020C0001546044641B1D4F8140282693AB394F833
:1020D000FC01032824D025E0D4F8F41104F5827023
:1020E00003291FD1D0E902218A420BD9531A8360F8
:1020F0000846834200D303469AB229462046FFF79A
:102100001CFE0FE0D4F81402016929B194F8FC0117
:10211000032801D1204688472046FFF750FE01E002
:1021200020469047002070BD0020704710B5012167
:1021300080F8FC11D0F814220179526890470020F1
:1021400010BDD0F82002FEF794BD000010B5017854
:1021500031BB14490222C1F8B403C0F820124FF079
:10216000A0400860072048600020C1E90320C1E9C1
:102170000502C861086201224862C1E90B200846D5
:10218000FFF73EF880210748FEF7E8FC40220021D7
:102190000448FEF7E7FC802201210248FEF7E2FC3A
:1021A000002010BDAC0400200A0601F07F01D0F829
:1021B0002002C1EBC10100EB810002D590F83A008A
:1021C000704790F8DE01704700207047002070478C
:1021D00010B51C461346D0F820022246FEF753FDE8
:1021E000002010BD10B5D0F82002FEF777FD0020CA
:1021F00010BD70B50022044640231146FFF7E8FFEA
:1022000040252B46002280212046C4F81051FFF7BC
:10221000DFFF0120256284F8FC01D4F8180228B100
:10222000D4F814022179426820469047002070BDFE
:1022300090F8FD1180F8FC110020704710B590F85F
:10224000FC11032904D1D0F81412C96901B18847DF
:10225000002010BD01740020704710B5D0F8200296
:10226000FFF778F8002010BD70B5044600F5027045
:10227000054600F044F80120C4F8F401B4F80E0259
:10228000C4F8F80194F8080210F01F010AD00129DF
:102290000DD0022910D000F08001204600F011F886
:1022A000002070BD2946204600F08FF8F8E7294647
:1022B000204600F071F9F3E72946204600F0FEF8C9
:1022C000EEE710B5D0F82002FEF737FD002010BD74
:1022D00010B5D0F82002FFF756F8002010BD90F896
:1022E000FC1180F8FD11042180F8FC1100207047DA
:1022F00010B5D0F82002FEF750FD002010BD0A787E
:1023000002704A7842708A78CB7802EB03224280CE
:102310000A794B7902EB032282808A79C97902EB30
:102320000121C18070470246002011B1C2F8141289
:1023300070470220704710B5D0F8142202241AB159
:102340001268904700B90024204610BD70B50E46B3
:102350001A4D897804462970012928D894F8FC017F
:10236000022802D0032822D105E099B10320616040
:1023700084F8FC0109E091B1606888420AD0C1B2DA
:102380002046FFF7D3FC297861602046FFF7D3FF92
:1023900002280CD02046BDE87040FFF710BD022097
:1023A00084F8FC0120466160FFF7C0FCF2E731468B
:1023B0002046BDE87040FFF7D0BC000014010020AB
:1023C00010B5FFF785FF002010BD2DE9F041002674
:1023D0004B78012532460A2B43D2DFE803F03C5804
:1023E0004251420805422A27FFF75EFD63E004469A
:1023F0008888C8B9C888B8B9887800F07F0794F889
:10240000FC01032810D084F8FE7139462046FFF7FE
:1024100024FF2046FFF7D3FC1FB1022084F8FC0103
:1024200049E084F8FC5146E020461AE0FFF78EFFB1
:1024300041E0CB88012B14D190F8FC31022B02D063
:10244000032B0ED104E08260012200F1080114E0A8
:102450000122011D11E090F8FC21022A04D0032A78
:1024600002D0FFF77AFC26E0C560D0F8041209B16B
:102470000321C160022200F10C01FFF793FC1AE076
:1024800004464888012816D1C4F804520BE00446DB
:1024900090F8FC01022801D00328C5D14888012802
:1024A00009D1C4F80422D4F8140282682046904767
:1024B0002046FFF784FC3046BDE8F08170B50D463C
:1024C0000446287800260979C0F34110012806D077
:1024D0006878A0B301281FD003283FD107E0D4F8C3
:1024E00014022946826820469047002070BD94F867
:1024F000FC01022817D003282CD1688828B921B103
:10250000802902D02046FFF7DCFED4F814022946C9
:1025100082682046904713E094F8FC01022802D01C
:10252000032817D103E0C9B180291BD116E06888C0
:10253000A0B9480604D02046FFF75EFDE5E703E0BA
:102540002046FFF73CFC09E094F8FC01022807D084
:1025500003280BD029462046FFF7FFFB304670BD0D
:102560004806FBD02046FFF7ACFEF7E7080601F06F
:102570007F0004EB001501D5143501E005F58275E7
:102580002046FFF711FE00B10120286002222946F3
:102590002046FFF707FCE1E770B5054690F8FC011F
:1025A0000C4603280DD1207901280AD8D5F8140249
:1025B000826828469047E08830B92846FFF7FFFB3D
:1025C00002E02846FFF7C9FB002070BD30B54C780B
:1025D0001D4B01220D78AA40012CD0F81C4818D0C0
:1025E00044EA0242C0F81C280A7800EB4210D0F8F6
:1025F000002B12040BD4D0F8002B0C89C4F30A046E
:102600002243C97843EA81410A43C0F8002B0020E5
:1026100030BD92B21443C0F81C480C7800EB441053
:10262000D0F800291204F2D4D0F800290D89C5F39E
:102630000A052A43C978890441EA84510A431A43A6
:10264000C0F80029E3E7000000800010D0F800196E
:102650006FF30A01C0F80019D0F80818C1F341015E
:10266000022905D1D0F8001941F00301C0F8001982
:10267000D0F8041841F48071C0F8041800207047A5
:1026800070B50446049D06990D9801290CD0E068A8
:1026900040F04000E060204600F028F84FF4803021
:1026A000A063012D16D01DE0A16B21F48031A16340
:1026B000E1680D4A1140E160E16821F44011E160F8
:1026C000012803D1E06840F48010E060204600F06B
:1026D0000DF8E6E7A06840F00C00A060A06840F0AC
:1026E0002000A060002070BDBFFFBDFF01220C498B
:1026F00002E0521C8A420BD80369002BF9DA026906
:1027000042F001020261012204E0521C8A4201D916
:10271000032070470369DB07F7D1002070470000F2
:10272000400D030030B54D7801220C7802FA04F315
:10273000012DD0F83C4816D024EA0343C0F83C38B9
:10274000D0F81C380C78A24023EA0242C0F81C28BA
:10275000097800EB4110D0F8001B21F40041C0F8CB
:10276000001B002030BD9BB29C43C0F83C48D0F811
:102770001C380C78A24092B29343C0F81C380978F8
:1027800000EB4110D0F8001921F40041C0F8001905
:10279000E7E710B5D0F8041821F00201C0F80418DA
:1027A0000320FEF758F8002010BD10B5D0F804182B
:1027B00041F00201C0F804180320FEF74CF8002095
:1027C00010BD00002DE9F0470E460446DDE90A0A77
:1027D0000025DDF83C80089FA16B41F40021A16336
:1027E000B8F1000F03D1A16B41F40011A1634FF0C8
:1027F0000009C4F8009ED4F80018C4F80018012895
:1028000004D0D4F8000840F0030004E0D4F8000835
:102810000BB140F00100C4F800081021204600F080
:10282000BDFA204600F0AAFA4846C4F81098C4F849
:1028300014984FF0FF31C4F81818C4F81C984FF0E2
:10284000904CFF2310E000BF04EB4511D1F80029A4
:10285000002A02DAC1F800C901E0C1F80009C1F894
:102860001009C1F808396D1CAE42EDD800210FE007
:1028700004EB4112D2F8005B002D02DAC2F800CB63
:1028800001E0C2F8000BC2F8100BC2F8083B491C6B
:102890008E42EDD8D4F8101821F48071C4F81018C5
:1028A000012F0AD11449C4F83018D4F83018134A4B
:1028B0001143C4F83018D4F83018A0616FF080408C
:1028C00060611FB9A06940F01000A061A0690C49C7
:1028D0000843A061BAF1000F03D0A06940F00800DE
:1028E000A061B8F1010F03D1A06906490843A061B6
:1028F0000020BDE8F0870000000180000300010017
:1029000000383C8004000040816821F001018160B2
:102910000020704730B54D784D4C0B7800EB4313D9
:10292000012D28D0D3F8105B6FF31205C3F8105BAC
:102930000B7800EB4313D3F8105B2540C3F8105B12
:102940004B690BB18B684B610B7800EB4313D3F8E9
:10295000104B44F40024C3F8104B0B7800EB4313E6
:10296000D3F8104B8D68C5F312052C43C3F8104BF8
:10297000012A5CD061E04D69002DD3F810593BD09D
:102980006FF31205C3F810590B7800EB4313D3F81B
:1029900010592540C3F810594C698B689C4200D9E6
:1029A0004B610B7800EB4313D3F8104944F4002437
:1029B000C3F810490B7800EB4313D3F810494D6965
:1029C000C5F3120554EA0504C3F81049012A27D0BB
:1029D0004A693AB1D0F834280C780123A3401A434D
:1029E000C0F83428097800EB4110D0F8001941F004
:1029F0000441C0F8001929E02540C3F810590B78AC
:102A000000EB4313D3F8104944F40024C3F81049F1
:102A10000B7800EB4313D3F810496FF31204D3E79C
:102A20000B7800EB43130A69C3F81429DAE70B7833
:102A300000EB4313CA68C3F8142B097800EB41106C
:102A4000D0F8001B41F00441C0F8001B002030BD4D
:102A5000FFFF07E00023C0F8103BD0F8103B43F421
:102A60000023C0F8103BD0F8103B43F01803C0F827
:102A7000103BD0F8103B43F0C043C0F8103B012995
:102A800005D1C0F8142B4FF08021C0F8001B0020A6
:102A900070474B780A7800EB4212012B0BD0D2F82A
:102AA000003B23F40013C2F8003BCA78032A17D076
:102AB000022A15D01DE0D2F8003923F40013C2F821
:102AC0000039CA78032A01D0022A12D1097800EB12
:102AD0004110D0F8001941F08051C0F8001908E009
:102AE000097800EB4110D0F8001B41F08051C0F88C
:102AF000001B002070474B780A7800EB4212012B34
:102B000014D0D2F8003B002B05DBD2F8003B23F0B9
:102B10008043C2F8003B097800EB4110D0F8001B5D
:102B200041F40011C0F8001B00207047D2F80039B2
:102B3000002B05DBD2F8003923F08043C2F80039BE
:102B4000097800EB4110D0F8001941F40011C0F8E9
:102B50000019E9E778B54E786FF06045834C0B7843
:102B600000EB4313012E2FD0D3F8106B6FF3120636
:102B7000C3F8106B0B7800EB4313D3F8106B2640AF
:102B8000C3F8106B4B69002B7DD08C6823445B1E0F
:102B9000B3FBF4F39BB20C7800EB4414D4F8106B45
:102BA00005EAC3452E43C4F8106B0C7800EB4414BF
:102BB000D4F8105B8E685E43C6F312031D43C4F85D
:102BC000105B012A73D0B2E04E6966B3D3F8106986
:102BD0006FF31206C3F810690B7800EB4313D3F8B8
:102BE00010692640C3F810694C698B681C44641E48
:102BF000B4FBF3F305EAC3440B7800EB4313D3F8BB
:102C000010592C43C3F810490B7800EB4313D3F849
:102C100010494D69C5F312052C43C3F81049CB7810
:102C2000012B16D027E0D3F810592540C3F81059CE
:102C30000B7800EB4313D3F8104944F40024C3F895
:102C400010490B7800EB4313D3F810496FF31204CB
:102C50000FE00B7800EB4313D3F8104924F0C04485
:102C6000C3F810490B7800EB4313D3F8104944F034
:102C70000054C3F81049012A12D0CB78012B17D089
:102C80004B692BB300E037E0D0F834380D780124DD
:102C9000AC402343C0F83438CB78012B08D017E080
:102CA0000C7800EB44140B69C4F81439F4E738E0ED
:102CB000D0F80838DB050B7800EB4313D3F8004954
:102CC00002D444F0005401E044F08054C3F80049B9
:102CD0000B7800EB4313D3F8004944F00444C3F8E5
:102CE0000049CB78012B3ED100928A8A93B20A78B0
:102CF000C96800F0E7F836E00B7800EB4313D3F82F
:102D0000104B8D68C5F312052C43C3F8104B0B789C
:102D100000EB4313D3F8104B44F40024C3F8104BDA
:102D20004FE70B7800EB4313CA68C3F8142BCA783B
:102D3000012A0FD1D0F80828D2050A7800EB4212F8
:102D4000D2F8003B02D443F0005301E043F080533B
:102D5000C2F8003B097800EB4110D0F8001B41F0AD
:102D60000441C0F8001B002078BD0000FFFF07E011
:102D7000816841F00101816000207047002110222C
:102D80000261054A491C914201D903207047036939
:102D9000DB06F7D400207047400D030000222023FB
:102DA00043EA811101610549521C8A4201D903207D
:102DB000704703699B06F7D400207047400D03005D
:102DC0000021D0F8082812F0060F15D0D0F80828F6
:102DD000C2F34102012A0CD0D0F80828C2F3410204
:102DE000032A06D0D0F80808C0F34100022802D018
:102DF00002E0032100E0022108467047406900F02C
:102E000001007047D0F81818D0F81C08084080B2AC
:102E10007047D0F81818D0F81C080840000C70470C
:102E2000D0F81038D0F83428CA4002F0010243EA42
:102E3000C21200EB4110D0F808091040704700EBB7
:102E40004111D1F8081BD0F81408084070474169B7
:102E500080690840704710B503460020D21C9208D4
:102E600003F5805303E01C6841F8044B401C90427A
:102E7000F9D3084610BD10B5C26822F0C042C26046
:102E8000012901D021B107E0C16841F0005102E001
:102E9000C16841F08041C1603220FDF7DCFC0020B8
:102EA00010BDD0F8002822F4FE62C0F80028D0F847
:102EB00000284FF4FE6303EA01110A43C0F800281A
:102EC0000020704730B50024039D6DB9DB1C9B08C2
:102ED00000EB023000F5805004E000BF51F8042BF5
:102EE0000260641C9C42F9D3002030BDFEE7000064
:102EF0000FB4084B10B504A902AA039800F0CEF84D
:102F0000044602A9002000F060FC204610BC5DF8D9
:102F100014FB0000CB37000802E008C8121F08C1EC
:102F2000002AFAD170477047002001E001C1121F4A
:102F3000002AFBD1704700002DE9FF5FDDE9022088
:102F4000010DDDF838B0024318D044F61050A1F25C
:102F5000FF3141430D140F98012820D0A5EB0B0041
:102F6000401C5FEA000A4FF00004474EDFF81C9156
:102F7000A046504616D5CAF1000728E00F98012454
:102F800043A2012808D0002100980F9BC0E900212E
:102F9000C0E90243BDE8FF9F6FEA0B01F4E7CBF104
:102FA0000000DEE7074612E0F80707D02246334666
:102FB00040464946FDF71EFA80468946224633467A
:102FC00010461946FDF716FA04460E467F10002FEC
:102FD000EAD1DDE90201BAF1000F42464B4602DABE
:102FE000FDF708FA01E0FDF777FA04460E460022E5
:102FF000284BFDF7F9FA03D84FF0FF30014607E000
:103000000022254B20463146FDF74DF9FDF7D3FA56
:10301000102409E0002C0ADB0A220023FDF712F934
:10302000019B30321A55641E50EA0102F2D1641C31
:10303000019AC4F1110314440F9A012A03D001220A
:1030400008430DD10AE0084304D000204FF0110BD3
:103050000F9080E7A3EB0B056D1E0DE05B4504DDD3
:103060004FF0000205F1010504E003DA4FF0000221
:10307000A5F10105002AECD000980F99C0E90231B2
:10308000C0E9004586E70000000024400000F03F52
:10309000300000000000F0430000E03F2DE9FF4F4A
:1030A00095B09B468946064600250FE2252877D134
:1030B00000242746F84A0121059400E0044316F84D
:1030C000013F203B01FA03F01042F7D130782A2863
:1030D00011D06FF02F033078A0F13002092A16D8F2
:1030E000059A44F0020402EB820203EB4202104410
:1030F000761C0590EFE759F8042B0592002A03DAB5
:10310000504244F40054059044F00204761C307898
:103110002E2816D116F8010F44F004042A280DD0E9
:103120006FF02F023078A0F13003092B09D807EB9C
:10313000870302EB4303C718761CF3E759F8047BB7
:10314000761C30786C280FD006DC4C2817D0682805
:103150000DD06A2814D104E0742810D07A280FD139
:103160000DE044F400140AE044F4801401E044F457
:1031700040147278824202D104F58014761C761CC9
:10318000307866280BD013DC582877D009DC00286B
:1031900075D04528F6D04628F4D047281AD19DE1AD
:1031A00018E0632835D0642879D0652812D195E1DC
:1031B000702873D008DC6728F1D069286FD06E289A
:1031C0000DD06F2806D1B5E073282CD0752875D0A6
:1031D000782874D05A46179990476D1C75E1C4F34E
:1031E0000250022809D003280DD0D9F80010042875
:1031F0000DD00D6009F1040967E1D9F80010EA1754
:10320000C1E90052F6E7D9F800100D80F2E70D7021
:10321000F0E719F8041B8DF8001000208DF801006C
:10322000EA46012003E059F804AB4FF0FF30610794
:103230004FF0000102D40DE008F101018846B942C7
:103240000FDA8045F8DB1AF808100029F4D108E0FD
:1032500008F1010188468142FADB1AF808100029BA
:10326000F6D105985B46A0EB080721463846179A29
:1032700000F094FA284400EB080507E04DE029E14E
:103280000DE01AF8010B5A4617999047B8F101085A
:10329000F7D25B4621463846179A13E142E00A22EC
:1032A0000092C4F302524FF0000A022A08D059F8E3
:1032B00004CB032A4FEAEC710AD00DE029E02AE0A2
:1032C00009F1070121F00702F2E802C1914609E085
:1032D0000FFA8CFC4FEAEC71042A03D14FFA8CFCF4
:1032E0004FEAEC71002907DA0A460021DCF1000CF4
:1032F00061EB02012D2202E0220504D52B228DF87C
:103300000420012203E0E20701D02022F7E79046E3
:1033100059E00A2102E010220DE010214FF0000ACE
:1033200000910BE010224FF0000A44F0040408273B
:10333000009203E008224FF0000A0092C4F3025208
:10334000022A05D059F804CB0021032A08D009E04D
:1033500009F1070121F00702F2E802C1914605E0F8
:103360001FFA8CFC042A01D10CF0FF0C4FF000086E
:10337000220728D5702806D0009B83F0100353EA5B
:103380000A0305D00EE040228DF80420012208E057
:103390005CEA010206D030228DF804208DF8050089
:1033A00002229046009B83F0080353EA0A030AD1E5
:1033B0005CEA010201D1620705D530228DF80420B4
:1033C0004FF001087F1E582804D034A003900EA8A7
:1033D00002900DE036A0F9E753466046009AFCF7EC
:1033E00031FF84460398825C0298401E029002706E
:1033F0005CEA0100F0D1029806A9081A00F1200A3F
:10340000600702D524F4803400E00127574502DD2F
:10341000A7EB0A0000E0002000EB0A0100900598ED
:103420004144401A0590E00306D45B462146179AB2
:10343000059800F0B3F90544002706E001A85A46B4
:10344000C05D179990476D1C7F1C4745F6DBE00374
:103450000CD55B462146179A059800F09FF9054464
:1034600004E030205A46179990476D1C0099481E79
:1034700000900029F5DC08E0029802995A4600788D
:10348000491C0291179990476D1CBAF10001AAF1ED
:10349000010AF1DC65E10000092801003031323316
:1034A0003435363738396162636465660000000080
:1034B000303132333435363738394142434445466A
:1034C0000000000000F058F90544761C3078002810
:1034D0007FF4ECAD19B02846BDE8F08F620700D448
:1034E000062709F1070222F0070CFCE80223E14657
:1034F00003F000485FEA080C02D00FF2702C0DE0D8
:103500005FEA045C02D50FF2682C07E05FEAC47C36
:1035100002D00FF2602C01E0AFF2700C4FF0FF38D8
:1035200023F00043CDF850C065280CD006DC4528B8
:1035300009D046281DD047283DD13DE0662818D047
:1035400067287ED138E00021112F01DB112000E037
:10355000781CCDE9000106A90EA8FFF7EDFCDDE916
:103560000F010E9A03910021009207F1010A0491C4
:103570004DE04FF000400097CDE9011006A90EA8DC
:10358000FFF7DAFCDDE90F0203920E9B119900228E
:10359000DDF80CA00093049211B9791C00EB010A2C
:1035A000B7EB0A0004D4C0F1FF3007F1010A049020
:1035B000AAEB0700019044E0012F00DA0127002167
:1035C000112F01DD112000E03846CDE9000106A9E8
:1035D0000EA8FFF7B1FCDDE90F010E9A039100215F
:1035E00004910092BA4621070CD40399514500DAA0
:1035F0008A46BAF1010F05DD009AAAF10101515C7A
:10360000302908D0B84202DA10F1040F06DA01219D
:10361000CDE9011015E0AAF10101E9E7002805DC78
:10362000049901440491AAEB000102E0411C5145B8
:1036300000DD8A460499401A401C01904FF000407A
:103640000290200704D40198504501DBCDF8048096
:1036500000208DF84F0002980DF14F07B0F1004F98
:1036600025D02B200E9002984FF0020800280CDA8B
:10367000404202902D200E9007E00A210298FCF7AC
:10368000CBFD3031029007F8011DB8F10001A8F11F
:103690000108F2DC02980028EFD1791E0E9808701C
:1036A000307800F0200040F0450007F8020D12A825
:1036B000C01B00F107081498007800B1012000EB4E
:1036C0000A01019801EBE07105984144401A401E3F
:1036D0000590E00306D45B462146179A059800F052
:1036E0005DF805441498007818B15A461799904728
:1036F0006D1CE00324D55B462146179A059800F01F
:103700004DF805441CE00498002807DBDDE90301BF
:10371000884203DD0098405C179901E0179930203A
:103720005A469047049805F10105401C0490019801
:10373000401E019004D12E205A46179990476D1CC7
:10374000BAF10001AAF1010ADDDC05E017F8010B6E
:103750005A46179990476D1CB8F10001A8F101086D
:10376000F4DC5B462146179A0598ABE62D00000075
:103770002B000000200000002DE9F0410446002548
:103780001E461746880404D405E039462020B04779
:103790006D1C641EF9D52846BDE8F0812DE9F04185
:1037A000044600251E469046C80301D5302700E098
:1037B0002027880404D505E041463846B0476D1CF3
:1037C000641EF9D52846BDE8F0810A68531C0B60D9
:1037D0001070704710B5002821D0114B0022001F37
:1037E000196803E0814203D80A4649680029F9D1E3
:1037F00052B11368841A9C4204D1006818441060C6
:10380000104602E0506000E0186039B102680B1AFF
:10381000934203D10B681A4402604968416010BDAD
:103820008001002008B5FDF70FF9FEF7E3F81A480C
:10383000016841F080010160016801F080010091A0
:10384000016841F001010160006800F00100009092
:10385000FEF750F8114C4FF47A751048001DFCF734
:10386000C1FC81B20D48001DFCF7D6FF2068FCF7B3
:10387000C0FC41EC100B0AA153EC102B0A48FFF7D7
:1038800037FB0948FCF7AEFC81B20748FCF7C4FFE0
:103890002846FCF7E0FFE0E7303802403401002022
:1038A00025302E336600000048020020F0B50B30B2
:1038B000154D20F007010024144A0FE003688B42E5
:1038C0000BD38B4205D95E1A43184768C3E90067DA
:1038D00000E04368136002C004E0021D1068002885
:1038E000ECD12046002802D1286808B10020F0BDA4
:1038F000064A07481060074A121A22F00702C0E978
:10390000002401202860D7E78401002080010020E6
:103910006C0A0020680C0020000000000102030473
:1039200001020304060708094839000800000020C6
:1039300088010000580700081C3A00088801002090
:10394000E00E0000282F000841130A06320233401F
:10395000011409024313020125C03209041B0102AC
:103960000B1305241610010524011009010424027B
:103970000205240617010705820308151009040132
:1039800033020A1D07050102432C07058107093888
:10399000442A40072A8107112B0907440A220444BC
:1039A0000A16FF4413B11B1B081F04138D1C420889
:1039B0001A5B0C13DD1A1B08F104C12A992419049F
:1039C0001AA5041A8104011013B9071B08B5041ABB
:1039D000B1041AE5041014BC74133C48656C6C6F98
:1039E00020776F726C642121210D13F51D140825B9
:1039F0001E1B0831041A59041A85041AD5141A0119
:103A0000081E0403090412A31302021E408304408B
:0C3A100057D9340203019324F400000095
:040000050800018965
:00000001FF
