:020000040800F2
:10000000180500209D010008A7120008CB11000868
:10001000A5120008E5010008B51600080000000060
:10002000000000000000000000000000AF01000818
:100030004502000800000000B3010008BD150008DB
:10004000B7010008B7010008B7010008B7010008B0
:10005000B7010008B7010008B7010008B7010008A0
:10006000B7010008B7010008B7010008E90100085E
:10007000B7010008B7010008B7010008B701000880
:10008000B7010008B7010008B7010008B701000870
:10009000B7010008B7010008B7010008B701000860
:1000A000B7010008B7010008B7010008B701000850
:1000B000B7010008B7010008B7010008B701000840
:1000C000B7010008B7010008B7010008B701000830
:1000D000C9120008B7010008B7010008B7010008FD
:1000E000B7010008B7010008B7010008B701000810
:1000F000B7010008B7010008B7010008B701000800
:10010000B7010008B7010008B7010008D5120008C0
:10011000B7010008B7010008B7010008B7010008DF
:10012000B7010008B7010008B7010008B7010008CF
:10013000B7010008B7010008B7010008B7010008BF
:10014000B7010008B7010008B7010008B7010008AF
:10015000B7010008B7010008B7010008B70100089F
:10016000B7010008B7010008B7010008B70100088F
:10017000B7010008B7010008B7010008000000003F
:10018000B7010008B7010008DFF80CD000F018F83C
:1001900000480047D516000818050020064880478B
:1001A00006480047FEE7FEE7FEE7FEE7FEE7FEE75C
:1001B000FEE7FEE7FEE7FEE761160008890100089A
:1001C000064C074D06E0E06840F0010394E80700A4
:1001D00098471034AC42F6D3FFF7DAFF70170008E7
:1001E00090170008FEE70000014800F02DB800005D
:1001F000BC00002001681823CAB2103AB2FBF3F227
:10020000054B6FF30901032A9B5C436500D9091D67
:1002100001650846704700005817000830B50468AB
:10022000256825F480252560046863608368402B79
:10023000036803D099600068C26030BD9A600068AE
:10024000C16030BDFEE700002DE9F041056D0446B8
:10025000296890F85420082000FA02F211424FF069
:1002600004074FF0000617D021680A68520713D51B
:100270000A6822F004020A6094F854108840A860CA
:10028000E06C40F00100E06484F8357084F834607C
:10029000A16C09B120468847296894F85420514838
:1002A00000FA02F2114217D021684A69120613D5EA
:1002B0004A6922F080024A6194F854108840A8608C
:1002C000E06C40F00200E06484F8357084F834603B
:1002D000A16C09B1204688472968424894F8542007
:1002E000C01C00FA02F2114217D021680A68920776
:1002F00013D50A6822F002020A6094F8541088406C
:10030000A860E06C40F00400E06484F8357084F884
:100310003460A16C09B1204688472A6894F85410CB
:10032000102000FA01F31A421BD021680A68120754
:1003300017D50A6857034FF0310228D5AB60206803
:100340000168090303D400BF84F8352005E0006884
:10035000000302D5412084F83500216C09B1204604
:1003600088472B6894F85410202000FA01F21342B9
:1003700036D021680B68DB0632D50B685B031CD5D1
:10038000AA602068016809030DD4616C0FE00B6856
:10039000DB0503D40B6823F008030B6094F85410BA
:1003A0008840A860D0E70068000319D5E16B0029F8
:1003B00016D02046BDE8F04108470A68D20503D4AC
:1003C0000A6822F010020A6094F854108840A8606D
:1003D000E06CE064112084F8350084F83460E5E7CF
:1003E000BDE8F0810100800070B504001AD0022041
:1003F000636A84F835002268116818480140D4E91E
:1004000001052843D4E90356354328436569284349
:10041000A5692843E5692843256A28430843042B36
:1004200002D005E0012070BDD4E90B131943084345
:10043000106022685069616A20F0070008430429AF
:1004400001D1A16A084350612046FFF7D3FE002086
:10045000E064012084F83500002070BD3F8010F07A
:1004600070B5044690F8340001281ED0012084F8AD
:100470003400022084F835002068056825F0010565
:1004800005602046FFF7CAFE2068016841F01E01A2
:1004900001602068416941F0800141612068016884
:1004A00041F001010160002070BD022070BD31B536
:1004B00000F0EEF8044600F0EBF80099001B8842CB
:1004C000F9D338BD2DE9F84FDFF888B100224FF09D
:1004D00001084FF0030A4FF00F090BF1040E00BFA3
:1004E0000B6808FA02F42340A3426ED14D68022D36
:1004F00001D0122D0ED1D50800EB850CDCF8205070
:100500005607F70E09FA07F6B5430E69BE402E43AB
:10051000CCF82060066855000F790AFA05FC07F050
:10052000030726EA0C06AF40374307604E68012EEA
:1005300005D0022E03D0112E01D0122E0ED18668C6
:10054000CF6826EA0C06AF40374387604668A6436B
:100550000C79C4F30014944034434460C4688E683A
:1005600024EA0C04AE402643C6604C68E4006AD519
:10057000394C256845F480452560246822F0030540
:1005800004F480440094354C2E19D6F80848950799
:100590002F0F09FA07F5AC43314DA84201D10025D0
:1005A00029E0304DA84201D1012524E02E4DA8427A
:1005B00001D102251FE02D4DA84201D103251AE0EB
:1005C0002B4DA84202D1042515E03CE0294DA8425C
:1005D00001D105250FE0284DA84201D106250AE0EA
:1005E000264DA84201D1072505E0254DA84201D19D
:1005F000082500E00925BD402543C6F80858DBF86A
:1006000000405D464E689C43F60300D51C432C60B9
:10061000DEF8004075464E689C43B60300D51C4387
:100620002C600C4D08352C684E689C43F60200D5B2
:100630001C432C60074D0C352C684E689C43B60259
:1006400000D51C432C60521C102AFFF449AFBDE8B2
:10065000F88F0000003C0140443802400030014067
:10066000000002400004024000080240000C02406A
:10067000001002400014024000180240001C02401A
:10068000002002400AB1816170470904FBE70000C5
:10069000014800687047000004000020024801681B
:1006A000491C016070470000040000200B4810B591
:1006B000016841F400710160016841F480610160EA
:1006C000016841F480710160032000F067F80020A8
:1006D00000F006F800F015F8002010BD003C0240C4
:1006E00010B5044600F00CF94FF47A71B0FBF1F04C
:1006F00000F053FD00222146501E00F02FF800208C
:1007000010BD10B5032000F049F8002211466FF02B
:100710000B0000F023F8002211466FF00A0000F0F1
:100720001DF8002211466FF0090000F017F80022B2
:100730001146101F00F012F80022BDE810401146CB
:10074000501E00F00BB800F01F020121914040093B
:10075000800000F1E020C0F800117047F0B40E4BAB
:100760001B680C46C3F30223C3F10705042D00D90F
:100770000425191D072901D2002300E0DB1E0126F4
:1007800006FA05F1491E214099409E40761E16400A
:100790003143F0BC00F088BD0CED00E0064900F0EC
:1007A000070208684FF6FF03184040EA0220034A98
:1007B00010430860704700000CED00E00000FA05EF
:1007C0002DE9F047DFF830A105460F46DAF80000C2
:1007D00000F00F01F8B28146B94208D201468AF80A
:1007E0000010DAF8000000F00F00B8426AD1287853
:1007F000424C800705D52068A96820F0F000084326
:1008000020602878C0074FD03C4968680839012823
:1008100019D002281AD0032818D00968890700299E
:1008200050DA216821F0030101432160FFF730FF16
:100830000646686841F28838012810D002281AD08C
:1008400003281ED02CE009688903E8E709688901BC
:10085000E5E700BFFFF71CFF811B41451DD820685D
:10086000C0F381000128F5D11EE000BFFFF710FFA3
:10087000811B414511D82068C0F381000228F5D1C1
:1008800012E02068FFF704FF801B4045F9D904E01F
:10089000FFF7FEFE811B414502D90320BDE8F0872A
:1008A000206810F00C0FF3D1DAF80010504601F078
:1008B0000F01B94208D980F80090006800F00F00DD
:1008C000B84201D00120E9E72878400705D5206823
:1008D000E96820F4E050084320602878000706D536
:1008E0002068296920F4604040EAC10020600020AF
:1008F000FFF7F6FE0020D1E7003C02400838024036
:1009000010B500F017F808490968F02292FAA2F22F
:1009100001F0F001B2FA82F2D140044A515CC840C1
:100920000349086010BD0000083802406017000845
:100930000000002030B51948006810F00C0118487C
:1009400012D0441004290ED008290DD11349091FD3
:100950000A6802F03F030A68550247F6C07204D5E0
:10096000B4FBF3F003E0204630BDB0FBF3F00B68BE
:100970000968134092FAA2F2B2FA82F2D3405843C5
:100980004FF4403292FAA2F201F44031B2FA82F20C
:10099000D140491C4900B0FBF1F030BD083802409D
:1009A0000024F4002DE9F84F0446DFF8CC820078EB
:1009B000A8F1040BC007ABF1040537D0D8F800103C
:1009C0004046C1F38101012908D00068C0F38100CD
:1009D00002280AD1DBF80000400206D5286880030F
:1009E00024D56068002878D020E0A3492079891FA9
:1009F0000870606868B1FFF74BFE064605E000BF6F
:100A0000FFF746FE801B642868D828688003F7D566
:100A10000CE0FFF73DFE064605E000BFFFF738FE9D
:100A2000801B6428F0D828688003F7D42078934E80
:100A300080074FF0010A4FF0000742D5D8F80010A8
:100A4000404611F00C0F08D00068C0F38100022866
:100A50000AD1DBF80000400206D42868800714D5CC
:100A6000E068012839D110E0E068D8B1C6F800A0EC
:100A7000FFF70EFE814605E0FFF70AFEA0EB090036
:100A80000228C1D828688007F6D52868F82292FA8B
:100A9000A2F22169B2FA82F220F0F80091400843F4
:100AA00028600EE03760FFF7F3FD814606E000BFE7
:100AB000FFF7EEFDA0EB090002280FD82868800799
:100AC000F6D42078000728D56D486169A1B1C0F837
:100AD00000A0FFF7DDFD814608E0CAE079E000BF35
:100AE000FFF7D6FDA0EB0900022872D862486C30EF
:100AF00000688007F4D510E00760FFF7C9FD814664
:100B000006E000BFFFF7C4FDA0EB0900022860D893
:100B100059486C3000688007F4D42078400749D5E4
:100B200055483830016841F080510160006800F09C
:100B3000805000905348016841F480710160FFF7D4
:100B4000A7FD814606E000BFFFF7A2FDA0EB09006C
:100B500002283ED84B480068C005F5D5DFF818914B
:100B6000207A09F1680989F80000A06888B1FFF7C8
:100B70008FFD009008E000BFFFF78AFD0099411A41
:100B800041F2883081426CD8D9F800008007F3D553
:100B900010E0FFF77DFD009008E000BFFFF778FD53
:100BA0000099411A41F2883081425AD8D9F80000A0
:100BB0008007F3D4A069E0B3D8F80010C1F3810135
:100BC000022956D00228376604D0FFF761FD04469B
:100BD0004AE046E0FFF75CFD074604E0FFF758FDFA
:100BE000C01B02283DD828688001F7D4D4E907014A
:100BF000084347F6C07292FAA2F2616AB2FA82F230
:100C00009140A26A4FF0FF3303EB52024FF440339E
:100C100093FAA3F3B3FA83F39A40114308434FF0D6
:100C2000706292FAA2F2E16AB2FA82F2914008434B
:100C300000E01CE0CBF80000C6F860A0FFF728FD3C
:100C4000044604E0FFF724FD001B022809D82868A9
:100C50008001F7D50BE000BFFFF71AFD001B02284B
:100C600002D90320BDE8F88F28688001F4D4002061
:100C7000F8E70120F6E7000008380240000047428C
:100C8000800E474200700040704738B502685368D4
:100C900091684C0605D4CC0703D05C0601D5016CE5
:100CA00004E08C0706D51C0604D5416C01B0BDE8F4
:100CB0003040084711F4B07F2DD09B062BD54B0652
:100CC0000AD590F85130032B25D0436D43F004032F
:100CD0004365D368936800938B0609D5436D43F051
:100CE0000103436593680093136823F04003136086
:100CF000C90506D5416D41F0080141650168896863
:100D0000009101684A6822F0E0024A60012180F8FF
:100D10005110FFF7B9FF38BD70B5040004D094F846
:100D20005100002510B106E0012070BD84F850503C
:100D3000204600F037F8022084F85100206801684E
:100D400021F040010160D4E901010843D4E9031214
:100D50001143084361690843218B01F40071084382
:100D6000E1690843216A0843A16A084321680860D1
:100D7000A069042101EA1040616A084321684860C3
:100D8000A06AB0F5005F02D12168E06A08612068BE
:100D9000C16921F40061C1616565012084F85100D9
:100DA000002070BD2DE9F0470746374A016800244E
:100DB000364802250326DFF8D8A086B04FF48069B4
:100DC000914222D1016841F480410160006802AA89
:100DD00000F4804005900C20CDE90005052782E84D
:100DE000D00069465046FFF76DFB02AA694682E8CB
:100DF000D000CDE900952748FFF764FB002211469B
:100E00002420FFF7ABFC242039E0234A914238D15B
:100E1000016841F400410160006802AA00F400404A
:100E200005901020CDE900054FF0060882E850013A
:100E300069461A48FFF746FB4FF4E050CDE900053C
:100E400002AA694682E850015046FFF73BFB154D68
:100E50001348C5E90004AC60C5E9034980156C611D
:100E6000C5E906402C6228466C62FFF7BDFAFD64B6
:100E7000002211463320AF63FFF770FC3320FFF7E9
:100E800062FC06B0BDE8F087003800404038024000
:100E90000008024000040240003C00400000024004
:100EA00010600240BC0000202DE9F04104460026FD
:100EB0008068042318B96568B5F5827F0DD094F871
:100EC0005050012D12D0012584F8505094F85170E3
:100ED0000025012F0DD002264EE084F85130204627
:100EE000BDE8F04113460A4600F052B80220BDE8C2
:100EF000F08171B16AB184F851306565A163A28750
:100F0000E28725646564A586E586B0F5004F02D0CA
:100F100006E0012630E02068016821F4804101608C
:100F2000A06AB0F5005F0AD1206801684DF6FF7233
:100F3000114001602068016841F400510160E16CDA
:100F40000F480864E16C0F48C863E16C0E48886480
:100F50002168E38F0C31A26BE06CFFF781FA206807
:100F60000168490603D4016841F04001016020682E
:100F7000416841F00101416084F850503046B6E7C5
:100F800093130008A71300087113000870477047F7
:100F90002DE9F041044690F85000002601280CD0BD
:100FA000012084F8500094F85100002501280FD04A
:100FB0006068B0F5827F09D102E00220BDE8F081CF
:100FC000A06818B994F85100042801D0022657E00F
:100FD00031B12AB123B194F85100012802D004E0C4
:100FE00001264DE0052084F8510065652163A38644
:100FF000E386A263A387E38725646564A06AB0F5EE
:10100000005F0AD1206801684DF6FF72114001604F
:101010002068016841F40051016094F851000428EF
:1010200032D0E16C1B4808641B48E16C1B4FC8635D
:10103000E06C87642168E38F0C31A26BE06CFFF7F2
:101040000FFA2068416841F001014160A06C05641D
:10105000A06CC563A06C87642268E38E0C32216BA0
:10106000A06CFFF7FDF920680168490603D4016808
:1010700041F0400101602068416841F00201416097
:1010800084F85050304699E7E16C054808640548FB
:10109000CBE700009D130008371400087113000807
:1010A00093130008A713000830B590F850300024BF
:1010B000012B0BD0012380F85030002341B13AB10D
:1010C00090F85150012D05D002243CE0022030BDA3
:1010D000012438E0032580F851504365016382867E
:1010E000C28683638387C3870364C16809B11949D2
:1010F00000E0194941648168B1F5004F04D10168ED
:101100000A6842F480420A60816AB1F5005F0AD140
:1011100001680A684DF6FF752A400A6001680A688E
:1011200042F400520A608168002901684A680ED0C2
:1011300042F0A0024A6001680A68520603D40A68B5
:1011400042F040020A6080F85030204630BD42F044
:101150008002EFE7CF140008011500080549006878
:101160000968884204D1012240210348FFF78ABA66
:10117000704700000C0000200008024070477047D4
:101180004FF0E0210428086903D020F00400086132
:10119000704740F00400FAE7704710B5401EB0F108
:1011A000807F01D3012010BD4FF0E02460610F214A
:1011B000601700F079F80020A0610720206100206E
:1011C00010BD10B5FFF7E8FF10BDFEE730B51B48B6
:1011D00087B00024016841F080010160016801F0DE
:1011E00080010591016841F004010160016801F08E
:1011F00004010591016841F001010160016801F0FD
:1012000001010591016841F00201016000680C4D87
:1012100000F002000590012240212846FFF732FA33
:10122000402000900120CDE901040320039069468D
:101230002846FFF747F907B030BD000030380240BC
:10124000000802400B480A494FF4007201604FF455
:101250008271416000218160C1600161C0E90512B5
:10126000C1610162416281620A21C162FFF754BD1E
:10127000003800400C0000200948084901600021A6
:1012800041608160C16001614161816101624162CF
:1012900081620A21C162FFF73FBD0000003C0040AF
:1012A00064000020FEE770470907090E002806DAEF
:1012B00000F00F0000F1E02080F8141D704700F1ED
:1012C000E02080F8001470470148FFF7DEBC000002
:1012D0000C0000200148FFF7D8BC0000640000208B
:1012E00038B50B46009204460022802100F020F918
:1012F000002804D0606D40F020006065032038BDF8
:101300004168B1F5827F0BD18168B1F5004F02D001
:10131000B1F5806F04D10068016821F040010160DF
:101320000020704738B50446FFF7B2F9024620683E
:10133000416821F0A001416064212046FFF7D0FF01
:1013400018B1606D40F020006065A06818B9206891
:10135000C16880680090012084F85100606D002809
:10136000204602D0FFF790FC38BDFFF7F7FE38BDEE
:1013700010B5806B01684A6822F003024A60416D33
:1013800041F010014165012180F85110FFF77CFC0C
:1013900010BD10B5806BFFF7FAFD10BD10B5806B66
:1013A000FFF7EDFE10BDF8B50026846B0546ADF8DD
:1013B0000060FFF76DF929680968C90537D4A16A8B
:1013C000B1F5005F11D1012200906423114620463F
:1013D00000F0AEF818B1606D40F002006065206862
:1013E000C068ADF80000BDF800002068416821F039
:1013F000030141602046FFF783FF18B1606D40F0A4
:1014000020006065E687012084F85100206881682B
:10141000C90606D5616D41F0020161654FF6EF71B5
:101420008160606D18B12046FFF72EFCF8BD2046A4
:10143000FFF7ACFDF8BDF8B50027846B0646ADF8A4
:101440000070FFF725F9054630680068C0053AD4FA
:10145000A06AB0F5005F11D1012264231146204635
:10146000009500F065F818B1606D40F0020060650D
:101470002068C068ADF80000BDF900002A4664216C
:101480002046FFF72DFF18B1606D40F02000606529
:101490002068416821F003014160E786E787012069
:1014A00084F8510020688168C90606D5616D41F055
:1014B000020161654FF6EF718160606D18B12046E1
:1014C000FFF7E2FBF8BD2046FFF758FEF8BD016BC1
:1014D00002680988D160016B891C0163C18E491EB5
:1014E0000904090CC1860AD1816AB1F5005F04D1F3
:1014F00001680A6842F480520A60FFF713BF704720
:10150000016B4A1C0263026809781173C18E491E7F
:101510000904090CC1860AD1816AB1F5005F04D1C2
:1015200001680A6842F480520A60FFF7FBBE704708
:101530002DE9F0411D4616460F460446DDF8188099
:1015400035E0681C33D02DB1FFF7A2F8A0EB0800FE
:10155000A8422CD32068416821F0E0014160606816
:10156000B0F5827F0BD1A068B0F5004F02D0B0F586
:10157000806F04D12068016821F040010160A06AF9
:10158000B0F5005F0AD1206801684DF6FF72114086
:1015900001602068016841F400510160012084F875
:1015A0005100002084F850000320BDE8F08120683D
:1015B00080683840B042C4D10020F6E710B5FFF78C
:1015C0006DF8BDE81040FFF7FCBD000030B52248C3
:1015D00093B00025016841F080510160006800F07F
:1015E000805011901D48016841F4804101600068FD
:1015F000022400F4804011900120009001908005A9
:10160000CDE90640082008904FF4A870CDE9090400
:1016100004200B906846FFF7C5F90CA90F2081E85C
:1016200031004FF4A0500F90109005210CA8FFF747
:10163000C7F8FFF765F94FF47A71B0FBF1F0FFF7E7
:10164000ACFD0420FFF79CFD00221146501EFFF761
:1016500085F813B030BD00004038024000700040F3
:101660001048016841F4700101600F48016841F0C1
:10167000010101600C4A00210832116002680B4B25
:101680001A400260031D0A4A1A60026822F480228E
:10169000026005480C300160024958068039086034
:1016A0007047000088ED00E000380240FFFFF6FEC2
:1016B00010300024FEE702E008C8121F08C1002A0B
:1016C000FAD170477047002001E001C1121F002AC3
:1016D000FBD1704708B5FEF7E9FFFFF777FFFFF78B
:1016E00075FD1948016841F400110160006800228D
:1016F00000F40010009011460B20FFF72FF80B208C
:10170000FFF721F8FFF79EFDFFF7B6FD01220F4915
:101710000F48FFF7C9FB0D4C0E4D641E4FF47A764F
:10172000002240212846FEF7ADFF08490848012263
:10173000491E5838FFF7B8FC3046FEF7B8FE21784E
:10174000491C2170ECE700003038024009000020FD
:101750006400002000080240000610160006101663
:101760000000000001020304010203040607080947
:1017700090170008000000200C000000B6160008BA
:101780009C1700080C0000200C050000C61600087D
:0C1790000024F400000000002000000015
:040000050800018965
:00000001FF
