:020000040800F2
:10000000900400209D010008250D0008210D000826
:10001000230D0008E501000805120008000000009B
:10002000000000000000000000000000AF01000818
:10003000E701000800000000B3010008470D0008B8
:10004000B7010008B7010008B7010008B7010008B0
:10005000B7010008B7010008B7010008B7010008A0
:10006000B7010008B7010008B7010008B701000890
:10007000B7010008B7010008B7010008B701000880
:10008000B7010008B7010008B7010008B701000870
:10009000B7010008B7010008B7010008B701000860
:1000A000B7010008B7010008B7010008B701000850
:1000B000B7010008B7010008B7010008B701000840
:1000C000B7010008B7010008B7010008B701000830
:1000D000B7010008B7010008ED110008F911000888
:1000E000B7010008B7010008B7010008B701000810
:1000F000B7010008B7010008B7010008B701000800
:10010000B7010008B7010008B7010008B7010008EF
:10011000B7010008B7010008B7010008B7010008DF
:10012000B7010008B7010008B7010008B7010008CF
:10013000B7010008B7010008B7010008B7010008BF
:10014000B7010008B7010008B7010008B7010008AF
:10015000B7010008B7010008B7010008B70100089F
:10016000B7010008B7010008B7010008B70100088F
:10017000B7010008B7010008B7010008000000003F
:10018000B7010008B7010008DFF80CD000F018F83C
:1001900000480047251200089004002006488047C8
:1001A00006480047FEE7FEE7FEE7FEE7FEE7FEE75C
:1001B000FEE7FEE7FEE7FEE7F10D00088901000813
:1001C000064C074D06E0E06840F0010394E80700A4
:1001D00098471034AC42F6D3FFF7DAFF0413000857
:1001E00024130008FEE7FEE731B500F0E9F8044605
:1001F00000F0E6F80099001B8842F9D338BD0000F2
:100200002DE9F84FDFF888B100224FF001084FF0D8
:10021000030A4FF00F090BF1040E00BF0B6808FA38
:1002200002F42340A3426ED14D68022D01D0122D5D
:100230000ED1D50800EB850CDCF820505607F70EE0
:1002400009FA07F6B5430E69BE402E43CCF820608C
:10025000066855000F790AFA05FC07F0030726EA3D
:100260000C06AF40374307604E68012E05D0022EC2
:1002700003D0112E01D0122E0ED18668CF6826EA47
:100280000C06AF40374387604668A6430C79C4F339
:100290000014944034434460C4688E6824EA0C041B
:1002A000AE402643C6604C68E4006AD5394C2568E8
:1002B00045F480452560246822F0030504F4804459
:1002C0000094354C2E19D6F8084895072F0F09FAD7
:1002D00007F5AC43314DA84201D1002529E0304D4E
:1002E000A84201D1012524E02E4DA84201D10225CA
:1002F0001FE02D4DA84201D103251AE02B4DA84245
:1003000002D1042515E03CE0294DA84201D1052584
:100310000FE0284DA84201D106250AE0264DA8424B
:1003200001D1072505E0254DA84201D1082500E0AF
:100330000925BD402543C6F80858DBF800405D4656
:100340004E689C43F60300D51C432C60DEF8004049
:1003500075464E689C43B60300D51C432C600C4D7B
:1003600008352C684E689C43F60200D51C432C606F
:10037000074D0C352C684E689C43B60200D51C43D3
:100380002C60521C102AFFF449AFBDE8F88F000022
:10039000003C01404438024000300140000002406F
:1003A0000004024000080240000C0240001002401D
:1003B0000014024000180240001C024000200240CD
:1003C00001480068704700000800002002480168EA
:1003D000491C016070470000080000200B4810B560
:1003E000016841F400710160016841F480610160BD
:1003F000016841F480710160032000F067F800207B
:1004000000F006F800F015F8002010BD003C024096
:1004100010B5044600F00CF94FF47A71B0FBF1F01E
:1004200000F003FB00222146501E00F02FF80020B0
:1004300010BD10B5032000F049F8002211466FF0FE
:100440000B0000F023F8002211466FF00A0000F0C4
:100450001DF8002211466FF0090000F017F8002285
:100460001146101F00F012F80022BDE8104011469E
:10047000501E00F00BB800F01F020121914040090E
:10048000800000F1E020C0F800117047F0B40E4B7E
:100490001B680C46C3F30223C3F10705042D00D9E2
:1004A0000425191D072901D2002300E0DB1E0126C7
:1004B00006FA05F1491E214099409E40761E1640DD
:1004C0003143F0BC00F02FBC0CED00E0064900F019
:1004D000070208684FF6FF03184040EA0220034A6B
:1004E00010430860704700000CED00E00000FA05C2
:1004F0002DE9F047DFF830A105460F46DAF8000095
:1005000000F00F01F8B28146B94208D201468AF8DC
:100510000010DAF8000000F00F00B8426AD1287825
:10052000424C800705D52068A96820F0F0000843F8
:1005300020602878C0074FD03C49686808390128F6
:1005400019D002281AD0032818D009688907002971
:1005500050DA216821F0030101432160FFF730FFE9
:100560000646686841F28838012810D002281AD05F
:1005700003281ED02CE009688903E8E7096889018F
:10058000E5E700BFFFF71CFF811B41451DD8206830
:10059000C0F381000128F5D11EE000BFFFF710FF76
:1005A000811B414511D82068C0F381000228F5D194
:1005B00012E02068FFF704FF801B4045F9D904E0F2
:1005C000FFF7FEFE811B414502D90320BDE8F087FD
:1005D000206810F00C0FF3D1DAF80010504601F04B
:1005E0000F01B94208D980F80090006800F00F00B0
:1005F000B84201D00120E9E72878400705D52068F6
:10060000E96820F4E050084320602878000706D508
:100610002068296920F4604040EAC1002060002081
:10062000FFF7F6FE0020D1E7003C02400838024008
:1006300010B500F043F808490968F02292FAA2F2D6
:1006400001F0F001B2FA82F2D140044A515CC84094
:100650000349086010BD000008380240F412000889
:100660000000002010B5FFF7E3FF074909684FF4C9
:10067000E05292FAA2F201F4E051B2FA82F2D140D1
:10068000024A515CC84010BD08380240F41200080C
:1006900010B5FFF7CDFF074909684FF4604292FAA1
:1006A000A2F201F46041B2FA82F2D140024A515CF6
:1006B000C84010BD08380240F412000830B519488F
:1006C000006810F00C01184812D0441004290ED014
:1006D00008290DD11349091F0A6802F03F030A686F
:1006E000550247F6C07204D5B4FBF3F003E0204690
:1006F00030BDB0FBF3F00B680968134092FAA2F228
:10070000B2FA82F2D34058434FF4403292FAA2F246
:1007100001F44031B2FA82F2D140491C4900B0FBE9
:10072000F1F030BD083802400024F4002DE9F84F04
:100730000446DFF8CC820078A8F1040BC007ABF1C7
:10074000040537D0D8F800104046C1F381010129D3
:1007500008D00068C0F3810002280AD1DBF800004D
:10076000400206D52868800324D56068002878D028
:1007700020E0A3492079891F0870606868B1FFF7FD
:100780001FFE064605E000BFFFF71AFE801B642827
:1007900068D828688003F7D50CE0FFF711FE0646FD
:1007A00005E000BFFFF70CFE801B6428F0D8286826
:1007B0008003F7D42078934E80074FF0010A4FF062
:1007C000000742D5D8F80010404611F00C0F08D0B1
:1007D0000068C0F3810002280AD1DBF80000400263
:1007E00006D42868800714D5E068012839D110E0C4
:1007F000E068D8B1C6F800A0FFF7E2FD814605E049
:10080000FFF7DEFDA0EB09000228C1D828688007A9
:10081000F6D52868F82292FAA2F22169B2FA82F299
:1008200020F0F8009140084328600EE03760FFF7A1
:10083000C7FD814606E000BFFFF7C2FDA0EB09003F
:1008400002280FD828688007F6D42078000728D51A
:100850006D486169A1B1C0F800A0FFF7B1FD814604
:1008600008E0CAE079E000BFFFF7AAFDA0EB0900AD
:10087000022872D862486C3000688007F4D510E016
:100880000760FFF79DFD814606E000BFFFF798FD7A
:10089000A0EB0900022860D859486C300068800736
:1008A000F4D42078400749D555483830016841F0E4
:1008B00080510160006800F080500090534801684A
:1008C00041F480710160FFF77BFD814606E000BFC7
:1008D000FFF776FDA0EB090002283ED84B480068E0
:1008E000C005F5D5DFF81891207A09F1680989F873
:1008F0000000A06888B1FFF763FD009008E000BF2A
:10090000FFF75EFD0099411A41F2883081426CD8B0
:10091000D9F800008007F3D510E0FFF751FD0090F3
:1009200008E000BFFFF74CFD0099411A41F2883002
:1009300081425AD8D9F800008007F3D4A069E0B307
:10094000D8F80010C1F38101022956D00228376679
:1009500004D0FFF735FD04464AE046E0FFF730FDDE
:10096000074604E0FFF72CFDC01B02283DD828688D
:100970008001F7D4D4E90701084347F6C07292FA20
:10098000A2F2616AB2FA82F29140A26A4FF0FF339A
:1009900003EB52024FF4403393FAA3F3B3FA83F319
:1009A0009A40114308434FF0706292FAA2F2E16A52
:1009B000B2FA82F29140084300E01CE0CBF800005C
:1009C000C6F860A0FFF7FCFC044604E0FFF7F8FC63
:1009D000001B022809D828688001F7D50BE000BF6A
:1009E000FFF7EEFC001B022802D90320BDE8F88FB8
:1009F00028688001F4D40020F8E70120F6E7000021
:100A00000838024000004742800E47420070004014
:100A10004FF0E0210428086903D020F004000861A9
:100A2000704740F00400FAE7704710B5401EB0F17F
:100A3000807F01D3012010BD4FF0E02460610F21C1
:100A4000601700F070F90020A061072020610020ED
:100A500010BD10B5FFF7E8FF10BD704738B504466C
:100A600000680168C26811F0010F02F4807207D0BB
:100A700032B1016841680091E16B41F00101E1632D
:100A800001684269C1F3400102F0010239B132B19B
:100A9000016841680091E16B41F00401E163016884
:100AA0004269C1F3800102F0010239B132B101683B
:100AB00041680091E16B41F00201E1630168426924
:100AC000C1F3C00102F0010239B132B101684168DD
:100AD0000091E16B41F00801E1630168C068C1F376
:100AE000401100F0200019B110B1204600F0AAF921
:100AF00021680868C968C0F3C01001F0800118B10E
:100B000011B1204600F040FB21680868CA68C0F3B4
:100B1000801002F04002202548B142B1CA68204648
:100B200022F04002CA6084F8395000F0F8F8E06B17
:100B3000002806D084F8395084F83A502046FFF750
:100B40008CFF38BD70B5040004D094F8390000253E
:100B500010B106E0012070BD84F83850204600F046
:100B600023F8242084F839002068C16821F400515A
:100B7000C160204600F0B2F92068016921F490417B
:100B800001612068416921F02A0141612068C16842
:100B900041F40051C160E563202084F8390084F8F5
:100BA0003A00002070BD000070B51E4E05681E485A
:100BB000022101220323072486B0B54215D105681E
:100BC00045F400350560006800F4003005900C2005
:100BD0008DE81F0069461548FFF712FB00221146F9
:100BE0002620FFF753FC262018E0114EB54217D1FE
:100BF000056845F480250560006800F480200590B4
:100C00004FF440608DE81F0069460A48FFF7F8FA84
:100C1000002211462720FFF739FC2720FFF72BFC85
:100C200006B070BD00440040403802400000024061
:100C3000004800400004024090F83A30202B25D1B3
:100C400011B30AB390F83830012B1FD0012380F87C
:100C5000383081628285C2850021C163222280F8FA
:100C60003A200268D36843F48073D3600268536902
:100C700043F00103536180F838100068C16841F007
:100C80002001C1600020704701207047022070479A
:100C900010B51149044600680968884204D1012250
:100CA0000E490D48FFF7C8FF0B492068403109681D
:100CB00088420FD1094908480122491E403000F0FE
:100CC0000FF8064904480122491EBDE81040403093
:100CD000FFF7B2BF10BD00000C000020060000208E
:100CE00090F83930202B18D1A9B1A2B190F8383042
:100CF000012B12D001628284C2840021C1632122AF
:100D000080F8392080F838100068C16841F080010F
:100D1000C160002070470120704702207047704773
:100D2000FEE7FEE770470907090E002806DA00F023
:100D30000F0000F1E02080F8141D704700F1E02062
:100D400080F80014704710B5FFF740FBBDE8104075
:100D5000FFF77FBE30B5244893B00025016841F00D
:100D600080510160006800F0805011901F480168B8
:100D700041F4804101600068022400F48040119039
:100D80000120009001908005CDE9064008200890E0
:100D90004FF4A870CDE9090404200B906846FFF7D2
:100DA000C5FC00B1FEE70CA90F2081E831004FF42B
:100DB000A0500F90109005210CA8FFF799FB00B1EF
:100DC000FEE7FFF735FC4FF47A71B0FBF1F0FFF767
:100DD0002CFE0420FFF71CFE00221146501EFFF7D8
:100DE00055FB13B030BD0000403802400070004099
:100DF0001048016841F4700101600F48016841F03A
:100E0000010101600C4A00210832116002680B4B9D
:100E10001A400260031D0A4A1A60026822F4802206
:100E2000026005480C3001600249580680390860AC
:100E30007047000088ED00E000380240FFFFF6FE3A
:100E40001030002410B590F83A10222901D0022069
:100E500010BD8168B1F5805F11D00169002901687A
:100E60001FD0496801F07F03816A4A1C82620B70BF
:100E7000C18D491E0904090CC18518D02BE00269F7
:100E8000816A002A0268526805D0D2B20A80816A5B
:100E9000491C8162ECE7C2F308020A80816A891C5E
:100EA000F7E74A68816A4B1C83620A70E0E70168D1
:100EB000CA6822F02002CA600168CA6822F48072FF
:100EC000CA6001684A6922F001024A61202180F863
:100ED0003A10FFF7DDFE002010BD00002DE9F041C3
:100EE00004460068016921F44052E1681143016140
:100EF0002168C86849F20C6290432369A268E569D9
:100F00001A4363692B431A430243CA602168486944
:100F100020F44072A06910434861E1696425B1F58D
:100F2000004F9748974A21684FF032083FD09142CE
:100F300001D081427CD1FFF7ABFB00EBC00101EB9C
:100F4000001061688900B0FBF1F6FFF7A1FB00EB30
:100F5000C00101EB001061688900B0FBF1F0B0FB4B
:100F6000F5F06FF01801484306EB800108EB011023
:100F7000B0FBF5F000F0F006FFF78AFB00EBC001D4
:100F800001EB001061688900B0FBF1F0B0FBF5F0F7
:100F900006EB0016FFF77CFB00EBC00101EB001035
:100FA00061688900B0FBF1F7FFF772FBD2E0914274
:100FB00001D081423DD1FFF76BFB00EBC00101EB9B
:100FC000001061684900B0FBF1F0B0FBF5F00601DC
:100FD000FFF75EFB00EBC00101EB00106168490008
:100FE000B0FBF1F7FFF754FB00EBC00101EB001081
:100FF00061684900B0FBF1F0B0FBF5F06FF018014B
:10100000484307EB800108EBC100B0FBF5F000F0AE
:10101000F80006EB4006FFF73BFB00EBC00101EBDD
:10102000001061684900B0FBF1F7FFF731FB3CE0CD
:1010300055E0FFF717FB00EBC00101EB0010616802
:101040004900B0FBF1F0B0FBF5F00601FFF70AFB39
:1010500000EBC00101EB001061684900B0FBF1F743
:10106000FFF700FB00EBC00101EB001061684900D5
:10107000B0FBF1F0B0FBF5F06FF01801484307EB5F
:10108000800108EBC100B0FBF5F000F0F80006EBC2
:101090004006FFF7E7FA00EBC00101EB00106168C2
:1010A0004900B0FBF1F7FFF7DDFA00EBC00101EBFF
:1010B000001061684900B0FBF1F0B0FBF5F06FF093
:1010C0001801484307EB800108EBC100B0FBF5F0C5
:1010D00000F00700216830448860BDE8F081FFF728
:1010E000C1FA00EBC00101EB001061688900B0FBA0
:1010F000F1F6FFF7B7FA00EBC00101EB00106168F1
:101100008900B0FBF1F0B0FBF5F06FF01801484337
:1011100006EB800108EB0110B0FBF5F000F0F006E3
:10112000FFF7A0FA00EBC00101EB00106168890035
:10113000B0FBF1F0B0FBF5F006EB0016FFF792FA0A
:1011400000EBC00101EB001061688900B0FBF1F712
:10115000FFF788FA00EBC00101EB0010616889001D
:10116000B0FBF1F0B0FBF5F06FF01801484307EB6E
:10117000800108EB0110B0FBF5F000F00F00A9E7CB
:10118000001401400010014090F83910212901D0CD
:10119000022070478168B1F5805F016A0BD04A1C5C
:1011A0000262026809785160C18C491E0904090C69
:1011B000C1840ED017E009880268C1F308015160AC
:1011C00001690029016A02D0491C0162ECE7891C0F
:1011D000FBE70168CA6822F08002CA600068C16843
:1011E00041F04001C1600020704700000148FFF756
:1011F00035BC00000C0000200148FFF72FBC0000A8
:101200004C000020FEE702E008C8121F08C1002AB7
:10121000FAD170477047002001E001C1121F002A77
:10122000FBD1704708B5FFF7D9F8FFF793FD2B48BE
:101230000024016841F080010160016801F0800133
:101240000091016841F001010160016801F00101B4
:101250000091016841F0020101600068204900F03E
:10126000020000901F48204D0C260160C0E9015487
:10127000C460C0E904468461C461FFF763FC00B147
:10128000FEE71848194940300160C0E90154C460C4
:10129000C0E904468461C461FFF754FC00B1FEE775
:1012A0001048012212494030FFF7C6FC10490122C4
:1012B000491C0C48FFF7C0FC0D4C4FF47A75641EB6
:1012C0000B490122491E0748FFF70AFD21782846ED
:1012D000491C2170FEF788FFF2E700003038024019
:1012E000004400400C00002090D003000048004063
:1012F00005000020000000000102030401020304B5
:101300000607080924130008000000200C00000054
:1013100006120008301300080C00002084040000AE
:10132000161200080024F400200000000000000055
:040000050800018965
:00000001FF
