:020000040800F2
:10000000400500209D0100085B1000085710000803
:1000100059100008E50100088915000800000000DB
:10002000000000000000000000000000AF01000818
:100030005102000800000000B30100087D10000814
:10004000B7010008B7010008B7010008B7010008B0
:10005000B7010008B7010008B7010008B7010008A0
:10006000B7010008B7010008B7010008B701000890
:10007000E9010008B7010008B7010008B70100084E
:10008000F5010008B7010008B7010008B701000832
:10009000B7010008B7010008B7010008B701000860
:1000A000B7010008B7010008B7010008B701000850
:1000B000B7010008B7010008B7010008B701000840
:1000C000B7010008B7010008B7010008B701000830
:1000D000B7010008B7010008711500087D15000878
:1000E000B7010008B7010008B7010008B701000810
:1000F000B7010008B7010008B7010008B701000800
:10010000B7010008B7010008B7010008B7010008EF
:10011000B7010008B7010008B7010008B7010008DF
:10012000B7010008B7010008B7010008B7010008CF
:10013000B7010008B7010008B7010008B7010008BF
:10014000B7010008B7010008B7010008B7010008AF
:10015000B7010008B7010008B7010008B70100089F
:10016000B7010008B7010008B7010008B70100088F
:10017000B7010008B7010008B7010008000000003F
:10018000B7010008B7010008DFF80CD000F018F83C
:1001900000480047A9150008400500200648804790
:1001A00006480047FEE7FEE7FEE7FEE7FEE7FEE75C
:1001B000FEE7FEE7FEE7FEE72111000889010008DF
:1001C000064C074D06E0E06840F0010394E80700A4
:1001D00098471034AC42F6D3FFF7DAFFB8160008A0
:1001E000D8160008FEE70000014800F033B8000010
:1001F000E4000020014800F02DB800008C00002031
:1002000001681823CAB2103AB2FBF3F2054B6FF340
:100210000901032A9B5C436500D9091D0165084655
:1002200070470000B016000830B50468256825F452
:1002300080252560046863608368402B036803D0D1
:1002400099600068C26030BD9A600068C16030BDCE
:10025000FEE700002DE9F041056D0446296890F89D
:100260005420082000FA02F211424FF004074FF028
:10027000000617D021680A68520713D50A6822F0D1
:1002800004020A6094F854108840A860E06C40F0C2
:100290000100E06484F8357084F83460A16C09B121
:1002A00020468847296894F85420514800FA02F201
:1002B000114217D021684A69120613D54A6922F003
:1002C00080024A6194F854108840A860E06C40F0C5
:1002D0000200E06484F8357084F83460A16C09B1E0
:1002E000204688472968424894F85420C01C00FAE8
:1002F00002F2114217D021680A68920713D50A68E2
:1003000022F002020A6094F854108840A860E06C61
:1003100040F00400E06484F8357084F83460A16C27
:1003200009B1204688472A6894F85410102000FA32
:1003300001F31A421BD021680A68120717D50A6810
:1003400057034FF0310228D5AB60206801680903DC
:1003500003D400BF84F8352005E00068000302D50F
:10036000412084F83500216C09B1204688472B686C
:1003700094F85410202000FA01F2134236D021687C
:100380000B68DB0632D50B685B031CD5AA602068BE
:10039000016809030DD4616C0FE00B68DB0503D421
:1003A0000B6823F008030B6094F854108840A86091
:1003B000D0E70068000319D5E16B002916D020466C
:1003C000BDE8F04108470A68D20503D40A6822F064
:1003D00010020A6094F854108840A860E06CE06451
:1003E000112084F8350084F83460E5E7BDE8F08139
:1003F0000100800070B504001AD00220636A84F8FE
:1004000035002268116818480140D4E901052843E5
:10041000D4E903563543284365692843A569284331
:10042000E5692843256A28430843042B02D005E0E8
:10043000012070BDD4E90B131943084310602268F2
:100440005069616A20F007000843042901D1A16ABC
:10045000084350612046FFF7D3FE0020E0640120EE
:1004600084F83500002070BD3F8010F070B5044660
:1004700090F8340001281ED0012084F834000220B6
:1004800084F835002068056825F0010505602046E0
:10049000FFF7CAFE2068016841F01E010160206874
:1004A000416941F0800141612068016841F001012A
:1004B0000160002070BD022070BD31B500F0E8F889
:1004C000044600F0E5F80099001B8842F9D338BDD6
:1004D0002DE9F84FDFF888B100224FF001084FF006
:1004E000030A4FF00F090BF1040E00BF0B6808FA66
:1004F00002F42340A3426ED14D68022D01D0122D8B
:100500000ED1D50800EB850CDCF820505607F70E0D
:1005100009FA07F6B5430E69BE402E43CCF82060B9
:10052000066855000F790AFA05FC07F0030726EA6A
:100530000C06AF40374307604E68012E05D0022EEF
:1005400003D0112E01D0122E0ED18668CF6826EA74
:100550000C06AF40374387604668A6430C79C4F366
:100560000014944034434460C4688E6824EA0C0448
:10057000AE402643C6604C68E4006AD5394C256815
:1005800045F480452560246822F0030504F4804486
:100590000094354C2E19D6F8084895072F0F09FA04
:1005A00007F5AC43314DA84201D1002529E0304D7B
:1005B000A84201D1012524E02E4DA84201D10225F7
:1005C0001FE02D4DA84201D103251AE02B4DA84272
:1005D00002D1042515E03CE0294DA84201D10525B2
:1005E0000FE0284DA84201D106250AE0264DA84279
:1005F00001D1072505E0254DA84201D1082500E0DD
:100600000925BD402543C6F80858DBF800405D4683
:100610004E689C43F60300D51C432C60DEF8004076
:1006200075464E689C43B60300D51C432C600C4DA8
:1006300008352C684E689C43F60200D51C432C609C
:10064000074D0C352C684E689C43B60200D51C4300
:100650002C60521C102AFFF449AFBDE8F88F00004F
:10066000003C01404438024000300140000002409C
:100670000004024000080240000C0240001002404A
:100680000014024000180240001C024000200240FA
:100690000148006870470000080000200248016817
:1006A000491C016070470000080000200B4810B58D
:1006B000016841F400710160016841F480610160EA
:1006C000016841F480710160032000F067F80020A8
:1006D00000F006F800F015F8002010BD003C0240C4
:1006E00010B5044600F00CF94FF47A71B0FBF1F04C
:1006F00000F003FB00222146501E00F02FF80020DE
:1007000010BD10B5032000F049F8002211466FF02B
:100710000B0000F023F8002211466FF00A0000F0F1
:100720001DF8002211466FF0090000F017F80022B2
:100730001146101F00F012F80022BDE810401146CB
:10074000501E00F00BB800F01F020121914040093B
:10075000800000F1E020C0F800117047F0B40E4BAB
:100760001B680C46C3F30223C3F10705042D00D90F
:100770000425191D072901D2002300E0DB1E0126F4
:1007800006FA05F1491E214099409E40761E16400A
:100790003143F0BC00F062BC0CED00E0064900F013
:1007A000070208684FF6FF03184040EA0220034A98
:1007B00010430860704700000CED00E00000FA05EF
:1007C0002DE9F047DFF830A105460F46DAF80000C2
:1007D00000F00F01F8B28146B94208D201468AF80A
:1007E0000010DAF8000000F00F00B8426AD1287853
:1007F000424C800705D52068A96820F0F000084326
:1008000020602878C0074FD03C4968680839012823
:1008100019D002281AD0032818D00968890700299E
:1008200050DA216821F0030101432160FFF730FF16
:100830000646686841F28838012810D002281AD08C
:1008400003281ED02CE009688903E8E709688901BC
:10085000E5E700BFFFF71CFF811B41451DD820685D
:10086000C0F381000128F5D11EE000BFFFF710FFA3
:10087000811B414511D82068C0F381000228F5D1C1
:1008800012E02068FFF704FF801B4045F9D904E01F
:10089000FFF7FEFE811B414502D90320BDE8F0872A
:1008A000206810F00C0FF3D1DAF80010504601F078
:1008B0000F01B94208D980F80090006800F00F00DD
:1008C000B84201D00120E9E72878400705D5206823
:1008D000E96820F4E050084320602878000706D536
:1008E0002068296920F4604040EAC10020600020AF
:1008F000FFF7F6FE0020D1E7003C02400838024036
:1009000010B500F043F808490968F02292FAA2F203
:1009100001F0F001B2FA82F2D140044A515CC840C1
:100920000349086010BD000008380240A016000806
:100930000400002010B5FFF7E3FF074909684FF4F2
:10094000E05292FAA2F201F4E051B2FA82F2D140FE
:10095000024A515CC84010BD08380240A016000889
:1009600010B5FFF7CDFF074909684FF4604292FACE
:10097000A2F201F46041B2FA82F2D140024A515C23
:10098000C84010BD08380240A016000830B519480C
:10099000006810F00C01184812D0441004290ED041
:1009A00008290DD11349091F0A6802F03F030A689C
:1009B000550247F6C07204D5B4FBF3F003E02046BD
:1009C00030BDB0FBF3F00B680968134092FAA2F255
:1009D000B2FA82F2D34058434FF4403292FAA2F274
:1009E00001F44031B2FA82F2D140491C4900B0FB17
:1009F000F1F030BD083802400024F4002DE9F84F32
:100A00000446DFF8CC820078A8F1040BC007ABF1F4
:100A1000040537D0D8F800104046C1F38101012900
:100A200008D00068C0F3810002280AD1DBF800007A
:100A3000400206D52868800324D56068002878D055
:100A400020E0A3492079891F0870606868B1FFF72A
:100A50001FFE064605E000BFFFF71AFE801B642854
:100A600068D828688003F7D50CE0FFF711FE06462A
:100A700005E000BFFFF70CFE801B6428F0D8286853
:100A80008003F7D42078934E80074FF0010A4FF08F
:100A9000000742D5D8F80010404611F00C0F08D0DE
:100AA0000068C0F3810002280AD1DBF80000400290
:100AB00006D42868800714D5E068012839D110E0F1
:100AC000E068D8B1C6F800A0FFF7E2FD814605E076
:100AD000FFF7DEFDA0EB09000228C1D828688007D7
:100AE000F6D52868F82292FAA2F22169B2FA82F2C7
:100AF00020F0F8009140084328600EE03760FFF7CF
:100B0000C7FD814606E000BFFFF7C2FDA0EB09006C
:100B100002280FD828688007F6D42078000728D547
:100B20006D486169A1B1C0F800A0FFF7B1FD814631
:100B300008E0CAE079E000BFFFF7AAFDA0EB0900DA
:100B4000022872D862486C3000688007F4D510E043
:100B50000760FFF79DFD814606E000BFFFF798FDA7
:100B6000A0EB0900022860D859486C300068800763
:100B7000F4D42078400749D555483830016841F011
:100B800080510160006800F0805000905348016877
:100B900041F480710160FFF77BFD814606E000BFF4
:100BA000FFF776FDA0EB090002283ED84B4800680D
:100BB000C005F5D5DFF81891207A09F1680989F8A0
:100BC0000000A06888B1FFF763FD009008E000BF57
:100BD000FFF75EFD0099411A41F2883081426CD8DE
:100BE000D9F800008007F3D510E0FFF751FD009021
:100BF00008E000BFFFF74CFD0099411A41F2883030
:100C000081425AD8D9F800008007F3D4A069E0B334
:100C1000D8F80010C1F38101022956D002283766A6
:100C200004D0FFF735FD04464AE046E0FFF730FD0B
:100C3000074604E0FFF72CFDC01B02283DD82868BA
:100C40008001F7D4D4E90701084347F6C07292FA4D
:100C5000A2F2616AB2FA82F29140A26A4FF0FF33C7
:100C600003EB52024FF4403393FAA3F3B3FA83F346
:100C70009A40114308434FF0706292FAA2F2E16A7F
:100C8000B2FA82F29140084300E01CE0CBF8000089
:100C9000C6F860A0FFF7FCFC044604E0FFF7F8FC90
:100CA000001B022809D828688001F7D50BE000BF97
:100CB000FFF7EEFC001B022802D90320BDE8F88FE5
:100CC00028688001F4D40020F8E70120F6E700004E
:100CD0000838024000004742800E47420070004042
:100CE0004FF0E0210428086903D020F004000861D7
:100CF000704740F00400FAE7704710B5401EB0F1AD
:100D0000807F01D3012010BD4FF0E02460610F21EE
:100D1000601700F0A3F90020A061072020610020E7
:100D200010BD10B5FFF7E8FF10BD704738B5044699
:100D300000680168C26811F0010F02F4807207D0E8
:100D400032B1016841680091E16B41F00101E1635A
:100D500001684269C1F3400102F0010239B132B1C8
:100D6000016841680091E16B41F00401E1630168B1
:100D70004269C1F3800102F0010239B132B1016868
:100D800041680091E16B41F00201E1630168426951
:100D9000C1F3C00102F0010239B132B1016841680A
:100DA0000091E16B41F00801E1630168C068C1F3A3
:100DB000401100F0200019B110B1204600F004FAF3
:100DC00021680868C968C0F3C01001F0800118B13B
:100DD00011B1204600F09AFB21680868CA68C0F388
:100DE000801002F04002202548B142B1CA68204676
:100DF00022F04002CA6084F8395000F02BF9E06B11
:100E0000002806D084F8395084F83A502046FFF77D
:100E10008CFF38BD70B5040004D094F8390000256B
:100E200010B106E0012070BD84F83850204600F073
:100E300023F8242084F839002068C16821F4005187
:100E4000C160204600F00CFA2068016921F490414D
:100E500001612068416921F02A0141612068C1686F
:100E600041F40051C160E563202084F8390084F822
:100E70003A00002070BD00002DE9F0470646D0F88A
:100E800000C03748DFF8D480002402210122032368
:100E90000725470586B04FF480694FF4807AC44532
:100EA00028D1D0F800C04CF4003CC0F800C0006865
:100EB00000F4003005900C208DE82F006946294889
:100EC000FFF706FB294D28482860C5E90174C5E9EC
:100ED00003496C61C5E9064A2C6228466C62FFF73B
:100EE00089FA7563002211462620AE63FFF736FCAF
:100EF00026202DE0DFF87880C4452BD1D0F800C043
:100F00004CF4802CC0F800C0006800F480200590EC
:100F10004FF440608DE82F0069461648FFF7D8FA75
:100F20001148154D60382860C5E90174C5E90349C9
:100F30006C61C5E9064A2C6228466C62FFF75AFAD2
:100F40007563002211462720AE63FFF707FC2720B8
:100F5000FFF7F9FB06B0BDE8F08700000044004051
:100F60004038024000000240886002408C000020AF
:100F70000048004000040240E400002070B5044630
:100F800090F83A0020282CD149B342B394F83800A5
:100F9000012826D0012084F83800A162A28500250E
:100FA000E563222084F83A00636B0F48D863636BD3
:100FB0000E481864636B0E48986408461346666BC7
:100FC000216802463046091DFFF750FA2068416942
:100FD00041F04001416184F83850002070BD01208B
:100FE00070BD022070BD000097110008BF110008FD
:100FF00075110008054900680968884204D101227A
:101000000349024800F007B8704700004C00002078
:1010100001000020704790F83930202B18D1A9B179
:10102000A2B190F83830012B12D001628284C284C0
:101030000021C163212280F8392080F8381000682F
:10104000C16841F08001C1600020704701207047F5
:10105000022070477047FEE7FEE770470907090E58
:10106000002806DA00F00F0000F1E02080F8141DDF
:10107000704700F1E02080F80014704710B5FFF7CA
:101080000DFBBDE81040FFF74CBE000030B5224814
:1010900093B00025016841F080510160006800F0C4
:1010A000805011901D48016841F480410160006842
:1010B000022400F4804011900120009001908005EE
:1010C000CDE90640082008904FF4A870CDE9090446
:1010D00004200B906846FFF791FC0CA90F2081E8D3
:1010E00031004FF4A0500F90109005210CA8FFF78D
:1010F00067FBFFF705FC4FF47A71B0FBF1F0FFF7E7
:10110000FCFD0420FFF7ECFD00221146501EFFF706
:1011100025FB13B030BD0000403802400070004095
:101120001048016841F4700101600F48016841F006
:10113000010101600C4A00210832116002680B4B6A
:101140001A400260031D0A4A1A60026822F48022D3
:10115000026005480C300160024958068039086079
:101160007047000088ED00E000380240FFFFF6FE07
:101170001030002410B5806B0021C185C18420216E
:1011800080F8391080F83A10C16B41F01001C1634A
:10119000FFF7CBFD10BD10B50146806B09680968EB
:1011A000C90509D40021C18501684A6922F04002BD
:1011B0004A61202180F83A10FFF71CFF10BD10B5DE
:1011C000806BFFF727FF10BD10B590F83A10222969
:1011D00001D0022010BD8168B1F5805F11D0016996
:1011E000002901681FD0496801F07F03816A4A1C09
:1011F00082620B70C18D491E0904090CC18518D08B
:101200002BE00269816A002A0268526805D0D2B2D6
:101210000A80816A491C8162ECE7C2F308020A80F5
:10122000816A891CF7E74A68816A4B1C83620A70ED
:10123000E0E70168CA6822F02002CA600168CA6853
:1012400022F48072CA6001684A6922F001024A6190
:10125000202180F83A10FFF7CDFE002010BD0000DD
:101260002DE9F04104460068016921F44052E1682B
:10127000114301612168C86849F20C6290432369F7
:10128000A268E5691A4363692B431A430243CA60A3
:101290002168486920F44072A06910434861E169FF
:1012A0006425B1F5004F9748974A21684FF03208FE
:1012B0003FD0914201D081427CD1FFF751FB00EB3E
:1012C000C00101EB001061688900B0FBF1F6FFF787
:1012D00047FB00EBC00101EB001061688900B0FB27
:1012E000F1F0B0FBF5F06FF01801484306EB800118
:1012F00008EB0110B0FBF5F000F0F006FFF730FB53
:1013000000EBC00101EB001061688900B0FBF1F057
:10131000B0FBF5F006EB0016FFF722FB00EBC00177
:1013200001EB001061688900B0FBF1F7FFF718FBD3
:10133000D2E0914201D081423DD1FFF711FB00EB99
:10134000C00101EB001061684900B0FBF1F0B0FB97
:10135000F5F00601FFF704FB00EBC00101EB001004
:1013600061684900B0FBF1F7FFF7FAFA00EBC00142
:1013700001EB001061684900B0FBF1F0B0FBF5F043
:101380006FF01801484307EB800108EBC100B0FB88
:10139000F5F000F0F80006EB4006FFF7E1FA00EB8D
:1013A000C00101EB001061684900B0FBF1F7FFF7E5
:1013B000D7FA3CE055E0FFF7BDFA00EBC00101EBC6
:1013C000001061684900B0FBF1F0B0FBF5F00601D8
:1013D000FFF7B0FA00EBC00101EB001061684900B3
:1013E000B0FBF1F7FFF7A6FA00EBC00101EB00102C
:1013F00061684900B0FBF1F0B0FBF5F06FF0180147
:10140000484307EB800108EBC100B0FBF5F000F0AA
:10141000F80006EB4006FFF78DFA00EBC00101EB88
:10142000001061684900B0FBF1F7FFF783FA00EBA9
:10143000C00101EB001061684900B0FBF1F0B0FBA6
:10144000F5F06FF01801484307EB800108EBC1008D
:10145000B0FBF5F000F00700216830448860BDE87B
:10146000F081FFF767FA00EBC00101EB0010616843
:101470008900B0FBF1F6FFF75DFA00EBC00101EB6C
:10148000001061688900B0FBF1F0B0FBF5F06FF07F
:101490001801484306EB800108EB0110B0FBF5F0A2
:1014A00000F0F006FFF746FA00EBC00101EB001078
:1014B00061688900B0FBF1F0B0FBF5F006EB0016B7
:1014C000FFF738FA00EBC00101EB001061688900FA
:1014D000B0FBF1F7FFF72EFA00EBC00101EB0010B3
:1014E00061688900B0FBF1F0B0FBF5F06FF0180116
:1014F000484307EB800108EB0110B0FBF5F000F06A
:101500000F00A9E7001401400010014090F83910C5
:10151000212901D0022070478168B1F5805F016AFE
:101520000BD04A1C0262026809785160C18C491EC6
:101530000904090CC1840ED017E009880268C1F3C0
:101540000801516001690029016A02D0491C016249
:10155000ECE7891CFBE70168CA6822F08002CA60D8
:101560000068C16841F04001C16000207047000080
:101570000148FFF7DBBB00000C0000200148FFF72B
:10158000D5BB00004C000020FEE702E008C8121F97
:1015900008C1002AFAD170477047002001E001C15C
:1015A000121F002AFBD1704708B5FFF77FF8FFF73D
:1015B0006DFD35480024016841F08001016001683B
:1015C00001F080010091016841F0010101600168B2
:1015D00001F001010091016841F002010160016820
:1015E00001F002010091016841F4001101600068FE
:1015F000002200F40010009011460C20FFF7AEF816
:101600000C20FFF7A0F8002211461020FFF7A6F8E3
:101610001020FFF798F81E481C491E4D0160C0E9D4
:1016200001540C26C460C0E904468461C461FFF71C
:10163000F1FB1748184940300160C0E90154C4600B
:10164000C0E904468461C461FFF7E4FB104801224D
:1016500012494030FFF792FC10490122491C0C4806
:10166000FFF78CFC0D4C4FF47A75641E0B49012278
:10167000491E0748FFF7CFFC21782846491C2170F6
:10168000FEF71BFFF2E70000303802400044004044
:101690000C00002040420F000048004001000020E4
:1016A0000000000001020304010203040607080908
:1016B0000006101600061016D816000800000020BC
:1016C0000C0000008A150008E41600080C00002039
:1016D000340500009A150008200000000024F400E2
:0416E0000000000006
:040000050800018965
:00000001FF
