:020000040800F2
:10000000480400209D0100088F0D0008050D000820
:100010008D0D0008E50100085711000800000000E0
:10002000000000000000000000000000AF01000818
:10003000E701000800000000B3010008B10D00084E
:10004000B7010008B7010008B7010008B7010008B0
:10005000B7010008B7010008B7010008B7010008A0
:10006000B7010008B7010008B7010008B701000890
:10007000B7010008B7010008B7010008B701000880
:10008000B7010008B7010008B7010008B701000870
:10009000B7010008B7010008B7010008B701000860
:1000A000B7010008B7010008B7010008B701000850
:1000B000B7010008B7010008B7010008B701000840
:1000C000B7010008B7010008B7010008B701000830
:1000D000B7010008B7010008B7010008B701000820
:1000E000B7010008B7010008B7010008B701000810
:1000F000B7010008B7010008B7010008B701000800
:10010000B7010008B7010008B7010008B7010008EF
:10011000B7010008B7010008B7010008B7010008DF
:10012000B7010008B7010008B7010008B7010008CF
:10013000B7010008B7010008B7010008B7010008BF
:10014000B7010008B7010008B7010008B7010008AF
:10015000B7010008B7010008B7010008B70100089F
:10016000B7010008B7010008B7010008B70100088F
:10017000B7010008B7010008B7010008000000003F
:10018000B7010008B7010008DFF80CD000F018F83C
:1001900000480047791100084804002006488047BD
:1001A00006480047FEE7FEE7FEE7FEE7FEE7FEE75C
:1001B000FEE7FEE7FEE7FEE7550E000889010008AE
:1001C000064C074D06E0E06840F0010394E80700A4
:1001D00098471034AC42F6D3FFF7DAFF1812000844
:1001E00038120008FEE7FEE731B500F0E9F80446F2
:1001F00000F0E6F80099001B8842F9D338BD0000F2
:100200002DE9F84FDFF888B100224FF001084FF0D8
:10021000030A4FF00F090BF1040E00BF0B6808FA38
:1002200002F42340A3426ED14D68022D01D0122D5D
:100230000ED1D50800EB850CDCF820505607F70EE0
:1002400009FA07F6B5430E69BE402E43CCF820608C
:10025000066855000F790AFA05FC07F0030726EA3D
:100260000C06AF40374307604E68012E05D0022EC2
:1002700003D0112E01D0122E0ED18668CF6826EA47
:100280000C06AF40374387604668A6430C79C4F339
:100290000014944034434460C4688E6824EA0C041B
:1002A000AE402643C6604C68E4006AD5394C2568E8
:1002B00045F480452560246822F0030504F4804459
:1002C0000094354C2E19D6F8084895072F0F09FAD7
:1002D00007F5AC43314DA84201D1002529E0304D4E
:1002E000A84201D1012524E02E4DA84201D10225CA
:1002F0001FE02D4DA84201D103251AE02B4DA84245
:1003000002D1042515E03CE0294DA84201D1052584
:100310000FE0284DA84201D106250AE0264DA8424B
:1003200001D1072505E0254DA84201D1082500E0AF
:100330000925BD402543C6F80858DBF800405D4656
:100340004E689C43F60300D51C432C60DEF8004049
:1003500075464E689C43B60300D51C432C600C4D7B
:1003600008352C684E689C43F60200D51C432C606F
:10037000074D0C352C684E689C43B60200D51C43D3
:100380002C60521C102AFFF449AFBDE8F88F000022
:10039000003C01404438024000300140000002406F
:1003A0000004024000080240000C0240001002401D
:1003B0000014024000180240001C024000200240CD
:1003C00001480068704700000400002002480168EE
:1003D000491C016070470000040000200B4810B564
:1003E000016841F400710160016841F480610160BD
:1003F000016841F480710160032000F05DF8002085
:1004000000F006F800F015F8002010BD003C024096
:1004100010B5044600F002F94FF47A71B0FBF1F028
:1004200000F0CDFA00222146501E00F025F80020F1
:1004300010BD10B5032000F03FF8002211466FF008
:100440000B0000F019F8002211466FF00A0000F0CE
:1004500013F8002211466FF0090000F00DF8002299
:100460001146101F00F008F80022BDE810401146A8
:10047000501E00F001B80000F0B40E4B1B680C4693
:10048000C3F30223C3F10705042D00D90425191D68
:10049000072901D2002300E0DB1E012606FA05F140
:1004A000491E214099409E40761E16403143F0BCC3
:1004B00000F06EBC0CED00E0064900F00702086891
:1004C0004FF6FF03184040EA0220034A1043086039
:1004D000704700000CED00E00000FA052DE9F04740
:1004E000DFF830A105460F46DAF8000000F00F01F2
:1004F000F8B28146B94208D201468AF80010DAF80B
:10050000000000F00F00B8426AD12878424C800702
:1005100005D52068A96820F0F000084320602878FD
:10052000C0074FD03C4968680839012819D0022813
:100530001AD0032818D009688907002950DA2168E1
:1005400021F0030101432160FFF73AFF0646686886
:1005500041F28838012810D002281AD003281ED072
:100560002CE009688903E8E709688901E5E700BF2D
:10057000FFF726FF811B41451DD82068C0F381008D
:100580000128F5D11EE000BFFFF71AFF811B41458E
:1005900011D82068C0F381000228F5D112E020684C
:1005A000FFF70EFF801B4045F9D904E0FFF708FF75
:1005B000811B414502D90320BDE8F087206810F077
:1005C0000C0FF3D1DAF80010504601F00F01B942D8
:1005D00008D980F80090006800F00F00B84201D000
:1005E0000120E9E72878400705D52068E96820F46C
:1005F000E050084320602878000706D52068296964
:1006000020F4604040EAC10020600020FFF700FFB6
:100610000020D1E7003C02400838024010B500F04D
:1006200017F808490968F02292FAA2F201F0F001E5
:10063000B2FA82F2D140044A515CC84003490860D2
:1006400010BD000008380240081200080000002019
:1006500030B51948006810F00C01184812D0441049
:1006600004290ED008290DD11349091F0A6802F088
:100670003F030A68550247F6C07204D5B4FBF3F095
:1006800003E0204630BDB0FBF3F00B68096813406F
:1006900092FAA2F2B2FA82F2D34058434FF44032B7
:1006A00092FAA2F201F44031B2FA82F2D140491C2E
:1006B0004900B0FBF1F030BD083802400024F400DE
:1006C0002DE9F84F0446DFF8CC820078A8F1040B3E
:1006D000C007ABF1040537D0D8F800104046C1F38D
:1006E0008101012908D00068C0F3810002280AD1E5
:1006F000DBF80000400206D52868800324D5606836
:10070000002878D020E0A3492079891F087060680C
:1007100068B1FFF755FE064605E000BFFFF750FE43
:10072000801B642868D828688003F7D50CE0FFF7A1
:1007300047FE064605E000BFFFF742FE801B642827
:10074000F0D828688003F7D42078934E80074FF0C4
:10075000010A4FF0000742D5D8F80010404611F0CA
:100760000C0F08D00068C0F3810002280AD1DBF822
:100770000000400206D42868800714D5E0680128EC
:1007800039D110E0E068D8B1C6F800A0FFF718FE34
:10079000814605E0FFF714FEA0EB09000228C1D84E
:1007A00028688007F6D52868F82292FAA2F2216913
:1007B000B2FA82F220F0F8009140084328600EE07F
:1007C0003760FFF7FDFD814606E000BFFFF7F8FD4B
:1007D000A0EB090002280FD828688007F6D42078FB
:1007E000000728D56D486169A1B1C0F800A0FFF7E6
:1007F000E7FD814608E0CAE079E000BFFFF7E0FDD1
:10080000A0EB0900022872D862486C3000688007AB
:10081000F4D510E00760FFF7D3FD814606E000BF86
:10082000FFF7CEFDA0EB0900022860D859486C30D4
:1008300000688007F4D42078400749D555483830FF
:10084000016841F080510160006800F08050009024
:100850005348016841F480710160FFF7B1FD8146A2
:1008600006E000BFFFF7ACFDA0EB090002283ED870
:100870004B480068C005F5D5DFF81891207A09F1DA
:10088000680989F80000A06888B1FFF799FD009019
:1008900008E000BFFFF794FD0099411A41F288304B
:1008A00081426CD8D9F800008007F3D510E0FFF73B
:1008B00087FD009008E000BFFFF782FD0099411A14
:1008C00041F2883081425AD8D9F800008007F3D429
:1008D000A069E0B3D8F80010C1F38101022956D015
:1008E0000228376604D0FFF76BFD04464AE046E075
:1008F000FFF766FD074604E0FFF762FDC01B022814
:100900003DD828688001F7D4D4E90701084347F6A9
:10091000C07292FAA2F2616AB2FA82F29140A26ABD
:100920004FF0FF3303EB52024FF4403393FAA3F33B
:10093000B3FA83F39A40114308434FF0706292FA7E
:10094000A2F2E16AB2FA82F29140084300E01CE0B0
:10095000CBF80000C6F860A0FFF732FD044604E0C3
:10096000FFF72EFD001B022809D828688001F7D563
:100970000BE000BFFFF724FD001B022802D9032073
:10098000BDE8F88F28688001F4D40020F8E7012042
:10099000F6E700000838024000004742800E474258
:1009A000007000404FF0E0210428086903D020F0D7
:1009B00004000861704740F00400FAE7704710B582
:1009C000401EB0F1807F01D3012010BD4FF0E02424
:1009D00060610F21601700F0DBF90020A0610720A3
:1009E0002061002010BD10B5FFF7E8FF10BD30B545
:1009F00090F83820012A20D0012280F838200223E4
:100A000080F8393003685C6824F070045C60036827
:100A10005C680D682C435C6003689C6824F080046B
:100A20009C6003689C6849680C439C6080F839208E
:100A3000002180F83810084630BD022030BD10B5C6
:100A4000040003D094F8390010B107E0012010BD74
:100A5000002084F83800204600F00CF8022084F8CA
:100A60003900211D206800F01FFA012084F83900A8
:100A7000002010BD08B500680649884208D1064824
:100A8000016841F004010160006800F0040000907A
:100A900008BD0000000800404038024070B5044620
:100AA00090F83800012817D0012584F8385002202A
:100AB00084F839002068826822F0770222F47F42AD
:100AC00082600868502837D00DDC202859D005DC1A
:100AD00088B3102841D151E0022070BD302853D096
:100AE00040283AD13FE060282ED070280BD0B0F5D6
:100AF000805F03D0B0F5005F2FD110E020688168DF
:100B000021F0070115E0CB68D1E90121206800F050
:100B100036FA2168886840F0770088601DE0CB686D
:100B2000D1E90121206800F02AFA2068816841F4A7
:100B30008041816011E01EE0CA684968206800F0C9
:100B4000E7FA5021206806E0CA684968206800F08A
:100B5000F0FA6021206800F01CFA84F83950002077
:100B600084F8380070BDCA684968206800F0D0FA7F
:100B700040212068EFE700212068ECE71021206881
:100B8000E9E720212068E6E730212068E3E700005C
:100B900000B50068094985B088420DD14FF4704016
:100BA000009002200021CDE901010321CDE90310CD
:100BB00069460348FFF724FB05B000BD000800406C
:100BC000000C024070B5044690F838000D4601282C
:100BD0000DD0012684F83860022084F8390042B133
:100BE000042A18D0082A2AD00C2A4DD139E0022034
:100BF00070BD206800F0D6F92068816941F00801D5
:100C000081612068816921F0040181612068816926
:100C10002A69114311E0206800F0F0F92068816929
:100C200041F4006181612068816921F48061816102
:100C3000206881692A6941EA0221816124E02068F3
:100C400000F00EFA2068C16941F00801C161206816
:100C5000C16921F00401C1612068C1692A69114399
:100C600011E0206800F02CFA2068C16941F40061AD
:100C7000C1612068C16921F48061C1612068C169D6
:100C80002A6941EA0221C16184F83960002084F8B0
:100C9000380070BD10B5040003D094F8390010B1CD
:100CA00007E0012010BD002084F83800204600F045
:100CB0000CF8022084F83900211D206800F0F4F8B7
:100CC000012084F83900002010BD704710B504469B
:100CD0000068012200F048F908492068884202D0E3
:100CE0000749884203D1416C41F4004141642068C6
:100CF000016841F001010160002010BD00000140C9
:100D000000040140FEE7000010B51F488EB01D49E9
:100D1000016015210024C0E901144FF4C871C0E935
:100D20000314FFF78CFE4FF48050079007A9164874
:100D3000FFF7B4FE1448FFF7ADFF0B940BA9124860
:100D40000C94FFF754FE6020CDE9000402940022C9
:100D500069460D480494FFF735FF042269460A48A6
:100D6000FFF730FF082269460748FFF72BFF0C22E8
:100D700069460548FFF726FF0348FFF709FF0EB055
:100D800010BD0000000800400C000020FEE7704786
:100D90000907090E002806DA00F00F0000F1E02034
:100DA00080F8141D704700F1E02080F800147047AF
:100DB00010B5FFF70BFBBDE81040FFF714BE0000B5
:100DC00030B5224893B00025016841F080510160A0
:100DD000006800F0805011901D48016841F4804186
:100DE00001600068022400F480401190012000900E
:100DF00001908005CDE90640082008904FF4A870C6
:100E0000CDE9090404200B906846FFF759FC0CA9B2
:100E10000F2081E831004FF4A0500F901090052171
:100E20000CA8FFF75BFBFFF7F9FB4FF47A71B0FBFF
:100E3000F1F0FFF7C4FD0420FFF7B4FD00221146D6
:100E4000501EFFF719FB13B030BD000040380240C0
:100E5000007000401048016841F4700101600F48C3
:100E6000016841F0010101600C4A00210832116063
:100E700002680B4B1A400260031D0A4A1A6002689E
:100E800022F48022026005480C30016002495806B5
:100E9000803908607047000088ED00E000380240AB
:100EA000FFFFF6FE10300024F0B50268234B244DFE
:100EB000244E254F254C4FF0804C984209D0604578
:100EC00007D0A84205D0B04203D0B84201D0A0421A
:100ED00004D122F0700E4A6842EA0E0298421BD0FA
:100EE000604519D0A84217D0B04215D0B84213D0EF
:100EF000A04211D0164DA8420ED0164DA8420BD0DC
:100F0000154DA84208D0154DA84205D0144DA84251
:100F100002D0144DA84203D122F44075CA682A4376
:100F200002608A68C2620A688262984201D0A04266
:100F300001D10969016301214161F0BD0000014057
:100F40000004004000080040000C00400004014084
:100F500000400140004401400048014000180040AA
:100F6000001C00400020004010B50123046A8B40A3
:100F70009C430462036A8A401343036210BD10B5A8
:100F8000846842EA032224F47F440A4322438260B5
:100F900010BD826822F070020A4342F007018160AE
:100FA0007047000030B5026A22F001020262026A54
:100FB000436884690D6824F07304254322F0020419
:100FC0008A6822430B4CA04202D00B4CA0420BD1AA
:100FD00022F00804CA6823F4407322434C6922F0CB
:100FE00004021C438B692343436085614968416364
:100FF000026230BD000001400004014030B5026AC9
:1010000022F010020262026A436884690D6824F4C7
:10101000E64444EA05248D6822F0200242EA0512E3
:101020000D4DA84202D00D4DA8420ED1CD6822F040
:10103000800242EA05124D6923F4406343EA8503C6
:101040008D6922F0400243EA850343608461496868
:101050008163026230BD00000000014000040140D5
:1010600030B5026A22F480720262036A4268C4697F
:1010700023F4007324F073050C682C438D6843EA55
:1010800005230D4DA84202D00C4DA8420ED1CD68CB
:1010900023F4006343EA05234D6922F4405242EAF7
:1010A00005128D6923F4806342EA05124260C4612F
:1010B0004968C163036230BD000001400004014083
:1010C00030B5026A22F480520262046A4268C3693F
:1010D0000D6823F4E64343EA05238D6824F40054A5
:1010E00044EA0534084DA84202D0084DA84204D174
:1010F0004D6922F4804242EA85124260C361496828
:101100000164046230BD00000000014000040140A1
:1011100010B5036A046A24F001040462846924F0AF
:10112000F00444EA021423F00A020A4384610262D2
:1011300010BD10B5036A23F0100303628369046ACB
:1011400023F4704343EA023224F0A00343EA01117E
:101150008261016210BDFEE702E008C8121F08C1EB
:10116000002AFAD170477047002001E001C1121F28
:10117000002AFBD17047000008B5FFF72FF9FFF7F1
:101180001FFE1E48016841F080010160016801F006
:1011900080010091016841F008010160006800F0E1
:1011A00008000090FFF7B0FD00211548FFF78EFD05
:1011B00004211348FFF78AFD08211148FFF786FD37
:1011C0000C210F48FFF782FD0D4D0E4C4FF4C876F1
:1011D000296820884863296888632968C863086487
:1011E0006188084480B22080B04200D008B94842EB
:1011F00060806420FEF7F8FFEAE700003038024024
:101200000C00002008000020000000000102030480
:101210000102030406070809381200080000002034
:101220000C00000058110008441200080C000020B7
:101230003C040000681100080024F40000000000D5
:0412400000000400A6
:040000050800018965
:00000001FF
