:020000040800F2
:10000000680400209D010008B70D0008EB0C0008F3
:10001000B50D0008E5010008890F00080000000088
:10002000000000000000000000000000AF01000818
:10003000E701000800000000B3010008910E00086D
:10004000B7010008B7010008B7010008B7010008B0
:10005000B7010008B7010008B7010008B7010008A0
:10006000B7010008B7010008B7010008B701000890
:10007000B7010008B7010008B7010008B701000880
:10008000B7010008B7010008B7010008B701000870
:10009000B7010008B7010008B7010008B701000860
:1000A000B7010008B7010008B7010008B701000850
:1000B000B7010008B7010008B7010008B701000840
:1000C000B7010008B7010008B7010008D90D000802
:1000D000B7010008B7010008B7010008B701000820
:1000E000B7010008B7010008B7010008B701000810
:1000F000B7010008B7010008B7010008B701000800
:10010000B7010008B7010008B7010008B7010008EF
:10011000B7010008B7010008B7010008B7010008DF
:10012000B7010008B7010008B7010008B7010008CF
:10013000B7010008B7010008B7010008B7010008BF
:10014000B7010008B7010008B7010008B7010008AF
:10015000B7010008B7010008B7010008B70100089F
:10016000B7010008B7010008B7010008B70100088F
:10017000B7010008B7010008B7010008000000003F
:10018000B7010008B7010008DFF80CD000F018F83C
:1001900000480047A90F000868040020064880476F
:1001A00006480047FEE7FEE7FEE7FEE7FEE7FEE75C
:1001B000FEE7FEE7FEE7FEE7350F000889010008CD
:1001C000064C074D06E0E06840F0010394E80700A4
:1001D00098471034AC42F6D3FFF7DAFF7C1D0D08C8
:1001E0009C1D0D08FEE7FEE731B500F0EFF8044670
:1001F00000F0ECF80099001B8842F9D338BD0000EC
:100200002DE9F84FDFF888B100224FF001084FF0D8
:10021000030A4FF00F090BF1040E00BF0B6808FA38
:1002200002F42340A3426ED14D68022D01D0122D5D
:100230000ED1D50800EB850CDCF820505607F70EE0
:1002400009FA07F6B5430E69BE402E43CCF820608C
:10025000066855000F790AFA05FC07F0030726EA3D
:100260000C06AF40374307604E68012E05D0022EC2
:1002700003D0112E01D0122E0ED18668CF6826EA47
:100280000C06AF40374387604668A6430C79C4F339
:100290000014944034434460C4688E6824EA0C041B
:1002A000AE402643C6604C68E4006AD5394C2568E8
:1002B00045F480452560246822F0030504F4804459
:1002C0000094354C2E19D6F8084895072F0F09FAD7
:1002D00007F5AC43314DA84201D1002529E0304D4E
:1002E000A84201D1012524E02E4DA84201D10225CA
:1002F0001FE02D4DA84201D103251AE02B4DA84245
:1003000002D1042515E03CE0294DA84201D1052584
:100310000FE0284DA84201D106250AE0264DA8424B
:1003200001D1072505E0254DA84201D1082500E0AF
:100330000925BD402543C6F80858DBF800405D4656
:100340004E689C43F60300D51C432C60DEF8004049
:1003500075464E689C43B60300D51C432C600C4D7B
:1003600008352C684E689C43F60200D51C432C606F
:10037000074D0C352C684E689C43B60200D51C43D3
:100380002C60521C102AFFF449AFBDE8F88F000022
:10039000003C01404438024000300140000002406F
:1003A0000004024000080240000C0240001002401D
:1003B0000014024000180240001C024000200240CD
:1003C0000AB1816170470904FBE700000148006839
:1003D000704700000800002002480168491C0160C5
:1003E00070470000080000200B4810B5016841F478
:1003F00000710160016841F480610160016841F4AD
:1004000080710160032000F067F8002000F006F81A
:1004100000F015F8002010BD003C024010B5044665
:1004200000F00CF94FF47A71B0FBF1F000F045FCEC
:1004300000222146501E00F02FF8002010BD10B5FC
:10044000032000F049F8002211466FF00B0000F085
:1004500023F8002211466FF00A0000F01DF8002278
:1004600011466FF0090000F017F800221146101F26
:1004700000F012F80022BDE810401146501E00F0B6
:100480000BB800F01F02012191404009800000F1EB
:10049000E020C0F800117047F0B40E4B1B680C460A
:1004A000C3F30223C3F10705042D00D90425191D48
:1004B000072901D2002300E0DB1E012606FA05F120
:1004C000491E214099409E40761E16403143F0BCA3
:1004D00000F072BC0CED00E0064900F0070208686D
:1004E0004FF6FF03184040EA0220034A1043086019
:1004F000704700000CED00E00000FA052DE9F04720
:10050000DFF830A105460F46DAF8000000F00F01D1
:10051000F8B28146B94208D201468AF80010DAF8EA
:10052000000000F00F00B8426AD12878424C8007E2
:1005300005D52068A96820F0F000084320602878DD
:10054000C0074FD03C4968680839012819D00228F3
:100550001AD0032818D009688907002950DA2168C1
:1005600021F0030101432160FFF730FF0646686870
:1005700041F28838012810D002281AD003281ED052
:100580002CE009688903E8E709688901E5E700BF0D
:10059000FFF71CFF811B41451DD82068C0F3810077
:1005A0000128F5D11EE000BFFFF710FF811B414578
:1005B00011D82068C0F381000228F5D112E020682C
:1005C000FFF704FF801B4045F9D904E0FFF7FEFE6A
:1005D000811B414502D90320BDE8F087206810F057
:1005E0000C0FF3D1DAF80010504601F00F01B942B8
:1005F00008D980F80090006800F00F00B84201D0E0
:100600000120E9E72878400705D52068E96820F44B
:10061000E050084320602878000706D52068296943
:1006200020F4604040EAC10020600020FFF7F6FEA1
:100630000020D1E7003C02400838024010B500F02D
:1006400017F808490968F02292FAA2F201F0F001C5
:10065000B2FA82F2D140044A515CC84003490860B2
:1006600010BD0000083802406C1D0D08000000207D
:1006700030B51948006810F00C01184812D0441029
:1006800004290ED008290DD11349091F0A6802F068
:100690003F030A68550247F6C07204D5B4FBF3F075
:1006A00003E0204630BDB0FBF3F00B68096813404F
:1006B00092FAA2F2B2FA82F2D34058434FF4403297
:1006C00092FAA2F201F44031B2FA82F2D140491C0E
:1006D0004900B0FBF1F030BD083802400024F400BE
:1006E0002DE9F84F0446DFF8CC820078A8F1040B1E
:1006F000C007ABF1040537D0D8F800104046C1F36D
:100700008101012908D00068C0F3810002280AD1C4
:10071000DBF80000400206D52868800324D5606815
:10072000002878D020E0A3492079891F08706068EC
:1007300068B1FFF74BFE064605E000BFFFF746FE37
:10074000801B642868D828688003F7D50CE0FFF781
:100750003DFE064605E000BFFFF738FE801B64281B
:10076000F0D828688003F7D42078934E80074FF0A4
:10077000010A4FF0000742D5D8F80010404611F0AA
:100780000C0F08D00068C0F3810002280AD1DBF802
:100790000000400206D42868800714D5E0680128CC
:1007A00039D110E0E068D8B1C6F800A0FFF70EFE1E
:1007B000814605E0FFF70AFEA0EB09000228C1D838
:1007C00028688007F6D52868F82292FAA2F22169F3
:1007D000B2FA82F220F0F8009140084328600EE05F
:1007E0003760FFF7F3FD814606E000BFFFF7EEFD3F
:1007F000A0EB090002280FD828688007F6D42078DB
:10080000000728D56D486169A1B1C0F800A0FFF7C5
:10081000DDFD814608E0CAE079E000BFFFF7D6FDC4
:10082000A0EB0900022872D862486C30006880078B
:10083000F4D510E00760FFF7C9FD814606E000BF70
:10084000FFF7C4FDA0EB0900022860D859486C30BE
:1008500000688007F4D42078400749D555483830DF
:10086000016841F080510160006800F08050009004
:100870005348016841F480710160FFF7A7FD81468C
:1008800006E000BFFFF7A2FDA0EB090002283ED85A
:100890004B480068C005F5D5DFF81891207A09F1BA
:1008A000680989F80000A06888B1FFF78FFD009003
:1008B00008E000BFFFF78AFD0099411A41F2883035
:1008C00081426CD8D9F800008007F3D510E0FFF71B
:1008D0007DFD009008E000BFFFF778FD0099411A08
:1008E00041F2883081425AD8D9F800008007F3D409
:1008F000A069E0B3D8F80010C1F38101022956D0F5
:100900000228376604D0FFF761FD04464AE046E05E
:10091000FFF75CFD074604E0FFF758FDC01B022807
:100920003DD828688001F7D4D4E90701084347F689
:10093000C07292FAA2F2616AB2FA82F29140A26A9D
:100940004FF0FF3303EB52024FF4403393FAA3F31B
:10095000B3FA83F39A40114308434FF0706292FA5E
:10096000A2F2E16AB2FA82F29140084300E01CE090
:10097000CBF80000C6F860A0FFF728FD044604E0AD
:10098000FFF724FD001B022809D828688001F7D54D
:100990000BE000BFFFF71AFD001B022802D903205D
:1009A000BDE8F88F28688001F4D40020F8E7012022
:1009B000F6E700000838024000004742800E474238
:1009C00000700040704738B50268536891684C0663
:1009D00005D4CC0703D05C0601D5016C04E08C077C
:1009E00006D51C0604D5416C01B0BDE8304008476F
:1009F00011F4B07F2DD09B062BD54B060AD590F86D
:100A00005130032B25D0436D43F004034365D36875
:100A1000936800938B0609D5436D43F0010343654A
:100A200093680093136823F040031360C90506D54B
:100A3000416D41F0080141650168896800910168D4
:100A40004A6822F0E0024A60012180F85110FFF765
:100A5000B9FF38BD70B5040004D094F851000025EA
:100A600010B106E0012070BD84F85050204600F01F
:100A700037F8022084F851002068016821F0400115
:100A80000160D4E901010843D4E90312114308438A
:100A900061690843218B01F400710843E16908434F
:100AA000216A0843A16A084321680860A0690421FB
:100AB00001EA1040616A084321684860A06AB0F505
:100AC000005F02D12168E06A08612068C16921F4F1
:100AD0000061C1616565012084F85100002070BD8E
:100AE00000B50068124987B088421ED11148002124
:100AF000026842F480520260006800F48050059061
:100B0000E02000900220CDE90101032003900520A0
:100B1000049069460848FFF773FB00221146232022
:100B2000FFF7BAFC2320FFF7ACFC07B000BD0000C4
:100B30000030014044380240000002402DE9F84FE7
:100B4000044690F850000026984617460D460128A6
:100B50000DD04FF0010A84F850A0FFF737FC834610
:100B600094F85100B146012804D0022692E00220F8
:100B7000BDE8F88F002D7CD0002F7AD0032084F8B8
:100B80005100C4F854902563A786E786C4F83890CE
:100B9000A4F83C90A4F83E90C4F84490C4F8409067
:100BA000A068B0F5004F04D12068016841F480418D
:100BB0000160A06A4FF40057B8420AD1206801686A
:100BC0004DF6FF72114001602068016841F4005148
:100BD000016020680168490603D4016841F04001C2
:100BE0000160E068B0F5006F17D033E020688168DD
:100BF000890706D535F8021BC160E08E401EE086ED
:100C00000BE0B8F1000F23D0B8F1FF3F05D0FFF79C
:100C1000DDFBA0EB0B0141451AD2E08E0028E5D1A7
:100C20001BE020688168890706D515F8011B017350
:100C3000E08E401EE0860DE0B8F1000F08D0B8F15C
:100C4000FF3F07D0FFF7C2FBA0EB0B01414501D3EB
:100C500003261FE0E08E0028E3D1A06AB84204D149
:100C60002068016841F4805101605A46414620469F
:100C700000E00EE000F0B6F818B1606D40F0200022
:100C80006065A06818B92068C16880680090606DD0
:100C900000B1012684F851A084F85090304667E7EF
:100CA0004FF0E0210428086903D020F00400086117
:100CB000704740F00400FAE7704710B5401EB0F1ED
:100CC000807F01D3012010BD4FF0E02460610F212F
:100CD000601700F071F80020A0610720206100205B
:100CE00010BD10B5FFF7E8FF10BDFEE72DE9F0439A
:100CF000204887B00024016841F08001016001684C
:100D000001F080010591016841F001010160016875
:100D100001F001010591016841F0080101600068DE
:100D2000DFF8548000F008000590012210214046B1
:100D3000FFF746FBDFF844904FF470470122394635
:100D40004846FFF73DFB102001250326CDE90005AD
:100D5000CDE9024669464046FFF752FA00970396EE
:100D6000CDE9015469464846FFF74AFA07B0BDE8A5
:100D7000F08300003038024000000240000C0240C6
:100D80000B480A494FF4007201604FF482714160D0
:100D900000218160C1600161C0E90512C161016289
:100DA000416281620A21C162FFF754BE00300140F6
:100DB0000C000020FEE770470907090E002806DA3C
:100DC00000F00F0000F1E02080F8141D704700F1E2
:100DD000E02080F8001470470148FFF7F4BD0000E0
:100DE0000C00002038B50B460092044600228021FA
:100DF00000F008F8002804D0606D40F02000606525
:100E0000032038BD2DE9F0411D4616460F46044625
:100E1000DDF8188035E0681C33D02DB1FFF7D6FA25
:100E2000A0EB0800A8422CD32068416821F0E00123
:100E300041606068B0F5827F0BD1A068B0F5004FCB
:100E400002D0B0F5806F04D12068016821F0400124
:100E50000160A06AB0F5005F0AD1206801684DF614
:100E6000FF72114001602068016841F40051016087
:100E7000012084F85100002084F850000320BDE8D0
:100E8000F081206880683840B042C4D10020F6E785
:100E900010B5FFF7A1FABDE81040FFF722BF000030
:100EA00030B5224893B00025016841F080510160BF
:100EB000006800F0805011901D48016841F48041A5
:100EC00001600068022400F480401190012000902D
:100ED00001908005CDE90640082008904FF4A870E5
:100EE000CDE9090404200B906846FFF7F9FB0CA933
:100EF0000F2081E831004FF4A0500F901090052191
:100F00000CA8FFF7FBFAFFF799FB4FF47A71B0FBDF
:100F1000F1F0FFF7D2FE0420FFF7C2FE00221146D7
:100F2000501EFFF7B9FA13B030BD00004038024040
:100F3000007000401048016841F4700101600F48E2
:100F4000016841F0010101600C4A00210832116082
:100F500002680B4B1A400260031D0A4A1A600268BD
:100F600022F48022026005480C30016002495806D4
:100F7000803908607047000088ED00E000380240CA
:100F8000FFFFF6FE10300024FEE702E008C8121F43
:100F900008C1002AFAD170477047002001E001C162
:100FA000121F002AFBD17047FFF71EFAFFF778FFE8
:100FB000FFF79CFEFFF7E4FE00F05AF8164C0026FF
:100FC0004FF6E07741F2883526806780134800F0BD
:100FD00089F92846FFF708F9114800F083F92846F7
:100FE000FFF702F90F4800F07DF92846FFF7FCF8FB
:100FF0000D4800F077F92846FFF7F6F80B4800F0A7
:1010000071F92846FFF7F0F8094800F06BF9284617
:10101000FFF7EAF8D8E7000004000020C413000836
:10102000C46B02084CBD0308541506085C6D080823
:1010300064C50A082DE9F04104461D4616460F46D0
:101040002A2000F0A9F9204600F07AF9304600F095
:1010500077F92B2000F0A0F9384600F071F9284606
:1010600000F06EF9BDE8F0412C2000F095B90000C9
:1010700070B50122994D540321462846FFF7A0F987
:101080000520FFF7B1F8002221462846FFF798F91E
:101090000520FFF7A9F8012221462846FFF790F91D
:1010A0008F4C002210212046FFF78AF90120FFF71C
:1010B0009BF86FF0340000F06FF9392000F058F918
:1010C0002C2000F055F9002000F052F9342000F0F7
:1010D0004FF9022000F04CF96FF0300000F05CF99D
:1010E000002000F045F9C12000F042F9302000F066
:1010F0003FF96FF0170000F04FF9852000F038F944
:10110000002000F035F9782000F032F96FF015007A
:1011100000F042F9002000F02BF9002000F028F93F
:101120006FF0120000F038F9642000F021F903207C
:1011300000F01EF9122000F01BF9812000F018F9D0
:101140006FF0080000F028F9202000F011F96FF08E
:101150003F0000F021F9232000F00AF96FF03E0073
:1011600000F01AF9102000F003F96FF03A0000F0D7
:1011700013F93E2000F0FCF8282000F0F9F86FF099
:10118000380000F009F9862000F0F2F8362000F06F
:1011900003F9482000F0ECF83A2000F0FDF8552063
:1011A00000F0E6F86FF04E0000F0F6F8002000F0D6
:1011B000DFF8182000F0DCF86FF0490000F0ECF8E0
:1011C000082000F0D5F8822000F0D2F8272000F0A7
:1011D000CFF86FF00D0000F0DFF8002000F0C8F845
:1011E000262000F0D9F8012000F0C2F86FF01F00AF
:1011F00000F0D2F80F2000F0BBF8312000F0B8F872
:101200002B2000F0B5F80C2000F0B2F80E2000F012
:10121000AFF8082000F0ACF84E2000F0A9F8F1205B
:1012200000F0A6F8372000F0A3F8072000F0A0F89F
:10123000102000F09DF8032000F09AF80E2000F036
:1012400097F8092000F094F8002000F091F86FF072
:101250001E0000F0A1F8002000F08AF80E2000F037
:1012600087F8142000F084F8032000F081F81120A2
:1012700000F07EF8072000F07BF8312000F078F8CD
:10128000C12000F075F8482000F072F8082000F046
:101290006FF80F2000F06CF80C2000F069F8312096
:1012A00000F066F8362000F063F80F2000F060F8D8
:1012B000112000F071F87820FEF796FF292000F049
:1012C0006BF82C2000F068F8012210212046FFF76F
:1012D00077F8BDE870400120FEF786BF000C0240A1
:1012E000000002402DE9F041144E05460022102175
:1012F0003046FFF765F80120FEF776FF002140F247
:101300003F13EF220846FFF795FE00244FF496376F
:1013100005EB440015F81410407841EA002000F075
:101320000FF8641CBC42F3D3012210213046FFF7B2
:1013300047F8BDE8F0410120FEF756BF000002402B
:1013400008B5010A8DF800108DF801000122110383
:101350000548FFF735F84FF4FA730222694603484F
:10136000FFF7ECFB08BD0000000C02400C00002061
:1013700008B501228DF8000011030548FFF720F899
:101380004FF4FA73012269460248FFF7D7FB08BD04
:10139000000C02400C00002008B500228DF800006F
:1013A0004FF480510548FFF70BF84FF4FA73012210
:1013B00069460348FFF7C2FB08BD0000000C02406D
:1013C0000C000020718CE739484A07422842284A1D
:1013D0002842484AA639484AE74128422842484A12
:1013E00007420742274A274A274A274AE641C63981
:1013F000E64184316431643184318431C5398431CA
:10140000A431C5398531853185318531A539A63974
:10141000C639E641274A274A474A274A474A474AA0
:101420006752474A674A87528852885288526852A0
:101430006852684A684A68528852685267528852AD
:101440008852875267526752675267526852685291
:101450006852885A6852885A885A68526752675246
:1014600088528852885A675A675267524752475281
:101470006752885A675AA85AE962E962096B096B90
:101480000A6B096B096B2973096B096B2973096B6B
:10149000E96A096B2A732A732A732A732A732A73D7
:1014A0002A732A732A732A734A734A73096B0A636D
:1014B0008531274285318531A531E639C639073A6C
:1014C000074208420842284228424842284207422E
:1014D00028422842E739C6316842A94A8942483A37
:1014E000483A073AE739073A073A28424842484219
:1014F0006842894A894A6842894A894A894A273A18
:1015000068424842684A484A484A684A694A694AB9
:10151000694A8952A952AA52AA52AA52694A894AC8
:10152000694A684AA9526842694A684A894A6842CF
:10153000894A694A684268426842484228422842C9
:1015400027422742273A263ACA527CE7DEF7BEF7FF
:10155000BFF7BFF7BEF7DFF7DFFFDFFFBFF7BFF76C
:10156000DFF7DFFFDFFFBEF7BEF779CE694A494AF2
:101570002842694A68424842073A073A073A073A16
:10158000073AE739E739073AE739E639E7390742F1
:101590000742073AE739E739C631C631E631C63185
:1015A000694A4C6375ADE73907422842484A2842E8
:1015B000284A484AC639E739484A284A2842074251
:1015C000284A484A68522B6B0A63C962EA62685229
:1015D000274A274A0642C539A539C6392742C5399F
:1015E000843164318531853185318531853985395D
:1015F000C539C6390642474A274A6852474A68529F
:10160000474A474A674A6752685268526852685266
:1016100068526852684A68526852885288528852A2
:10162000875267528852885A885A8852885267521D
:10163000675267526852885A6852675267526752B7
:1016400067526752875A885A885A885AC8620A6B02
:101650002A6B2A6B0A6B2A6B2A6B0A6B096B096B64
:101660002A6B2A6B096B096B096B29732A7329731F
:101670000A732A732A734A734A734A734A734A7302
:101680004A734A732A732A734A736A734A732A6BBA
:1016900003214429A631C631C631C631C631E639E7
:1016A000E739073A28420742073A074207422742EA
:1016B00048420742273AE7396842894AA94A89429B
:1016C0006842273A073A073A484248424842484265
:1016D000694AA94A694A894AA94A894A894A68429B
:1016E000A94A894A894A894A8952A952A952A952C2
:1016F000AA52AA52AA52CA5AA952894A694A894A7E
:101700004842484248424842684A68426842484221
:10171000684268426842894A6842694A4842273AB0
:1017200027420742273AE6314C637DEFDEFFBEF7E2
:10173000BFF7DFF7BEF7DEF7DFF7DFFFDFF7BFF753
:10174000DFF7DFF7BEF7DEF7DFF779CE694A694AE0
:10175000484A694A28422842073A073AE739E631B7
:10176000E739073AE739E739073A073AE739C63937
:10177000A631A631A531A631C631C631C631A5295B
:10178000694A6D6BB6B52842484A2842074207426B
:1017900028420742E7410742484A07420742284297
:1017A0000742284A0642C95AEA62EA620B63EA62C1
:1017B000EA620A63A95A6852474A474A274A0642D8
:1017C0000642E641A539843164316431A539A53931
:1017D000A5398431E6410642274A0642674A474A0C
:1017E000674A675267526752474A474A474A674AB9
:1017F00068526852474A474A474A474A67526752BF
:101800006752675267528752675267526752475210
:1018100027524752475247526752675AA85AE962BD
:101820000A6B2A6B0A6BE96AE96AE96A096B0A6B57
:101830000A6B096BE96A096B2A732A732A6B2A6B94
:101840002A6B2A6B096B096B2A734A732A732A73F2
:101850004A734A732A734A734B7B4B7B4A734A73AE
:101860004A734A734B7B4B7B4A736A734A732A6B86
:10187000432964296529A531A631A531E639E63920
:10188000C631E739073A2742073A073AE739073AB4
:101890000742073A073A073A694A894AA94AA94AD0
:1018A000CA4AA94ACA52A952894A894A894A894ACE
:1018B000694A694AA952A94AAA52CA52A94A68421F
:1018C000894A894AA94A894A894AA94AA94AAA52F7
:1018D000CA52EA52EA5AAA52684A4842073A484269
:1018E0004842273A6842484228424842694A4842A8
:1018F000484228422842073A484248422842284261
:10190000E7392742273A684A4C639DEFFEFFDEF72E
:10191000BEF7BFF7BEF7DFF7DFFFDFFFDFFFDFF761
:10192000DFF7DEF7DEF7BEF7DFFFBAD649424942FE
:10193000694A48424842273A073A073A073A073A7B
:10194000E739073AE639E631E739073AE739C63980
:10195000A631A5318531A531A6318529A52985294D
:10196000CA52EE7317BE484A484A484A484A484A4B
:10197000284228420742C639074228422842484A9C
:101980002842484A274A474A474A474A474A8852CC
:101990000A63EA620B630A630A63C95AA95A885246
:1019A00068520642474A484A274AE641A5398531E6
:1019B0008531A539E641474A274A274A474A474AD7
:1019C000274A675267526752675267526752474ABF
:1019D000474A474A68526752474A474A474A464A2F
:1019E000474A4752264A46526752885AC85AC862DE
:1019F000C962096B096B096BE962E962E962096B0B
:101A0000096B0A6B096BE96A096B096B2A6B096B35
:101A1000096B2A732A6B2A6B2A6B096B296B296B5A
:101A20002A6B2A732A732A734A736B7B4A734A732D
:101A30004B7B4A734A734A736B7B6B7B4A734A7363
:101A40004B7B6B7B4A736B7B6B7B8B7B4A732A6B09
:101A50004429853165298531A531A531E639C6315D
:101A6000C631C6316529C639E739E7390742073A31
:101A7000E7392842E739273A68424842694A8942A9
:101A8000A94AAA52AA52CA52CA52CA52894A894A71
:101A9000894AAA52EA52CA52CA52EB5ACA4A684200
:101AA0008942A94ACA52AA52AA52AA52CA52CA5230
:101AB000EB5A0B5B0B5B0B5B684A073A27424842C9
:101AC00027424842273A2842284228424842284290
:101AD0002842484248426842284248422842E73960
:101AE0000742E739C531273A6C6B9DEFDEF7BEF749
:101AF000BFF7BFF7DFFFDFFFDFFFDFFFDFFFDFF74E
:101B0000BFF7BEF7FFFFBEF7FFFFBAD6C739E73909
:101B1000694A494A4842E739E639E639073A073A15
:101B2000E739073AE639E639E631E639073A274236
:101B3000073AC639A5318531A6318529C631A5298F
:101B4000CA52CE7338C6684A2842684A07420742DA
:101B500089529194EF7B0742484A284A284A074213
:101B6000484A0742274A484A274A274A6852484A69
:101B7000274A07426852A95AEA620A63EA622B6B53
:101B80002B6BEA62EA5AC95A684A684A2742274ACE
:101B9000E641E641C63906420642274A274A474AF5
:101BA000064A264A6752464A464A464A264A264A2C
:101BB000474A474A274A264A264A474A67526752AF
:101BC000885AA85AE862E962E962E962096BE96247
:101BD000C962E962E962E962E96AE96AE96AE96AAD
:101BE000096B096B096B2A732A732973096B2973B3
:101BF0002A73096B2A732A734A734A732A732A73E6
:101C00004A734A734A734A736B7B6B7B4A734A739A
:101C10006B7B4B7B4B7B6B7B6B7B6B7B4B7B4B7B14
:101C20006B7B6B7B6B7B6B7B6B7B8B7B6B736B7374
:101C300064316429A631852985318531C631073A59
:101C4000AA52EB5AAA52694A0742C639C639C6395E
:101C5000C639E739073A273A48424842894A894A09
:101C6000894A894AAA52894A894A894AAA52CA5241
:101C7000CA52A952AA52CA52CA52CA52A94A89423F
:101C8000A94AA94A894AA94AAA52CA52CA52CA5258
:101C9000CA52EA52EB5AEA52694A4842073A073AAC
:101CA0002742073A073A28422842484248424842D7
:101CB0004842684A484228424842073AE7390742C0
:101CC000E739073A2742C531D194DEF7DFFFBEF787
:101CD000BFF79EF7DFFFDFFFDFFFDFFFDFF7DEF796
:101CE000DEF7BEF7BEF7BEF7DFF738C64521652938
:101CF000083A894A2842073A073A073AE739073A41
:101D0000E7390742073A073AE739E739073A2742FE
:101D10000742E739073AE739073AE639073AE63141
:101D20000B5B0F7C79CEEA5A2842484A484A484A17
:101D300028428D73AE7B0742074228422842284240
:101D4000694A284A274A274A06420642474A274AFA
:101D5000274A484A0742274A474A484A474A685258
:101D6000A95AC95A0A632B632B632B6BEA5AC95AC7
:101D700068526852474A274A0642E6414752264A75
:101D8000474A464A264A264A264A464A4752675200
:101D9000885AA85AA85AC95AC962E962C962C8626F
:101DA000C862C862C862E862E962E962096BE96216
:101DB000E962E962096B296B2A732A732A6B2A6B21
:101DC0002A6B2A7329732973096B096B29732A7388
:101DD0004A732A73096B296B4A736A736A7B6A7345
:101DE0004A734A734A734A736B7B6B7B4B7B6B7B87
:101DF0006B7B6B7B6B7B6B7B6B7B6B7B4B7B6B7BD3
:101E00006B7B8B7B8B7B8B7B6B7B6B736B738C7B31
:101E10008531853165296429A531C631A631E63180
:101E20004842694A894A894AEB5AAA52E739C63177
:101E3000E739E739E739273A684A6842A94AAA5296
:101E4000AA52CA52AA52AA52CA52AA52A94AA94A84
:101E5000AA52AA52CA52CA52CA52CA52A94A68427D
:101E6000A94AA94ACA52CA52CA52CA52CA52EA5ABC
:101E70000B5B0B5B0B5B2C63894A28424842284270
:101E8000073A2742284228422842484248426842AC
:101E900028422842E639273A073AE739E739E7394D
:101EA0000742E639E6398429D294BEF7DEF7DEF739
:101EB000DFFFDFFFDFF7DFFFDFFFDFFFDFFFDFF742
:101EC000DFFFDFFFDEF7FFFFDFF7D7B5A631A63173
:101ED000A73128422842274227420742073A073AB9
:101EE000073A0742073A073A073A073A073AC63924
:101EF000C631C639C639C631E739C631E631E631B1
:101F00002C63508479CE6C6B07420742284A694A99
:101F1000074207420742C6392842484A2842284A0F
:101F2000074228420742E64106420642E641E641B0
:101F300007420742274A274AE6410642274A474ABC
:101F4000274A474A474A474A8852C95A0A630A6396
:101F5000EA62C95AA95A8852274A274AE641264ABC
:101F6000064A264A46526752A85AC862C962C962DE
:101F7000C862C862A85AC862C962E962E962E962D5
:101F8000C962C862C862C862E862E96A096B096B23
:101F9000096B296B096B096B2A6B2A6B096B096B3F
:101FA000E96A096B4A73097309732A732A732973DF
:101FB00029732A734A734A734A734A734A734A737A
:101FC0004A734A734A736B7B6B7B6B7B8B7B8B7B1C
:101FD0008B7B8B7B6B7B8B7B6B7B6B7B6B7B8B7B51
:101FE0008B7B8B7B8B7BAC83AB7B8B7B8B7B8C737F
:101FF0006431442944296529852985298529073A99
:102000006942894A694A694ACA52AA52894A894A2E
:102010004842E639073A2742694A684A894A894A62
:10202000A94AA94ACA52AA52A952A952AA52CA52A4
:10203000CA52AA520B5BEA52EA520B5B0B5389421B
:10204000A94ACA52CA52CA52CA52AA52CA52EA52D9
:102050000B5B2B5B0B5B0B5B68422742073A273A13
:102060002742073A073A274228422842073A073AC6
:10207000E739073A073A073A2742E739E639073A94
:10208000E739E639E639C531918CBEF7DFFFDFF776
:10209000DFFFDFFFDEF7DFFFDFFFDFFFDFFFDEFF5A
:1020A000DFFFFFFFBFF7DFF7BEF776ADA731C73120
:1020B00086298529E739073A073A073A073A073A5E
:1020C000073AE739073A073A073A073AE739C63194
:1020D000C631C639A631A631E739E739C631E6310E
:1020E0004C63918479CEAE734842484A484A2842AC
:1020F000484A484A2842C63928420742484A284A9C
:10210000484A27420742E6410742E641A531853168
:1021100085316429A5390642E641E641E641274A70
:102120000742274A06420642474A0642474A274A8A
:10213000A952C95AC95AC95AEA62C95AA85A875AE9
:10214000C85AE962C862C862C862C862A862A85A6E
:10215000A862C862C962E962C962C962C962E96209
:10216000E96AE96A096B096B096B096B096B096B11
:10217000096B296B2A732A6B2A732A732A732A73B1
:102180002A732A7309732A734A734A734A734A7308
:102190004A734A734A734A736A736B7B6B7B6A7BBD
:1021A0004A734A734A738B7B6B7B6B7B8B7B8B7B1A
:1021B0008B7B8B7B8B7B8B7B8B7B8B7BAC7BAC83A5
:1021C000AC83AC838C83AC83AB83AB7B8C7B8C7B11
:1021D00064314429032185298529A531E639694AD5
:1021E000894A894A894AEA52CA52894AEB5A0B5BA0
:1021F000694A28422742074248424842894AAA522D
:10220000CA52CA52CA52EA5AEA5ACA52CA52CA529E
:10221000EA52EA5AEA52EA520B5B0B530B53A94AB1
:10222000EA52CA4ACA52EA52EA52EA52EB5A0B5BE3
:102230002B5B2B5B0B5B2B5B68424842684248423E
:102240002842274227420742073A2842E739073AFD
:10225000073AE739E739073AE739E739E739E7393C
:10226000E739E739C6316429F29CDEF7FFFFDFF773
:10227000DFFFDFFFBEF7DFF7FFFFFFFFDEFFDEF769
:10228000DFF7DFFFDFF7BEF7DFF776AD8629E83946
:10229000E839A631A631074228422842073AE739F1
:1022A0002742274248422842073A073A073A073A64
:1022B000073AE7390742E739E739C631A529C63178
:1022C0002B5B918499D63084484A484A2842284A50
:1022D000484A0742484AC63928422842284A484ABA
:1022E00028422842484AE639853144290321E3201F
:1022F000E220E220032123292329E641E641E641A9
:10230000E641E6412742E6390642E6390642064200
:1023100027422742274A474A885A885AA85AA85A21
:10232000A85AA85AA862A862A862A862A862C8624D
:10233000A862A862C962E962C96AC862C862E96241
:10234000E96A096B096B096B096B096B096B096B0E
:10235000096B2973096B096B0A732A732A732A7331
:102360002A734A732A734A734A7B2A732A732A731D
:102370004A736B7B4B7B4A734A734B7B4B7B4B7B28
:102380006B7B6B7B8B7B6B7B6B7B8B7B8B7BAC8374
:10239000AC838C838B7BAC83AC83AC83AC838B7B37
:1023A000AC83CC83AC83CC83AC83AC7BAC7B8C7BAD
:1023B000A53944292421852985296529C631484222
:1023C0004842694A894AAA52AA52A94A0B5B894AD9
:1023D0004842073A073A273A894A894A894A894A44
:1023E000CA520B5B4C630B5BEB5A0B5B0B5B0B5BDF
:1023F000EB5A0B5B2B5B2B5B0B5B0B53CA4A894283
:10240000CA4ACA52CA52CA52EA52EA52EA520B5B4A
:102410002B5B2B5B0B5B0B5B6842484228422842DC
:10242000073A073A074207420742073A073AE739AD
:10243000073AE739073A073A073A073AE739E739F7
:10244000C639C639E6398429F29CBEF7DEFFDFF7CC
:10245000DFFFBFF7DFFFDFFFDFFFDFFFDEFFDEFFB6
:10246000DFF7DFF7DFF7FFFFFFFF55A5A731083ADA
:10247000083AE739E739E73907422842484A4842EB
:10248000684A694A894A68424842273A073A073AFD
:10249000073A073AE639E739073A073AC631E631EB
:1024A0006C63918479CE13A5E739684A484A694A32
:1024B000484A284A484AE7392842484A284A484A66
:1024C000284A284A284A0742A531A639A639A639FA
:1024D000E6418531C539C639A539C63985318531D9
:1024E00085318531A531A531A531A531A53184319D
:1024F00084316431A539064267526752A85AA85AF6
:10250000C862A862A862A862A862C862C862C862FB
:10251000C862C862E96AE96AE96AE96AE96A096B54
:10252000096B096B096B096B096B096B096B2973E3
:10253000297329730A730A732A732A732A732A73F5
:102540002A734A732A734A7B4A7B4A7B4A734A73CB
:102550006B7B6B7B6B7B4B7B4B7B6B7B6B7B6B7B8B
:102560006B7B6B7B8B7B8B7B8B7B8B7BAC83AC8329
:10257000AC83AC83AC83AC83CC83CC83AC83AC83A3
:10258000AC83CC83CC83CC83AC83CC83CC83AC7B3B
:10259000A539242124216529A63165292742894AA4
:1025A000AA4A6942A94AA94ACA52CA52A952894AA0
:1025B000E6312742273A4842694A894ACA52A95213
:1025C000A94A894A2B5B0B5BEA52EA520B5B4C63CC
:1025D0002C632B5B0B5B0B5B2B5B0B5BEA52894227
:1025E000CA52EA52EA520B530B5B2B5B0B5B2B5B21
:1025F0002B5B2B5B2B5B2B5B894A48424842484252
:1026000028422842073A073A073AE739E739E739D3
:10261000073A073AE639E639E639E739E739E7397B
:10262000E739E739E639A53113A5DEF7DEF7DFF73D
:10263000DFFFDFFFDFFFDFFFFFFFFFFFDFFFDFFF6A
:10264000DFFFDFFFFFFFDFF7DFF7F49C8629083AA3
:10265000C839083AE839083A08422842694AA95272
:102660008952894AA94A894A894A894A694A694AEA
:10267000694A694A484A2842684A273A073A894AD1
:10268000AD6BD28C79CE95B5073A684A694A074254
:10269000484A484A484AE7412842694A284A484A3B
:1026A0002842284A2742074244298531A53944292E
:1026B0006429A531853185318531853164316431B5
:1026C00085316431853164292321642923214429FA
:1026D0008431432923290642885A885A885A875ABE
:1026E000C962E962C862C862C862C96AC96AC96A5D
:1026F000E96AE96AE96AE96AE96AE96AE96A096B21
:10270000096B096B2973096B096B096B29732973B1
:102710002A732A732A732A732A732A732A732A73D1
:102720002A734B734A732A732A734B734B734B731D
:102730004B7B6B7B6B7B6B7B6B7B8B7B8B7B8B7B29
:102740008B7B8B7B8B7B8B7BAB83AC83AC83AC83B6
:10275000AC83AC83CC83CC83CC83CC83CC83CC8341
:10276000CC83CD8BCC8BCC83CC83EC83ED83CD7BA6
:10277000A539232144296429852985296842A94A44
:10278000AA52894ACA52AA526842894A894A684268
:10279000073A2842073A4842684AAA520B5B2B5B29
:1027A0006C634C63CA52EA52EA520B5B0B5B0B5BE5
:1027B0000B5B2C632B5B2B5B0B5B0B53CA5289426D
:1027C000EA52EA52EA520B530B5B0B530B5B0B5B67
:1027D0000B5B0B5B0B5B0B5B694A28424842273A59
:1027E0002742273A073A073A27422742073AE7396A
:1027F000E739E739073AE739E639E739E739E739B9
:10280000C639C631C639A53154ADFEFFDEFFDFF74C
:10281000DFFFDFFFDFFFFFFFFFFFFFFFFFFFFFFF28
:10282000DFFFDFFFDFF7FFFFBFF7928C862929422A
:102830002942294208422842284248424842484206
:10284000484A694A894A894A694A694A684A484AF3
:10285000484A484A2842073A2842073A073AA94ACA
:10286000EE73D28C99D6F7BD0742694A484A694A45
:10287000694A694A484A07420742694A484A484AF7
:10288000284A28426952E639853144294429A5312C
:1028900003212329232903212329232944294429E6
:1028A0006431442944296429442964296529642917
:1028B000642964290321274A885A885AC862C86251
:1028C000E962C862C862C96AE96AE96AE96AE96AEA
:1028D000E96AE96A096B096BE96AE96A096B096BDC
:1028E000096B096B2A7329732973297329732A7356
:1028F0002A732A734A732A732A732A732A732A73D0
:102900004A734B734B732A734A734B7B6B7B6B7BA2
:102910006B7B6B7B8B7B8B7B8B7B8B7BAB83AB8377
:102920008B7B8B7BAB83AB83CC83CC83CC83CC8303
:10293000CC83CC83CC83CC83CC83CC83CC83CD8B16
:10294000ED8BED8BEC8BEC8BEC8BED83ED83ED83E2
:10295000E641242924218529A5312842A952CA52B9
:10296000A94AAA4A0B5B4C630B5B2B5B0B5B48428F
:102970004842484248426842694A694ACA520B5B27
:102980004C636C636C636C632B5BCA520B5B4C6374
:102990004C632B5B2C632B5B0B5B0B53CA52894242
:1029A000CA52EA52EA520B530B530B530B5B0B5BAD
:1029B0000B5B2B5B2B5B2B5B894A4842684248428E
:1029C0002842284228422842484248422842073AA0
:1029D000073A073AE631073A073A073AE739C6397C
:1029E000E739073AC631A53195B5FFFFFFFFDFFF95
:1029F000DFFFDFFFFFFFFFFFFFFFFFFFFFFFFFFF27
:102A0000DFFFDFFFDFF7FFFF9EEF518487316A4A68
:102A10006A4A4942494A494A284228422842484289
:102A2000684A894AAA52A952894A694A484A484288
:102A3000484A684A894A4842684A684AA631273A59
:102A40002F7C339D79CE99CE89522842694A484AD3
:102A5000694A284A484A07420742484A694A484A56
:102A6000484A284A2742274A65310321C6392B6B39
:102A7000A531E2202329E220E220E22023210321C4
:102A8000242123212421E31844214421032103216B
:102A900023210321C218274AC962A85AA85AA85A52
:102AA000C862E86AE96AC96AC96AE96AE96AE96AF8
:102AB000E96AE96A096B096B096B096B096B096BB8
:102AC0000A732A732A732973297329732973297343
:102AD0004A734A734A734A734A734A734A734A730E
:102AE0004B734B7B6B7B6B7B6B7B8B7B8B7B8B7B9E
:102AF0008B7BAB83AC83AB83AB83AB83AB83AB838D
:102B0000AB83AB83CB83CB83CC8BCC8BCC8BCC8B71
:102B1000CC8BEC8BCC8BCC8BCD8BCD8BED8BED8B99
:102B2000ED8BED8BED8BED8BEC8B0D8CED83ED83D5
:102B3000E6414429242185318529E6396842CA5273
:102B4000CA52AA520B5BEA52EA522B5B0B5BA94AB0
:102B5000273A4842694A694ACA52CA520B5B4C63D7
:102B60002B5B0B534C5B4C5B2B5B4C5B2B5B0B5B1A
:102B70000B5B2C632B5B2B5B2B5B2B5B0B53A94AF7
:102B8000EA52EA520B530B5B0B5B0B5B2B5B2B5B31
:102B90002C634C632B5B2B5B694A6842484248427A
:102BA0002842284248422842484248422842284275
:102BB00048424842073A073A073A073A074207426B
:102BC000073A073AE639A531D6BDDEFFDFFFDFFF62
:102BD000DFFFFFFFDFFFDFFFFFFFFFFFFFFFDFFF85
:102BE000DFFFDFFFFFFFFFFF7EEF1084C839CC5A05
:102BF0008A5229424942894A694A48422842894AB6
:102C0000AA4AAA52AA52A94A894A894A694A694AD9
:102C1000694A894A694AAA524842684AAA52EA520B
:102C2000EE73139D79CEBAD6694A8952284A694A09
:102C3000484A484A484A07420742284A694A2842BD
:102C4000484A2842284A284A85310321C218A53912
:102C5000432902212329C218E220E2200321E3189C
:102C6000E3200321242103214421031923212321CB
:102C700003214429E220E641A95AA85AC962E96A17
:102C8000E86AC862E96AC96AC862E96AE96A096BFE
:102C9000096B096BE96AE96AE96A096B096B096BF7
:102CA000096B2A7329732973297329734A734A7329
:102CB0004A734A734A736A7B6A7B4A734A734B7BD3
:102CC0006B7B6B7B6B7B8B7B8B7B8B7B8B7B8B7B34
:102CD000AB83AC83AC83AB83AB83AB83AB83AB8382
:102CE000CB83CC8BCB83CB83CC8BCC8BCC8BCC8B47
:102CF000CC8BEC8BCC8BEC8BED8BED8BED8BED8B58
:102D00000D8C0D940D8C0D8C0D8C0D8CED83EE8344
:102D100007424429242165298529073ACA52EA5ADB
:102D2000EB5ACA522C632B5B4C632B5B0B5B484208
:102D30004842484268424842CA52CA520B5B6C63DE
:102D40006C638D636C636C634C5B0B5B4C5B8D6382
:102D50006C634C632B5B2B5B2B5B2B5B0B53A94A8C
:102D6000EA520B530B530B5B0B5B0B5B2B5B2C6324
:102D70004C634C634C634C63894A894A694A694A8B
:102D80004842484A4842284248424842484228422B
:102D90004842484268422842073A073A28422842B5
:102DA000E739C631E639A53117BEDEFFFEFFFFFF6A
:102DB000DFFFFFFFDFFFDFFFDFFFFFFFFFFFDFFFC3
:102DC000DFFFDFFFFFFFDFFF9FF7D07BC8394E6BD0
:102DD000CB5A494A49426A4A694AAA4A694A894ACF
:102DE0006942694A273A28422842484228424842D2
:102DF00048424842684A694A894A684A48420B5BE5
:102E0000507C54A579CE38C6894A484A484A694A0E
:102E1000694A484A28422842E741484A694A2842C2
:102E2000484A2842284A284A643185318431642935
:102E3000232944294429E218C218C218C218C2180A
:102E4000A218C218C318C218E3180321E318E31824
:102E50000321E218C118C539E962E962C962E96A69
:102E6000E86AE96AE96AE96AE96AE96A096B0A7380
:102E70000A73096B096B096B0A732A732A732A7325
:102E80002A732A7329734973497349734A734A73BE
:102E90006A7B6A7B6A7B6A7B6A7B6A7B6A7B6B7B09
:102EA0006B7B8B7B6B7B8B7B8B7B8B7B8B7BAB7B12
:102EB000AC83CC83CC83CB83CB83CB83CC8BCB8BAE
:102EC000CB8BCC8BCB83CB8BCC8BCC8BCC8BCC8B55
:102ED000CC8BCC8BEC8BED8BED8BED8BED8B0D8C54
:102EE0000D940D940D940D8C2D942D8CED830E8CE2
:102EF00007424429242165296529073AC952EA5223
:102F00000B5B0B5B2B5B2B5B0B5B0B5B4C634842E4
:102F1000894A2842484268422B5B4C5B6C638D6354
:102F20004C636C638D638D638D638D6B8D634C63BC
:102F30002B5B4C634C634C632B5B2B5BEA52A94AC3
:102F40000B532B5B0B5B2B5B2B5B2B5B2B5B4C6370
:102F50004C634C634C634C63894A484A484A484234
:102F600048424842484248424842684A48424842E9
:102F700028422842273A4842684248422842073AB3
:102F8000073A2742E639A53137C6FEFFFFFFFFFFAC
:102F9000DFF7DFFFFFFFFFFFFFFFFFFFFFFFDFFFA9
:102FA000DFFFDFFFDFFFFFFF9FF7F07BC8390D6317
:102FB000EC5A6A4A083A4942694ACA52AA52CA5263
:102FC000894A894A894AA94A894AA952AA52AA52CF
:102FD000AA52AA52AA52894A894A894A68424C632B
:102FE000708454A5F7BD59CE0C63A631A631C639FD
:102FF0008531E73907420742E739484A694A484A72
:10300000694A484A484A484A853184318431843182
:10301000843143296429C21881108110A210C2187A
:10302000C318E318E318E318C218E318C218C2184B
:10303000E320E320C218A539E962E962E96A096B75
:10304000C862E86A096BE96AE96AE96A096B0A73A6
:103050002A730A732A732A732A734A732A732A7388
:103060002A734A734A734A734A736A7B6A7B6A7B20
:103070006A7B6A7B6A7B6A7B6A7B6A7B6A7B8B7B07
:103080008B7B8B7B8B7BAB7BAB83AB7BAB83CB8338
:10309000CC83CC83CC83CB83CB83CC8BEC8BCC8B82
:1030A000CC8BCB83EC8BEC8BEC8BEC8BEC8BEC8BB1
:1030B000EC8BEC8BED8BED8BED8BED8B0D940E94FF
:1030C0002E942E940E942D942D942E942D8C2E8C23
:1030D000274A44290321A631A6314842AA520B5B54
:1030E0000B5B0B5B4C5B2B5B2B5B2B5BEB5A6842EC
:1030F000684268426842694AEA522B5B8D638D637D
:103100008D636C638D638D638D638D638D6B8D6B50
:103110008D638D6B8D6B6D6B6C634C630B53A94A28
:10312000EA522B5B0B5B0B5B2B5B2C632B5B4C63C7
:103130006C634C634C634C6389524842484A484232
:1031400048424842684A48426842694A684248429E
:103150006842894A48424842694A694A4842484264
:10316000284227422742C53958CEDEFFFEFFFFFF27
:10317000DFFFFFFFFFFFFFFFFFFFFFFFFFFFFFFF7F
:10318000DFFFDFFFFFFFFFFF7EEF528CC8390942F0
:103190008B526A4ACF73D394139D30840B5BCA520F
:1031A000AA52894AEA52CA52AA52A94AA94AA9521B
:1031B000A952A952CA52A9526842894A894A2B5B2C
:1031C000B18C95AD9AD6DBDE3084484A8952484AA4
:1031D000894A484A073A073A6529A631A631A639ED
:1031E000E741284A494A284AC539A439643184311B
:1031F000A439633164292321E31882108210A210BC
:10320000A210C318A210A210C318C210E318C2184B
:10321000E318A218A2184429EA62E962096BE8627D
:10322000096B09732A732A730A730A732A6B2A7348
:103230002A732A734A734A734A734A734A7B4A7BD6
:1032400049736A7B6A7B6A7B6A7B8A7B6A7B6A7B5F
:103250006A7B6A7B8B7B8B7B8A7B8B7B8A7B8B7B82
:10326000AB838B7BCC83AC83AB83AB83AC83CB83D3
:10327000CB83EC8BEC8BEC8BEC8BEC8BEC8BCC83E7
:10328000EC8BEC8BEC8BEC8BEC8BEC8BEC8B0D8C64
:103290000D8CED8BED8B0D8C0D8C0D8C0E942E9476
:1032A0002E942E942E944E944E942D940D8C0E8C20
:1032B000474A64294421A5298531C631073A484245
:1032C000CA4AEA524C634C5B4C5B2B5B0B5BA94AD2
:1032D0006842484248426842CA522B5B2B5B6D6B86
:1032E0006C638D638D638D638D638D636C638D63A0
:1032F0008D638D636C636C634C634C632B5BEA5230
:103300000B530B5B0B5B0B5B2B5B2B5B2B5B4C63EC
:103310006C636C636D6B4C63894A4842894A6842AE
:10332000484248426842484248422842484268422D
:103330006842273A48424842484248426842684AFE
:10334000484A27422742E63978CEFFFFDEFFDFFFFB
:10335000FFFFDFFFDFFFDFFFDFFFDFFFDFFFDFFF5D
:10336000DFFFDFFFDFFFFFFF9FF7F17BE9392A4235
:1033700009426A4AEB522C5B0B5B2B5B2B5BEB52DB
:103380004C5BCA4ACA52CA52CA52AA52CA52AA521A
:10339000AA4AAA4AAA4A894ACA52CA52894A8D6B7B
:1033A000B18C74A57ACEBBDE92942842684A684AF2
:1033B000684A684A484A894A0842894A494A27422B
:1033C000E739C6398531A6398431A4318431643175
:1033D000833163316431E2188110A310A2106108B7
:1033E0008210A210A210A210A210810881108108E0
:1033F0008210C218A2184429EA620A6BE96A096BB2
:10340000E96A0A73297329732A732A732A732A7340
:103410004A734A734A734A734A734A736A7B6A7B74
:10342000697B6A7B6A7B6A7B6A7B6A7B8A7B8B7B34
:103430008B7B8B7B8B7B8B7B8A7B8B7B8B7B8A7B5E
:10344000AB83AB83CB83CC8BCB83CB83CC8BCC8B31
:10345000CC8BEC8BEC8BEC8BEC8BEC8BEC8BEC8BD4
:10346000EC8BEC8BEC8B0C8C0D8C0D8C0D8C0D8CFB
:103470000D8C0D8CED8B0D8C0D8C0E942E942E944A
:103480002E944E944F944F944E944E942E942E8C92
:10349000685264298529A531A5318531C631073A9D
:1034A0006842A94ACA4A0B534C5B4C5B0B5B894A86
:1034B0006842694A6842694AEA522B5B4C638D6BE9
:1034C0006D6B8D6BAD6B8D6B8D6B8D6B8D638D634C
:1034D0008D6B8D636C636C634C634C630B5BEA5266
:1034E0000B530B5B0B5B0B5B2B5B2B5B2B634C6303
:1034F0006C636C634C632C63894A6842684248423F
:10350000284228422742274268426842684248428D
:1035100068424842484248424842684A684A884AA3
:10352000684A474227424742B9D6FEFFDEFFDFFF27
:10353000DFFFDFFFFFFFFFFFFFFFFFFFFFFFDFFFFB
:10354000DFFFDFFFFFFFDFFF7EEF6F6BA831ED5A7C
:10355000CC522C638D6BEB5A2B5B4C5B4C5BAD6B95
:103560004C632B5BCA52EB5AEA52A952EB5ACA522D
:10357000AA52AA52894AEB5ACA52AA52CA52EE73A6
:10358000F294B5AD79CEBAD654AD2742684A884A8E
:103590004842694A494A494AE739484A684A484AD2
:1035A000684A484A684A484AE641A4318439843125
:1035B000843163316431E218A21861086108A210F5
:1035C0006108410881088108810881088108810813
:1035D0006108C318A21803210A63E962096B296B09
:1035E000E96A297329732A732A734A734A734A73DF
:1035F0004A734A734A736A7B4A736A7B6A7B6A7B43
:103600006A7B6A7B8A7B8A7B8A7B8A7B8B7BAB83A8
:10361000AB83AB838B7BAB83AB83AB83AB83AB8362
:10362000CB83AB83CC8BCC8BCC8BCC8BEC8BEC8BD4
:10363000CC8BEC8BEC8BEC8BEC8B0C8CEC8BEC8BD1
:10364000EC8B0C8C0C8C0C8C0D8C0D8C0D8C2D94AF
:103650002D942D940D8C2D942E942E942E942E9486
:103660002E944F944F944F944E944E944E944E9467
:103670006852442944296529A531C631273A684250
:1036800089428942894A484289426842EA52894AC3
:10369000894A68426842894A0B5B2B5B6C636D6B9D
:1036A0008D638D638D638D638D6B8D6B8D638D638A
:1036B0008D636C636C636C636C634C630B53CA52B5
:1036C0000B532B5B2B5B0B5B2B5B2B5B2C634C63E0
:1036D0004C636C636C632C63694A694A894A68422B
:1036E000273A073A273A073A2842694A4842484265
:1036F0004842484248424842684A684A684A684ADA
:10370000484A4742474AC9521BE7FFFFFEFFFFFFF7
:10371000FFFFFFFFDFFFDFFFDFFFDFFFDFFFDFFF79
:10372000DFFFDFFFBEF7FFFF3DE76B4A2A422A4279
:10373000EC5A34A56D6B4C634B5B6C638D6BAD6B5E
:103740006C63AD6B0B5BCA520B5BCA52EB5AEA5A05
:10375000EA5ACA52EA524C630B5BEA52CA520F7CD5
:10376000F294B5AD99D6BAD6F6BD0742894A894AD0
:10377000484A684A894A694A073A284248424842C0
:10378000484A484A69526852E64184318539843949
:1037900064316431843123298110A21081086108C9
:1037A000A2106108820861086108810881108110F7
:1037B0006108A210A21802210A63E962096B296B51
:1037C000097329732A732A734A734A734A734A73B3
:1037D0004A734A736A7B6B7B6A7B6A7B8A7B8A7BD0
:1037E0006A7B8A7B8A7B8B7B8B7BAB83AB83AB8354
:1037F000AB83AB83AB83AB83AB83AB83AB83AB8359
:10380000CB83CB83CC8BCC8BCC8BEC8BEC8BEC8BB2
:10381000EC8BEC8BEC8B0C8C0C8C0C8C0C8C0C8C4B
:103820000C8C0C8C0D8C0D8C2D942D942D942D9432
:103830002D942D942D942E942E942E944E944E943B
:103840004E944E946F946F946E946E9C4E944F94DD
:103850008852442985298529A531E739894AEA52C0
:103860002B5B2B5B4C632B5BA94ACA52894A894A62
:103870004842894A6842894A0B5B2B5B6C636D6BDB
:103880008D638D638D6BAD6BAD6BCE6BAD6BAD6BC7
:10389000AD6B8D6B8D636C638D636C630B53CA5220
:1038A0000B5B0B5B2B5B0B5B2B5B2C632C634C630D
:1038B0006C636C636C636C63AA52CA4AA94A8942FE
:1038C00068426842694A48424842894A694A894A84
:1038D000694A694A4842684A894A894A684A694A3B
:1038E000684A484A4742C9521BE7FFFFDFFFDFFF34
:1038F000DFFFFFFFDFFFDFFFDFFFDFFFDFFFDFFFB8
:10390000DFFFDFFFFFFFFFFF3DE76A4A093A6B4A2F
:10391000CF7330842B5B6C634C638D63CD6BAD6B6D
:103920008C638C63AD6BEA52EB5A6C6B8D6B2B5BCB
:103930000B5B2B5B0B5B4C630B5B2B5BCA520F7CF3
:10394000339DD6B599D6BAD638C607428952694A48
:10395000694A494A494A494A08422842494A484A22
:10396000484A2842274A484A274A8431A53985319E
:1039700064318431A539E2208110A21081108110B8
:1039800061088210A2106108811061086108610855
:103990006108A210A2182329C95A4A6B096B4973FE
:1039A0002A732A7329734A734A734A734A736A7370
:1039B0004A734A736A7B6B7B6A7B6A7B8A7B8A83E6
:1039C0008A7B8B838A7BAB7BAB83AB83AB83AB8301
:1039D000CB83CB83AB83CB83CB83AB83AB83CB83D7
:1039E000CB83CB83CC83CC83CC83EC8BEC8BEC8BE9
:1039F000EC8BEC8B0C8C0C8C2D8C0C8C0C8C0C8C28
:103A00000C8C2D8C2D942D942D942D942D942D94DF
:103A10004E944E942D942D942E942E944E944E9418
:103A20004E944E946F946F946E9C6E9C4E946F94D3
:103A3000A85A4429642985298529C6394842894AD2
:103A40000B532B5B0B530B5B2B5B2B5B0B5BA94A69
:103A5000894A894A6842894A0B5B2B5B4C636C63D9
:103A60006C63AD6B8D638D638D6BAD6B8D6B8D6B8F
:103A70008D6B8D638D6B8D638D636C630B5BEA5215
:103A80002B5B0B5B2B5B0B5B2B5B2B5B2C636C63F4
:103A90006C638D6B6C634C63894A894A68426842E7
:103AA0006842A94A894A694A4842694A6842894A39
:103AB000694A6842894A894A8952894A894A894AAF
:103AC000694A484A2742A952FADEFFFFDFFFDEFFBC
:103AD000FFFFFFFFFFFFFFFFFFFFFFFFFFFFFFFFF6
:103AE000FFFFFFFFBEF7FFFFFCDEAB52AB52CB5236
:103AF0003184B294EE7B6C63AD730E7CEE73EE7327
:103B0000CD736C63EE732F7C8D6B6C638D6B8D6BE3
:103B10004C63EB5A0B5B4C630B5B2B5BCA520F7C09
:103B2000549DD6B59AD6B9D658CE484A894A484AFD
:103B30008952694A694A694A2842284228422842E9
:103B400028424842684A6852274A8431853964319C
:103B500044316431643144298110A110A1108110D5
:103B600082102000410882108110610861086008FD
:103B70008210A210C3180321A95A4A6B296B29731A
:103B80004A7B29734A734A734A734A736A7B6B7B15
:103B90006B7B6A7B6B7B8B7B8B7B8B7B8B838B8346
:103BA0008A838B83AB83AB83AB83AB83AB83AB83E6
:103BB000CB83CC83CB83CB83CC83CB83CB83CC8392
:103BC000CB83EC83EC8BEC8BCC83EC8B0C8C0C8C54
:103BD0000C8C0D8C0C8C2D8C2D942D942D942D945F
:103BE0002D942D942D942D942D942D944D944D948D
:103BF0004E944E944E944E944E944E946E9C6E9C65
:103C00004E946F946F948F9C6E9C6E9C4E944F94C8
:103C1000A95A43294429A631A631E639073A274251
:103C2000A94A0B530B5B0B5BEA520B5BEA52CA527D
:103C300068426842894A894AEA52EA522B5B6C63BD
:103C40006C63AD6B8D6B8D6B8D6B8D6B8D638D6BC5
:103C50008D6B8D6B8D638D636C636C632B5B0B5312
:103C60002B5B0B5B2B5B2B5B2B5B2B5B4C636D6BC9
:103C70008D6B8D6B8D6B4C63684248426842684225
:103C800068428942A952A952A9528952694A894A6D
:103C9000894A694A694A694A694A694A684A694A6D
:103CA000684A28424842C9521BDFFFFFFFFFDFFF7F
:103CB000FFFFFFFFFFFFFFFFFFFFFFFFFFFFFFFF14
:103CC000FFFFFFFFFFFFDFF7DBD64A428B520C5BA3
:103CD000718CD294AD73708453A595ADF6B557C66B
:103CE00098CEB4AD98CE16BE6C634B636C634C63D8
:103CF0008D6BEA5A0B5B8D6B4C630B5BEA52508405
:103D000054A5D6B59AD6BAD699D6CA5A694A684A37
:103D1000694A894A684A684A284A2842484A684A99
:103D2000694A684A484A474A274A8431A539853949
:103D30008539853984314429A11081108108811089
:103D4000410861082100C318610840086108600843
:103D500041088210E320C218C95A2A6B4A7329739A
:103D60004A7B2A734A734A734A736A7B6A7B8B7BEA
:103D70008B7B8B7B8B7BAB838B7B8B7BAB83AB839B
:103D80008B83AB83CB8BCB8BCB83AB83AB83AB8373
:103D9000CC8BEC8BEC8BCC8BEC8BCC8BCC8BEC8BEB
:103DA000EC8BEC8BEC8BEC8BEC8B0C8C2D8C0C8CD7
:103DB0000C8C2D942D8C2D942D942D942D944D940C
:103DC0004D944D944D944D944D944E944E944E94E8
:103DD0004E946E9C4E946E9C6E9C6E9C6F9C6F9CE1
:103DE0006F9C8F9C8F9CB09C6F9C8F9C6F9C8F9CBA
:103DF000E95A442964298529A631A631C631073AF2
:103E00006842CA52CA52CA520B5B2B5B2C63CA521D
:103E1000894A694A894A894ACA52A94A2B5B4C5B3A
:103E20004C5B6C636C636C636C636C636C636C6342
:103E30008D638D638D638D636C634C632B5B0B5360
:103E40002B5B0B5B0B5B2B5B4C5B4C5B4C63AD6B85
:103E5000AD6BAD6BAD6B8D6BCA4A68426842684210
:103E60008942A94A894A894AA952894A694A684ABB
:103E7000694A4842274228422842484A684A894AB1
:103E8000894A684A47420A5B3BE7FFFFFFFFDFFFC3
:103E9000DFFFDFFFFFFFFFFFDFFFDFFFDFFFDFFFF2
:103EA000DFFFFFFFDFF7FFFF9BD6AB526A4A6E6B67
:103EB0003084D29CCE734F84708CB194F29CB194B8
:103EC000B194708CD1942F7CAD6B6C634C63AD73EB
:103ED0004C630B5B2B5B4C632C630B5B2B5B918C00
:103EE00095AD17BE9AD6BADEDADE4C6B694A694ADE
:103EF000484A8852684A684A484A2842684A684A92
:103F0000694A484A684A684A474A6431432923292A
:103F100044316431442964318110600840086008EC
:103F20008110A218A2108631A210400881088110C9
:103F30004108A210E320C118A85A4A6B2A6B6A7B79
:103F40004A7B6A7B6A7B6A7B6A7B6A7B6A7B8B7B48
:103F50008B7BAB7B8B7BAB83AB83AB83AB83AB8349
:103F6000AB83AB83CB8BCB8BCB8BCB8BCC8BCC8BEF
:103F7000EC8BEC8BEC8BCC8BEC8BEC8BCC8BEC8BC9
:103F8000EC8B0C8CEC8B0C8C0D8C0D8C2D940C8C88
:103F90000C8C2D942D944D944D944D944D944D94A2
:103FA0004D944D944D944D944E946E9C6E9C6E9C8D
:103FB0006E9C6E9C4E946E9C6E9C6E9C8F9C6F9CB7
:103FC0008F9C8F9C8F9C909C6F9C8FA46F9C8F9CD0
:103FD000C962432944294421C639C631E7394842D8
:103FE000073A6842AA52AA52694ACA52A94AAA5230
:103FF000684A894A894A694ACA52A94A4C5B2B5B7A
:104000002B5B4C5B4C5B4C5B6C638D636C638D63B7
:104010008D638D638D638D6B6C634C632B5B0B5B6E
:104020000B5B2B5B0B532B5B4C634C636C63AD6B7B
:10403000CE6BAD6BAD6B6C63A94A68428942894215
:1040400089426842894A694AA94A894A894A694A29
:10405000694A4842684A684A694A694A694A8952CB
:104060008952894A27424C635CE7FEFFFFFFFFFF4E
:10407000FFFFFFFFFFFFFFFFFFFFFFFFFFFFFFFF50
:10408000FFFFFFFFBFF7FFFF7ACEAB52EC5AAE73D4
:104090000F7C13A5CD73EE7B508C918C33A5F6BDB0
:1040A00053A5B094B5AD139DAD73AD6BAD6B4C63C3
:1040B0008D6B2B638D6B2C634C634C632B63B18CCA
:1040C000B6B5F6B53DEF3CEF5CEFEE7B694A694A69
:1040D000894A8852684A885207420742884A684A91
:1040E000484A484A684A474A274AC53985396431A7
:1040F0004431432944296431442964294429242131
:10410000E320A210A210610840086108400840089E
:10411000610882100321C21888522A6B4A734973BE
:104120004A7B6A7B4A736A7B8A7B8A7B8A7B8A7B2F
:104130008A7B8A7BAB83AB83AB83AB83AB83AB8361
:10414000CB83CC8BEC8BEC83CB83EC83CC83CC8389
:10415000CC83EC8BEC8BEC8BEC8BEC8BEC8BEC8BCF
:104160000C8C0C8C0D8C2D8C2D8C0D8C2C8C2D8C0A
:104170002D8C2D8C4D944D944D944D944D944D9487
:104180004D944D944D944D944E946E9C6E9C6E9CAB
:104190006E9C6E9C8F9C8F9C8F9C8F9C8F9C8F9C09
:1041A0008F9C8F9CB0A4B0A4AFA48F9C8F9C8F9C3D
:1041B0000A6364298529A631A631C639073A073A28
:1041C00048428942894AA952894AA952894A894A58
:1041D000694A68424842894ACA52A94A0B5B2B5B2A
:1041E0004C5B6C638D636C636C636C634C5B8D6365
:1041F0006C638D6B6C636C638D638D6B0B5B2B5B86
:104200004C5B2B5B0B5B4C5B6C636C638D63AD6BCE
:10421000CE6BAD6BAD6B6C638942A94A894A68422B
:10422000483A68426842CA52AD6B894A894A894A0B
:10423000CA52A952894AAA52AA52A94A894A894A03
:10424000694A484227424C6B5CE7FEFFDEF7FFFFFE
:10425000FFFFDFFFFFFFFFFFFFFFDFFFDFFFDFFFEE
:10426000DFFFDFF7FFFFDFF759C6C8392D639294F0
:10427000D39C13A5AD73908C508C708C708C9094E3
:104280002F844F8C2F846C6B2B634B632B63EA5A08
:10429000CA52CA524C632B63EB5A6D6BAD73139DBC
:1042A000B5B5F7BD96BD3CEF5CEF508C8731294228
:1042B000AB528A52AA52695289520742484A684A06
:1042C0004842894A694A684A8952E6398431A5399F
:1042D00084398431E641C639A118811081108110DA
:1042E000C31804210421652965292421E318E21853
:1042F000610881102421E218474A6B736A736A7B54
:104300006A7B4A734A736A7B6A7B8A7B8B7BAB7B53
:10431000AB7BAB7BAB83AB83AB83AB83CB83CB83FD
:10432000CB83CC8BEC8BEC8BEC8BEC8BEC8BEC8B1E
:10433000EC8BEC8BEC8BEC8BEC8BEC8B0C8C0C8C83
:104340000C8C0C8C2D8C2D942D942D944D944D947F
:104350004D944D944D946D944D946E946D946D94D4
:104360006D946D944D946E946E9C6E9C6E9C6E9C40
:104370006E9C6E9C6E9C8F9C8F9C8F9C8F9C8F9C48
:104380008F9C8F9C8F9CB09CB0A48FA48F9C8F9C83
:104390000A6B43296429852985318529073A4842D2
:1043A0006842A94A894A894A894AA94A894A694A7E
:1043B0004842894A694A694A694AAA52CA520B5311
:1043C0004C638D636C636C638D638D636C638D6B09
:1043D0006C638D6B6C638D6B6C636C634C5B2B5B84
:1043E0000B532B5B2B5B4C5B4C634C638D63AD6B56
:1043F000CE6BAD6B8D638D63CA4AA94A89428942EF
:104400006842684248420F7C70846842AA52CA528D
:10441000694AA94A894AA94A894A894AA952A95294
:10442000894A484248428D737CEFFFFFFFFFDFFF60
:10443000DFFFDFFFFFFFFFFFFFFFFFFFDFFFDFFF0C
:10444000DFFFDFFFDFF7FFFFD7B5AB5235A5929453
:1044500017C637C6708CB5B5F6BDB5B554AD95B5B4
:1044600033A5D19CB5B533A533A574ADB5B5F7BDAE
:1044700078CE99D6BAD6FADE1BE75CE73CE75CEF6C
:104480003BE7FADE9ADE38CE7DF772940100020037
:1044900022006308A310C418C4186631694A494A47
:1044A0008A528A4A8A4A494A8A52E739C539E539DD
:1044B000A439A539853168520321C218C218821067
:1044C000811061080421C3184008A210E318442990
:1044D00024214529442944292642A85A6A732A736B
:1044E0002A736A7B4A736A7B6A7B8A7BAB7BAB836A
:1044F000AB83AB83AB83AB83AB83CB83CC8BCC8BDA
:10450000CC8BCC8BEC8BEC8BEC8BEC8BEC8BEC8B33
:10451000EC8BEC8BEC8BEC8B0C8C0C8C0C8C0C8C5F
:104520000C8C2D942D944D944D944D944D944D940C
:104530004D944D944D944D946E946E9C6E946E94E7
:104540006E946E9C6E9C6E9C6E9C6E9C6E9C6E9C23
:104550008E9C8E9C6E9C8F9C8F9C8F9C8F9C8F9C26
:104560008F9CAFA4B0A4B0A4AFA48FA48F9CB09C28
:104570004B73642944218529E639A6312742274215
:104580004842694A684289528952A952A952AA529C
:10459000894A68426842894ACA52894AEA524C5B4F
:1045A0006C636C636C638D638D6B8D6B6C638D6BF7
:1045B0006C638D6B8D63AD6B6C634C634C636C6330
:1045C0004C5B2B5B2B5B4C634C636C638D63AD6B03
:1045D000CE6BAD6BCE6B6C63894AA94A8942684247
:1045E000894A2B5BEE732B5BEE73918C684A6842B1
:1045F000894A894A6842694A894A894A894A894A6C
:10460000894A484227420F7C7DEFFFFFFFFFFFFFF3
:10461000FFFFDFFFDEF7DEFFDEFFDEFFDFFFDFF79E
:10462000DEF7DEF7DFF7DFF718C635A5B7B5F7BD5C
:1046300079CE17C699D6FAE61BE73CEF3BEF3BEF86
:104640005BEF7CEF7CEF5BEF5CEF7CEF5CEF7CEF94
:104650007CEF7CEF7CEF7CEF5CEF1BE73BE71AE73E
:104660001BE73BE71CF75ADEDBE636AD0300C61856
:104670008510851064084408230822086208410850
:104680002200A410E5180521A731A731E641C5395C
:10469000A431C5398531A95A4329E22003210421D7
:1046A0000321E3182421E739A1106108810860087B
:1046B00061088110A631C2182329E541E9622A73F5
:1046C0006B7B4A7B6A7B8A7B8A7B8A7BAB7BAB83F7
:1046D000AB83AB83AB83AB83CB83CC83EC8BEC8B97
:1046E000EC8BEC8BEC8BEC8B0C8C0C8C0C8C0C8C8E
:1046F0000C8C0C8C0C8C0C8C0C8C0C8C0C8C0C8CFA
:104700002D942D942D944D944D944D944D946D94E1
:104710004D944D944D946E946E9C6E9C6E9C6E9CCC
:104720006E9C6E9C6E9C6E9C6E9C8E9C8E9C8E9CD9
:104730008E9C8F9C8F9C8F9C8F9CAFA4AFA48F9CD2
:10474000AFA4B0A4B0A4D0A4B0A4AFA4AFA4B09CB4
:104750004B73032185296529A631A631C631C6319F
:1047600048426842694AAA52894ACA52AA52694AC8
:10477000894A894A894AA94ACA52EA520B5B2B5B89
:104780004C636C638D638D6B8D638D6B8D63AD6BD3
:10479000AD6BAD6B8D6B8D6B6C638D638D6B8D6352
:1047A0004C5B2B5B2B5B4C636C636D6B8D6BAD6BF0
:1047B000AD6BAD6BAD6B8D63CA52A94A894A894A0C
:1047C000CA524C634C63A94A0B5BA94A684A4842E7
:1047D000694A28422742484248422742073A27422C
:1047E0006842894A895291947DEFFFFFFFFFFFFFE6
:1047F000FFFFFFFFFFFFFFFFFFFFDEFFBEF7BEF77C
:104800009EF79EF77DEF3CE7149DB394D7BD38C665
:1048100099D6FADE7CEF5BEF3BEF5CEF5CEF5BEF92
:104820005BEF5BEF5BEF5BEF7CEF7CEF5CEF5CEFF4
:104830005CEF5BEF3BEF3BEF5BEF3BEF5BEF1AE7D0
:104840003BE73BE79BE69BE65AD61ACE0400660898
:10485000861065088510A610651085106410A410D8
:10486000841044086508440023008310C639E641DB
:10487000C539C5394329074223210321E420E32018
:10488000C318E32024290742E21803210321031956
:104890000321A210484A6431A439E9622A6B4A73A1
:1048A0002A738B838B7B8B7B8B7B8B7BAB83CB83C9
:1048B000CB83CB83CB83CB83EC83EC8BEC8BEC8BEC
:1048C000EC8BEC8B0C8C0C8C0C8C0C8C2D8C2D8C28
:1048D0002D8C2D8C2D942D8C2D942D942D942D94E8
:1048E0002D944D944D944D944D946D946E946E9C76
:1048F0006E9C6E9C6E9C6E9C6E9C8E9C6E9C6E9C48
:104900006E9C8E9C6E9C6E9C8E9C8E9C8E9C8E9CB7
:104910008F9C8F9C8F9CAFA4AFA4AFA4AFA48F9C9F
:10492000AFA4D0A4D0A4D0A4B0A4D0A4B0A4B09C70
:104930006B73432964298529A531C631C639C6312F
:10494000073AE739073A27422842484A484A894AFB
:10495000684A694A694ACE73CA52A94A2B5B4C63BA
:104960002B5B6C636C638D6B6C638D6B6D6B8D6B94
:104970008D6B8D6B8D6B4C63EE730F7C4C630F7C7A
:1049800070842B5B2B5B4C638D6B8D6B8D6BAD6B78
:10499000AD6BAD6B8D6B4C63A94A6842073AE6314B
:1049A000E6392742A6314842A94A894AC9520A5BD8
:1049B0004C63EE7B708CD29C54ADB5B5D6B517BEAA
:1049C00058C679CEB9D699D61BE75CEF3CE73CE7F1
:1049D000FBDEFBDEBAD6DADEDADEDBDEDBDEFBDEDA
:1049E000FCDE1CDF3CE71CE7D7BDB6B5B6B558CE3C
:1049F00078CED9DE3BEF3BEF5CF75CEF5CF75BEF2B
:104A00005BEF3AEF5BEF5BEF3BEF5BEF3BEF3BEFD7
:104A10003BEF5BEF7CF73BEF5BEF5BEF3BEF3AEF9E
:104A20005BEF3AE7BBEEBBEE39D69CDE04004608EE
:104A30006608C710A6106508861065106408641023
:104A4000851045086608660885088410A631A531DA
:104A5000A539C539A539484A85310321E320E42029
:104A6000E320032103210742E320C218232103216D
:104A7000C2182421AA5A0742A5398752E9626A73EB
:104A80004A738B83AB83AB83AB83AB83CB83CC8306
:104A9000EC83EC83EC8BEC8BEC8B0C8C0C8C0C8C0B
:104AA0000C8C0C8C0C8C0C8C2D8C2D8C2D942D94B2
:104AB0002D942D942D942D942D944D942D942D94CE
:104AC0004D944D946D946D946D946E946E9C6E9C0B
:104AD0006E9C6E9C6E9C6E9C8E9C8E9C8E9C6E9C26
:104AE0008E9C8E9C6E9C8E9C8E9C8E9C8E9C8F9C95
:104AF0008F9C8F9CAFA4AFA4AFA4AFA4AFA4AFA46E
:104B0000AFA4D0A4D1A4D0A4B0A4AFA4B0A4B09CAE
:104B10008C73C5394421A631A631A631C639C631B8
:104B2000E639073A2842073A484A28422742694A62
:104B30002842A9524C632C638D6B2B5B2B5B2B5B48
:104B40004C5B6C636C638D6B8D6BAD6B8D6B8D6B28
:104B50006C636C638D6B4C636C63AD6B4C634C63CB
:104B60004C632B5B2C636C638D6B6D6B6C634C6364
:104B70006C636C63EE73CE73EE73718CF294139D61
:104B800075ADF7BD79CE99CEDAD63BE75BE77CEF22
:104B90005CEF7CEF7CEF7CEF7CEF3CE71BE7FBDE20
:104BA000FADEFADEDADE99D6FBDE7DEF7DEF9EF7E8
:104BB000BEF7DFFFFFFFFFFFFFFFFFFFFFFFFFFF6E
:104BC000FFFFFFFFDFFFBEF7F7BD96B5D6BD58CE9E
:104BD000B9DED9DE5BEF3AEF5BEF5CF75CF75BEFDA
:104BE0005AEF7BEF5BEF5BEF3BEF5BEF3BEF1AEFD7
:104BF000FAE6F9E6D9E698DE98DE98D657D656CE8C
:104C000036CEF5C5B2ACFBF638D6FCE66510A7107B
:104C100085086929CA3123002408E7204B4AA510DA
:104C200045086A31E918881086108410A631C63903
:104C3000C539C53984318952A539E320E3200421DF
:104C4000232124294429284A6529C218E21803216E
:104C50000319E318E739E639A539885AC9626B7335
:104C6000CD8BAB83AB83AB83AB83CB83CC83EC8328
:104C70000C8C0C8C0C8C0C8C0C8C0C8C0C940C9464
:104C80000C940C942C8C2C8C2D8C2D8C2D8C2D9488
:104C90004D944D944D944D944D944D944D944D940C
:104CA0004D946D946E946E946E946E9C6E9C6E9CFE
:104CB0006E9C6E9C6E9C6E9C6E9C8E9C8E9C8E9C44
:104CC0008E9C8E9C8E9C8E9C8F9C8F9C8F9C8F9C90
:104CD000AFA4AFA4AFA4AFA4AFA4D0A4D0A4AFA4FA
:104CE000D0A4D0A4D1A4D0A4D0A4D0ACB0A4B09C63
:104CF0006B73E63985294421A631C639E639E63990
:104D0000E739273A2842E7394842694A484A694A16
:104D1000AA52CE7B2C63AA52EE7B0B5B2B5B4C63BF
:104D20006C636C632C636C634C636C632B5B0B5B1D
:104D30000B5B0B5B0B5B2B5B2B5B8D6BCE73EF7B92
:104D40000F7C5084B18CF29454A5B5AD17BE79CECA
:104D5000DAD61BDFFBDE1BDF3BE73BE73CE73CE74C
:104D60001BE71BDF3BE73BE73BE71BE73BE73BE79B
:104D70001BE71BE71BE71BE71BE7FBE6FBDEFADE97
:104D8000DADEBAD6BAD6BAD69DF7FFFFFFFFFFFF2D
:104D9000FFFFDFFFDFFFFFFFFFFFFFFFFFFFFFFF63
:104DA000FFFFFFFFFFFF7DEFF7BD95ADB5B5D5BDAB
:104DB00094B597D6D9DEB8DEB9DE78D657D657D6B1
:104DC00016CE15C6F5C5D5C5D5BDB4BD94BD94BD2B
:104DD00094BD94BD94BD94BDB4BDB4BDB4BDB4BDCB
:104DE000B4BD73B5F7D51CF738D63DEF4731851004
:104DF00065086929EA3906214C4A44086C52A939E8
:104E00000308AB394B21470067088510A631E63906
:104E1000A539A5318431A952A539E3200421E32025
:104E200003214429853169524429C2182321E318FA
:104E3000032103196952A95A4329885AE9626B73FD
:104E40008B7BAC83AB83AB83CB83CC83CC83EC8B6E
:104E50000C8C0C8C0C8C0C8C0C8C2D942D942D8C1F
:104E60000C942D8C2C8C4D944D942D942D944D940C
:104E70004D944D944D944D944D944D944D944D942A
:104E80006D946D948E9C6E946E9C6E9C6E9C6E9CCC
:104E90006E9C6E9C8E9C8E9C8E9C8E9C8E9C8E9C02
:104EA0008E9C8E9C8F9C8F9CAFA4AFA4AFA4AFA40C
:104EB000AFA4AFA4AFA4AFA4AFA4D0A4D0A4D0A4F7
:104EC000D0A4D0A4F1A4D0A4D0ACD0A4D0A4D1A418
:104ED000AD7BA9520B5B4421A631C631C631E739FF
:104EE000273A273A073A484248424842694ACA5252
:104EF000EB5ACA5A894A894A0B5B2B632B5B0B5BC3
:104F00008D6BAE730F7C708CB18C139D74A5D6B570
:104F100058C699CEDAD6FAD6DAD6DAD6DAD6BAD6EC
:104F200078C678C658C678C679CE99CEB9D6DAD6BC
:104F3000FBDE1BDF3BE7FBDEFBDEFBDE1BDFFADE1F
:104F4000FBDE1BE71BE71BE73BE71BE71AE71AE75C
:104F50001BE71BE71BE71BE71BE7FAE6FAE6FAE6A7
:104F6000FADEDADEDADE99D69DF7FFFFDFFFBEF765
:104F7000FFFFFFFFFFFFFFFFFFFFFFFFDFFFDFFF81
:104F8000DFFFDFFFDFFF9DEF75ADD29CB19CB19CD1
:104F9000D1A452AD93BD93BD94BDB4BD94BDB4BD79
:104FA00094BDD4BDB4BDD4BDB4BD94BDB4BDB4BD79
:104FB000B4BDB4C594BDB4BDB4BD94BDB4BDB3BDA2
:104FC000B3BD93BDFBEEB6C5B6C55DF74A4A6408EE
:104FD00085108931CD5AED62917BEA49CA49CD6A83
:104FE0006B5A0E63AF4AC910870864086529C53932
:104FF000C539A431A4316752274AE320E3200421B4
:10500000E31845296529484A6529E318031903214E
:10501000E318E318684AA95A4329A85AC8626B7B67
:105020008B83AB83AC83CC83CC8BCC83EC8BEC8B32
:105030000C8C0C8C2C8C2C8C2C8C2C8C2C8C2C8CF0
:105040002C942D942D8C4D944D944D944D944D94C1
:105050004D944D944D946D946E946D946D946E94A6
:105060006D946D946E9C8E9C8E9C6E9C6E9C6E9CC2
:105070008E9C8E9C8E9C8E9C8E9C8E9C8E9C8F9CDF
:105080008F9C8F9C8F9CAFA4AF9CAF9CAF9CAFA418
:10509000B0A4B0A4D0A4B0A4D0A4D0A4D0A4D0A4D0
:1050A000D0A4F1ACD1A4D1A4F1AC12ADD1A4B19CE7
:1050B0008D73442903214421642985298529852963
:1050C000C631E6314842A952EB5A6D6BCE730F7C64
:1050D000918C139D75ADF6BD17BE37C698CEDAD646
:1050E0001BDF1ADF1ADF5BE73BE73BE73BE75BE7EA
:1050F0001BDF3BE71BDF1BDFFADEBAD6B9D658C68B
:1051000017C658C638C638C658C658CE79CEB9D68E
:10511000D9DEFADEFAE6FAE61AE71AE71BE71BE73A
:105120001BE73BE73BEF3AEF3AEF3AEF1AE71AE7B4
:10513000F9E6D9DED9DEB8DE98D657D636CE16CE09
:1051400016CE36C6F5BD37C69DF7FFFFDFFFFFFF62
:10515000FFFFDEFFFFFFFFFFDFFFDFFFDFFFDFFF00
:10516000DFFFDFFFFFFF7CEFB194708C9094B19C68
:105170006F94F1A493BD94BDB4BDB4BDB4BDB4BD32
:10518000B4BDB4BD93BD93BD94BD94BD93BD93BD5B
:1051900094BDB4BDB4C593BDB4C594BD94BDB4C5F0
:1051A00093BD93BD7DFF18CE9ADE7DF7CC5A630880
:1051B0004408CA392E638B5A2F73CE6ACA496C5A77
:1051C0000D6B8F7372632A196708C6182529E6418B
:1051D000A531E6398331E541C63903290321E320AE
:1051E000042104214529484A4529E318E318E21817
:1051F000E3180321E639EA5A43294752E9624A7320
:10520000CC83AB83CC83CC83CC8BEC8BEC8B0C8CA6
:105210000C942D8C0C8C2C8C2C8C2C8C2D944D94D3
:105220002D944D942D944D944D944D944D946D9496
:105230006E946E944D946D946E946E946E946E9C78
:105240006E9C8E9C8E9C8E9C6E948E9CAE9CAF9C15
:10525000AE9C8E9CAE9C8E9C8E9C8F9CAF9CAF9C7B
:105260008F9C8F9CAF9CAFA4AFA4AF9CB0A4D0A4E4
:10527000D0A4D0A4D0A4D0A4D0A4D0A4D1A4D1A48C
:10528000F1A4F1ACD1A412ADF1A4F1A412A512A520
:105290004F8C89522B636C6BEE7B708CD29454AD27
:1052A00016BE98CEFADE1ADF1BDF3BE73BE7FADEDD
:1052B000FADE1BDFFADEFADEDADED9D6DADEFADE75
:1052C0001AE7FADE1AE7D9DE1ADF1AE7FADE1AE77A
:1052D0003BE7FADEFADEFADEFADEB9D678CE58CE51
:1052E00038C638C637C658CE58CE78CE99D6B9DE2D
:1052F000FAE61AE7FAE6FAE6D9DED9DEB9DE98D69A
:1053000078D677D616CE15C6F5C5D5C5D5BDB4BDEC
:10531000B4BDB4BDB4BDB4BD94BD94BD93BD93BD87
:1053200094BDB4BDD5BD16C69DF7FFFFDFFFFFFFDF
:10533000FFFFFEFFFFFFFFFFDFFFDFFFDFFFDFFFFE
:10534000DFFFDFFFDFFF7DEFB294508CB19CD1A473
:105350004F94B0A493BD93BD94BD94BDB4BDB4BDF2
:10536000B3BD93BDB4BD93BD73BD73BD94BD94BDBA
:1053700094BD93BD93BD73BDB4BDB4C5B4BDB4BD40
:1053800094BD73BDF4B496C59DFF7EF7AF736308FB
:10539000A510AA398731AC5AD2837073AD5A6B52BB
:1053A000EC62AC525063EC316708A6186629C53927
:1053B000A531A5398431C5394852E320E22044297A
:1053C000031903214429C639E739E318C2184429CF
:1053D0000321E318E6392B6B64314752C9626B7BBA
:1053E0006B7BCC8BCC8BEC8BEC8BEC8BEC8B0C8CB5
:1053F0000C940D942D942D942D944D942D942D94C6
:105400002D942D944D944D944D944D944D944D94D4
:105410006E946E946E946E9C6E9C6E9C6E9C6E9C54
:105420006E9C6E9C6E9C6E9C8E9C8E9C6E9C6E9CEC
:105430006E9C8E9C6E9C6E9C8F9C8F9C8F9CAFA450
:105440008F9C8F9CB09CB09CB09CD09CD0A4D0A4CE
:10545000D0A4D1A4D19CB09CB09CB09CB19CB09C79
:10546000B09CB19CD1A4F2A412AD12AD12A574B53A
:1054700078D6FADE78CE37C617BEF6BD17BE37C669
:1054800078CE98D6B9D6D9DEB9D6D9D6D9DEB9D69E
:10549000B9D699D6D9D6B9D698D6B8D6D9D6D9DE6E
:1054A000F9DED9DE1AE7FAE61AE7FAE6D9DEFAE615
:1054B0001AE71AE71BE7D9DEB9DEB9DE57CEF6C523
:1054C000D5BDF6C5D5BD16BEF5BDD5BDB5BD94B52A
:1054D000B4BDB4BDB4BD94BD93B593B593B593B508
:1054E00093B593B5B4BD94BD94BD93BD93BD93B531
:1054F00073B573B594BD94BD94BD94BD93BD93B580
:1055000093BDB4BDB4BD16C69DF7FFFFDFFFDFF747
:10551000FFFFFEFFFFFFDFFFDFFFDFFFDFFFDFFF3C
:10552000DFFFDFFFFFF77DEF9194308C9094F2A4C2
:10553000B09C32AD73B593BD93BD94BD93BD93BD87
:1055400093BD93BDB4BD94BD93BDB4BDB4BD94BD76
:1055500094BDB4BDB4BDB4BDB4BDB4BDB4BD94BD03
:10556000B4BD93BDDBEE7EFF1CE79EF7728C42005C
:105570008510450843082A42272985102829062135
:105580004B4A2A42EB312921C810A718E420C5391B
:10559000A531A5318531E641895AE320232902212D
:1055A000E2182321032128422842C218E3180321CC
:1055B000E2180321A53188526431474AA85A2A6B60
:1055C000CC83AB83CB83CC8BEC8BEC8B0C8C0C9493
:1055D0002C942D940C940D942D942D944D944D94C5
:1055E0004E9C4E942D944D944E946E944E944E94A5
:1055F0004D944D944E946E9C6E9C6E9C6E9C6E9CD5
:105600006E9C6E9C6F9C6F9C6F9C8F9C8F9C8F9CE4
:105610008F9C8F9CB0A4B0A4B0A4B0A4B0A4B09C44
:10562000909C8F9C6F944F8C2F8C2F8C2E8C0E8C7B
:105630000E840E8C2F8C2F8C4F8C4F947094709402
:105640007094709412ADF2A412AD12ADF2A474B5C0
:1056500057CE37CE17C6F6C5D5BDD5BDF6BD16C6D5
:1056600078CEB8D6D9DED9DED9DEB9D6B9D6B9D694
:10567000B9DEB9DED9DED9DED9DED9DED8DEB8DED4
:10568000D9DED9DE77D657D616CE36CE37CE36CE41
:10569000D5C5F5C5B5BDD5BDB4BD73B553B573B5E9
:1056A00073B573B593B573B573B573AD93B593B562
:1056B00093BD73B573B573B573B593B593B593B522
:1056C00093B593BD73B593B593B593BD93BD93BD9A
:1056D00093BD93BD73B573B573B593B573B573B51A
:1056E00093BDB4BDB4BD36C69DF7FFFFDFFFDFF746
:1056F000DEF7FEF7FFFFDFFFDFFFDFFFDFFFDFFF8C
:10570000DFFFDFFFBEF73CE7508C9194D19C12A5E0
:1057100012A532AD73B573B593B594BD93BD94BD69
:10572000B3BDB3BD93BD93BDB4BDB4BD93BD93BD77
:1057300093BD94BDB4BDB4BD94BDB4BDB4BDB4BD42
:10574000D4C594BDBBDE9AD6BAD6DBD6D49422009B
:105750008508A61084086408851065084508650852
:10576000440023006508A7108808861004214742DA
:10577000642985316431E641AA5AE218C118022130
:10578000A110E22085318952CA5AE218C218232199
:105790004429E21803216C6B0221274AE9622A6B33
:1057A000AC7BAB7BCB83EB8B0C8C0C8C0C8C0C8C88
:1057B0002C942C8C2C942D942D942D942D942D94EC
:1057C0002D942D944E944E944E944E944E944E940B
:1057D0004E946E9C6E946E946E946E9C6F9C6F9CB7
:1057E0008F9C8F9C909C8F946F946F946F942E8C51
:1057F0000D8CED83CC83CC83CD7BAC7BAC7BAD7B44
:10580000AD7BAD7BCD7BCD7BCD7BCE7BEE83EE8345
:105810000E840F84EE830E842F8C70947094709499
:1058200090949094F2A4D19C12A512A5F2A474B500
:1058300037CE16C6F6C5D5BDD5BDD5BDD5C5F6C5C1
:1058400036CE57CE57CE57D657D636CE16C616C6F4
:10585000F5C5F5BDD4BDB4BD94BD94BD73B573B5E8
:1058600093B573B593BD94BD94BD73B573B553B57E
:1058700073B593BD73B5B3BD73B573B572B5F0A40D
:105880008F9C8F944E948F9452B552B552B572B589
:1058900072B572B593B573B573B573B573B572B5AB
:1058A00052B552B573B572B572B572B572B572B5FF
:1058B00073B573B593B593B573B573B573B593B548
:1058C00093BDB4BDB4BD37C69DF7DFFFDFF7DFF78B
:1058D000DEF7FEF7DFFFDFFFDFFFDFFFDFFFDEFFCB
:1058E000DFFFDFFFFFFF3CE72F847094D19CF2A421
:1058F000909C32AD93B593B593BD93BD94BD94BDCB
:10590000B4BDB4BDB4BDB4BD94BD94BD94BD94BD8F
:1059100093BD93BD93BD93BD93BDB4BDB4BDB4BDA4
:10592000B4BD93BD7ACEDBD6BAD6FBD656A543001E
:10593000A6088608A5108510A6102400A618A61093
:105940002300851028210821E918C71865292B6331
:105950002B6BC95A0B63CA5A284A284A0742C539D1
:10596000A53102212329484AA95AC218C218E218AF
:10597000C218032123218C73A539A439C95A2A6B73
:105980008B7BCC83EC830C8C2C8C2C8C2C8C2C8CDB
:105990002D942D8C4D944D944E944E944E944E9443
:1059A0004E944E942E8C4E946F948F946F944E948C
:1059B0000E8C0D84ED83ED83CC83CC83AC7B8B7B11
:1059C0008B7B8B7B6B738C73AC7BCD7BAC7B8C7359
:1059D0006B736B738C7BAC7B8C7B8C738C738C73D9
:1059E0008D7BAD7BCD7BCD7BCD7BCE7BCE7BEE7BB4
:1059F000EE830E840E840E844F8C70947094709499
:105A000070947094F2A4F1A4F1A4F1A412A533ADA2
:105A100074B594B594BD73B553AD53B573B573B543
:105A200053B552AD73B573B573B553B573B593B57F
:105A300073B573B573B572B553B593B593B593BDDF
:105A400093BD52ADB09C6F944E944E9452B573B5C5
:105A500093BD72B593BD73B552B572B551B5CB83D5
:105A6000086B496B496BCC8331AD52B552B552B519
:105A700052B593B573B572B573B573B573B573B5E8
:105A800073B573B573B572B573B573B573B573B5D7
:105A900093B593B593BD93B573B573B573B573B53E
:105AA00093B593B5B4BD57C69DF7DFF7DFFFDFF7BA
:105AB000DEF7FEF7DFFFDFFFDFFFDFFFDFFFDEFFE9
:105AC000DFFFDFFFDFF7FBDE508C919412A512A5FC
:105AD0000E8C32AD93B593B593BD93BD94BD94BD7B
