:020000040800F2
:10000000100400209D010008EF0A00085B0A0008A8
:10001000ED0A0008E5010008090C000800000000D6
:10002000000000000000000000000000AF01000818
:10003000E701000800000000B3010008110B0008F0
:10004000B7010008B7010008B7010008B7010008B0
:10005000B7010008B7010008E9010008B70100086E
:10006000B7010008B7010008B7010008B701000890
:10007000B7010008B7010008B7010008B701000880
:10008000B7010008B7010008B7010008B701000870
:10009000B7010008B7010008B7010008B701000860
:1000A000B7010008B7010008B7010008B701000850
:1000B000B7010008B7010008B7010008B701000840
:1000C000B7010008B7010008B7010008B701000830
:1000D000B7010008B7010008B7010008B701000820
:1000E000B7010008B7010008B7010008B701000810
:1000F000B7010008B7010008B7010008B701000800
:10010000B7010008B7010008B7010008B7010008EF
:10011000B7010008B7010008B7010008B7010008DF
:10012000B7010008B7010008B7010008B7010008CF
:10013000B7010008B7010008B7010008B7010008BF
:10014000B7010008B7010008B7010008B7010008AF
:10015000B7010008B7010008B7010008B70100089F
:10016000B7010008B7010008B7010008B70100088F
:10017000B7010008B7010008B7010008000000003F
:10018000B7010008B7010008DFF80CD000F018F83C
:1001900000480047290C000810040020064880474A
:1001A00006480047FEE7FEE7FEE7FEE7FEE7FEE75C
:1001B000FEE7FEE7FEE7FEE7B50B00088901000851
:1001C000064C074D06E0E06840F0010394E80700A4
:1001D00098471034AC42F6D3FFF7DAFF480C00081A
:1001E000680C0008FEE7FEE7012000F01BB80000E5
:1001F00010B5094C0121204600F000F90028F9D182
:1002000006490878401C0870BDE810404FF4805142
:10021000034800F0F8B8000000000240040000208D
:10022000000C0240044910B50A68024202D008607E
:10023000FFF7DEFF10BD0000143C01402DE9F84F30
:10024000DFF888B100224FF001084FF0030A4FF0A9
:100250000F090BF1040E00BF0B6808FA02F42340EB
:10026000A3426ED14D68022D01D0122D0ED1D508BA
:1002700000EB850CDCF820505607F70E09FA07F65C
:10028000B5430E69BE402E43CCF820600668550089
:100290000F790AFA05FC07F0030726EA0C06AF40BF
:1002A000374307604E68012E05D0022E03D0112E71
:1002B00001D0122E0ED18668CF6826EA0C06AF4018
:1002C000374387604668A6430C79C4F30014944012
:1002D00034434460C4688E6824EA0C04AE4026436C
:1002E000C6604C68E4006AD5394C256845F4804501
:1002F0002560246822F0030504F480440094354C02
:100300002E19D6F8084895072F0F09FA07F5AC43C0
:10031000314DA84201D1002529E0304DA84201D13C
:10032000012524E02E4DA84201D102251FE02D4DCC
:10033000A84201D103251AE02B4DA84202D1042581
:1003400015E03CE0294DA84201D105250FE0284DDC
:10035000A84201D106250AE0264DA84201D1072571
:1003600005E0254DA84201D1082500E00925BD4042
:100370002543C6F80858DBF800405D464E689C43AC
:10038000F60300D51C432C60DEF8004075464E682D
:100390009C43B60300D51C432C600C4D08352C68DB
:1003A0004E689C43F60200D51C432C60074D0C356B
:1003B0002C684E689C43B60200D51C432C60521C2E
:1003C000102AFFF449AFBDE8F88F0000003C01405F
:1003D0004438024000300140000002400004024066
:1003E00000080240000C02400010024000140240CD
:1003F00000180240001C0240002002400069084032
:1004000000D00120704742694A40426170470AB1FA
:10041000816170470904FBE70148006870470000EC
:100420000800002002480168491C01607047000074
:10043000080000200B4810B5016841F4007101600C
:10044000016841F480610160016841F480710160DC
:10045000032000F067F8002000F006F800F015F81F
:10046000002010BD003C024010B5044600F00CF91D
:100470004FF47A71B0FBF1F000F0D7FA0022214678
:10048000501E00F02FF8002010BD10B5032000F022
:1004900049F8002211466FF00B0000F023F800220B
:1004A00011466FF00A0000F01DF8002211466FF0AF
:1004B000090000F017F800221146101F00F012F892
:1004C0000022BDE810401146501E00F00BB800F0AD
:1004D0001F02012191404009800000F1E020C0F896
:1004E00000117047F0B40E4B1B680C46C3F3022397
:1004F000C3F10705042D00D90425191D072901D2D0
:10050000002300E0DB1E012606FA05F1491E21400A
:1005100099409E40761E16403143F0BC00F0E8BA88
:100520000CED00E0064900F0070208684FF6FF03F3
:10053000184040EA0220034A104308607047000058
:100540000CED00E00000FA052DE9F047DFF830A1DE
:1005500005460F46DAF8000000F00F01F8B28146B8
:10056000B94208D201468AF80010DAF8000000F01B
:100570000F00B8426AD12878424C800705D5206820
:10058000A96820F0F000084320602878C0074FD009
:100590003C4968680839012819D002281AD0032874
:1005A00018D009688907002950DA216821F0030171
:1005B00001432160FFF730FF0646686841F2883842
:1005C000012810D002281AD003281ED02CE0096878
:1005D0008903E8E709688901E5E700BFFFF71CFF29
:1005E000811B41451DD82068C0F381000128F5D149
:1005F0001EE000BFFFF710FF811B414511D82068A6
:10060000C0F381000228F5D112E02068FFF704FF53
:10061000801B4045F9D904E0FFF7FEFE811B4145F0
:1006200002D90320BDE8F087206810F00C0FF3D149
:10063000DAF80010504601F00F01B94208D980F8ED
:100640000090006800F00F00B84201D00120E9E7F7
:100650002878400705D52068E96820F4E050084371
:1006600020602878000706D52068296920F46040BA
:1006700040EAC10020600020FFF7F6FE0020D1E72D
:10068000003C02400838024010B500F017F8084955
:100690000968F02292FAA2F201F0F001B2FA82F2B5
:1006A000D140044A515CC8400349086010BD0000B5
:1006B00008380240360C00080000002030B5194808
:1006C000006810F00C01184812D0441004290ED014
:1006D00008290DD11349091F0A6802F03F030A686F
:1006E000550247F6C07204D5B4FBF3F003E0204690
:1006F00030BDB0FBF3F00B680968134092FAA2F228
:10070000B2FA82F2D34058434FF4403292FAA2F246
:1007100001F44031B2FA82F2D140491C4900B0FBE9
:10072000F1F030BD083802400024F4002DE9F84F04
:100730000446DFF8CC820078A8F1040BC007ABF1C7
:10074000040537D0D8F800104046C1F381010129D3
:1007500008D00068C0F3810002280AD1DBF800004D
:10076000400206D52868800324D56068002878D028
:1007700020E0A3492079891F0870606868B1FFF7FD
:100780004BFE064605E000BFFFF746FE801B6428CF
:1007900068D828688003F7D50CE0FFF73DFE0646D1
:1007A00005E000BFFFF738FE801B6428F0D82868FA
:1007B0008003F7D42078934E80074FF0010A4FF062
:1007C000000742D5D8F80010404611F00C0F08D0B1
:1007D0000068C0F3810002280AD1DBF80000400263
:1007E00006D42868800714D5E068012839D110E0C4
:1007F000E068D8B1C6F800A0FFF70EFE814605E01C
:10080000FFF70AFEA0EB09000228C1D8286880077C
:10081000F6D52868F82292FAA2F22169B2FA82F299
:1008200020F0F8009140084328600EE03760FFF7A1
:10083000F3FD814606E000BFFFF7EEFDA0EB0900E7
:1008400002280FD828688007F6D42078000728D51A
:100850006D486169A1B1C0F800A0FFF7DDFD8146D8
:1008600008E0CAE079E000BFFFF7D6FDA0EB090081
:10087000022872D862486C3000688007F4D510E016
:100880000760FFF7C9FD814606E000BFFFF7C4FD22
:10089000A0EB0900022860D859486C300068800736
:1008A000F4D42078400749D555483830016841F0E4
:1008B00080510160006800F080500090534801684A
:1008C00041F480710160FFF7A7FD814606E000BF9B
:1008D000FFF7A2FDA0EB090002283ED84B480068B4
:1008E000C005F5D5DFF81891207A09F1680989F873
:1008F0000000A06888B1FFF78FFD009008E000BFFE
:10090000FFF78AFD0099411A41F2883081426CD884
:10091000D9F800008007F3D510E0FFF77DFD0090C7
:1009200008E000BFFFF778FD0099411A41F28830D6
:1009300081425AD8D9F800008007F3D4A069E0B307
:10094000D8F80010C1F38101022956D00228376679
:1009500004D0FFF761FD04464AE046E0FFF75CFD86
:10096000074604E0FFF758FDC01B02283DD8286861
:100970008001F7D4D4E90701084347F6C07292FA20
:10098000A2F2616AB2FA82F29140A26A4FF0FF339A
:1009900003EB52024FF4403393FAA3F3B3FA83F319
:1009A0009A40114308434FF0706292FAA2F2E16A52
:1009B000B2FA82F29140084300E01CE0CBF800005C
:1009C000C6F860A0FFF728FD044604E0FFF724FD09
:1009D000001B022809D828688001F7D50BE000BF6A
:1009E000FFF71AFD001B022802D90320BDE8F88F8B
:1009F00028688001F4D40020F8E70120F6E7000021
:100A00000838024000004742800E47420070004014
:100A10004FF0E0210428086903D020F004000861A9
:100A2000704740F00400FAE7704710B5401EB0F17F
:100A3000807F01D3012010BD4FF0E02460610F21C1
:100A4000601700F055F80020A06107202061002009
:100A500010BD10B5FFF7E8FF10BDFEE770B51F48E9
:100A600086B00024016841F080010160016801F056
:100A700080010591016841F001010160016801F008
:100A800001010591016841F008010160006801263B
:100A900000F00800009605901148CDE90104694670
:100AA0001048FFF7CBFB0320CDE9024035030E4C85
:100AB000CDE9005669462046FFF7C0FB00222946D3
:100AC0002046FFF7A4FC002211460620FFF70AFD8E
:100AD0000620FFF7FCFC06B070BD00003038024075
:100AE0000000111000000240000C0240FEE77047B9
:100AF0000907090E002806DA00F00F0000F1E020D7
:100B000080F8141D704700F1E02080F80014704751
:100B100010B5FFF787FCBDE81040FFF79ABF000053
:100B200030B5224893B00025016841F08051016042
:100B3000006800F0805011901D48016841F4804128
:100B400001600068022400F48040119001200090B0
:100B500001908005CDE90640082008904FF4A87068
:100B6000CDE9090404200B906846FFF7DFFD0CA9CE
:100B70000F2081E831004FF4A0500F901090052114
:100B80000CA8FFF7E1FCFFF77FFD4FF47A71B0FB93
:100B9000F1F0FFF74AFF0420FFF73AFF0022114669
:100BA000501EFFF79FFC13B030BD000040380240DC
:100BB000007000401048016841F4700101600F4866
:100BC000016841F0010101600C4A00210832116006
:100BD00002680B4B1A400260031D0A4A1A60026841
:100BE00022F48022026005480C3001600249580658
:100BF000803908607047000088ED00E0003802404E
:100C0000FFFFF6FE10300024FEE702E008C8121FC6
:100C100008C1002AFAD170477047002001E001C1E5
:100C2000121F002AFBD17047FFF704FCFFF778FF83
:100C3000FFF714FFFEE700000000010203040102B9
:100C40000304060708090000680C000800000020E3
:100C50000C0000000A0C0008740C00080C000020B6
:100C6000040400001A0C00080024F4000000000036
:040C70000000000080
:040000050800018965
:00000001FF
