:020000040800F2
:10000000480400209D0100085F0D00085B0D0008FA
:100010005D0D0008E5010008AF0F000800000000BA
:10002000000000000000000000000000AF01000818
:10003000E701000800000000B3010008810D00087E
:10004000B7010008B7010008B7010008B7010008B0
:10005000B7010008B7010008B7010008B7010008A0
:10006000B7010008B7010008B7010008B701000890
:10007000B7010008B7010008B7010008B701000880
:10008000B7010008B7010008B7010008B701000870
:10009000B7010008B7010008B7010008B701000860
:1000A000B7010008B7010008B7010008B701000850
:1000B000790E0008B7010008B7010008B701000871
:1000C000B7010008B7010008B7010008B701000830
:1000D000B7010008B7010008B7010008B701000820
:1000E000B7010008B7010008B7010008B701000810
:1000F000B7010008B7010008B7010008B701000800
:10010000B7010008B7010008B7010008B7010008EF
:10011000B7010008B7010008B7010008B7010008DF
:10012000B7010008B7010008B7010008B7010008CF
:10013000B7010008B7010008B7010008B7010008BF
:10014000B7010008B7010008B7010008B7010008AF
:10015000B7010008B7010008B7010008B70100089F
:10016000B7010008B7010008B7010008B70100088F
:10017000B7010008B7010008B7010008000000003F
:10018000B7010008B7010008DFF80CD000F018F83C
:1001900000480047D10F0008480400200648804767
:1001A00006480047FEE7FEE7FEE7FEE7FEE7FEE75C
:1001B000FEE7FEE7FEE7FEE7250E000889010008DE
:1001C000064C074D06E0E06840F0010394E80700A4
:1001D00098471034AC42F6D3FFF7DAFF7C100008E2
:1001E0009C100008FEE7FEE72DE9F84FDFF888B124
:1001F00000224FF001084FF0030A4FF00F090BF1F6
:10020000040E00BF0B6808FA02F42340A3426ED12B
:100210004D68022D01D0122D0ED1D50800EB850CB2
:10022000DCF820505607F70E09FA07F6B5430E69B9
:10023000BE402E43CCF82060066855000F790AFABC
:1002400005FC07F0030726EA0C06AF4037430760BA
:100250004E68012E05D0022E03D0112E01D0122E91
:100260000ED18668CF6826EA0C06AF403743876018
:100270004668A6430C79C4F30014944034434460A8
:10028000C4688E6824EA0C04AE402643C6604C68FD
:10029000E4006AD5394C256845F48045256024681A
:1002A00022F0030504F480440094354C2E19D6F84E
:1002B000084895072F0F09FA07F5AC43314DA842BE
:1002C00001D1002529E0304DA84201D1012524E0CB
:1002D0002E4DA84201D102251FE02D4DA84201D18B
:1002E00003251AE02B4DA84202D1042515E03CE07D
:1002F000294DA84201D105250FE0284DA84201D182
:1003000006250AE0264DA84201D1072505E0254D26
:10031000A84201D1082500E00925BD402543C6F8C3
:100320000858DBF800405D464E689C43F60300D554
:100330001C432C60DEF8004075464E689C43B603B3
:1003400000D51C432C600C4D08352C684E689C432E
:10035000F60200D51C432C60074D0C352C684E6806
:100360009C43B60200D51C432C60521C102AFFF49B
:1003700049AFBDE8F88F0000003C0140443802401E
:10038000003001400000024000040240000802402A
:10039000000C02400010024000140240001802400D
:1003A000001C02400020024042694A4042617047FE
:1003B0000AB1816170470904FBE700000148006849
:1003C000704700000400002002480168491C0160D9
:1003D00070470000040000200B4810B5016841F48C
:1003E00000710160016841F480610160016841F4BD
:1003F00080710160032000F067F8002000F006F82B
:1004000000F015F8002010BD003C024010B5044675
:1004100000F00CF94FF47A71B0FBF1F000F0D7FA6C
:1004200000222146501E00F02FF8002010BD10B50C
:10043000032000F049F8002211466FF00B0000F095
:1004400023F8002211466FF00A0000F01DF8002288
:1004500011466FF0090000F017F800221146101F36
:1004600000F012F80022BDE810401146501E00F0C6
:100470000BB800F01F02012191404009800000F1FB
:10048000E020C0F800117047F0B40E4B1B680C461A
:10049000C3F30223C3F10705042D00D90425191D58
:1004A000072901D2002300E0DB1E012606FA05F130
:1004B000491E214099409E40761E16403143F0BCB3
:1004C00000F04EBC0CED00E0064900F007020868A1
:1004D0004FF6FF03184040EA0220034A1043086029
:1004E000704700000CED00E00000FA052DE9F04730
:1004F000DFF830A105460F46DAF8000000F00F01E2
:10050000F8B28146B94208D201468AF80010DAF8FA
:10051000000000F00F00B8426AD12878424C8007F2
:1005200005D52068A96820F0F000084320602878ED
:10053000C0074FD03C4968680839012819D0022803
:100540001AD0032818D009688907002950DA2168D1
:1005500021F0030101432160FFF730FF0646686880
:1005600041F28838012810D002281AD003281ED062
:100570002CE009688903E8E709688901E5E700BF1D
:10058000FFF71CFF811B41451DD82068C0F3810087
:100590000128F5D11EE000BFFFF710FF811B414588
:1005A00011D82068C0F381000228F5D112E020683C
:1005B000FFF704FF801B4045F9D904E0FFF7FEFE7A
:1005C000811B414502D90320BDE8F087206810F067
:1005D0000C0FF3D1DAF80010504601F00F01B942C8
:1005E00008D980F80090006800F00F00B84201D0F0
:1005F0000120E9E72878400705D52068E96820F45C
:10060000E050084320602878000706D52068296953
:1006100020F4604040EAC10020600020FFF7F6FEB1
:100620000020D1E7003C02400838024010B500F03D
:1006300017F808490968F02292FAA2F201F0F001D5
:10064000B2FA82F2D140044A515CC84003490860C2
:1006500010BD0000083802406C10000800000020A7
:1006600030B51948006810F00C01184812D0441039
:1006700004290ED008290DD11349091F0A6802F078
:100680003F030A68550247F6C07204D5B4FBF3F085
:1006900003E0204630BDB0FBF3F00B68096813405F
:1006A00092FAA2F2B2FA82F2D34058434FF44032A7
:1006B00092FAA2F201F44031B2FA82F2D140491C1E
:1006C0004900B0FBF1F030BD083802400024F400CE
:1006D0002DE9F84F0446DFF8CC820078A8F1040B2E
:1006E000C007ABF1040537D0D8F800104046C1F37D
:1006F0008101012908D00068C0F3810002280AD1D5
:10070000DBF80000400206D52868800324D5606825
:10071000002878D020E0A3492079891F08706068FC
:1007200068B1FFF74BFE064605E000BFFFF746FE47
:10073000801B642868D828688003F7D50CE0FFF791
:100740003DFE064605E000BFFFF738FE801B64282B
:10075000F0D828688003F7D42078934E80074FF0B4
:10076000010A4FF0000742D5D8F80010404611F0BA
:100770000C0F08D00068C0F3810002280AD1DBF812
:100780000000400206D42868800714D5E0680128DC
:1007900039D110E0E068D8B1C6F800A0FFF70EFE2E
:1007A000814605E0FFF70AFEA0EB09000228C1D848
:1007B00028688007F6D52868F82292FAA2F2216903
:1007C000B2FA82F220F0F8009140084328600EE06F
:1007D0003760FFF7F3FD814606E000BFFFF7EEFD4F
:1007E000A0EB090002280FD828688007F6D42078EB
:1007F000000728D56D486169A1B1C0F800A0FFF7D6
:10080000DDFD814608E0CAE079E000BFFFF7D6FDD4
:10081000A0EB0900022872D862486C30006880079B
:10082000F4D510E00760FFF7C9FD814606E000BF80
:10083000FFF7C4FDA0EB0900022860D859486C30CE
:1008400000688007F4D42078400749D555483830EF
:10085000016841F080510160006800F08050009014
:100860005348016841F480710160FFF7A7FD81469C
:1008700006E000BFFFF7A2FDA0EB090002283ED86A
:100880004B480068C005F5D5DFF81891207A09F1CA
:10089000680989F80000A06888B1FFF78FFD009013
:1008A00008E000BFFFF78AFD0099411A41F2883045
:1008B00081426CD8D9F800008007F3D510E0FFF72B
:1008C0007DFD009008E000BFFFF778FD0099411A18
:1008D00041F2883081425AD8D9F800008007F3D419
:1008E000A069E0B3D8F80010C1F38101022956D005
:1008F0000228376604D0FFF761FD04464AE046E06F
:10090000FFF75CFD074604E0FFF758FDC01B022817
:100910003DD828688001F7D4D4E90701084347F699
:10092000C07292FAA2F2616AB2FA82F29140A26AAD
:100930004FF0FF3303EB52024FF4403393FAA3F32B
:10094000B3FA83F39A40114308434FF0706292FA6E
:10095000A2F2E16AB2FA82F29140084300E01CE0A0
:10096000CBF80000C6F860A0FFF728FD044604E0BD
:10097000FFF724FD001B022809D828688001F7D55D
:100980000BE000BFFFF71AFD001B022802D903206D
:10099000BDE8F88F28688001F4D40020F8E7012032
:1009A000F6E700000838024000004742800E474248
:1009B000007000404FF0E0210428086903D020F0C7
:1009C00004000861704740F00400FAE7704710B572
:1009D000401EB0F1807F01D3012010BD4FF0E02414
:1009E00060610F21601700F0BBF90020A0610720B3
:1009F0002061002010BD10B5FFF7E8FF10BD704763
:100A0000704730B590F83820012A20D0012280F8B4
:100A10003820022380F8393003685C6824F07004C1
:100A20005C6003685C680D682C435C6003689C68CC
:100A300024F080049C6003689C6849680C439C60B7
:100A400080F83920002180F83810084630BD022097
:100A500030BD10B5040003D094F8390010B107E0A0
:100A6000012010BD002084F83800204600F00CF86A
:100A7000022084F83900211D206800F003FA0120CB
:100A800084F83900002010BD08B50068B0F1804F2F
:100A900012D10A48016841F001010160006800229A
:100AA00000F00100009011461C20FFF7EDFCBDE8AE
:100AB00008401C20FFF7DDBC08BD000040380240A4
:100AC0000168CA6842F00102CA600068016841F02A
:100AD000010101600020704770B5044690F83800AD
:100AE000012817D0012584F83850022084F83900F5
:100AF0002068826822F0770222F47F4282600868D0
:100B0000502837D00DDC202859D005DC88B31028B8
:100B100041D151E0022070BD302853D040283AD155
:100B20003FE060282ED070280BD0B0F5805F03D056
:100B3000B0F5005F2FD110E02068816821F0070137
:100B400015E0CB68D1E90121206800F0FBF92168AC
:100B5000886840F0770088601DE0CB68D1E901210A
:100B6000206800F0EFF92068816841F480418160DD
:100B700011E01EE0CA684968206800F0F5F95021CC
:100B8000206806E0CA684968206800F0FEF9602124
:100B9000206800F0E1F984F83950002084F838002A
:100BA00070BDCA684968206800F0DEF940212068FD
:100BB000EFE700212068ECE710212068E9E7202119
:100BC0002068E6E730212068E3E7704770B5044607
:100BD000006801694FF00005C943890715D4C16851
:100BE000C943890711D4E91E0161012020762068DC
:100BF00080698007204602D0FFF7E7FF04E000F09D
:100C000098F8204600F096F8257620680169C943D7
:100C1000490717D4C168C943490713D46FF00401C9
:100C20000161022020762068806910F4407F204610
:100C300002D0FFF7CAFF04E000F07BF8204600F086
:100C400079F8257620680169C943090716D4C16877
:100C5000C943090712D46FF008010161042020760E
:100C60002068C0698007204602D0FFF7AEFF04E08D
:100C700000F05FF8204600F05DF8257620680169F5
:100C8000C943C90617D4C168C943C90613D46FF054
:100C900010010161082020762068C06910F4407FAF
:100CA000204602D0FFF791FF04E000F042F8204612
:100CB00000F040F8257620680169C943C90708D1CA
:100CC000C168C943C90704D1891E0161204600F0EB
:100CD00033F820680169C943090609D4C168C943CA
:100CE000090605D46FF0800101612046FFF787FEF9
:100CF00020680169C943490609D4C168C943490646
:100D000005D46FF040010161204600F025F820680D
:100D10000169C94389060BD4C168C943890607D450
:100D20006FF0200101612046BDE87040FFF768BE0A
:100D300070BD704770470000054900680968884227
:100D400004D14FF470410348FFF72EBB70470000F9
:100D500008000020000C02407047FEE7FEE77047E5
:100D60000907090E002806DA00F00F0000F1E02064
:100D700080F8141D704700F1E02080F800147047DF
:100D800010B5FFF721FBBDE81040FFF734BE0000AF
:100D900030B5224893B00025016841F080510160D0
:100DA000006800F0805011901D48016841F48041B6
:100DB00001600068022400F480401190012000903E
:100DC00001908005CDE90640082008904FF4A870F6
:100DD000CDE9090404200B906846FFF779FC0CA9C3
:100DE0000F2081E831004FF4A0500F9010900521A2
:100DF0000CA8FFF77BFBFFF719FC4FF47A71B0FBEF
:100E0000F1F0FFF7E4FD0420FFF7D4FD00221146C6
:100E1000501EFFF739FB13B030BD000040380240D0
:100E2000007000401048016841F4700101600F48F3
:100E3000016841F0010101600C4A00210832116093
:100E400002680B4B1A400260031D0A4A1A600268CE
:100E500022F48022026005480C30016002495806E5
:100E6000803908607047000088ED00E000380240DB
:100E7000FFFFF6FE103000240148FFF7A7BE000078
:100E800008000020F0B50268234B244D244E254F66
:100E9000254C4FF0804C984209D0604507D0A842BD
:100EA00005D0B04203D0B84201D0A04204D122F014
:100EB000700E4A6842EA0E0298421BD0604519D073
:100EC000A84217D0B04215D0B84213D0A04211D0DA
:100ED000164DA8420ED0164DA8420BD0154DA84273
:100EE00008D0154DA84205D0144DA84202D0144D8B
:100EF000A84203D122F44075CA682A4302608A6876
:100F0000C2620A688262984201D0A04201D1096996
:100F1000016301214161F0BD000001400004004077
:100F200000080040000C0040000401400040014067
:100F3000004401400048014000180040001C0040EF
:100F40000020004010B5846842EA032224F47F4464
:100F50000A432243826010BD826822F070020A4375
:100F600042F007018160704710B5036A046A24F0FB
:100F700001040462846924F0F00444EA021423F0BA
:100F80000A020A438461026210BD10B5036A23F0AD
:100F9000100303628369046A23F4704343EA023254
:100FA00024F0A00343EA01118261016210BDFEE753
:100FB00002E008C8121F08C1002AFAD17047704722
:100FC000002001E001C1121F002AFBD17047000080
:100FD00086B0FFF701FAFFF7DBFE21480024016825
:100FE00041F080010160016801F080010591016814
:100FF00041F00801016000681A4E00F008004FF44B
:1010000070450590224629463046FFF7D1F9012068
:101010000095CDE901040320039069463046FFF7AF
:10102000E3F811484FF0804101604AF21041C0E9F5
:10103000011440F2CF71C0E90314FFF70AFDB014A8
:10104000009069460848FFF747FD049404A9064844
:101050000594FFF7D6FC0448FFF732FDFEE70000D9
:1010600030380240000C0240080000200000000060
:101070000102030401020304060708099C1000088A
:101080000000002008000000B00F0008A4100008B5
:101090000800002040040000C00F00080024F400F5
:0410A000000000004C
:040000050800018965
:00000001FF
