:020000040800F2
:10000000200400209D0100083F0F00083B0F00085E
:100010003D0F0008250700085910000800000000E7
:10002000000000000000000000000000AF01000818
:100030002707000800000000B3010008610F000856
:10004000B7010008B7010008B7010008B7010008B0
:10005000B7010008B7010008B7010008B7010008A0
:10006000B7010008B7010008B7010008B701000890
:10007000B7010008B7010008B7010008B701000880
:10008000B7010008B7010008B7010008B701000870
:10009000B7010008B7010008B7010008B701000860
:1000A000B7010008B7010008B7010008B701000850
:1000B000B7010008B7010008B7010008B701000840
:1000C000B7010008B7010008B7010008B701000830
:1000D000B7010008B7010008B7010008B701000820
:1000E000B7010008B7010008B7010008B701000810
:1000F000B7010008B7010008B7010008B701000800
:10010000B7010008B7010008B7010008B7010008EF
:10011000B7010008B7010008B7010008B7010008DF
:10012000B7010008B7010008B7010008B7010008CF
:10013000B7010008B7010008B7010008B7010008BF
:10014000B7010008B7010008B7010008B7010008AF
:10015000B7010008B7010008B7010008B70100089F
:10016000B7010008B7010008B7010008B70100088F
:10017000B7010008B7010008B7010008000000003F
:10018000B7010008B7010008DFF80CD000F02AFA28
:1001900000480047D91A000820040020064880477C
:1001A00006480047FEE7FEE7FEE7FEE7FEE7FEE75C
:1001B000FEE7FEE7FEE7FEE70510000889010008FC
:1001C00000F0004230F000400AD0C10D01F560712E
:1001D000C0F3160042EA0151C208400711437047BC
:1001E00000200146704730B50B4601460020202212
:1001F000012409E021FA02F59D4205D303FA02F534
:10020000491B04FA02F52844151EA2F10102F1DC93
:1002100030BD2DE9F05F0546002092469B4688469A
:100220000646814640241BE0284641464746224672
:1002300000F0F9F953465A46C01A914110D31146BD
:100240001846224600F0E0F92D1A67EB01084F46E8
:1002500022460120002100F0D7F917EB00094E419A
:10026000201EA4F10104DFDC484631462A464346FD
:10027000BDE8F09F2DE9FE4F804681EA0300C00FE4
:100280000C46009021F0004123F00045B8EB02003D
:10029000A94105D24046214690461C460B460246DF
:1002A00023F00040104347D0270DC7F30A00C3F3E3
:1002B0000A510290401A019040286BDAC3F31300F0
:1002C00040F4801B0098924620B10023D2EB030A31
:1002D00063EB0B0B01985946C0F14002504600F009
:1002E00093F906460D4650465946019A00F0ABF97F
:1002F00010EB08006141002487EA115284EAE77399
:100300001A4340D0009A62B3019A012A4FEA075279
:1003100015DC001B61EB02014FF0004202EA0752BC
:10032000CDE90042001C41F5801132462B4600F019
:10033000ABF903B0BDE8F08F40462146F9E7001B5A
:1003400061EB0201001C41F5801300185B4120188D
:10035000A2F5001747EB030140EAD570B6196D41CD
:1003600011E06D084FEA360645EAC0754FEA0752BC
:10037000001B61EB0201001C41F5801149084FEAA6
:1003800030000019514132462B4603B0BDE8F04F12
:1003900000F06BB90098012240000023D0EB02026C
:1003A00063EBE073009821464FEAE074B8EB00007D
:1003B00061EB0401E9E783F000435BE781F0004172
:1003C00058E72DE9FE4F81EA030404F0004421F0D0
:1003D000004100944FF0000B23F0004350EA010469
:1003E0005ED052EA03045BD0C3F30A54C1F30A554A
:1003F0002C44A4F2F3340194A0FB0254C1F3130182
:1004000041F48011C3F3130343F4801301FB02444E
:1004100000FB034E840A970A44EA815447EA835753
:10042000A4FB076802958D0A05FB07854FEA932C0C
:1004300004FB0C542705029D4FEA065847EA16377D
:10044000B5EB08056EEB070C870E920E47EA811795
:1004500042EA8312A7FB0201B6EB0B0164EB000436
:100460002B0D43EA0C335E1844EB1C50DA46514620
:10047000E7FB0201C5F313044FEA0B3343EA1453BD
:100480004FEA0432019C43EA0603A4F10C040294EF
:10049000009CCDE900B400F0F7F803B0BDE8F08FA0
:1004A00000200146F9E72DE9F04D81EA030404F04C
:1004B000004B21F0004514464FF0000A23F00041A4
:1004C00050EA050220D054EA01021DD0C5F30A57B4
:1004D0000246C5F31303C1F31300C1F30A5640F4F7
:1004E000801543F48013A7EB0608101BD64608F2CC
:1004F000FD3873EB050002D308F1010801E0921802
:100500005B41B8F1000F03DA00200146BDE8F08D31
:1005100000204FF48011064684460EE0171B73EB53
:10052000050705D3121B63EB050306434CEA010CD8
:1005300049084FEA300092185B4150EA0107EDD1BB
:1005400052EA030012D082EA040083EA050108435C
:1005500005D0101BAB4106D20122002306E0002289
:100560004FF0004302E06FF0010253101AEB060057
:100570004CEB085110EB0A0041EB0B01BDE8F04DCC
:1005800000F073B8C1F30A52C1F3130140F2FF3314
:1005900041F480119A4202DA00200146704740F28D
:1005A00033439A42A2F2334202DC524200F03BB89B
:1005B00000F02AB830B5041E71F1000404DB4FF0DE
:1005C0000044404264EB0101141E73F1000405DB9A
:1005D0001C464FF00043524263EB0403994208BFAC
:1005E000904230BD064C074D06E0E06840F0010344
:1005F00094E8070098471034AC42F6D3FFF7C8FDE3
:10060000901B0008B01B0008202A04DB203A00FAE7
:1006100002F1002070479140C2F1200320FA03F359
:10062000194390407047202A04DB203A21FA02F057
:100630000021704721FA02F3D040C2F1200291401C
:10064000084319467047202A06DBCB17203A41FAA7
:1006500002F043EAE07306E041FA02F3D040C2F14F
:100660002002914008431946704710B5141E73F1DB
:10067000000408DA401C41F1000192185B411A4362
:1006800001D120F0010010BD2DE9F04D92469B46AE
:1006900011B1B1FA81F202E0B0FA80F22032904654
:1006A000FFF7B2FF04460F4640EA0A0041EA0B0199
:1006B00053465A46084313D0114653EA010019D055
:1006C000C8F140025046FFF7AEFF05460E465046C1
:1006D00059464246FFF798FF084305D0012004E041
:1006E00020463946BDE8F08D0020054346EAE07615
:1006F0002C4337430A986305E40AA0EB0800002264
:10070000FD0A44EA47540A3002D500200146E9E7D1
:10071000010510196941DDE9084500196941BDE885
:10072000F04DA2E7FEE7FEE731B500F0EFF8044632
:1007300000F0ECF80099001B8842F9D338BD0000A6
:100740002DE9F84FDFF888B100224FF001084FF093
:10075000030A4FF00F090BF1040E00BF0B6808FAF3
:1007600002F42340A3426ED14D68022D01D0122D18
:100770000ED1D50800EB850CDCF820505607F70E9B
:1007800009FA07F6B5430E69BE402E43CCF8206047
:10079000066855000F790AFA05FC07F0030726EAF8
:1007A0000C06AF40374307604E68012E05D0022E7D
:1007B00003D0112E01D0122E0ED18668CF6826EA02
:1007C0000C06AF40374387604668A6430C79C4F3F4
:1007D0000014944034434460C4688E6824EA0C04D6
:1007E000AE402643C6604C68E4006AD5394C2568A3
:1007F00045F480452560246822F0030504F4804414
:100800000094354C2E19D6F8084895072F0F09FA91
:1008100007F5AC43314DA84201D1002529E0304D08
:10082000A84201D1012524E02E4DA84201D1022584
:100830001FE02D4DA84201D103251AE02B4DA842FF
:1008400002D1042515E03CE0294DA84201D105253F
:100850000FE0284DA84201D106250AE0264DA84206
:1008600001D1072505E0254DA84201D1082500E06A
:100870000925BD402543C6F80858DBF800405D4611
:100880004E689C43F60300D51C432C60DEF8004004
:1008900075464E689C43B60300D51C432C600C4D36
:1008A00008352C684E689C43F60200D51C432C602A
:1008B000074D0C352C684E689C43B60200D51C438E
:1008C0002C60521C102AFFF449AFBDE8F88F0000DD
:1008D000003C01404438024000300140000002402A
:1008E0000004024000080240000C024000100240D8
:1008F0000014024000180240001C02400020024088
:100900000AB1816170470904FBE7000001480068F3
:10091000704700000000002002480168491C016087
:1009200070470000000000200B4810B5016841F43A
:1009300000710160016841F480610160016841F467
:1009400080710160032000F05DF8002000F006F8DF
:1009500000F015F8002010BD003C024010B5044620
:1009600000F002F94FF47A71B0FBF1F000F0CDFA2B
:1009700000222146501E00F025F8002010BD10B5C1
:10098000032000F03FF8002211466FF00B0000F04A
:1009900019F8002211466FF00A0000F013F8002247
:1009A00011466FF0090000F00DF800221146101FEB
:1009B00000F008F80022BDE810401146501E00F07B
:1009C00001B80000F0B40E4B1B680C46C3F30223C1
:1009D000C3F10705042D00D90425191D072901D2EB
:1009E000002300E0DB1E012606FA05F1491E214026
:1009F00099409E40761E16403143F0BC00F0A0BAEC
:100A00000CED00E0064900F0070208684FF6FF030E
:100A1000184040EA0220034A104308607047000073
:100A20000CED00E00000FA052DE9F047DFF830A1F9
:100A300005460F46DAF8000000F00F01F8B28146D3
:100A4000B94208D201468AF80010DAF8000000F036
:100A50000F00B8426AD12878424C800705D520683B
:100A6000A96820F0F000084320602878C0074FD024
:100A70003C4968680839012819D002281AD003288F
:100A800018D009688907002950DA216821F003018C
:100A900001432160FFF73AFF0646686841F2883853
:100AA000012810D002281AD003281ED02CE0096893
:100AB0008903E8E709688901E5E700BFFFF726FF3A
:100AC000811B41451DD82068C0F381000128F5D164
:100AD0001EE000BFFFF71AFF811B414511D82068B7
:100AE000C0F381000228F5D112E02068FFF70EFF65
:100AF000801B4045F9D904E0FFF708FF811B414501
:100B000002D90320BDE8F087206810F00C0FF3D164
:100B1000DAF80010504601F00F01B94208D980F808
:100B20000090006800F00F00B84201D00120E9E712
:100B30002878400705D52068E96820F4E05008438C
:100B400020602878000706D52068296920F46040D5
:100B500040EAC10020600020FFF700FF0020D1E73D
:100B6000003C02400838024010B500F017F8084970
:100B70000968F02292FAA2F201F0F001B2FA82F2D0
:100B8000D140044A515CC8400349086010BD0000D0
:100B900008380240801B00080400002030B51948C6
:100BA000006810F00C01184812D0441004290ED02F
:100BB00008290DD11349091F0A6802F03F030A688A
:100BC000550247F6C07204D5B4FBF3F003E02046AB
:100BD00030BDB0FBF3F00B680968134092FAA2F243
:100BE000B2FA82F2D34058434FF4403292FAA2F262
:100BF00001F44031B2FA82F2D140491C4900B0FB05
:100C0000F1F030BD083802400024F4002DE9F84F1F
:100C10000446DFF8CC820078A8F1040BC007ABF1E2
:100C2000040537D0D8F800104046C1F381010129EE
:100C300008D00068C0F3810002280AD1DBF8000068
:100C4000400206D52868800324D56068002878D043
:100C500020E0A3492079891F0870606868B1FFF718
:100C600055FE064605E000BFFFF750FE801B6428D6
:100C700068D828688003F7D50CE0FFF747FE0646E2
:100C800005E000BFFFF742FE801B6428F0D828680B
:100C90008003F7D42078934E80074FF0010A4FF07D
:100CA000000742D5D8F80010404611F00C0F08D0CC
:100CB0000068C0F3810002280AD1DBF8000040027E
:100CC00006D42868800714D5E068012839D110E0DF
:100CD000E068D8B1C6F800A0FFF718FE814605E02D
:100CE000FFF714FEA0EB09000228C1D8286880078E
:100CF000F6D52868F82292FAA2F22169B2FA82F2B5
:100D000020F0F8009140084328600EE03760FFF7BC
:100D1000FDFD814606E000BFFFF7F8FDA0EB0900EE
:100D200002280FD828688007F6D42078000728D535
:100D30006D486169A1B1C0F800A0FFF7E7FD8146E9
:100D400008E0CAE079E000BFFFF7E0FDA0EB090092
:100D5000022872D862486C3000688007F4D510E031
:100D60000760FFF7D3FD814606E000BFFFF7CEFD29
:100D7000A0EB0900022860D859486C300068800751
:100D8000F4D42078400749D555483830016841F0FF
:100D900080510160006800F0805000905348016865
:100DA00041F480710160FFF7B1FD814606E000BFAC
:100DB000FFF7ACFDA0EB090002283ED84B480068C5
:100DC000C005F5D5DFF81891207A09F1680989F88E
:100DD0000000A06888B1FFF799FD009008E000BF0F
:100DE000FFF794FD0099411A41F2883081426CD896
:100DF000D9F800008007F3D510E0FFF787FD0090D9
:100E000008E000BFFFF782FD0099411A41F28830E7
:100E100081425AD8D9F800008007F3D4A069E0B322
:100E2000D8F80010C1F38101022956D00228376694
:100E300004D0FFF76BFD04464AE046E0FFF766FD8D
:100E4000074604E0FFF762FDC01B02283DD8286872
:100E50008001F7D4D4E90701084347F6C07292FA3B
:100E6000A2F2616AB2FA82F29140A26A4FF0FF33B5
:100E700003EB52024FF4403393FAA3F3B3FA83F334
:100E80009A40114308434FF0706292FAA2F2E16A6D
:100E9000B2FA82F29140084300E01CE0CBF8000077
:100EA000C6F860A0FFF732FD044604E0FFF72EFD10
:100EB000001B022809D828688001F7D50BE000BF85
:100EC000FFF724FD001B022802D90320BDE8F88F9C
:100ED00028688001F4D40020F8E70120F6E700003C
:100EE0000838024000004742800E47420070004030
:100EF0004FF0E0210428086903D020F004000861C5
:100F0000704740F00400FAE7704710B5401EB0F19A
:100F1000807F01D3012010BD4FF0E02460610F21DC
:100F2000601700F00DF80020A0610720206100206C
:100F300010BD10B5FFF7E8FF10BDFEE7FEE77047F4
:100F40000907090E002806DA00F00F0000F1E02082
:100F500080F8141D704700F1E02080F800147047FD
:100F600010B5FFF7D9FCBDE81040FFF7E2BF000065
:100F700030B5224893B00025016841F080510160EE
:100F8000006800F0805011901D48016841F48041D4
:100F900001600068022400F480401190012000905C
:100FA00001908005CDE90640082008904FF4A87014
:100FB000CDE9090404200B906846FFF727FE0CA931
:100FC0000F2081E831004FF4A0500F9010900521C0
:100FD0000CA8FFF729FDFFF7C7FD4FF47A71B0FBAE
:100FE000F1F0FFF792FF0420FFF782FF0022114685
:100FF000501EFFF7E7FC13B030BD00004038024040
:10100000007000401048016841F4700101600F4811
:10101000016841F0010101600C4A002108321160B1
:1010200002680B4B1A400260031D0A4A1A600268EC
:1010300022F48022026005480C3001600249580603
:10104000803908607047000088ED00E000380240F9
:10105000FFFFF6FE10300024FEE700000FB4084B3F
:1010600010B504A902AA039800F0CEF8044602A91C
:10107000002000F060FC204610BC5DF814FB00006E
:101080003719000802E008C8121F08C1002AFAD167
:1010900070477047002001E001C1121F002AFBD1F8
:1010A000704700002DE9FF5FDDE90220010DDDF84A
:1010B00038B0024318D044F61050A1F2FF3141433A
:1010C0000D140F98012820D0A5EB0B00401C5FEAFF
:1010D000000A4FF00004474EDFF81C91A04650462E
:1010E00016D5CAF1000728E00F98012443A2012871
:1010F00008D0002100980F9BC0E90021C0E90243FD
:10110000BDE8FF9F6FEA0B01F4E7CBF10000DEE7DB
:10111000074612E0F80707D02246334640464946C4
:10112000FFF74FF980468946224633461046194656
:10113000FFF747F904460E467F10002FEAD1DDE99C
:101140000201BAF1000F42464B4602DAFFF739F9C5
:1011500001E0FFF7A8F904460E460022284BFFF7EE
:1011600029FA03D84FF0FF30014607E00022254B53
:1011700020463146FFF77EF8FFF704FA102409E015
:10118000002C0ADB0A220023FFF743F8019B3032D0
:101190001A55641E50EA0102F2D1641C019AC4F18E
:1011A000110314440F9A012A03D0012208430DD1E0
:1011B0000AE0084304D000204FF0110B0F9080E7A5
:1011C000A3EB0B056D1E0DE05B4504DD4FF0000247
:1011D00005F1010504E003DA4FF00002A5F1010575
:1011E000002AECD000980F99C0E90231C0E900450F
:1011F00086E70000000024400000F03F30000000BF
:101200000000F0430000E03F2DE9FF4F95B09B4602
:101210008946064600250FE2252877D10024274677
:10122000F84A0121059400E0044316F8013F203BF1
:1012300001FA03F01042F7D130782A2811D06FF06C
:101240002F033078A0F13002092A16D8059A44F00D
:10125000020402EB820203EB42021044761C05906A
:10126000EFE759F8042B0592002A03DA504244F4C0
:101270000054059044F00204761C30782E2816D1D4
:1012800016F8010F44F004042A280DD06FF02F0245
:101290003078A0F13003092B09D807EB870302EB64
:1012A0004303C718761CF3E759F8047B761C3078A3
:1012B0006C280FD006DC4C2817D068280DD06A287F
:1012C00014D104E0742810D07A280FD10DE044F432
:1012D00000140AE044F4801401E044F440147278ED
:1012E000824202D104F58014761C761C3078662880
:1012F0000BD013DC582877D009DC002875D045289E
:10130000F6D04628F4D047281AD19DE118E063288A
:1013100035D0642879D0652812D195E1702873D032
:1013200008DC6728F1D069286FD06E280DD06F28AF
:1013300006D1B5E073282CD0752875D0782874D0E4
:101340005A46179990476D1C75E1C4F30250022864
:1013500009D003280DD0D9F8001004280DD00D6055
:1013600009F1040967E1D9F80010EA17C1E9005250
:10137000F6E7D9F800100D80F2E70D70F0E719F8E4
:10138000041B8DF8001000208DF80100EA460120B2
:1013900003E059F804AB4FF0FF3061074FF0000154
:1013A00002D40DE008F101018846B9420FDA804508
:1013B000F8DB1AF808100029F4D108E008F101015F
:1013C00088468142FADB1AF808100029F6D1059800
:1013D0005B46A0EB080721463846179A00F094FABE
:1013E000284400EB080507E04DE029E10DE01AF87C
:1013F000010B5A4617999047B8F10108F7D25B469E
:1014000021463846179A13E142E00A220092C4F3BB
:1014100002524FF0000A022A08D059F804CB032ADE
:101420004FEAEC710AD00DE029E02AE009F107014A
:1014300021F00702F2E802C1914609E00FFA8CFCA4
:101440004FEAEC71042A03D14FFA8CFC4FEAEC719D
:10145000002907DA0A460021DCF1000C61EB0201E9
:101460002D2202E0220504D52B228DF80420012232
:1014700003E0E20701D02022F7E7904659E00A2175
:1014800002E010220DE010214FF0000A00910BE065
:1014900010224FF0000A44F004040827009203E0F1
:1014A00008224FF0000A0092C4F30252022A05D02B
:1014B00059F804CB0021032A08D009E009F10701FB
:1014C00021F00702F2E802C1914605E01FFA8CFC08
:1014D000042A01D10CF0FF0C4FF00008220728D598
:1014E000702806D0009B83F0100353EA0A0305D04E
:1014F0000EE040228DF80420012208E05CEA01029F
:1015000006D030228DF804208DF805000222904686
:10151000009B83F0080353EA0A030AD15CEA010244
:1015200001D1620705D530228DF804204FF0010863
:101530007F1E582804D034A003900EA802900DE01E
:1015400036A0F9E753466046009AFEF762FE8446ED
:101550000398825C0298401E029002705CEA0100CF
:10156000F0D1029806A9081A00F1200A600702D5F6
:1015700024F4803400E00127574502DDA7EB0A0080
:1015800000E0002000EB0A01009005984144401A59
:101590000590E00306D45B462146179A059800F0B3
:1015A000B3F90544002706E001A85A46C05D179923
:1015B00090476D1C7F1C4745F6DBE0030CD55B466E
:1015C0002146179A059800F09FF9054404E0302061
:1015D0005A46179990476D1C0099481E00900029A3
:1015E000F5DC08E0029802995A460078491C0291FD
:1015F000179990476D1CBAF10001AAF1010AF1DCBC
:1016000065E10000092801003031323334353637C6
:10161000383961626364656600000000303132333E
:1016200034353637383941424344454600000000DE
:1016300000F058F90544761C307800287FF4ECADB2
:1016400019B02846BDE8F08F620700D4062709F1DB
:10165000070222F0070CFCE80223E14603F00048F1
:101660005FEA080C02D00FF2702C0DE05FEA045C18
:1016700002D50FF2682C07E05FEAC47C02D00FF2BB
:10168000602C01E0AFF2700C4FF0FF3823F0004304
:10169000CDF850C065280CD006DC452809D0462876
:1016A0001DD047283DD13DE0662818D067287ED15F
:1016B00038E00021112F01DB112000E0781CCDE97A
:1016C000000106A90EA8FFF7EDFCDDE90F010E9A57
:1016D00003910021009207F1010A04914DE04FF0BF
:1016E00000400097CDE9011006A90EA8FFF7DAFC2B
:1016F000DDE90F0203920E9B11990022DDF80CA088
:101700000093049211B9791C00EB010AB7EB0A00AF
:1017100004D4C0F1FF3007F1010A0490AAEB0700DE
:10172000019044E0012F00DA01270021112F01DD93
:10173000112000E03846CDE9000106A90EA8FFF708
:10174000B1FCDDE90F010E9A039100210491009292
:10175000BA4621070CD40399514500DA8A46BAF1FA
:10176000010F05DD009AAAF10101515C302908D072
:10177000B84202DA10F1040F06DA0121CDE90110B6
:1017800015E0AAF10101E9E7002805DC049901440C
:101790000491AAEB000102E0411C514500DD8A469C
:1017A0000499401A401C01904FF00040029020071D
:1017B00004D40198504501DBCDF8048000208DF859
:1017C0004F0002980DF14F07B0F1004F25D02B20AC
:1017D0000E9002984FF0020800280CDA4042029066
:1017E0002D200E9007E00A210298FEF7FCFC303114
:1017F000029007F8011DB8F10001A8F10108F2DC20
:1018000002980028EFD1791E0E980870307800F009
:10181000200040F0450007F8020D12A8C01B00F19F
:1018200007081498007800B1012000EB0A01019824
:1018300001EBE07105984144401A401E0590E00319
:1018400006D45B462146179A059800F05DF80544DA
:101850001498007818B15A46179990476D1CE00308
:1018600024D55B462146179A059800F04DF80544AB
:101870001CE00498002807DBDDE90301884203DD52
:101880000098405C179901E0179930205A4690471C
:10189000049805F10105401C04900198401E019038
:1018A00004D12E205A46179990476D1CBAF10001B9
:1018B000AAF1010ADDDC05E017F8010B5A46179979
:1018C00090476D1CB8F10001A8F10108F4DC5B46FB
:1018D0002146179A0598ABE62D0000002B0000006A
:1018E000200000002DE9F041044600251E46174661
:1018F000880404D405E039462020B0476D1C641EDE
:10190000F9D52846BDE8F0812DE9F04104460025CF
:101910001E469046C80301D5302700E020278804E2
:1019200004D505E041463846B0476D1C641EF9D524
:101930002846BDE8F0810A68531C0B6010707047A0
:1019400010B51E20FEF7F0FE1A4C0022042120469E
:10195000FEF7D6FF012208212046FEF7D1FF002224
:1019600010212046FEF7CCFF002220212046FEF762
:10197000C7FF002201212046FEF7C2FF01220221FB
:101980002046FEF7BDFF002202212046FEF7B8FFE9
:101990002821002000F030F80C21002000F02CF865
:1019A0000621002000F028F80121BDE810400020A9
:1019B00000F022B80010024010B5144630B10128E2
:1019C00006D0022806D0032811D105E0803104E0BA
:1019D000C03102E0943100E0D431C9B2002000F0FF
:1019E0000BF804E0C1B2012000F006F8641C207876
:1019F0000028F7D110BD000070B506460C46022045
:101A0000FEF792FE334D0EB1012200E000220121CB
:101A10002846FEF775FF200601D5012200E00022CE
:101A200020212846FEF76CFF600601D5012200E068
:101A3000002210212846FEF763FFA00601D50122EF
:101A400000E0002208212846FEF75AFFE00601D5F3
:101A5000012200E0002204212846FEF751FF012266
:101A600002212846FEF74CFF002202212846FEF7FD
:101A700047FF200701D5012200E00022202128464F
:101A8000FEF73EFF600701D5012200E00022102191
:101A90002846FEF735FFA00701D5012200E000220D
:101AA00008212846FEF72CFFE00701D0012200E0C4
:101AB000002204212846FEF723FF012202212846A6
:101AC000FEF71EFF2846BDE8704000220221FEF707
:101AD00017BF00000010024086B0FEF725FFFFF799
:101AE00047FA1E480024016841F0100101600168B6
:101AF00001F010010591016841F08001016000686A
:101B0000174D00F08000059022463F212846FEF741
:101B1000F7FE3F2000900120CDE90104032003904F
:101B200069462846FEF70CFEFFF70AFF00210DA2CA
:101B30000846FFF741FF0E480068FEF741FB41EC05
:101B4000100B0CA153EC102B0C48FFF787FA012166
:101B50000A4A0846FFF730FFFEE70000303802402F
:101B60000010024048454C4C4F20574F524C440007
:101B70000800002025302E32660000000C000020F6
:101B80000000000001020304010203040607080923
:101B9000B01B0008000000200C00000084100008AA
:101BA000BC1B00080C000020140400009410000866
:0C1BB000000000000024F4006DE7FB3D85
:040000050800018965
:00000001FF
