:020000040800F2
:10000000B00400209D01000843130008E31200081B
:1000100041130008A90300085D1400080000000057
:10002000000000000000000000000000AF01000818
:100030000904000800000000B3010008651300086F
:10004000B7010008B7010008B7010008B7010008B0
:10005000B7010008B7010008B7010008B7010008A0
:10006000B7010008B7010008B7010008B701000890
:10007000B7010008B7010008B7010008B701000880
:10008000B7010008B701000869020008B7010008BD
:10009000B7010008B7010008B7010008B701000860
:1000A000B7010008B7010008B7010008B701000850
:1000B000B7010008B7010008B7010008B701000840
:1000C000B7010008B7010008B7010008B701000830
:1000D000B7010008B7010008B7010008B701000820
:1000E000B7010008B7010008B7010008B701000810
:1000F000B7010008B7010008B7010008B701000800
:10010000B7010008B7010008B7010008B7010008EF
:10011000B7010008B7010008B7010008B7010008DF
:10012000AD030008B7010008B7010008B7010008D7
:10013000B7010008B7010008B7010008B7010008BF
:10014000B7010008B7010008B7010008B7010008AF
:10015000B7010008B7010008B7010008B70100089F
:10016000B7010008B7010008B7010008B70100088F
:10017000B7010008B7010008B7010008000000003F
:10018000B7010008B7010008DFF80CD000F018F83C
:10019000004800477D140008B0040020064880474E
:1001A00006480047FEE7FEE7FEE7FEE7FEE7FEE75C
:1001B000FEE7FEE7FEE7FEE70914000889010008F4
:1001C000064C074D06E0E06840F0010394E80700A4
:1001D00098471034AC42F6D3FFF7DAFFFC1400085E
:1001E0001C15000810B50146806B026C12F0500F10
:1001F00005D0806B826CBDE8104008461047016C4A
:1002000041F40071016401688A6812F0405F17D1FF
:100210008269AAB9CA6A12F4700F02D08A685205BC
:100220000ED44A6822F020024A60016C21F48071E9
:100230000164016CC90403D4016C41F00101016443
:1002400000F08CF910BD10B5806B40210164416C49
:1002500041F00401416400F083F910BD10B5806BDA
:1002600000F07DF910BD0000014800F07AB90000EF
:10027000100000204A4910B5D1F8042322F440327E
:10028000C1F80423D1F8042343681A43C1F80423B6
:1002900001684A6822F480724A6001684A6803690A
:1002A00042EA03224A6001684A6822F040724A60CA
:1002B00001684A6883681A434A6001688A6822F4C0
:1002C00000628A6001688A68C3681A438A60816A2A
:1002D0006FF07062D14201688A6822F070628A60B1
:1002E00001688A680CD0836A1A438A6001688A6848
:1002F00022F040528A6001688A68C36A1A4301E0AA
:1003000022F040528A6001688A6822F002028A6004
:1003100001688A68836942EA43028A60016A0029A7
:1003200001684A6815D042F400624A6001684A6870
:1003300022F460424A6001684B684FF46044426AAC
:1003400094FAA4F4B4FA84F4521EA24013434B600E
:1003500002E022F400624A600168CA6A22F4700274
:10036000CA620168CA6A838B0E4C04EB03531A43BA
:10037000CA6201688A6822F400728A6001688A6829
:10038000036B42EA43228A6001688A6822F4806231
:100390008A6001688A68406942EA8020886010BDEE
:1003A000002001400000F0FFFEE70000014800F0DF
:1003B00063BA00005800002001681823CAB2103A3E
:1003C000B2FBF3F2054B6FF30901032A9B5C436513
:1003D00000D9091D0165084670470000E4140008B3
:1003E00030B50468256825F48025256004686360BD
:1003F0008368402B036803D099600068C26030BDF9
:100400009A600068C16030BDFEE7704778B500248F
:10041000009490F83C20012A19D0012280F83C2059
:100420000A6807230568092A13D9EE680A3A02EB1D
:10043000420293409E43EE600B788A680A3B03EBCE
:1004400043039A400368DD682A43DA6010E0022023
:1004500078BD2E6902EB420293409E432E610A78DA
:100460008B6802EB42029340026815692B431361CB
:100470004A681F23072A13D205686E6B521E02EBCF
:10048000820293409E436E630B790A885B1E92B290
:1004900003EB83039A4003685D6B2A435A6327E0AA
:1004A00005680D2A12D22E6BD21F02EB82029340F6
:1004B0009E432E630B790A88DB1F92B203EB830302
:1004C0009A4003681D6B2A431A6311E0EE6A0D3AE5
:1004D00002EB820293409E43EE620B790A880D3B49
:1004E00092B203EB83039A400368DD6A2A43DA621F
:1004F000174A0368934208D10B68122B05D1D2F832
:10050000043343F48003C2F80433036893421AD1DE
:100510000B68102B01D0112B15D1D2F8043343F402
:100520000003C2F80433096810290CD109490A4AAA
:100530000968B1FBF2F101EB8101490000E0491EBD
:1005400000910029FBD180F83C40002078BD0000DC
:10055000002001400000002040420F00704770471B
:10056000704770B50446006801684268C1F34001F5
:10057000C2F3401251B34AB3216CC90603D4216CB3
:1005800041F400712164816811F0405F17D1A169C5
:10059000A9B9C16A11F4700F02D0816849050ED45F
:1005A000416821F020014160206C20F480702064BB
:1005B000206CC00403D4206C40F00100206420466D
:1005C000FFF7CCFF21686FF0120008602068016817
:1005D0004268C1F38001C2F3C01289B382B3216CB7
:1005E000C90603D4216C41F400512164816811F4DF
:1005F000401F1ED1816B11F4401F02D08168490554
:1006000017D44168490514D4816811F0405F10D1B6
:10061000A16971B9416821F080014160206C20F42A
:1006200080502064206CC00503D4206C40F0010091
:1006300020642046FFF7E9FE21686FF00C00086097
:1006400020680168426811F0010FC2F380120ED0D9
:100650006AB10068C0070AD0206C40F48030206482
:10066000204600F046F821686FF00100086020681D
:1006700001684268C1F34011C2F3806200290DD0C5
:10068000002A0BD0616C41F0020161646FF020051B
:1006900005602046FFF764FF2068056070BD70B5F7
:1006A00004004FF0000503D0206C002610B107E0D5
:1006B000012070BD666484F83C60204600F01AF8A2
:1006C000206CC00610D4206C20F4885040F002004A
:1006D00020642046FFF7CEFD6664206C20F0020007
:1006E00040F00100206400E0012584F83C602846C9
:1006F00070BD704770B5064600681B4986B08842D9
:100700002FD11A480025016841F48071016000680A
:10071000694600F480700590072000900320CDE921
:100720000105134800F0DCF9134C1248C4E9000538
:100730000015A560C4E90350400060618000A0611D
:100740004011C4E907052046656200F065F9B4630D
:10075000002211461220A66300F008FB122000F0D0
:10076000FAFA06B070BD0000002001404438024093
:10077000000002401064024058000020F8B50D4609
:1007800000210446009190F83C00012807D0012088
:1007900084F83C0020688368DB0702D011E0022067
:1007A000F8BD836843F0010383602D482D4B00683A
:1007B000B0FBF3F000EB400000E0401E009000288A
:1007C000FBD120688368DB0748D0236C40F20166C8
:1007D000B34343F4807323644068400505D5206C1F
:1007E00020F4005040F480502064206CC00404D5F4
:1007F000606C20F00600606400E0616484F83C10E6
:10080000A16B1948C863A16B18480864A16B18480C
:10081000886421686FF0020008602068416841F038
:10082000806141602068816841F480718160216845
:1008300013462A464C31A06B00F02AF90D49D1F835
:100840000403C006206801D0884207D1816811F0F6
:10085000405F03D1816841F0804181600020F8BD94
:100860000000002040420F00E50100085D02000882
:1008700047020008002001402DE9F041056D0446C3
:10088000296890F85420082000FA02F211424FF033
:1008900004074FF0000617D021680A68520713D5E5
:1008A0000A6822F004020A6094F854108840A86094
:1008B000E06C40F00100E06484F8357084F8346046
:1008C000A16C09B120468847296894F85420514802
:1008D00000FA02F2114217D021684A69120613D5B4
:1008E0004A6922F080024A6194F854108840A86056
:1008F000E06C40F00200E06484F8357084F8346005
:10090000A16C09B1204688472968424894F85420D0
:10091000C01C00FA02F2114217D021680A6892073F
:1009200013D50A6822F002020A6094F85410884035
:10093000A860E06C40F00400E06484F8357084F84E
:100940003460A16C09B1204688472A6894F8541095
:10095000102000FA01F31A421BD021680A6812071E
:1009600017D50A6857034FF0310228D5AB602068CD
:100970000168090303D400BF84F8352005E000684E
:10098000000302D5412084F83500216C09B12046CE
:1009900088472B6894F85410202000FA01F2134283
:1009A00036D021680B68DB0632D50B685B031CD59B
:1009B000AA602068016809030DD4616C0FE00B6820
:1009C000DB0503D40B6823F008030B6094F8541084
:1009D0008840A860D0E70068000319D5E16B0029C2
:1009E00016D02046BDE8F04108470A68D20503D476
:1009F0000A6822F010020A6094F854108840A86037
:100A0000E06CE064112084F8350084F83460E5E798
:100A1000BDE8F0810100800070B504001AD002200A
:100A2000636A84F835002268116818480140D4E9E7
:100A300001052843D4E90356354328436569284313
:100A4000A5692843E5692843256A28430843042B00
:100A500002D005E0012070BDD4E90B13194308430F
:100A6000106022685069616A20F007000843042979
:100A700001D1A16A084350612046FFF79DFC002088
:100A8000E064012084F83500002070BD3F8010F044
:100A900070B5044690F8340001281ED0012084F877
:100AA0003400022084F835002068056825F001052F
:100AB00005602046FFF794FC2068016841F01E01A4
:100AC00001602068416941F080014161206801684E
:100AD00041F001010160002070BD022070BD0000E6
:100AE0002DE9F84FDFF888B100224FF001084FF0F0
:100AF000030A4FF00F090BF1040E00BF0B6808FA50
:100B000002F42340A3426ED14D68022D01D0122D74
:100B10000ED1D50800EB850CDCF820505607F70EF7
:100B200009FA07F6B5430E69BE402E43CCF82060A3
:100B3000066855000F790AFA05FC07F0030726EA54
:100B40000C06AF40374307604E68012E05D0022ED9
:100B500003D0112E01D0122E0ED18668CF6826EA5E
:100B60000C06AF40374387604668A6430C79C4F350
:100B70000014944034434460C4688E6824EA0C0432
:100B8000AE402643C6604C68E4006AD5394C2568FF
:100B900045F480452560246822F0030504F4804470
:100BA0000094354C2E19D6F8084895072F0F09FAEE
:100BB00007F5AC43314DA84201D1002529E0304D65
:100BC000A84201D1012524E02E4DA84201D10225E1
:100BD0001FE02D4DA84201D103251AE02B4DA8425C
:100BE00002D1042515E03CE0294DA84201D105259C
:100BF0000FE0284DA84201D106250AE0264DA84263
:100C000001D1072505E0254DA84201D1082500E0C6
:100C10000925BD402543C6F80858DBF800405D466D
:100C20004E689C43F60300D51C432C60DEF8004060
:100C300075464E689C43B60300D51C432C600C4D92
:100C400008352C684E689C43F60200D51C432C6086
:100C5000074D0C352C684E689C43B60200D51C43EA
:100C60002C60521C102AFFF449AFBDE8F88F000039
:100C7000003C014044380240003001400000024086
:100C80000004024000080240000C02400010024034
:100C90000014024000180240001C024000200240E4
:100CA00001480068704700000C00002002480168FD
:100CB000491C0160704700000C0000200B4810B573
:100CC000016841F400710160016841F480610160D4
:100CD000016841F480710160032000F067F8002092
:100CE00000F006F800F015F8002010BD003C0240AE
:100CF00010B5044600F00CF94FF47A71B0FBF1F036
:100D000000F0D7FA00222146501E00F02FF80020F4
:100D100010BD10B5032000F049F8002211466FF015
:100D20000B0000F023F8002211466FF00A0000F0DB
:100D30001DF8002211466FF0090000F017F800229C
:100D40001146101F00F012F80022BDE810401146B5
:100D5000501E00F00BB800F01F0201219140400925
:100D6000800000F1E020C0F800117047F0B40E4B95
:100D70001B680C46C3F30223C3F10705042D00D9F9
:100D80000425191D072901D2002300E0DB1E0126DE
:100D900006FA05F1491E214099409E40761E1640F4
:100DA0003143F0BC00F0CEBA0CED00E0064900F093
:100DB000070208684FF6FF03184040EA0220034A82
:100DC00010430860704700000CED00E00000FA05D9
:100DD0002DE9F047DFF830A105460F46DAF80000AC
:100DE00000F00F01F8B28146B94208D201468AF8F4
:100DF0000010DAF8000000F00F00B8426AD128783D
:100E0000424C800705D52068A96820F0F00008430F
:100E100020602878C0074FD03C496868083901280D
:100E200019D002281AD0032818D009688907002988
:100E300050DA216821F0030101432160FFF730FF00
:100E40000646686841F28838012810D002281AD076
:100E500003281ED02CE009688903E8E709688901A6
:100E6000E5E700BFFFF71CFF811B41451DD8206847
:100E7000C0F381000128F5D11EE000BFFFF710FF8D
:100E8000811B414511D82068C0F381000228F5D1AB
:100E900012E02068FFF704FF801B4045F9D904E009
:100EA000FFF7FEFE811B414502D90320BDE8F08714
:100EB000206810F00C0FF3D1DAF80010504601F062
:100EC0000F01B94208D980F80090006800F00F00C7
:100ED000B84201D00120E9E72878400705D520680D
:100EE000E96820F4E050084320602878000706D520
:100EF0002068296920F4604040EAC1002060002099
:100F0000FFF7F6FE0020D1E7003C0240083802401F
:100F100010B500F017F808490968F02292FAA2F219
:100F200001F0F001B2FA82F2D140044A515CC840AB
:100F30000349086010BD000008380240EC140008A6
:100F40000000002030B51948006810F00C01184866
:100F500012D0441004290ED008290DD11349091FBD
:100F60000A6802F03F030A68550247F6C07204D5CA
:100F7000B4FBF3F003E0204630BDB0FBF3F00B68A8
:100F80000968134092FAA2F2B2FA82F2D3405843AF
:100F90004FF4403292FAA2F201F44031B2FA82F2F6
:100FA000D140491C4900B0FBF1F030BD0838024087
:100FB0000024F4002DE9F84F0446DFF8CC820078D5
:100FC000A8F1040BC007ABF1040537D0D8F8001026
:100FD0004046C1F38101012908D00068C0F38100B7
:100FE00002280AD1DBF80000400206D528688003F9
:100FF00024D56068002878D020E0A3492079891F93
:101000000870606868B1FFF74BFE064605E000BF58
:10101000FFF746FE801B642868D828688003F7D550
:101020000CE0FFF73DFE064605E000BFFFF738FE87
:10103000801B6428F0D828688003F7D42078934E6A
:1010400080074FF0010A4FF0000742D5D8F8001092
:10105000404611F00C0F08D00068C0F38100022850
:101060000AD1DBF80000400206D42868800714D5B6
:10107000E068012839D110E0E068D8B1C6F800A0D6
:10108000FFF70EFE814605E0FFF70AFEA0EB090020
:101090000228C1D828688007F6D52868F82292FA75
:1010A000A2F22169B2FA82F220F0F80091400843DE
:1010B00028600EE03760FFF7F3FD814606E000BFD1
:1010C000FFF7EEFDA0EB090002280FD82868800783
:1010D000F6D42078000728D56D486169A1B1C0F821
:1010E00000A0FFF7DDFD814608E0CAE079E000BF1F
:1010F000FFF7D6FDA0EB0900022872D862486C30D9
:1011000000688007F4D510E00760FFF7C9FD81464D
:1011100006E000BFFFF7C4FDA0EB0900022860D87D
:1011200059486C3000688007F4D42078400749D5CE
:1011300055483830016841F080510160006800F086
:10114000805000905348016841F480710160FFF7BE
:10115000A7FD814606E000BFFFF7A2FDA0EB090056
:1011600002283ED84B480068C005F5D5DFF8189135
:10117000207A09F1680989F80000A06888B1FFF7B2
:101180008FFD009008E000BFFFF78AFD0099411A2B
:1011900041F2883081426CD8D9F800008007F3D53D
:1011A00010E0FFF77DFD009008E000BFFFF778FD3D
:1011B0000099411A41F2883081425AD8D9F800008A
:1011C0008007F3D4A069E0B3D8F80010C1F381011F
:1011D000022956D00228376604D0FFF761FD044685
:1011E0004AE046E0FFF75CFD074604E0FFF758FDE4
:1011F000C01B02283DD828688001F7D4D4E9070134
:10120000084347F6C07292FAA2F2616AB2FA82F219
:101210009140A26A4FF0FF3303EB52024FF4403388
:1012200093FAA3F3B3FA83F39A40114308434FF0C0
:10123000706292FAA2F2E16AB2FA82F29140084335
:1012400000E01CE0CBF80000C6F860A0FFF728FD26
:10125000044604E0FFF724FD001B022809D8286893
:101260008001F7D50BE000BFFFF71AFD001B022835
:1012700002D90320BDE8F88F28688001F4D400204B
:10128000F8E70120F6E70000083802400000474276
:10129000800E4742007000404FF0E02104280869AA
:1012A00003D020F004000861704740F00400FAE722
:1012B000704710B5401EB0F1807F01D3012010BDF2
:1012C0004FF0E02460610F21601700F03BF8002030
:1012D000A06107202061002010BD10B5FFF7E8FFD6
:1012E00010BDFEE77FB5154813490024C0E900147E
:1012F000846004620125C4620326C0E90345C0E995
:10130000065605634561FFF7CAF907200094CDE949
:10131000015069460948FFF779F80224CDE90054E5
:1013200069460648FFF772F8CDE90046694603486A
:10133000FFF76CF87FBD0000002001401000002086
:10134000FEE770470907090E002806DA00F00F00D3
:1013500000F1E02080F8141D704700F1E02080F8D3
:101360000014704710B5FFF7A1FCBDE81040FFF76F
:10137000B4BF000030B5224893B00025016841F0A9
:1013800080510160006800F0805011901D48016894
:1013900041F4804101600068022400F48040119013
:1013A0000120009001908005CDE9064008200890BA
:1013B0004FF4A870CDE9090404200B906846FFF7AC
:1013C000F9FD0CA90F2081E831004FF4A0500F90D7
:1013D000109005210CA8FFF7FBFCFFF799FD4FF4D7
:1013E0007A71B0FBF1F0FFF764FF0420FFF754FFC0
:1013F00000221146501EFFF7B9FC13B030BD0000AB
:1014000040380240007000401048016841F470010B
:1014100001600F48016841F0010101600C4A0021A0
:101420000832116002680B4B1A400260031D0A4A21
:101430001A60026822F48022026005480C300160C4
:1014400002495806803908607047000088ED00E0C6
:1014500000380240FFFFF6FE10300024FEE702E0F5
:1014600008C8121F08C1002AFAD17047704700202F
:1014700001E001C1121F002AFBD1704708B5FFF738
:101480001DFCFFF777FF1448016841F080010160FF
:10149000016801F080010091016841F001010160E3
:1014A000016801F001010091016841F480010160CF
:1014B0000068002200F48000009011463820FFF7F9
:1014C00055FC3820FFF747FCFFF70CFF03220349C8
:1014D0000348FFF753F9FEE73038024004000020CC
:1014E0001000002000061016000610160000000074
:1014F0000102030401020304060708091C15000881
:1015000000000020100000005E1400082C150008E8
:1015100010000020A00400006E1400080024F40055
:0C152000000000000000000000000000BF
:040000050800018965
:00000001FF
