:020000040800F2
:10000000C00400209D0100081F1A00088B1300087F
:100010001D1A0008E5010008391B00080000000057
:10002000000000000000000000000000AF01000818
:100030005902000800000000B3010008411A00083E
:10004000B7010008B7010008B7010008B7010008B0
:10005000B7010008B70100085B020008B7010008FB
:10006000B7010008B7010008B7010008FD0100084A
:10007000B7010008B7010008B7010008B701000880
:10008000B7010008B7010008B7010008B701000870
:10009000B7010008B7010008B7010008B701000860
:1000A000B7010008B7010008B7010008B701000850
:1000B000B7010008B7010008B70100088D13000858
:1000C000B7010008B7010008B7010008B701000830
:1000D000B7010008B7010008B7010008B701000820
:1000E000B7010008B7010008B7010008B701000810
:1000F000B7010008B7010008B7010008B701000800
:10010000B7010008B7010008B7010008B7010008EF
:10011000B7010008B7010008B7010008B7010008DF
:10012000B7010008B7010008B7010008B7010008CF
:10013000B7010008B7010008B7010008B7010008BF
:10014000B7010008B7010008B7010008B7010008AF
:10015000B7010008B7010008B7010008B70100089F
:10016000B7010008B7010008B7010008B70100088F
:10017000B7010008B7010008B7010008000000003F
:10018000B7010008B7010008DFF80CD000F018F83C
:1001900000480047591B0008C0040020064880475B
:1001A00006480047FEE7FEE7FEE7FEE7FEE7FEE75C
:1001B000FEE7FEE7FEE7FEE7E51A00088901000812
:1001C000064C074D06E0E06840F0010394E80700A4
:1001D00098471034AC42F6D3FFF7DAFFF41B00085F
:1001E000141C0008FEE70A21B0FBF1F201FB120229
:1001F000B0FBF1F042EA0010C0B27047014800F0D5
:100200002FB800006400002001681823CAB2103A19
:10021000B2FBF3F2054B6FF30901032A9B5C4365C4
:1002200000D9091D0165084670470000DC1B000865
:1002300030B50468256825F480252560046863606E
:100240008368402B036803D099600068C26030BDAA
:100250009A600068C16030BDFEE7012000F06CB913
:100260002DE9F041056D0446296890F854200820D6
:1002700000FA02F211424FF004074FF0000617D0C7
:1002800021680A68520713D50A6822F004020A603E
:1002900094F854108840A860E06C40F00100E064DD
:1002A00084F8357084F83460A16C09B12046884721
:1002B000296894F85420514800FA02F2114217D0EC
:1002C00021684A69120613D54A6922F080024A6100
:1002D00094F854108840A860E06C40F00200E0649C
:1002E00084F8357084F83460A16C09B120468847E1
:1002F0002968424894F85420C01C00FA02F21142C6
:1003000017D021680A68920713D50A6822F0020202
:100310000A6094F854108840A860E06C40F0040033
:10032000E06484F8357084F83460A16C09B120462B
:1003300088472A6894F85410102000FA01F31A42F2
:100340001BD021680A68120717D50A6857034FF0B7
:10035000310228D5AB6020680168090303D400BFCF
:1003600084F8352005E00068000302D5412084F8B8
:100370003500216C09B1204688472B6894F8541049
:10038000202000FA01F2134236D021680B68DB0608
:1003900032D50B685B031CD5AA602068016809038D
:1003A0000DD4616C0FE00B68DB0503D40B6823F000
:1003B00008030B6094F854108840A860D0E70068E8
:1003C000000319D5E16B002916D02046BDE8F041A5
:1003D00008470A68D20503D40A6822F010020A60AE
:1003E00094F854108840A860E06CE064112084F810
:1003F000350084F83460E5E7BDE8F0810100800055
:1004000070B504001AD00220636A84F835002268AF
:10041000116818480140D4E901052843D4E903567E
:100420003543284365692843A5692843E56928437E
:10043000256A28430843042B02D005E0012070BD43
:10044000D4E90B1319430843106022685069616AAC
:1004500020F007000843042901D1A16A0843506134
:100460002046FFF7D1FE0020E064012084F835002B
:10047000002070BD3F8010F070B5044690F8340045
:1004800001281ED0012084F83400022084F83500B1
:100490002068056825F0010505602046FFF7C8FEC5
:1004A0002068016841F01E0101602068416941F047
:1004B000800141612068016841F001010160002074
:1004C00070BD022070BD31B500F022F9044600F085
:1004D0001FF90099001B8842F9D338BD1CB50128CB
:1004E00025D10C20FFF77FFE114B18700C20FFF771
:1004F0007AFE58700C20FFF776FE98700220FFF706
:1005000072FED8700C20FFF76EFE18710C20FFF7FA
:100510006AFE58710C20FFF766FE98710720CDE93E
:10052000003001230022D021024800F04DFB1CBD09
:100530001600002020000020044910B50A6802427D
:1005400002D00860FFF7CAFF10BD0000143C014054
:100550002DE9F84FDFF888B100224FF001084FF085
:10056000030A4FF00F090BF1040E00BF0B6808FAE5
:1005700002F42340A3426ED14D68022D01D0122D0A
:100580000ED1D50800EB850CDCF820505607F70E8D
:1005900009FA07F6B5430E69BE402E43CCF8206039
:1005A000066855000F790AFA05FC07F0030726EAEA
:1005B0000C06AF40374307604E68012E05D0022E6F
:1005C00003D0112E01D0122E0ED18668CF6826EAF4
:1005D0000C06AF40374387604668A6430C79C4F3E6
:1005E0000014944034434460C4688E6824EA0C04C8
:1005F000AE402643C6604C68E4006AD5394C256895
:1006000045F480452560246822F0030504F4804405
:100610000094354C2E19D6F8084895072F0F09FA83
:1006200007F5AC43314DA84201D1002529E0304DFA
:10063000A84201D1012524E02E4DA84201D1022576
:100640001FE02D4DA84201D103251AE02B4DA842F1
:1006500002D1042515E03CE0294DA84201D1052531
:100660000FE0284DA84201D106250AE0264DA842F8
:1006700001D1072505E0254DA84201D1082500E05C
:100680000925BD402543C6F80858DBF800405D4603
:100690004E689C43F60300D51C432C60DEF80040F6
:1006A00075464E689C43B60300D51C432C600C4D28
:1006B00008352C684E689C43F60200D51C432C601C
:1006C000074D0C352C684E689C43B60200D51C4380
:1006D0002C60521C102AFFF449AFBDE8F88F0000CF
:1006E000003C01404438024000300140000002401C
:1006F0000004024000080240000C024000100240CA
:100700000014024000180240001C02400020024079
:10071000014800687047000004000020704770B571
:1007200090F83E10026810291DD090F83E10402924
:1007300019D05169C1F3400551685369C1F3402193
:100740009469C3F30013C4F38004ADB3A1B39369F8
:100750000021DB435B0700D501219269D2431206D9
:1007600045D5828944E09169C9434907516924D438
:10077000C1F3C0155168C1F3802451695368C1F3B6
:100780008001C3F340230DB104B139B100290BD06E
:10079000002B09D0BDE8704000F01ABF418D21B98F
:1007A000506820F48060506070BD416A4A1C42620B
:1007B0000268097811617EE01EE0C1F38013516880
:1007C000C1F3802451695268C1F38001C2F3402211
:1007D0000BB104B139B10029E6D0002AE4D0BDE85C
:1007E000704000F027BEBDE8704000F097BE028B5D
:1007F00092B2FFF793FF70BD23B119B1BDE870400D
:1008000000F0E6BF51692823D4B3C1F3C014516886
:10081000C1F3802551695268C1F38001C2F34022BF
:100820000CB105B139B10029E5D0002AE3D0418DE2
:100830000029BAD170BD418D0029FBD0416A4A1C04
:100840004262026809781161418D491E4185418DDE
:100850000029EFD190F83D102929EBD101684A68B1
:1008600022F480624A6090F83D1090F83E2001F03A
:1008700003010A43026380F83D3000F054FA70BD72
:10088000FFE7C1F380145168C1F3802551695668B0
:10089000C1F38001C6F340260CB105B179B100293E
:1008A000EDD0002EEBD0418D0029E8D01269416ACD
:1008B0004B1C43620A70418D491E4185DFE7418D23
:1008C0000029DCD01269416A4C1C44620A70418DD7
:1008D000491E4185418D0029D1D190F83D102A292A
:1008E000CDD101684A6822F480624A6090F83D10D8
:1008F00090F83E2001F003010A43026380F83D3086
:1009000000F010FABBE7704770B5040004D094F80B
:100910003D00002510B106E0012070BD84F83C5078
:10092000204600F0B7F9242084F83D0020680168D3
:1009300021F00101016000F043FB33492268B0FB64
:10094000F1F15160314A6368934206D94FF49673CE
:1009500059434FF47A73B1FBF3F12368491C1962D0
:10096000616891420BD84900B0FBF1F2C2F30B026F
:10097000042A01D2042019E0B0FBF1F016E0A368CC
:100980009BB301EBC10202EB0112B0FBF2F242F4A5
:100990008042120530D04BB301EBC10202EB0111D2
:1009A000B0FBF1F040F4804040F400402168C861A1
:1009B000D4E90701084321680860D4E9031008431B
:1009C00021688860D4E9050108432168C86020686F
:1009D000016841F0010101602564202084F83D0098
:1009E000256384F83E50002070BD00E006E001EB76
:1009F0004102B0FBF2F2CCE70120D7E701EB410165
:100A0000B0FBF1F0D0E7000040420F00A0860100EB
:100A100070477047704700002349006809688842A2
:100A200040D12248017801F00F02090901EB810150
:100A300002EB4102C11F0A70427802F00F03120953
:100A400002EB820203EB42024A70827802F00F034B
:100A5000120902EB820203EB42028A70C27802F0B2
:100A60000F03120902EB820203EB4202CA70027901
:100A700002F00F03120902EB820203EB42020A7139
:100A8000427902F00F03120902EB820203EB4202E9
:100A90004A71807900F00F02000900EB800002EB40
:100AA0004000887170470000200000200F000020E7
:100AB000704700002DE9F84F0446DDE90A8690F8FA
:100AC0003D00994692468B46202873D142F210731E
:100AD00001223949204600F0B3FE00286AD194F87B
:100AE0003C00012866D0012084F83C0020680168A1
:100AF00021F400610160222084F83D00402084F848
:100B00003E0000252564C4F82480268566852B4890
:100B1000E062232796B3A16B29483346C863A16BD3
:100B20002848424688642168A06B1031FFF7A4FC76
:100B30004B46524659462046009700F08CFD38B18E
:100B4000206C84F83C50042832D00320BDE8F88F94
:100B50002068012E0DD0416841F480514160206829
:100B6000416841F4006141602068416980690090FA
:100B700019E0016821F480610160F0E7FFE74B466E
:100B8000524659462046009700F065FD0028D7D10F
:100B90002068416981690091016841F40071016038
:100BA000202084F83D0084F83C500020CEE701E08E
:100BB0000120CBE70220C9E7020010000000FFFF80
:100BC000C3130008991300082DE9F84F0446DDE926
:100BD0000A7690F83D00984691468A46202851D1E1
:100BE00042F2107301222849204600F029FE98BBEA
:100BF00094F83C00012845D0012084F83C0020688E
:100C0000016821F400610160212084F83D0040204A
:100C100084F83E00002525646762268566851B48AA
:100C2000E0622320009043464A465146204600F0A9
:100C300083FD38B1206C84F83C50042814D1012085
:100C4000BDE8F88F208D40B184F83C5020684168A1
:100C500041F4E061416013E014E0232300220C49D9
:100C6000204600F0EDFD08B10320E9E720680168A7
:100C700041F400710160202084F83D0084F83C506C
:100C80000020DDE70220DBE7020010000000FFFF8C
:100C90008000010030B5054600681D4987B08842D4
:100CA00033D1C02000901220019001200290032037
:100CB00003900420049069461648FFF749FC164843
:100CC0000021026842F4001202600068144C00F433
:100CD00000100590114820604005C4E90101C013CF
:100CE000C4E9031080106161C4E906102162204646
:100CF0006162FFF785FBAC63002211461F20A563EC
:100D000000F072F81F2000F064F807B030BD00005A
:100D1000005400400004024040380240106002408D
:100D2000640000207047704702480168491C016058
:100D300070470000040000200B4810B5016841F422
:100D400000710160016841F480610160016841F453
:100D500080710160032000F067F8002000F006F8C1
:100D600000F015F8002010BD003C024010B504460C
:100D700000F00CF94FF47A71B0FBF1F000F0EDFAED
:100D800000222146501E00F02FF8002010BD10B5A3
:100D9000032000F049F8002211466FF00B0000F02C
:100DA00023F8002211466FF00A0000F01DF800221F
:100DB00011466FF0090000F017F800221146101FCD
:100DC00000F012F80022BDE810401146501E00F05D
:100DD0000BB800F01F02012191404009800000F192
:100DE000E020C0F800117047F0B40E4B1B680C46B1
:100DF000C3F30223C3F10705042D00D90425191DEF
:100E0000072901D2002300E0DB1E012606FA05F1C6
:100E1000491E214099409E40761E16403143F0BC49
:100E200000F0FEBD0CED00E0064900F00702086886
:100E30004FF6FF03184040EA0220034A10430860BF
:100E4000704700000CED00E00000FA052DE9F047C6
:100E5000DFF830A105460F46DAF8000000F00F0178
:100E6000F8B28146B94208D201468AF80010DAF891
:100E7000000000F00F00B8426AD12878424C800789
:100E800005D52068A96820F0F00008432060287884
:100E9000C0074FD03C4968680839012819D002289A
:100EA0001AD0032818D009688907002950DA216868
:100EB00021F0030101432160FFF72AFC0646686820
:100EC00041F28838012810D002281AD003281ED0F9
:100ED0002CE009688903E8E709688901E5E700BFB4
:100EE000FFF716FC811B41451DD82068C0F3810027
:100EF0000128F5D11EE000BFFFF70AFC811B414528
:100F000011D82068C0F381000228F5D112E02068D2
:100F1000FFF7FEFB801B4045F9D904E0FFF7F8FB23
:100F2000811B414502D90320BDE8F087206810F0FD
:100F30000C0FF3D1DAF80010504601F00F01B9425E
:100F400008D980F80090006800F00F00B84201D086
:100F50000120E9E72878400705D52068E96820F4F2
:100F6000E050084320602878000706D520682969EA
:100F700020F4604040EAC10020600020FFF7F6FE48
:100F80000020D1E7003C02400838024010B500F0D4
:100F90002DF808490968F02292FAA2F201F0F00156
:100FA000B2FA82F2D140044A515CC8400349086059
:100FB00010BD000008380240E41B000800000020BB
:100FC00010B5FFF7E3FF074909684FF4E05292FAC2
:100FD000A2F201F4E051B2FA82F2D140024A515C2D
:100FE000C84010BD08380240E41B000830B519485D
:100FF000006810F00C01184812D0441004290ED0DB
:1010000008290DD11349091F0A6802F03F030A6835
:10101000550247F6C07204D5B4FBF3F003E0204656
:1010200030BDB0FBF3F00B680968134092FAA2F2EE
:10103000B2FA82F2D34058434FF4403292FAA2F20D
:1010400001F44031B2FA82F2D140491C4900B0FBB0
:10105000F1F030BD083802400024F4002DE9F84FCB
:101060000446DFF8CC820078A8F1040BC007ABF18E
:10107000040537D0D8F800104046C1F3810101299A
:1010800008D00068C0F3810002280AD1DBF8000014
:10109000400206D52868800324D56068002878D0EF
:1010A00020E0A3492079891F0870606868B1FFF7C4
:1010B0002FFB064605E000BFFFF72AFB801B6428D4
:1010C00068D828688003F7D50CE0FFF721FB0646B7
:1010D00005E000BFFFF71CFB801B6428F0D82868E0
:1010E0008003F7D42078934E80074FF0010A4FF029
:1010F000000742D5D8F80010404611F00C0F08D078
:101100000068C0F3810002280AD1DBF80000400229
:1011100006D42868800714D5E068012839D110E08A
:10112000E068D8B1C6F800A0FFF7F2FA814605E002
:10113000FFF7EEFAA0EB09000228C1D82868800763
:10114000F6D52868F82292FAA2F22169B2FA82F260
:1011500020F0F8009140084328600EE03760FFF768
:10116000D7FA814606E000BFFFF7D2FAA0EB0900EC
:1011700002280FD828688007F6D42078000728D5E1
:101180006D486169A1B1C0F800A0FFF7C1FA8146BE
:1011900008E0CAE079E000BFFFF7BAFAA0EB090067
:1011A000022872D862486C3000688007F4D510E0DD
:1011B0000760FFF7ADFA814606E000BFFFF7A8FA27
:1011C000A0EB0900022860D859486C3000688007FD
:1011D000F4D42078400749D555483830016841F0AB
:1011E00080510160006800F0805000905348016811
:1011F00041F480710160FFF78BFA814606E000BF81
:10120000FFF786FAA0EB090002283ED84B48006899
:10121000C005F5D5DFF81891207A09F1680989F839
:101220000000A06888B1FFF773FA009008E000BFE3
:10123000FFF76EFA0099411A41F2883081426CD86A
:10124000D9F800008007F3D510E0FFF761FA0090AD
:1012500008E000BFFFF75CFA0099411A41F28830BC
:1012600081425AD8D9F800008007F3D4A069E0B3CE
:10127000D8F80010C1F38101022956D00228376640
:1012800004D0FFF745FA04464AE046E0FFF740FA8B
:10129000074604E0FFF73CFAC01B02283DD8286847
:1012A0008001F7D4D4E90701084347F6C07292FAE7
:1012B000A2F2616AB2FA82F29140A26A4FF0FF3361
:1012C00003EB52024FF4403393FAA3F3B3FA83F3E0
:1012D0009A40114308434FF0706292FAA2F2E16A19
:1012E000B2FA82F29140084300E01CE0CBF8000023
:1012F000C6F860A0FFF70CFA044604E0FFF708FA0E
:10130000001B022809D828688001F7D50BE000BF30
:10131000FFF7FEF9001B022802D90320BDE8F88F71
:1013200028688001F4D40020F8E70120F6E70000E7
:101330000838024000004742800E474200700040DB
:101340004FF0E0210428086903D020F00400086170
:10135000704740F00400FAE7704710B5401EB0F146
:10136000807F01D3012010BD4FF0E02460610F2188
:10137000601700F055FB0020A061072020610020CD
:1013800010BD10B5FFF7E8FF10BDFEE70148FFF7FD
:10139000C6B900002000002010B5806B01680A6803
:1013A00022F480620A6000214185202280F83D20DD
:1013B00080F83E10016C41F010010164FFF7A3FAC0
:1013C00010BD10B5806B01680A6822F480620A6063
:1013D00001680A6842F400720A6001684A6822F4EF
:1013E00080524A6001684A6822F400624A60002123
:1013F0004185202280F83D2080F83E10016C11B11B
:10140000FFF781FA10BDFFF707FB10BD01684A69BD
:10141000D24352050CD46FF480624A610421016406
:10142000002140F8301F20224273017301207047D1
:101430000020704710B5438D374A0168032B03D055
:10144000438D022B1ED013E0C36A042B05D0C36A60
:10145000082B02D0C36A934209D1C26A022A0A68E1
:1014600002D022F4806201E042F480620A600168E6
:101470000A69416A4B1C43620A70418D491E4185CD
:10148000002010BDC36A042B18D0C36A082B15D0E6
:10149000C36A934212D0C26A022A0A6802D022F4B6
:1014A000806201E042F480620A6090F83D1090F89A
:1014B0003E2001F003010A43026305E012220263A9
:1014C0000A6842F400720A6001680A69416A4B1CAA
:1014D00043620A70418D491E418501680A69416A6B
:1014E0004B1C43620A70418D491E418501684A6860
:1014F00022F440724A6090F83E3020220021402BB6
:1015000080F83D2080F83E1002D0FFF782FAB7E75E
:10151000FFF782FAB4E700000000FFFF10B5428D2C
:101520000168032A08D90A69416A4B1C43620A70A0
:10153000418D491E418545E0022A08D0032A06D084
:10154000C26A022A0A6817D022F4806216E0C26AD0
:10155000022A0A6807D022F480620A6001680A68D9
:1015600042F4006201E042F480620A60006841686F
:1015700021F48061416025E042F480620A600168E4
:101580004A6822F4E0624A6001680A69416A4B1CB9
:1015900043620A70418D491E418590F83E3000211A
:1015A0002022402B90F83D3090F83E4003F003039A
:1015B00044EA0304046380F83D2080F83E1003D021
:1015C000FFF727FA002010BDFFF726FAFAE7000020
:1015D00010B5418D026841B1416A4B1C43620978E4
:1015E0001161418D491E41851EE0C46A00212023FE
:1015F000042C1BD0C46A082C18D0C46A14F5803F90
:1016000014D0546824F4E064546090F83D2090F8BD
:101610003E4002F003021443046380F83E1080F859
:101620003D3000BFFFF7F6F9002010BD546824F4E8
:10163000E06454600268146844F40074146090F824
:101640003E200163402A80F83D3080F83E10E9D109
:10165000FFF72EFAE8E72DE9F84F044600680F4639
:10166000DDF828B001689846164641F480610160B3
:101670002068016841F4807101604FF001195B46F8
:1016800000224946204600F0DBF8F0BB216807F055
:10169000FE00086109F1010A5A465146204600F051
:1016A00017F918B1206C042811D036E02068416980
:1016B000806900905946204600F050F950B1206CE6
:1016C00004282AD12068016841F4007101600120DA
:1016D000BDE8F88FF5B2B8F1010F08D02168300AE3
:1016E00008615946204600F039F90028E7D1206802
:1016F00005615946204600F031F90028DFD1206805
:10170000016841F48071016000E006E05B46002260
:101710004946204600F094F808B10320D8E7216834
:10172000F8B240F0010008615A465146204600F0E8
:10173000CFF80028B6D1CBE72DE9F843044600687E
:101740000E46DDF8208001681F46154641F4807181
:101750000160434600224FF00111204600F070F86E
:10176000D8B9216806F0FE000861424617492046B4
:1017700000F0AEF828B1206C04280ED10120BDE89D
:10178000F88320684169806900904146204600F056
:10179000E5F820B1206C042811D00320EFE7EEB269
:1017A000012F08D02168280A08614146204600F030
:1017B000D5F80028EED1206806610020DFE7206818
:1017C000016841F400710160D8E7000002000100E7
:1017D00008B501684A6822F4E0624A6002680021A4
:1017E00053690093136843F00103136002681368A0
:1017F00023F48063136090F83D20282393434FF037
:10180000200207D0036B222B0ED090F83D30222B04
:101810000AD010E0094BC362016380F83D2080F8D4
:101820003E10FFF7F5F806E0016380F83D2080F8F0
:101830003E10FFF777FA002008BD00000000FFFF10
:101840002DE9F05F1E4690460D460446FEF760FF08
:1018500081464FF0000A4FF0200BC5F30747B8F15F
:10186000000F09D026E0701C06D0D6B1FEF750FF5D
:10187000A0EB0900B04214D82068012F06D080697F
:1018800025EA00000004000C1DD0ECE74069F7E7F2
:10189000701C0FD02EB1FEF73BFFA0EB0900B04249
:1018A00008D944F830AF84F80DB084F80CA00320B8
:1018B000BDE8F09F2068012F07D0806925EA00006D
:1018C0000004000CE4D00020F2E74069F6E70000D5
:1018D0002DE9F04791460D460446FEF719FF824672
:1018E00000264FF02008C5F307472AE0206840692A
:1018F000C043400512D42068016841F400710160C2
:1019000021686FF48060486104202064266384F8B5
:101910003D8084F83C600120BDE8F087B9F1FF3FCD
:101920000FD0B9F1000F05D0FEF7F2FEA0EB0A01CF
:10193000494506D944F8306F84F80D80267303209A
:10194000EAE72068012F07D0D0F8180025EA000048
:101950000004000CE0D0C9E74069F7E770B50D4618
:101960000446FEF7D5FE06461AE02046FFF74EFD78
:1019700008B1012070BD681C12D025B1FEF7C8FE69
:10198000801BA8420CD954F8400F40F0200044F8C6
:10199000100900202060202161732073032070BD96
:1019A00020684069C0430006DFD4002070BD0000FD
:1019B000174800B5026887B0002142F0800202603B
:1019C000026802F080020592026842F001020260A1
:1019D000026802F001020592026842F0020202600F
:1019E000006800F002000590012000900948CDE950
:1019F000010169460848FEF7ABFD002211460620AA
:101A0000FFF7F2F90620FFF7E4F907B000BD000088
:101A1000303802400000111000000240FEE770471D
:101A20000907090E002806DA00F00F0000F1E02097
:101A300080F8141D704700F1E02080F80014704712
:101A400010B5FFF771F9BDE81040FFF79ABC000030
:101A500030B5224893B00025016841F08051016003
:101A6000006800F0805011901D48016841F48041E9
:101A700001600068022400F4804011900120009071
:101A800001908005CDE90640082008904FF4A87029
:101A9000CDE9090404200B906846FFF7DFFA0CA992
:101AA0000F2081E831004FF4A0500F9010900521D5
:101AB0000CA8FFF7CBF9FFF769FA4FF47A71B0FB86
:101AC000F1F0FFF74AFC0420FFF73AFC0022114630
:101AD000501EFFF789F913B030BD000040380240B6
:101AE000007000401048016841F4700101600F4827
:101AF000016841F0010101600C4A002108321160C7
:101B000002680B4B1A400260031D0A4A1A60026801
:101B100022F48022026005480C3001600249580618
:101B2000803908607047000088ED00E0003802400E
:101B3000FFFFF6FE10300024FEE702E008C8121F87
:101B400008C1002AFAD170477047002001E001C1A6
:101B5000121F002AFBD170471CB5FFF7EDF8FFF705
:101B600077FFFFF725FF18480024016841F40011B2
:101B700001600068224600F40010009021460B200E
:101B8000FFF732F90B20FFF724F911480F490160E4
:101B90001049C0E901144FF48041C0E90341446198
:101BA0008461C4610462FEF7AFFE0B4C072501237C
:101BB0000022D0210648CDE90045FEF77BFFC82072
:101BC000FEF781FCF3E7000030380240005400408B
:101BD00020000020801A06000F00002000061016CA
:101BE00000061016000000000102030401020304B5
:101BF00006070809141C000800000020200000004F
:101C00003A1B0008341C000820000020A00400003B
:101C10004A1B00080024F40000000000000000003F
:101C200000000000000000000000000000000000B4
:041C300000000000B0
:040000050800018965
:00000001FF
