:020000040800F2
:10000000A80D0020591000086110000863100008B6
:100010006510000867100008691000080000000063
:10002000000000000000000000000000BD0100080A
:100030006D10000800000000350200087102000881
:100040007310000873100008731000087310000884
:100050007310000873100008731000087310000874
:10006000731000087310000873100008BD19000811
:10007000D3190008EB190008031A00081B1A00081E
:10008000331A00084B1A0008731000087310000898
:100090007310000873100008731000087310000834
:1000A0007310000873100008731000087310000824
:1000B0007310000873100008731000087310000814
:1000C0007310000873100008731000087310000804
:1000D00073100008731000087310000873100008F4
:1000E00073100008731000087310000873100008E4
:1000F00073100008731000087310000873100008D4
:1001000073100008731000087310000873100008C3
:1001100073100008731000087310000873100008B3
:10012000631A00087D1A0008AD1A0008E11A0008D9
:10013000DFF81CD002F026F902F04CFE0021034843
:1001400002F0B2FE02F058FEFEE700001C000020A4
:10015000A80D002080F309887047EFF309807047ED
:10016000684680F3098804480078C00714BF02205D
:10017000032080F314887047C43D0008DFF818C0DE
:10018000EFF305831B0618BF6047EFF31483DB070B
:1001900008BF604700DF7047532F0008DFF818C022
:1001A000EFF305831B0618BF6047EFF31483DB07EB
:1001B00008BF604700DF70472D310008EFF309806A
:1001C000816911F8021CF1B990E80F10E047EFF3D4
:1001D000098C8CE80700144B93E8060091420FD07D
:1001E00039B12CE9F00FC1F828C00CB403F06CFA57
:1001F0000CBC1A60D2F828C0BCE8F00F8CF3098858
:100200006FF0020E704710B5084A1268914209D883
:10021000074C54F8214090E80F10A047EFF3098CE9
:100220008CE80F0010BD000060000020C82300080B
:10023000C823000803F01CF90C4B93E80600914218
:1002400010D0EFF3098C2CE9F00FC1F828C00CB4E2
:1002500003F03AFA0CBC1A60D2F828C0BCE8F00FE0
:100260008CF309886FF0020E7047000060000020D8
:1002700003F0F0FAE0E7000002F06AFE03F0EAFAA9
:10028000DAE7000001B502E00098401E00900098F7
:100290000028F9D108BD00B58BB0874801F05EFC9D
:1002A0000121084600F063FC8448009084480190D6
:1002B00000200290012003900020049005904FF44C
:1002C000807006908000079020200890000209901E
:1002D00000200A906946784801F0E2FC0121764846
:1002E00001F009FD0BB000BD00B585B073484C3876
:1002F00000F0B4FF002000F0ABFB0121480200F049
:1003000043FC002000908DF8040001208DF80500CA
:100310004FF4602002900020039001208DF810001F
:10032000694666484C3800F0C0FF042301221021C2
:1003300062484C3801F051F8012160484C3800F017
:10034000E0FF01215D484C3800F0E6FF5B484C3887
:1003500000F0F9FF00BF59484C3800F0F9FF0028C1
:10036000F9D156484C3800F0FDFF00BF53484C38D7
:1003700000F0FDFF0028F9D1012001F053F901211F
:100380004E484C3800F0FDFF05B000BD10B501210E
:1003900044F2050000F0F8FB4FF400704949088072
:1003A0001820C87003208870474800F031F94FF4D6
:1003B0008060444908800420C870434800F028F950
:1003C0004FF416504149086000208880C880088199
:1003D00088810C2048813E4800F07DFC01213C488A
:1003E00000F005FD10BD86B0FFF7D0FFFFF77CFFE2
:1003F000FFF751FF3EE03748FFF744FF30480088E1
:1004000001F05EFE05464FF06632334B01F077FD9A
:1004100082460022314B01F0E4FD074601F070FEF8
:100420008146484601F059FE07462D4A2D4B01F002
:1004300063FD054601F064FE019001F04EFE2A4A7C
:100440002A4BCDE9020101F0CCFD82460022284B67
:1004500001F0AEFCCDE9040101F052FE0446204655
:1004600001F03BFE05462A460B461548018821A0AF
:1004700001F0ACFFBFE7014600BF4FF0FF302A4A52
:1004800012682A4B9A4204D0274A10681A46264B13
:100490001A6000BF704770B504460D46E1B20C48C3
:1004A00000F012FD00BF4021094800F07BFD00284C
:1004B000F9D0204670BD0000080002404C240140E5
:1004C00004000020000000200008014084000020FB
:1004D000003801408096980066660A400000B040EF
:1004E000E17A14AE47E1F63F22FDF675E09C713FDC
:1004F000000039400D0A5465636845647520436502
:100500006E746572202D204144432056616C7565E0
:10051000203A2025752C2054656D706572617475C4
:100520007265203A2025660008000020A55AA55AC9
:1005300000BFFEE7012804D0022803D0032803D11E
:1005400001E001E000E000BF00BF00BFFEE70000E7
:1005500010B50446CC48844208D10121042000F0A3
:100560002DFB0021042000F029FB46E0C74884420F
:1005700008D10121082000F021FB0021082000F013
:100580001DFB3AE0C248844208D10121102000F04E
:1005900015FB0021102000F011FB2EE0BD48844225
:1005A00008D10121202000F009FB0021202000F0CB
:1005B00005FB22E0B848844208D10121402000F028
:1005C000FDFA0021402000F0F9FA16E0B348844219
:1005D00008D10121802000F0F1FA0021802000F0F4
:1005E000EDFA0AE0AE48844207D10121801500F0FF
:1005F000E5FA0021A01500F0E1FA10BD10B50121C7
:10060000084600F0DBFA0021012000F0D7FA10BD07
:100610002DE9F04102460025002600200023002499
:10062000002791F803C00CF00F0591F803C00CF0FF
:10063000100CBCF1000F03D091F802C04CEA050584
:1006400091F800C0BCF1000F31D0146800202BE0FD
:100650004FF0010C0CFA00F3B1F800C00CEA0306ED
:100660009E4220D183004FF00F0C0CFA03F7BC43DD
:1006700005FA03FC4CEA040491F803C0BCF1280F0E
:1006800006D14FF0010C0CFA00FCC2F814C00AE0CD
:1006900091F803C0BCF1480F05D14FF0010C0CFAE2
:1006A00000FCC2F810C0401C0828D1D31460B1F877
:1006B00000C0BCF1FF0F34DD546800202EE000F1D3
:1006C000080C4FF0010808FA0CF3B1F800C00CEA6E
:1006D00003069E4221D183004FF00F0C0CFA03F762
:1006E000BC4305FA03FC4CEA040491F803C0BCF1D6
:1006F000280F05D100F1080C08FA0CF8C2F8148094
:1007000091F803C0BCF1480F07D100F1080C4FF07D
:10071000010808FA0CF8C2F81080401C0828CED353
:100720005460BDE8F0814FF6FF71018002218170B5
:100730000421C17070470246002093680B400BB142
:10074000012000E0002070470146886880B27047B1
:1007500002460020D3680B400BB1012000E00020CE
:1007600070470146C86880B27047016170474161B7
:1007700070470AB1016100E041617047C160704794
:100780004FF480320A4382618161826182698269A9
:10079000704702460020434B18684FF6807318409C
:1007A00040EA021008433F4B186070473E49C86159
:1007B0007047F0B50A46002300240021002500F010
:1007C0000046B6F1004F02D1364EF16901E0354ED8
:1007D0007168C0F3034583B200F44016B6F5401FBC
:1007E00008D121F070612F4E766826F070662D4F8B
:1007F0007E6012E000F48016B6F5801F06D1032655
:1008000006FA05F4A14341F0706106E0460D360199
:1008100003FA06F6B14341F0706122B1460D36018C
:1008200003FA06F6314300F00046B6F1004F02D15C
:100830001C4EF16101E01B4E7160F0BD30B500222D
:100840008B071C0F0F2303FA04F2164B08338C108E
:1008500053F824309343134C08348D1044F825305A
:1008600023468C1053F824308C07240F00FA04F42C
:1008700023430C4C08348D1044F8253030BD0A4910
:10088000DC3108607047000000080140000C0140A6
:10089000001001400014014000180140001C0140FC
:1008A000002001400000014000002042DF480068B5
:1008B00040F00100DD49086008464068DC49084016
:1008C000DA49486008460068DA490840D7490860B4
:1008D0000846006820F4802008600846406820F43C
:1008E000FE0048604FF41F0088607047CF490968D8
:1008F00021F48031CD4A11601146096821F480212C
:100900001160B0F5803F03D0B0F5802F0ED106E026
:10091000C649096841F48031C44A116007E0C349FF
:10092000096841F4A021C14A116000E000BF00BF86
:10093000704710B501460022002300204A11012A09
:1009400002D1BA4C236806E0022A02D1B74C236ACE
:1009500001E0B64C636A01F01F02012494401C4080
:100960000CB1012000E0002010BD38B5002000903F
:100970000024002500BF3120FFF7DBFF054600986B
:10098000401C00900098B0F5A06F01D0002DF2D06F
:100990003120FFF7CEFF08B1012400E000242046FB
:1009A00038BD01460020A14A106820F0F80040EA56
:1009B000C10010607047A0490860704702460020DF
:1009C0009A4B586820F47C1042EA01031843974B75
:1009D0005860704798490866704701460020934A5E
:1009E000506820F003000843506070478F4840680B
:1009F00000F00C007047014600208C4A506820F03F
:100A0000F00008435060704701460020874A506854
:100A100020F4E06008435060704701460020834A9C
:100A2000506820F4605040EAC1005060704729B11E
:100A30007E4A527A02437D4B5A7204E07B4A527AD4
:100A400082437A4B5A7270477B49D83108607047AD
:100A500001460020754A506820F440400843506029
:100A600070470021714A20321170704A82F82010BC
:100A7000012802D004280AD104E001216B4A203267
:100A8000117005E00521694A2032117000E000BFB5
:100A900000BF70476949086070476449096A0143AB
:100AA000624A11627047654944390860704730B541
:100AB00000210022002400235C4D6D6805F00C012C
:100AC00021B1042905D0082923D105E05C4D05603A
:100AD00022E05B4D05601FE0544D6D6805F4701217
:100AE000524D6D6805F48034022505EB92421CB925
:100AF000544D554305600BE04C4D6D6805F40035D1
:100B00001DB1504D5543056002E04D4D5543056004
:100B100002E04B4D056000BF00BF444D6D6805F01D
:100B2000F0010909484D6B5C0568DD4045603F4DAB
:100B30006D6805F4E061090A434D6B5C4568DD4072
:100B400085603A4D6D6805F46051C90A3E4D6B5C95
:100B50004568DD40C560354D6D6805F44041890B41
:100B60003A4D6B5CC568B5FBF3F5056130BD29B145
:100B70002E4A526902432D4B5A6104E02B4A5269B6
:100B800082432A4B5A61704729B1284A926902432D
:100B9000264B9A6104E0254A92698243234B9A616D
:100BA000704729B1214AD2690243204BDA6104E03F
:100BB0001E4AD26982431D4BDA61704729B11B4A34
:100BC000D2680243194BDA6004E0184AD2688243C3
:100BD000164BDA60704729B1144A12690243134B6D
:100BE0001A6104E0114A12698243104B1A6170477E
:100BF00012494039086070470F49C86470470B4973
:100C0000C87170470948406A40F0807007494862DF
:100C1000704701460020054A92680A400AB1012047
:100C200000E00020704701498872704700100240C0
:100C30000000FFF8FFFFF6FE00004242800442423F
:100C400000127A0000093D002C0000203C0000202A
:100C500010B50446FB48844209D101218803FFF7FF
:100C6000ADFF00214FF48040FFF7A8FF32E0F648C7
:100C7000844209D101214804FFF7ADFF00214FF460
:100C80000030FFF7A8FF25E0F048844209D1012198
:100C90008804FFF7A0FF00214FF48020FFF79BFF9F
:100CA00018E0EB48844209D10121C804FFF793FF03
:100CB00000214FF40020FFF78EFF0BE0E54884424F
:100CC00008D101210805FFF786FF00214FF48010AD
:100CD000FFF781FF10BD2DE9F04786B005460E46AF
:100CE0000024A24600BFA1460027B08900B100BF82
:100CF0002F462C8A4CF6FF700440F08804432C8267
:100D0000AC894EF6F3100440B088318908437189EC
:100D100008430443AC81AC8A4FF6FF400440B089DD
:100D20000443AC8201A8FFF7C2FEC648874202D145
:100D3000DDF810A001E0DDF80CA0A88900F4004067
:100D400040B10AEBCA0000EB0A1031684900B0FB61
:100D5000F1F807E00AEBCA0000EB0A1031688900DD
:100D6000B0FBF1F86420B8FBF0F004012009642125
:100D700001FB1089A88900F4004040B1322000EB4B
:100D8000C900B0FBF1F000F00700044308E0322096
:100D900000EB09106421B0FBF1F000F00F000443F8
:100DA0002C8106B0BDE8F0874FF416510160002198
:100DB0008180C18001810C214181002181817047A6
:100DC00010B502460020108A4FF2FF0318400B882E
:100DD0004C8823438C882343CC88234318431082B8
:100DE00010BD0021018041808180C180704721B108
:100DF000828942F40052828104E082894DF6FF73B9
:100E00001A4082817047F0B5034600240026002571
:100E1000002040F66A17B94200D100BF1846C1F35E
:100E2000421401F01F06012707FA06F5012C01D133
:100E30000C3004E0022C01D1103000E014301AB163
:100E400007682F43076002E00768AF430760F0BD03
:100E50001AB1838A0B43838202E0838A8B438382A5
:100E60007047028A4FF6F0731A400282028A0A43E0
:100E70000282704782894FF2FF731A408281828911
:100E80000A438281704721B1828942F00202828145
:100E900004E082894FF6FD731A4082817047028A0E
:100EA0004FF6DF731A400282028A0A4302827047B9
:100EB00021B1028A42F48042028204E0028A4BF6A7
:100EC000FF731A4002827047C1F3080282807047A4
:100ED00001468888C0F308007047818941F001010C
:100EE00081817047028BD2B20283028B42EA0122D7
:100EF00002837047028B02F47F420283028B0A4313
:100F00000283704721B1828A42F02002828204E08B
:100F1000828A4FF6DF731A408282704721B1828A3B
:100F200042F01002828204E0828A4FF6EF731A4088
:100F30008282704721B1828A42F00802828204E0F4
:100F4000828A4FF6F7731A408282704721B18289F4
:100F500042F40042828103E08289C2F30E02828160
:100F6000704721B1828A42F40062828204E0828A60
:100F70004FF2FF731A4082827047828A4FF6FB73EA
:100F80001A408282828A0A438282704721B1828A11
:100F900042F00202828204E0828A4FF6FD731A4018
:100FA0008282704702460020B1F5007F00D100BF69
:100FB00013880B400BB1012000E00020704701F4C2
:100FC0000072B2F5007F00D100BFCA4302807047B3
:100FD00070B50246002400230025002040F66A1662
:100FE000B14200D100BFC1F3421501F01F03012639
:100FF00006FA03F3012D02D19689334006E0022D53
:1010000002D1168A334001E0968A33400C12012641
:1010100006FA04F41688344013B10CB1012000E044
:10102000002070BD10B50022002340F66A14A142D2
:1010300000D100BF0A1201249440A3B2DC43048013
:1010400010BD00000038014000440040004800404E
:10105000004C0040005000400648804706480047CA
:10106000FEE7FEE7FEE7FEE7FEE7FEE7FEE7FEE758
:10107000FEE7FEE75B110008310100080CB5002017
:10108000019000906C48006840F480306A49086024
:1010900000BF6948006800F4003000900198401CCF
:1010A0000190009818B90198B0F5A06FF1D162488D
:1010B000006800F4003010B10120009001E0002031
:1010C00000900098012843D15C48006840F010006F
:1010D0005A4908600846006820F003000860084686
:1010E000006840F002000860534840685249486078
:1010F0000846406848600846406840F480604860A0
:101100000846406820F47C1048600846406840F477
:10111000E81048600846006840F08070086000BF32
:101120004548006800F000700028F9D04248406847
:1011300020F00300404948600846406840F0020043
:10114000486000BF3C48406800F00C000828F9D116
:101150000CBD10B5FFF792FF10BD10B53648006802
:1011600040F00100344908600846406834490840AE
:101170003149486008460068324908402E490860F5
:101180000846006820F4802008600846406820F483
:10119000FE0048604FF41F008860FFF7DAFF4FF051
:1011A00000602949086010BD10B500210020002210
:1011B000214B5B6803F00C0121B1042906D00829FA
:1011C00028D107E0214B224C236027E01F4B204C05
:1011D000236023E0184B5B6803F47010164B5B68C8
:1011E00003F48032022303EB904022B9194B4343AE
:1011F000174C23600DE0104B5B6803F4003323B100
:10120000144B4343124C236003E0104B4343104CF8
:10121000236003E00D4B0E4C236000BF00BF064B64
:101220005B68C3F303130C4CE15C094B1B68CB40B8
:10123000074C236010BD0000001002400020024057
:101240000000FFF8FFFFF6FE08ED00E000127A0054
:101250004000002000093D004400002010B5044675
:10126000FA48844208D101214015FFF7A7FC00216C
:101270006015FFF7A3FC17E0F548844208D101216F
:101280000015FFF79BFC00212015FFF797FC0BE0F2
:10129000F048844208D10121C803FFF78FFC0021E8
:1012A0004FF40040FFF78AFC10BD30B50246002025
:1012B00000235068E84C20400D790C6844EA05246E
:1012C000204350609068E54C2040D1E902542C4303
:1012D0004D7944EA450420439060D06A20F47000C0
:1012E0000C7C641EE4B2234340EA0350D06230BD5C
:1012F00000210160017141718160C16001210174AF
:10130000704721B1826842F00102826003E0826886
:1013100022F001028260704721B1826842F480723B
:10132000826003E0826822F480728260704710B5A8
:101330000023CBB21AB144681C43446002E0446805
:101340009C43446010BD816841F008018160704792
:10135000014600208A6802F008020AB1012000E07C
:1013600000207047816841F00401816070470146A8
:1013700000208A6802F004020AB1012000E0002087
:10138000704721B1826842F4A002826003E0826863
:1013900022F4A00282607047014600208A6802F4AD
:1013A00080020AB1012000E00020704710B50A4613
:1013B00000210023416821F46041531E41EA43317A
:1013C000416010BD21B1426842F40062426003E016
:1013D000426822F4006242607047F0B504460D4650
:1013E00000200021092D11DDE068A5F10A0606EBB9
:1013F0004607072606FA07F18843A5F10A0606EB19
:10140000460603FA06F10843E0600CE0206905EBAC
:101410004507072606FA07F1884305EB450603FA58
:1014200006F108432061072A0FDA606B561E06EBAF
:1014300086071F2606FA07F18843561E06EB860626
:1014400005FA06F10843606322E00D2A0FDA206BEB
:10145000D61F06EB86071F2606FA07F18843D61F1C
:1014600006EB860605FA06F10843206310E0E06A01
:10147000A2F10D0606EB86071F2606FA07F1884340
:10148000A2F10D0606EB860605FA06F10843E062B6
:10149000F0BD21B1826842F48012826003E082686C
:1014A00022F48012826070470146C86C80B2704797
:1014B00066484C300068704721B1426842F480624F
:1014C000426003E0426822F480624260704721B1CA
:1014D000426842F48052426003E0426822F4805243
:1014E000426070470A460021816821F4E0411143BF
:1014F0008160704721B1826842F40042826003E05B
:10150000826822F400428260704721B1826842F40E
:101510000212826003E0826822F402128260704745
:10152000014600208A6802F400120AB1012000E09E
:1015300000207047F0B50446154600200022002622
:10154000092911DDE068A1F10A0707EB470C07271D
:1015500007FA0CF29043A1F10A0707EB470703FAD9
:1015600007F21043E0600CE0206901EB410C072713
:1015700007FA0CF2904301EB410703FA07F210431C
:101580002061A06BC0F30156EF1C06F1010CA7EB24
:101590000C0707EB870C1F2707FA0CF29043EF1C90
:1015A00006F1010CA7EB0C0707EB870701FA07F21E
:1015B0001043A063F0BD10B50A4600210023816BE3
:1015C00021F44011531E41EA0351816310BD08B557
:1015D000002300930090009B0B440093009B1A6033
:1015E00008BD08B5024600200090009201F12800D5
:1015F000009B184400900098006880B208BD0A461D
:1016000000214168164B1940114341607047416207
:10161000826270470A460021416821F01F01114390
:101620004160704740B109490831096841F400013F
:10163000064A0832116007E004490831096821F4BC
:101640000001024A08321160704700000024014086
:1016500000280140003C0140FFFEF0FFFDF7F1FFD4
:10166000FFFD3FFF0246002013680B400BB1012035
:1016700000E000207047CA430260704770B5024620
:101680000020002300240B125568CEB205EA0604A0
:1016900015681D4015B10CB1012000E0002070BD9F
:1016A00000220A12D34303607047000070B505465C
:1016B0000C46012D02D0022D71D171E0F64840692F
:1016C00040F00100F4494861082C60D2DFE804F0E2
:1016D0005F04101C293643500020F04988600F2019
:1016E00048600B2000F02AFA0B2000F013FA4EE0BD
:1016F0000020EA49C861F02048600C2000F01EFA82
:101700000C2000F007FA42E00020E44908634FF49F
:10171000706048600D2000F011FA0D2000F0FAF919
:1017200035E00020DD4948644FF4704048600E20E9
:1017300000F004FA0E2000F0EDF928E00020D7496F
:1017400088654FF4702048600F2000F0F7F90F20F3
:1017500000F0E0F91BE00020D049C8664FF47000AB
:101760004860102000F0EAF9102000F0D3F90EE0F4
:101770000020CA49803108604FF07060C749486056
:10178000112000F0DBF9112000F0C4F900BF00BF08
:101790000120A040C24909780843C149087061E0AE
:1017A000BD48406940F00200BB494861062C50D258
:1017B000DFE804F04F03101F2F3F0020B9490860F5
:1017C0000F20091F0860382000F0B8F9382000F019
:1017D000A1F93EE00020B34914310860F020B1497E
:1017E000091F0860392000F0A9F9392000F092F9AA
:1017F0002FE00020AB49283108604FF47060A94900
:10180000091F08603A2000F099F93A2000F082F9A7
:101810001FE00020A3493C3108604FF47040A1490B
:10182000091F08603B2000F089F93B2000F072F9A5
:101830000FE000209B49503108604FF47020994917
:10184000091F08603B2000F079F93B2000F062F9A5
:1018500000BF00BF0120A040934909780843924986
:10186000087000BF00BF70BD70B505460C46012D65
:1018700002D0022D4AD14AE0082C37D2DFE804F02A
:1018800036040B121920272E0B2000F04EF90020F1
:10189000824988602AE00C2000F047F900207F4947
:1018A000C86123E00D2000F040F900207B49086367
:1018B0001CE00E2000F039F900207849486415E05A
:1018C0000F2000F032F90020744988650EE01020E6
:1018D00000F02BF900207149C86607E0112000F0E4
:1018E00024F900206D498031086000BF00BF01204D
:1018F000A0406B490978814369480170007828B994
:101900006548406920F001006349486148E0062CC1
:1019100035D2DFE804F034030A121A27382000F029
:1019200004F900205F49086029E0392000F0FDF843
:1019300000205C491431086021E03A2000F0F5F8FD
:10194000002058492831086019E05748007800F015
:10195000200010B93B2000F0E8F8002051493C314C
:1019600008600CE05048007800F0100010B93B20EF
:1019700000F0DBF800204B495031086000BF00BF89
:101980000120A04048490978814347480170007808
:1019900028B94148406920F002003F49486100BF32
:1019A00000BF70BD70477047704770477047704701
:1019B00070477047704770477047704710B5374899
:1019C000006800F00F04354844602046FFF7EAFF46
:1019D00010BD10B531480068C0F3031420012F4931
:1019E00048602046FFF7DFFF10BD10B52B480068A8
:1019F000C0F303242002294948602046FFF7D4FFA2
:101A000010BD10B525480068C0F3033420032349F6
:101A100048602046FFF7C9FF10BD10B51F48006899
:101A2000C0F3034420041D4948602046FFF7BEFF71
:101A300010BD10B519480068C0F3035420051749BC
:101A400048602046FFF7B3FF10BD10B5134800688B
:101A5000C0F303642006114948602046FFF7A8FF41
:101A600010BD10B50F480838006800F00F040D488D
:101A7000001F04602046FFF79CFF10BD10B5094809
:101A800008380068C0F3031420010649091F0860E4
:101A90002046FFF78FFF10BD0010024000000240FB
:101AA00054000020080402405500002010B52848CA
:101AB0000068C0F3032420022549091D0860204660
:101AC000FFF779FF10BD10B521480068C0F303345B
:101AD00020031F49091D08602046FFF76DFF10BD58
:101AE00010B51B480068C0F3033434B12003184913
:101AF000091D08602046FFF75FFF15480068C0F326
:101B0000034434B120041249091D08602046FFF740
:101B100054FF10BD00F01F020121914042099200C4
:101B200002F1E022C2F80011704700F01F0201210B
:101B30009140084A430942F82310704700F01F0201
:101B400001219140044A430942F8231070470000E4
:101B50000004024080E100E080E200E001684FF60E
:101B6000FE72114001600021016041608160C1602E
:101B70008D49884208D18C490839496841F00F01E4
:101B8000894A083A51608AE087491431884208D16D
:101B900085490839496841F0F001834A083A5160A3
:101BA0007DE081492831884208D17F490839496858
:101BB00041F470617C4A083A516070E07A493C31E6
:101BC000884208D178490839496841F47041764A19
:101BD000083A516063E074495031884208D1724933
:101BE0000839496841F470216F4A083A516056E05B
:101BF0006D496431884208D16B490839496841F41C
:101C00007001694A083A516049E067497831884271
:101C100008D165490839496841F07061624A083A5B
:101C200051603CE06149884206D1011F096841F0DA
:101C30000F01021F116032E05C491431884208D163
:101C40005A49091F096841F0F001584A121F1160F2
:101C500025E056492831884208D15449091F0968AE
:101C600041F47061514A121F116018E04F493C3134
:101C7000884208D14D49091F096841F470414B4A17
:101C8000121F11600BE049495031884207D1474982
:101C9000091F096841F47021444A121F11607047FE
:101CA00010B50022026847F6F0739A430C6A8B68FD
:101CB00023430C6923434C6923438C692343CC6938
:101CC00023434C6A23438C6A23431A430260CB6844
:101CD00043600B6883604B68C36010BD00210160E6
:101CE00041608160C160016141618161C1610162E6
:101CF00041628162704721B1026842F001020260D4
:101D000004E002684FF6FE731A40026070471AB191
:101D100003680B43036002E003688B430360704772
:101D2000416070470146486880B270470146002014
:101D3000002201F080531BB11C4B083B1A6802E0E3
:101D4000194B083B1A6802EA01030BB1012000E0BD
:101D50000020704700F0805119B11449091F086034
:101D600002E011490839486070470146002000220E
:101D700001F080531BB10D4B083B1A6802E00A4B7F
:101D8000083B1A6802EA01030BB1012000E00020C1
:101D9000704700F0805119B10449091F086002E042
:101DA00001490839486070470800024008040240B1
:101DB0002DE9FE4F804681EA0300C00F0C460090DB
:101DC00021F0004123F00045B8EB0200A94105D203
:101DD0004046214690461C460B46024623F00040F2
:101DE000104347D0270DC7F30A00C3F30A510290EE
:101DF000401A019040286BDAC3F3130040F4801BB3
:101E00000098924620B10023D2EB030A63EB0B0B40
:101E100001985946C0F14002504600F0D4F90646F8
:101E20000D4650465946019A00F0DCF910EB0800C7
:101E30006141002487EA115284EAE7731A4340D0D3
:101E4000009A62B3019A012A4FEA075215DC001B7F
:101E500061EB02014FF0004202EA0752CDE9004275
:101E6000001C41F5801132462B4600F011FA03B0F8
:101E7000BDE8F08F40462146F9E7001B61EB020107
:101E8000001C41F5801300185B412018A2F50017D3
:101E900047EB030140EAD570B6196D4111E06D08BA
:101EA0004FEA360645EAC0754FEA0752001B61EB60
:101EB0000201001C41F5801149084FEA3000001969
:101EC000514132462B4603B0BDE8F04F00F0D3B984
:101ED0000098012240000023D0EB020263EBE07384
:101EE000009821464FEAE074B8EB000061EB040172
:101EF000E9E783F000435BE781F0004158E72DE913
:101F0000FE4F81EA030404F0004421F000410094F4
:101F10004FF0000B23F0004350EA01045ED052EA78
:101F200003045BD0C3F30A54C1F30A552C44A4F252
:101F3000F3340194A0FB0254C1F3130141F4801166
:101F4000C3F3130343F4801301FB024400FB034E6D
:101F5000840A970A44EA815447EA8357A4FB076836
:101F600002958D0A05FB07854FEA932C04FB0C5460
:101F70002705029D4FEA065847EA1637B5EB0805D4
:101F80006EEB070C870E920E47EA811742EA831226
:101F9000A7FB0201B6EB0B0164EB00042B0D43EA37
:101FA0000C335E1844EB1C50DA465146E7FB020145
:101FB000C5F313044FEA0B3343EA14534FEA0432D8
:101FC000019C43EA0603A4F10C040294009CCDE9B1
:101FD00000B400F05DF903B0BDE8F08F00200146C9
:101FE000F9E72DE9F04D81EA030404F0004B21F0FC
:101FF000004514464FF0000A23F0004150EA050264
:1020000020D054EA01021DD0C5F30A570246C5F399
:102010001303C1F31300C1F30A5640F4801543F4CF
:102020008013A7EB0608101BD64608F2FD3873EBA9
:10203000050002D308F1010801E092185B41B8F1F4
:10204000000F03DA00200146BDE8F08D00204FF4B8
:102050008011064684460EE0171B73EB050705D377
:10206000121B63EB050306434CEA010C49084FEAD7
:10207000300092185B4150EA0107EDD152EA0300AB
:1020800012D082EA040083EA0501084305D0101B40
:10209000AB4106D20122002306E000224FF00043AC
:1020A00002E06FF0010253101AEB06004CEB0851EE
:1020B00010EB0A0041EB0B01BDE8F04D00F0DBB87E
:1020C0000EB540F2334102910021CDE900110A46DC
:1020D0000B4600F0DDF803B000BD00F0004230F028
:1020E00000400AD0C10D01F56071C0F3160042EA4C
:1020F0000151C20840071143704700200146704754
:1021000001F0004330B421F0004150EA010206D052
:102110000A0DA2F56072C1F31301002A02DC30BC83
:1021200000207047440F44EAC104C100E01830BCED
:1021300000EBC25000F068B830B50B4601460020F5
:102140002022012409E021FA02F59D4205D303FA79
:1021500002F5491B04FA02F52844151EA2F10102FA
:10216000F1DC30BD2DE9F05F0546002092469B462C
:1021700088460646814640241BE02846414647469D
:10218000224600F011F953465A46C01A914110D325
:1021900011461846224600F016F82D1A67EB010882
:1021A0004F4622460120002100F00DF817EB0009F0
:1021B0004E41201EA4F10104DFDC484631462A4688
:1021C0004346BDE8F09F202A04DB203A00FA02F1E2
:1021D000002070479140C2F1200320FA03F3194315
:1021E00090407047202A06DBCB17203A41FA02F0D4
:1021F00043EAE07306E041FA02F3D040C2F1200264
:1022000091400843194670470029A8BF7047401CF9
:10221000490008BF20F00100704710B4B0FA80FCFC
:1022200000FA0CF050EA010404BF10BC704749B139
:10223000CCF1200421FA04F411FA0CF118BF0121A9
:1022400021430843A3EB0C01CB1D4FEA00614FEA89
:10225000102042BF002010BC704700EBC350104458
:102260000029A4BF10BC7047401C490008BF20F0E3
:10227000010010BC704710B5002B08DA401C41F17A
:10228000000192185B411A4301D120F0010010BDFA
:102290002DE9F04D92469B4611B1B1FA81F202E070
:1022A000B0FA80F220329046FFF78DFF04460F46C9
:1022B00040EA0A0041EA0B0153465A46084313D04C
:1022C000114653EA010019D0C8F14002504600F00F
:1022D0006BF805460E46504659464246FFF773FFD7
:1022E000084305D0012004E020463946BDE8F08DC2
:1022F0000020054346EAE0762C4337430A986305FD
:10230000E40AA0EB08000022FD0A44EA47540A3020
:1023100002D500200146E9E7010510196941DDE910
:10232000084500196941BDE8F04DA4E7C1F30A5220
:10233000C1F3130140F2FF3341F480119A4202DAF3
:1023400000200146704740F233439A42A2F23342E2
:1023500002DC524200F028B8FFF735BF30B5002943
:1023600004DB4FF00044404264EB0101002B04DB2E
:102370004FF00044524264EB0303994208BF90427D
:1023800030BD0000064C074D06E0E06840F0010358
:1023900094E8070098471034AC42F6D3FDF7CCFE22
:1023A000043E0008243E0008202A04DB203A21FADB
:1023B00002F00021704721FA02F3D040C2F120025E
:1023C0009140084319467047000000000FB4054BC8
:1023D00010B503A9044A029800F0EEF810BC5DF8AD
:1023E00014FB0000970400088000002002E008C8E9
:1023F000121F08C1002AFAD170477047002001E07F
:1024000001C1121F002AFBD1704700002DE9FF5FB8
:10241000DDE90220010DDDF838B0024318D044F6A2
:102420001050A1F2FF3141430D140F98012820D024
:10243000A5EB0B00401C5FEA000A4FF00004474E7A
:10244000DFF81C91A046504616D5CAF1000728E0D7
:102450000F98012443A2012808D0002100980F9B67
:10246000C0E90021C0E90243BDE8FF9F6FEA0B010C
:10247000F4E7CBF10000DEE7074612E0F80707D0EB
:102480002246334640464946FFF739FD8046894695
:102490002246334610461946FFF731FD04460E46E4
:1024A0007F10002FEAD1DDE90201BAF1000F4246A8
:1024B0004B4602DAFFF723FD01E0FFF792FD0446E9
:1024C0000E460022284BFFF749FF03D84FF0FF309C
:1024D000014607E00022254B20463146FFF768FC05
:1024E000FFF724FF102409E0002C0ADB0A22002356
:1024F000FFF738FE019B30321A55641E50EA010284
:10250000F2D1641C019AC4F1110314440F9A012AF8
:1025100003D0012208430DD10AE0084304D0002073
:102520004FF0110B0F9080E7A3EB0B056D1E0DE034
:102530005B4504DD4FF0000205F1010504E003DA1C
:102540004FF00002A5F10105002AECD000980F9988
:10255000C0E90231C0E9004586E7000000002440E0
:102560000000F03F300000000000F0430000E03FBA
:1025700010B5002A06DA22F00042D21D22F007032D
:10258000102203E0D21C22F003030C2213B19C188A
:102590008C4201D9012010BD024401448360C0E98E
:1025A0000021C91AD018884202D810600246F9E703
:1025B0000020106010BD00002DE9FF4F95B09B4634
:1025C0008946064600250FE2252877D100242746B4
:1025D000F84A0121059400E0044316F8013F203B2E
:1025E00001FA03F01042F7D130782A2811D06FF0A9
:1025F0002F033078A0F13002092A16D8059A44F04A
:10260000020402EB820203EB42021044761C0590A6
:10261000EFE759F8042B0592002A03DA504244F4FC
:102620000054059044F00204761C30782E2816D110
:1026300016F8010F44F004042A280DD06FF02F0281
:102640003078A0F13003092B09D807EB870302EBA0
:102650004303C718761CF3E759F8047B761C3078DF
:102660006C280FD006DC4C2817D068280DD06A28BB
:1026700014D104E0742810D07A280FD10DE044F46E
:1026800000140AE044F4801401E044F44014727829
:10269000824202D104F58014761C761C30786628BC
:1026A0000BD013DC582877D009DC002875D04528DA
:1026B000F6D04628F4D047281AD19DE118E06328C7
:1026C00035D0642879D0652812D195E1702873D06F
:1026D00008DC6728F1D069286FD06E280DD06F28EC
:1026E00006D1B5E073282CD0752875D0782874D021
:1026F0005A46179990476D1C75E1C4F302500228A1
:1027000009D003280DD0D9F8001004280DD00D6091
:1027100009F1040967E1D9F80010EA17C1E900528C
:10272000F6E7D9F800100D80F2E70D70F0E719F820
:10273000041B8DF8001000208DF80100EA460120EE
:1027400003E059F804AB4FF0FF3061074FF0000190
:1027500002D40DE008F101018846B9420FDA804544
:10276000F8DB1AF808100029F4D108E008F101019B
:1027700088468142FADB1AF808100029F6D105983C
:102780005B46A0EB080721463846179A00F094FAFA
:10279000284400EB080507E04DE029E10DE01AF8B8
:1027A000010B5A4617999047B8F10108F7D25B46DA
:1027B00021463846179A13E142E00A220092C4F3F8
:1027C00002524FF0000A022A08D059F804CB032A1B
:1027D0004FEAEC710AD00DE029E02AE009F1070187
:1027E00021F00702F2E802C1914609E00FFA8CFCE1
:1027F0004FEAEC71042A03D14FFA8CFC4FEAEC71DA
:10280000002907DA0A460021DCF1000C61EB020125
:102810002D2202E0220504D52B228DF8042001226E
:1028200003E0E20701D02022F7E7904659E00A21B1
:1028300002E010220DE010214FF0000A00910BE0A1
:1028400010224FF0000A44F004040827009203E02D
:1028500008224FF0000A0092C4F30252022A05D067
:1028600059F804CB0021032A08D009E009F1070137
:1028700021F00702F2E802C1914605E01FFA8CFC44
:10288000042A01D10CF0FF0C4FF00008220728D5D4
:10289000702806D0009B83F0100353EA0A0305D08A
:1028A0000EE040228DF80420012208E05CEA0102DB
:1028B00006D030228DF804208DF8050002229046C3
:1028C000009B83F0080353EA0A030AD15CEA010281
:1028D00001D1620705D530228DF804204FF00108A0
:1028E0007F1E582804D034A003900EA802900DE05B
:1028F00036A0F9E753466046009AFFF733FC84465A
:102900000398825C0298401E029002705CEA01000B
:10291000F0D1029806A9081A00F1200A600702D532
:1029200024F4803400E00127574502DDA7EB0A00BC
:1029300000E0002000EB0A01009005984144401A95
:102940000590E00306D45B462146179A059800F0EF
:10295000B3F90544002706E001A85A46C05D17995F
:1029600090476D1C7F1C4745F6DBE0030CD55B46AA
:102970002146179A059800F09FF9054404E030209D
:102980005A46179990476D1C0099481E00900029DF
:10299000F5DC08E0029802995A460078491C029139
:1029A000179990476D1CBAF10001AAF1010AF1DCF8
:1029B00065E1000009280100303132333435363703
:1029C000383961626364656600000000303132337B
:1029D000343536373839414243444546000000001B
:1029E00000F058F90544761C307800287FF4ECADEF
:1029F00019B02846BDE8F08F620700D4062709F118
:102A0000070222F0070CFCE80223E14603F000482D
:102A10005FEA080C02D00FF2702C0DE05FEA045C54
:102A200002D50FF2682C07E05FEAC47C02D00FF2F7
:102A3000602C01E0AFF2700C4FF0FF3823F0004340
:102A4000CDF850C065280CD006DC452809D04628B2
:102A50001DD047283DD13DE0662818D067287ED19B
:102A600038E00021112F01DB112000E0781CCDE9B6
:102A7000000106A90EA8FFF7C9FCDDE90F010E9AB7
:102A800003910021009207F1010A04914DE04FF0FB
:102A900000400097CDE9011006A90EA8FFF7B6FC8B
:102AA000DDE90F0203920E9B11990022DDF80CA0C4
:102AB0000093049211B9791C00EB010AB7EB0A00EC
:102AC00004D4C0F1FF3007F1010A0490AAEB07001B
:102AD000019044E0012F00DA01270021112F01DDD0
:102AE000112000E03846CDE9000106A90EA8FFF745
:102AF0008DFCDDE90F010E9A0391002104910092F3
:102B0000BA4621070CD40399514500DA8A46BAF136
:102B1000010F05DD009AAAF10101515C302908D0AE
:102B2000B84202DA10F1040F06DA0121CDE90110F2
:102B300015E0AAF10101E9E7002805DC0499014448
:102B40000491AAEB000102E0411C514500DD8A46D8
:102B50000499401A401C01904FF000400290200759
:102B600004D40198504501DBCDF8048000208DF895
:102B70004F0002980DF14F07B0F1004F25D02B20E8
:102B80000E9002984FF0020800280CDA40420290A2
:102B90002D200E9007E00A210298FFF7CDFA303180
:102BA000029007F8011DB8F10001A8F10108F2DC5C
:102BB00002980028EFD1791E0E980870307800F046
:102BC000200040F0450007F8020D12A8C01B00F1DC
:102BD00007081498007800B1012000EB0A01019861
:102BE00001EBE07105984144401A401E0590E00356
:102BF00006D45B462146179A059800F05DF8054417
:102C00001498007818B15A46179990476D1CE00344
:102C100024D55B462146179A059800F04DF80544E7
:102C20001CE00498002807DBDDE90301884203DD8E
:102C30000098405C179901E0179930205A46904758
:102C4000049805F10105401C04900198401E019074
:102C500004D12E205A46179990476D1CBAF10001F5
:102C6000AAF1010ADDDC05E017F8010B5A461799B5
:102C700090476D1CB8F10001A8F10108F4DC5B4637
:102C80002146179A0598ABE62D0000002B000000A6
:102C9000200000002DE9F041044600251E4617469D
:102CA000880404D405E039462020B0476D1C641E1A
:102CB000F9D52846BDE8F0812DE9F041044600250C
:102CC0001E469046C80301D5302700E0202788041F
:102CD00004D505E041463846B0476D1C641EF9D561
:102CE0002846BDE8F081000008480068C0010BD507
:102CF00007480068C00707D00548803800680028EA
:102D000002DA04490120087070470000FCED00E081
:102D1000800E00E0740000204FF06042D36F002B63
:102D2000FCD0036BD367D36F002BFCD0C07840EA94
:102D30000120A2F87C0070474FF06041CA6F002A62
:102D4000FCD081F87C00704770B50D46040003D0BC
:102D500012B92078012801D0802070BD204600F0F3
:102D600087FA28B12946204600F02CF8002070BDD3
:102D7000812070BD10B504468089002821D060896B
:102D800004EB8000006908606078022805D100210A
:102D9000204600F0BBFB00F0A9FB04F10C0000BFD3
:102DA000D0E85F1F491EC0E8521F002AF8D1608991
:102DB000401C80B26081E189884201D1002060819D
:102DC000042010BD10B500F0A1FBBDE8104000F0DC
:102DD0008DBB0000EFF3058008B182207047EFF350
:102DE0001480C00703D0DFF80CC000DF704700F08C
:102DF000B9BE0000653B000888B0EFF3058010B154
:102E0000822008B07047EFF3148010F003011348DC
:102E100006D001291BD0022911D0032919D113E0B2
:102E200008A981F309880078C0070BD05FF0020081
:102E300080F31488BFF34F8FBFF36F8F09E00078E2
:102E4000C00706D10320F3E70078C00701D0FF20B8
:102E5000D7E7DFF80CC000DFD3E70000C43D00086F
:102E6000D53B00080EB50246EFF30580A0B18020E7
:102E700002B121B10090DDE9011203B000BD11786B
:102E80000129F7D101A91046FFF774FF042801D0EA
:102E90000020EFE71020EDE71046DFF808C000DF64
:102EA000EBE70000413C0008EFF305820AB1002087
:102EB0007047EFF31482064B02F001025B781A436D
:102EC00003D0DFF810C000DF704700F0D7BE00006D
:102ED000580000207D3C0008DFF80CC000DFDFF860
:102EE0000CC000DFFEE70000ED3C0008093D0008D3
:102EF000DFF804C000DF7047413D0008094C4FF087
:102F0000FF3529462068FFF7ADFF02460846102A24
:102F1000F7D1FFF7EDFF0028F3D0024608469047AF
:102F2000EFE7000010000020074801684FF0E020A4
:102F3000416100218161072101610448016841F07C
:102F40007F41016040177047C03D000820ED00E060
:102F5000704750E8001F31B10B6840E80032002A8A
:102F6000F7D108467047BFF32F8FFAE710B568B165
:102F700061B10B3121F00302016844680B1A1B1B7D
:102F8000934205D2084609680029F5D1002010BDFA
:102F90003CB121180368C1E90032016001F1080069
:102FA00010BD4260083010BD70B50D46002812D02B
:102FB0004FF6FF71084C884204D222680146104641
:102FC00000F0D0FA20684570044800F0D3F8BDE85E
:102FD000704000F08BBB70BD6000002074090020C1
:102FE0000F4810B50D4942680E480B6800689342BF
:102FF00004D00A60CB88421E1A448A808A8880B234
:1030000082420AD100200860054800F0B3F801466A
:10301000BDE81040024800F0C9BA10BD7800002099
:10302000740900207000002070B5194DE868002870
:103030002CD0A88A401EA882002621E0A06838B1C2
:1030400061684160606810B1A16881606660A660D7
:103050000F482146183800F0A9FAA08AA8826078A3
:10306000042804D10B49E08A09880844A082012081
:103070006070E068E860E06808B10561E6602661BC
:10308000A88A002802D1EC68002CD7D170BD0000BE
:103090008C0900207000002070B504000FD00D4D89
:1030A000A17801262868827891420CD900F09AFA1A
:1030B000286846702046BDE8704000F017BB0648FF
:1030C00000F058F8F7E766702146BDE87040024806
:1030D00000F06CBA600000207409002010B50446AE
:1030E000008B084320836278618B062A18D0052A5A
:1030F00019D1084217D001EA000262838843208375
:10310000204600F09AFA01206070628B0821204668
:1031100000F08FFA2146BDE81040034800F046BA9F
:1031200031EA0002EAD010BD74090020814202D3C6
:1031300042688A4201D80120704750E8002F0A6097
:1031400040E80012002AF8D10020704768B161B150
:103150000839002202E00246006830B18842FAD104
:103160002AB10068106000207047012070470021DC
:103170004160F8E70146406842684A600B780022E7
:10318000022B05D0012B03D0032B01D042607047E6
:1031900043680BB19960426082607047810700D03C
:1031A0000020704770B504460020154620700122AB
:1031B0006270A17084F824106060A060E0602061FB
:1031C0002062A082E0822083608384F82500E08C66
:1031D00018B90548FFF7BDFEE06229462046BDE864
:1031E000704000F01DB800001002002008B108294E
:1031F00001D2012070470144091F002201600A60CA
:1032000042601046704700000348002101600349F6
:103210000988C1807047000078000020B43D000894
:1032200010B5C28C920803D10F4A1288C2F38D02E6
:10323000C36A03EB8202530700D5121F403A4FF0D6
:103240008073C2E90E1300234FEA030442F82340BF
:103250005B1C0E2BFAD3C369136282620163C06ADE
:103260000249016010BD0000B03D0008A52E5AE2E1
:10327000C1898089081A70470122027000224270B9
:10328000827042600281428110398281C1F38F01D4
:10329000C18170472DE9F041044640680E464FF069
:1032A000000804F10C05E0B36078012701283DD047
:1032B000022813D003285BD10846FFF74AFE050019
:1032C00056D02046FFF756FF0446294600F0AEF9D7
:1032D0006770204600F0B1F9214620E02046FFF754
:1032E00049FF0646002100F0A1F92189F06904EBAD
:1032F00081010861D5E85F0F401CC5E8510F002926
:10330000F8D12089401C80B22081E189884201D116
:10331000A4F808807770304600F08FF931461848DD
:1033200000E00CE0BDE8F04100F040B92046FFF7B6
:1033300021FF04463246102100F07BF9C8E7A0893E
:10334000E189884216D2208904EB8000C0F8106021
:10335000D5E85F0F401CC5E8510F0029F8D120893E
:10336000401C80B22081E189884201D1A4F8088004
:10337000BDE8F081BDE8F0410320FDF7DBB80000B7
:103380007409002070B50446808915460026B8B33C
:10339000608904EB8000006908606089401C80B28D
:1033A0006081E189884200D16681606810B16078EF
:1033B00002280AD014F10C04D4E85F0F401EC4E8C0
:1033C000510F0029F8D1002070BD2046FFF7D2FE32
:1033D0000546002100F02AF92189E86904EB810102
:1033E00008612089401C80B22081E189884200D197
:1033F0002681284600F021F92846FFF74DFEE2E736
:10340000FFE73DB10A48626801682AB1204600F032
:10341000CDF808E0012070BD616001684E60006871
:1034200084600120607008212846FFF7BDFDF1E7A8
:1034300060000020411C13D00B4A4FF6FE719042F1
:103440000CD800EB4002C2EBC0120848036803EB43
:10345000C202521EB2FBF3F0884200D90846704700
:103460004FF6FF707047000000093D00D03D000896
:1034700070B51B48012102685170006800F0B2F875
:10348000184D6C7817E000BF05EBC401486802785E
:10349000E2B1012A1FD000F0FDF8E878641C8442F4
:1034A00000D100240F48801CD0E84F1F491EC0E8FF
:1034B000421F002AF8D1A8780028E5D16C700A488C
:1034C000FFF758FEBDE8704000F010B9098989B2D5
:1034D000FFF704FEE1E78968FFF7DCFEDDE70000A7
:1034E0006000002080080020740900200548017851
:1034F00011B101214170704703494FF080500860BD
:10350000704700006800002004ED00E0F0B4144AA9
:10351000941CD5784FEA0206D4E84F3FAB4202D163
:10352000BFF32F8F0EE05B1CC4E8473F002FF3D1A1
:10353000D6E84F3F5C1CAC4200D10024C6E8474FA0
:10354000002FF5D1D4789C4205D902EBC302C2E921
:103550000101F0BC7047F0BC0220FCF7EBBF00009B
:1035600080080020104A10B5D368ABB113469B8A7F
:1035700003E08CB12246A48A2344D4688B42F8D35A
:10358000C460D0600261C46804B12061591A8182AC
:10359000908A401A908210BD0024C460D060C91A7D
:1035A00002619182848210BD8C09002030B50278BE
:1035B0000023022A03D0012A01D0032A00D10123CB
:1035C0008C7800E01046426812B19578A542F9D295
:1035D0004A6041601BB102B19160886030BD00203B
:1035E000FBE7000003494A684260002282604860AD
:1035F000704700007409002010B5836804462BB999
:10360000607801280ED1084B03E09B6818780028E9
:10361000FBD0204600F026F82146BDE810401846B1
:10362000FFF7C4BF10BD000074090020806A01626A
:103630007047806AC0E90812704710B50169002917
:103640000ED0C268CA60C36800223BB18B8A848AEC
:1036500023448B82C3681961C26000E08A820261E0
:1036600010BD0000816839B142684A604168002994
:1036700001D0806888607047054906E04A68824248
:1036800002D140684860704711460029F6D1704762
:103690007409002010B5416881B1FFF76BFD044645
:1036A000FFF7CBFF0120607001462046FFF7BEFF09
:1036B0002146BDE810400348FFF778BF4188491C08
:1036C000418010BD7409002006480068D0E90A1046
:1036D000814203D300680449884202D00120FCF7EC
:1036E00029BF704760000020A52E5AE20749022238
:1036F00048604270064A1278002A05D006C98A42FC
:1037000002D0C078FFF718BB7047000060000020AF
:103710007400002070B5FFF7E7FA002004462F4A36
:103720002F4902E042F82040401C0B889842F9D310
:103730002C48342201882C48FEF71AFF2B480088B9
:1037400080B240F000422A4801682A48FEF710FF84
:1037500029480822018829480068FEF709FF284DFA
:10376000FF20284AE870EC8400212846FFF71AFD64
:10377000254804210170446024480170C46004613C
:10378000848223482449056002206870214804701F
:1037900044700978C170FFF737FD2048016841F493
:1037A0007F01016000684FF07F4101EA00201B4962
:1037B000C0431439B0FA80F00968C0F10800C1F3C1
:1037C0000221814200DB481C1449091F0B686FF07D
:1037D0008072824063F317020A6070BD0409002002
:1037E000AC3D0008D83D000898000020B03D00081E
:1037F000DC3D000810020020003E000818000020F8
:103800004009002031050008740900208C090020BF
:103810006000002080080020E43D000820ED00E06A
:1038200010B5FFF781FB0949002808600DDB084A45
:10383000FF21815400F01F020121914040114FF0FF
:10384000E02202EB8000C0F8001110BD6C000020E7
:1038500000E400E00C4810B50268012151700068D6
:10386000FFF7C0FEFFF7BCFB08480168491C016078
:10387000FFF7DAFB00F070FA0548FFF77BFCBDE8C4
:103880001040FFF733BF00006000002070000020F0
:1038900074090020002805D0810702D10178002991
:1038A00000D000207047000030B50C4C0023626847
:1038B00005E015898D4204D813461268491B002A79
:1038C000F7D189B20260018112B11589691A11819B
:1038D0000BB1186030BD606030BD000058000020A2
:1038E0002DE9F0411E46174680460C4611F0FF0FA9
:1038F00000D14C1C1748FFF72CFB050028D0C4F35F
:103900000F20EF62E884E1B242462846EE61FFF7FD
:1039100049FC01241048114906E000BF00EB840275
:1039200052F8042C22B1641C0A889442F6D900246F
:1039300000EB840040F8045C0948EC70007818B192
:1039400001212846FFF7E8F92846FFF7A5FB2046A6
:10395000BDE8F0819800002004090020AC3D00087B
:10396000740000202DE9F05F564DDFF850A1DFF81C
:10397000509129684FF00008012618B1CA78AB466B
:10398000824241D1474681F80180FCF7E6FB296875
:103990008862FFF799FE2868B046046A1AE06068FA
:1039A000B8B12046FFF7E6FB06460021FFF73EFED2
:1039B0003046FFF742FE86F8018031464248FFF765
:1039C000F5FDA4F80280A660316AE1603462E46823
:1039D00000E0E468002CE2D12868C27809EB82019B
:1039E00041F8047CC16A3948FFF7A0FB2868C76228
:1039F0009AF8001011B10021FFF78EF934482968B8
:103A0000FFF794FB2F6053E03249098888420DD8B4
:103A100009EB800757F8045C45B12846FFF722FE02
:103A20002846FFF70AFEB1462C6A1DE0FF20BDE8DC
:103A3000F09F6068B8B12046FFF79CFB0646002166
:103A4000FFF7F4FD3046FFF7F8FD86F801903146A8
:103A50001D48FFF7ABFDA4F80290A660316AE16053
:103A60003462E46800E0E468002CE2D147F8048C9A
:103A700044461648E96AFFF759FBEC629AF80000E1
:103A800018B100212846FFF747F929461048FFF7EB
:103A90004DFB0D48DBF8001040688B7882789A4225
:103AA00009D981F801900848DBF80010FFF77EFD86
:103AB0000020FFF7F1FA0020B9E7000074000020B1
:103AC000040900206000002074090020100200207A
:103AD00098000020AC3D000870B51A4D80B11A4A1C
:103AE000128890421FD8194A02EB800050F8044C0B
:103AF000CCB1A17084F824102868A04205D014E04D
:103B000028688170286880F82410114840688078FF
:103B1000884215D90E482968FFF748FD2968012019
:103B2000487000200AE0FF2070BD2046FFF764FDCA
:103B30006078012804D10648FFF71CFBFFF7ACFAB8
:103B4000002070BD60000020AC3D0008040900208A
:103B50007409002002480068002800D0C07870472F
:103B60006000002010B5134C207860B9124840075F
:103B700005D1124801681048FFF738FB08B18520CD
:103B800010BDFFF7C7FD0E49FF2009688870207837
:103B900058B900210B4800F041F80B49086000219A
:103BA0000A4800F06BF80A490860012020700020E4
:103BB000607010BD58000020D0060020E03D0008D5
:103BC00060000020F83D000810000020E83D0008DB
:103BD0000C00002070B50F4D687808B1002070BD52
:103BE0000D4C206890F824100020FFF775FF206826
:103BF000C178FF2903D1816A203181F30988616886
:103C000011B9606000202060FFF70AFE0120687093
:103C1000E4E70000580000206000002010B5040018
:103C200005D0216819B1606808B102780AB1002096
:103C300010BD8900103189B2FFF71EFB606810BD0E
:103C40003EB504000D464FF0800012D021780129C6
:103C50000FD12846FFF7EEFB82B201A92046FFF7FD
:103C600091FB012801D0102003E00DB1402000E0BD
:103C70000020DDE9011203B030BD000070B50E4632
:103C800004002BD0206848B3B4F9040010F1030FEE
:103C900024DB032822DCE16829B11148FFF766F92B
:103CA00005001BD000E00025B4F90400E168001D08
:103CB00040EA012133462A462068FFF711FE40B151
:103CC000084901EB8000084950F8040C826A5163EE
:103CD00070BD1DB129460248FFF738FA002070BDBB
:103CE000D006002004090020D92E000810B5FFF7E7
:103CF00031FF002804D0034901EB800050F8040C88
:103D000010BD00000409002010B5FFF7C3FD18B175
:103D1000C18C19B1C46A02E0802010BD0024C078B3
:103D2000FFF720FEFF2806D01CB121460348FFF70D
:103D30000DFA002010BD812010BD0000D00600202B
:103D400010B5FFF72BFA20B101690A68C168104667
:103D500010BD0020014610BD2DE9F041114E7468E0
:103D6000002C18D02089104F401E20814FF00108F0
:103D70000EE0254624687460002229463868FEF764
:103D8000E3FF6879012808D085F80480002C02D070
:103D900020890028EDD0BDE8F08169892846FFF729
:103DA00083FDF3E75800002010000020070000000A
:103DB000C800020105000100001BB7000C00000054
:103DC000DF2E000001000000020001004A00040094
:103DD000E80300000000000078010000C0040000BB
:103DE000B001000010000000FD2E000802000000DD
:103DF00001000000C80000000400000020090020AD
:103E000000000000243E00080000002084000000A4
:103E1000EC230008A83E000884000020240D0000C8
:103E2000FC2300080000000000000000000000006B
:103E30000000000000000000000000000000000082
:103E4000E70300080000000001000000C8000000B7
:103E50000000000001020304010203040607080930
:103E60000204060800A24A0400000000000000004E
:103E7000010203040607080900000000000000001A
:103E80000000000000000000000000000000000032
:103E90000000000000000000000000000000000022
:083EA00000000000000000001A
:0400000508000131BD
:00000001FF
