:020000040800F2
:10000000680400209D010008B70D0008EB0C0008F3
:10001000B50D0008E5010008890F00080000000088
:10002000000000000000000000000000AF01000818
:10003000E701000800000000B3010008910E00086D
:10004000B7010008B7010008B7010008B7010008B0
:10005000B7010008B7010008B7010008B7010008A0
:10006000B7010008B7010008B7010008B701000890
:10007000B7010008B7010008B7010008B701000880
:10008000B7010008B7010008B7010008B701000870
:10009000B7010008B7010008B7010008B701000860
:1000A000B7010008B7010008B7010008B701000850
:1000B000B7010008B7010008B7010008B701000840
:1000C000B7010008B7010008B7010008D90D000802
:1000D000B7010008B7010008B7010008B701000820
:1000E000B7010008B7010008B7010008B701000810
:1000F000B7010008B7010008B7010008B701000800
:10010000B7010008B7010008B7010008B7010008EF
:10011000B7010008B7010008B7010008B7010008DF
:10012000B7010008B7010008B7010008B7010008CF
:10013000B7010008B7010008B7010008B7010008BF
:10014000B7010008B7010008B7010008B7010008AF
:10015000B7010008B7010008B7010008B70100089F
:10016000B7010008B7010008B7010008B70100088F
:10017000B7010008B7010008B7010008B70100087F
:10018000B7010008B7010008DFF80CD000F018F83C
:1001900000480047A90F000868040020064880476F
:1001A00006480047FEE7FEE7FEE7FEE7FEE7FEE75C
:1001B000FEE7FEE7FEE7FEE7350F000889010008CD
:1001C000064C074D06E0E06840F0010394E80700A4
:1001D00098471034AC42F6D3FFF7DAFF2C3205080B
:1001E0004C320508FEE7FEE731B500F0EFF80446B3
:1001F00000F0ECF80099001B8842F9D338BD0000EC
:100200002DE9F84FDFF888B100224FF001084FF0D8
:10021000030A4FF00F090BF1040E00BF0B6808FA38
:1002200002F42340A3426ED14D68022D01D0122D5D
:100230000ED1D50800EB850CDCF820505607F70EE0
:1002400009FA07F6B5430E69BE402E43CCF820608C
:10025000066855000F790AFA05FC07F0030726EA3D
:100260000C06AF40374307604E68012E05D0022EC2
:1002700003D0112E01D0122E0ED18668CF6826EA47
:100280000C06AF40374387604668A6430C79C4F339
:100290000014944034434460C4688E6824EA0C041B
:1002A000AE402643C6604C68E4006AD5394C2568E8
:1002B00045F480452560246822F0030504F4804459
:1002C0000094354C2E19D6F8084895072F0F09FAD7
:1002D00007F5AC43314DA84201D1002529E0304D4E
:1002E000A84201D1012524E02E4DA84201D10225CA
:1002F0001FE02D4DA84201D103251AE02B4DA84245
:1003000002D1042515E03CE0294DA84201D1052584
:100310000FE0284DA84201D106250AE0264DA8424B
:1003200001D1072505E0254DA84201D1082500E0AF
:100330000925BD402543C6F80858DBF800405D4656
:100340004E689C43F60300D51C432C60DEF8004049
:1003500075464E689C43B60300D51C432C600C4D7B
:1003600008352C684E689C43F60200D51C432C606F
:10037000074D0C352C684E689C43B60200D51C43D3
:100380002C60521C102AFFF449AFBDE8F88F000022
:10039000003C01404438024000300140000002406F
:1003A0000004024000080240000C0240001002401D
:1003B0000014024000180240001C024000200240CD
:1003C0000AB1816170470904FBE700000148006839
:1003D000704700000800002002480168491C0160C5
:1003E00070470000080000200B4810B5016841F478
:1003F00000710160016841F480610160016841F4AD
:1004000080710160032000F067F8002000F006F81A
:1004100000F015F8002010BD003C024010B5044665
:1004200000F00CF94FF47A71B0FBF1F000F045FCEC
:1004300000222146501E00F02FF8002010BD10B5FC
:10044000032000F049F8002211466FF00B0000F085
:1004500023F8002211466FF00A0000F01DF8002278
:1004600011466FF0090000F017F800221146101F26
:1004700000F012F80022BDE810401146501E00F0B6
:100480000BB800F01F02012191404009800000F1EB
:10049000E020C0F800117047F0B40E4B1B680C460A
:1004A000C3F30223C3F10705042D00D90425191D48
:1004B000072901D2002300E0DB1E012606FA05F120
:1004C000491E214099409E40761E16403143F0BCA3
:1004D00000F072BC0CED00E0064900F0070208686D
:1004E0004FF6FF03184040EA0220034A1043086019
:1004F000704700000CED00E00000FA052DE9F04720
:10050000DFF830A105460F46DAF8000000F00F01D1
:10051000F8B28146B94208D201468AF80010DAF8EA
:10052000000000F00F00B8426AD12878424C8007E2
:1005300005D52068A96820F0F000084320602878DD
:10054000C0074FD03C4968680839012819D00228F3
:100550001AD0032818D009688907002950DA2168C1
:1005600021F0030101432160FFF730FF0646686870
:1005700041F28838012810D002281AD003281ED052
:100580002CE009688903E8E709688901E5E700BF0D
:10059000FFF71CFF811B41451DD82068C0F3810077
:1005A0000128F5D11EE000BFFFF710FF811B414578
:1005B00011D82068C0F381000228F5D112E020682C
:1005C000FFF704FF801B4045F9D904E0FFF7FEFE6A
:1005D000811B414502D90320BDE8F087206810F057
:1005E0000C0FF3D1DAF80010504601F00F01B942B8
:1005F00008D980F80090006800F00F00B84201D0E0
:100600000120E9E72878400705D52068E96820F44B
:10061000E050084320602878000706D52068296943
:1006200020F4604040EAC10020600020FFF7F6FEA1
:100630000020D1E7003C02400838024010B500F02D
:1006400017F808490968F02292FAA2F201F0F001C5
:10065000B2FA82F2D140044A515CC84003490860B2
:1006600010BD0000083802401C32050800000020C0
:1006700030B51948006810F00C01184812D0441029
:1006800004290ED008290DD11349091F0A6802F068
:100690003F030A68550247F6C07204D5B4FBF3F075
:1006A00003E0204630BDB0FBF3F00B68096813404F
:1006B00092FAA2F2B2FA82F2D34058434FF4403297
:1006C00092FAA2F201F44031B2FA82F2D140491C0E
:1006D0004900B0FBF1F030BD083802400024F400BE
:1006E0002DE9F84F0446DFF8CC820078A8F1040B1E
:1006F000C007ABF1040537D0D8F800104046C1F36D
:100700008101012908D00068C0F3810002280AD1C4
:10071000DBF80000400206D52868800324D5606815
:10072000002878D020E0A3492079891F08706068EC
:1007300068B1FFF74BFE064605E000BFFFF746FE37
:10074000801B642868D828688003F7D50CE0FFF781
:100750003DFE064605E000BFFFF738FE801B64281B
:10076000F0D828688003F7D42078934E80074FF0A4
:10077000010A4FF0000742D5D8F80010404611F0AA
:100780000C0F08D00068C0F3810002280AD1DBF802
:100790000000400206D42868800714D5E0680128CC
:1007A00039D110E0E068D8B1C6F800A0FFF70EFE1E
:1007B000814605E0FFF70AFEA0EB09000228C1D838
:1007C00028688007F6D52868F82292FAA2F22169F3
:1007D000B2FA82F220F0F8009140084328600EE05F
:1007E0003760FFF7F3FD814606E000BFFFF7EEFD3F
:1007F000A0EB090002280FD828688007F6D42078DB
:10080000000728D56D486169A1B1C0F800A0FFF7C5
:10081000DDFD814608E0CAE079E000BFFFF7D6FDC4
:10082000A0EB0900022872D862486C30006880078B
:10083000F4D510E00760FFF7C9FD814606E000BF70
:10084000FFF7C4FDA0EB0900022860D859486C30BE
:1008500000688007F4D42078400749D555483830DF
:10086000016841F080510160006800F08050009004
:100870005348016841F480710160FFF7A7FD81468C
:1008800006E000BFFFF7A2FDA0EB090002283ED85A
:100890004B480068C005F5D5DFF81891207A09F1BA
:1008A000680989F80000A06888B1FFF78FFD009003
:1008B00008E000BFFFF78AFD0099411A41F2883035
:1008C00081426CD8D9F800008007F3D510E0FFF71B
:1008D0007DFD009008E000BFFFF778FD0099411A08
:1008E00041F2883081425AD8D9F800008007F3D409
:1008F000A069E0B3D8F80010C1F38101022956D0F5
:100900000228376604D0FFF761FD04464AE046E05E
:10091000FFF75CFD074604E0FFF758FDC01B022807
:100920003DD828688001F7D4D4E90701084347F689
:10093000C07292FAA2F2616AB2FA82F29140A26A9D
:100940004FF0FF3303EB52024FF4403393FAA3F31B
:10095000B3FA83F39A40114308434FF0706292FA5E
:10096000A2F2E16AB2FA82F29140084300E01CE090
:10097000CBF80000C6F860A0FFF728FD044604E0AD
:10098000FFF724FD001B022809D828688001F7D54D
:100990000BE000BFFFF71AFD001B022802D903205D
:1009A000BDE8F88F28688001F4D40020F8E7012022
:1009B000F6E700000838024000004742800E474238
:1009C00000700040704738B50268536891684C0663
:1009D00005D4CC0703D05C0601D5016C04E08C077C
:1009E00006D51C0604D5416C01B0BDE8304008476F
:1009F00011F4B07F2DD09B062BD54B060AD590F86D
:100A00005130032B25D0436D43F004034365D36875
:100A1000936800938B0609D5436D43F0010343654A
:100A200093680093136823F040031360C90506D54B
:100A3000416D41F0080141650168896800910168D4
:100A40004A6822F0E0024A60012180F85110FFF765
:100A5000B9FF38BD70B5040004D094F851000025EA
:100A600010B106E0012070BD84F85050204600F01F
:100A700037F8022084F851002068016821F0400115
:100A80000160D4E901010843D4E90312114308438A
:100A900061690843218B01F400710843E16908434F
:100AA000216A0843A16A084321680860A0690421FB
:100AB00001EA1040616A084321684860A06AB0F505
:100AC000005F02D12168E06A08612068C16921F4F1
:100AD0000061C1616565012084F85100002070BD8E
:100AE00000B50068124987B088421ED11148002124
:100AF000026842F480520260006800F48050059061
:100B0000E02000900220CDE90101032003900520A0
:100B1000049069460848FFF773FB00221146232022
:100B2000FFF7BAFC2320FFF7ACFC07B000BD0000C4
:100B30000030014044380240000002402DE9F84FE7
:100B4000044690F850000026984617460D460128A6
:100B50000DD04FF0010A84F850A0FFF737FC834610
:100B600094F85100B146012804D0022692E00220F8
:100B7000BDE8F88F002D7CD0002F7AD0032084F8B8
:100B80005100C4F854902563A786E786C4F83890CE
:100B9000A4F83C90A4F83E90C4F84490C4F8409067
:100BA000A068B0F5004F04D12068016841F480418D
:100BB0000160A06A4FF40057B8420AD1206801686A
:100BC0004DF6FF72114001602068016841F4005148
:100BD000016020680168490603D4016841F04001C2
:100BE0000160E068B0F5006F17D033E020688168DD
:100BF000890706D535F8021BC160E08E401EE086ED
:100C00000BE0B8F1000F23D0B8F1FF3F05D0FFF79C
:100C1000DDFBA0EB0B0141451AD2E08E0028E5D1A7
:100C20001BE020688168890706D515F8011B017350
:100C3000E08E401EE0860DE0B8F1000F08D0B8F15C
:100C4000FF3F07D0FFF7C2FBA0EB0B01414501D3EB
:100C500003261FE0E08E0028E3D1A06AB84204D149
:100C60002068016841F4805101605A46414620469F
:100C700000E00EE000F0B6F818B1606D40F0200022
:100C80006065A06818B92068C16880680090606DD0
:100C900000B1012684F851A084F85090304667E7EF
:100CA0004FF0E0210428086903D020F00400086117
:100CB000704740F00400FAE7704710B5401EB0F1ED
:100CC000807F01D3012010BD4FF0E02460610F212F
:100CD000601700F071F80020A0610720206100205B
:100CE00010BD10B5FFF7E8FF10BDFEE72DE9F0439A
:100CF000204887B00024016841F08001016001684C
:100D000001F080010591016841F001010160016875
:100D100001F001010591016841F0080101600068DE
:100D2000DFF8548000F008000590012210214046B1
:100D3000FFF746FBDFF844904FF470470122394635
:100D40004846FFF73DFB102001250326CDE90005AD
:100D5000CDE9024669464046FFF752FA00970396EE
:100D6000CDE9015469464846FFF74AFA07B0BDE8A5
:100D7000F08300003038024000000240000C0240C6
:100D80000B480A494FF4007201604FF482714160D0
:100D900000218160C1600161C0E90512C161016289
:100DA000416281620A21C162FFF754BE00300140F6
:100DB0000C000020FEE770470907090E002806DA3C
:100DC00000F00F0000F1E02080F8141D704700F1E2
:100DD000E02080F8001470470148FFF7F4BD0000E0
:100DE0000C00002038B50B460092044600228021FA
:100DF00000F008F8002804D0606D40F02000606525
:100E0000032038BD2DE9F0411D4616460F46044625
:100E1000DDF8188035E0681C33D02DB1FFF7D6FA25
:100E2000A0EB0800A8422CD32068416821F0E00123
:100E300041606068B0F5827F0BD1A068B0F5004FCB
:100E400002D0B0F5806F04D12068016821F0400124
:100E50000160A06AB0F5005F0AD1206801684DF614
:100E6000FF72114001602068016841F40051016087
:100E7000012084F85100002084F850000320BDE8D0
:100E8000F081206880683840B042C4D10020F6E785
:100E900010B5FFF7A1FABDE81040FFF722BF000030
:100EA00030B5224893B00025016841F080510160BF
:100EB000006800F0805011901D48016841F48041A5
:100EC00001600068022400F480401190012000902D
:100ED00001908005CDE90640082008904FF4A870E5
:100EE000CDE9090404200B906846FFF7F9FB0CA933
:100EF0000F2081E831004FF4A0500F901090052191
:100F00000CA8FFF7FBFAFFF799FB4FF47A71B0FBDF
:100F1000F1F0FFF7D2FE0420FFF7C2FE00221146D7
:100F2000501EFFF7B9FA13B030BD00004038024040
:100F3000007000401048016841F4700101600F48E2
:100F4000016841F0010101600C4A00210832116082
:100F500002680B4B1A400260031D0A4A1A600268BD
:100F600022F48022026005480C30016002495806D4
:100F7000803908607047000088ED00E000380240CA
:100F8000FFFFF6FE10300024FEE702E008C8121F43
:100F900008C1002AFAD170477047002001E001C162
:100FA000121F002AFBD17047FFF71EFAFFF778FFE8
:100FB000FFF79CFEFFF7E4FE00F0CCF84FF6FF755C
:100FC000284600F085F81E4C1F20002325806080F5
:100FD0001CA20321184600F0DBFA01231DA2032105
:100FE000142000F0D5FA4FF47A70FFF7FDF8284688
:100FF00000F06EF8002020804FF6E0706080002343
:1010000018A21946322000F099FA00231BA21946B3
:10101000642000F093FA41F28830FFF7E5F81B48AE
:1010200000F0ECFA43F69820FFF7DEF84CF250346B
:10103000174800F0E3FA2046FFF7D6F8F8E700007B
:1010400004000020544553542053454E442044414D
:101050005441000053454E442044415441204F4BDD
:10106000000000002053595354454D205354415221
:1010700054494E47202E2E2E00000000205345419B
:10108000524348494E47202E2E2E2000E46E02087F
:10109000DC1600082DE9F04104461D4616460F46B1
:1010A0002A2000F005FB204600F0D6FA304600F07A
:1010B000D3FA2B2000F0FCFA384600F0CDFA28468F
:1010C00000F0CAFABDE8F0412C2000F0F1BA0000AF
:1010D0002DE9F047DFF85C904FEA1028C6B20022F5
:1010E00010214846FFF76CF90120FFF77DF8002139
:1010F00040F23F13EF220846FFF7CCFF00254FF4E4
:10110000A0770024404600F0BFFA304600F0BCFA59
:10111000641CA4B2BC42F5D36D1CADB2F02DF0D36B
:10112000012210214846FFF74BF9BDE8F0470120A6
:10113000FFF75AB80000024010B50B460246FFF711
:10114000A9FF03480088BDE8104000F085BA000000
:101150000600002070B50122994D5403214628460F
:10116000FFF72EF90520FFF73FF800222146284619
:10117000FFF726F90520FFF737F801222146284618
:10118000FFF71EF98F4C002210212046FFF718F9B7
:101190000120FFF729F86FF0340000F089FA3920B8
:1011A00000F072FA2C2000F06FFA002000F06CFAC8
:1011B000342000F069FA022000F066FA6FF0300087
:1011C00000F076FA002000F05FFAC12000F05CFA2F
:1011D000302000F059FA6FF0170000F069FA85200E
:1011E00000F052FA002000F04FFA782000F04CFA9C
:1011F0006FF0150000F05CFA002000F045FA0020C6
:1012000000F042FA6FF0120000F052FA642000F091
:101210003BFA032000F038FA122000F035FA812062
:1012200000F032FA6FF0080000F042FA202000F0DF
:101230002BFA6FF03F0000F03BFA232000F024FA75
:101240006FF03E0000F034FA102000F01DFA6FF04D
:101250003A0000F02DFA3E2000F016FA282000F0A7
:1012600013FA6FF0380000F023FA862000F00CFA31
:10127000362000F01DFA482000F006FA3A2000F06F
:1012800017FA552000F000FA6FF04E0000F010FA47
:10129000002000F0F9F9182000F0F6F96FF049008D
:1012A00000F006FA082000F0EFF9822000F0ECF9D7
:1012B000272000F0E9F96FF00D0000F0F9F90020A7
:1012C00000F0E2F9262000F0F3F9012000F0DCF94B
:1012D0006FF01F0000F0ECF90F2000F0D5F931207D
:1012E00000F0D2F92B2000F0CFF90C2000F0CCF95F
:1012F0000E2000F0C9F9082000F0C6F94E2000F0D9
:10130000C3F9F12000F0C0F9372000F0BDF9072043
:1013100000F0BAF9102000F0B7F9032000F0B4F99A
:101320000E2000F0B1F9092000F0AEF9002000F025
:10133000ABF96FF01E0000F0BBF9002000F0A4F93B
:101340000E2000F0A1F9142000F09EF9032000F017
:101350009BF9112000F098F9072000F095F9312051
:1013600000F092F9C12000F08FF9482000F08CF9CC
:10137000082000F089F90F2000F086F90C2000F019
:1013800083F9312000F080F9362000F07DF90F203C
:1013900000F07AF9112000F08BF97820FEF724FF95
:1013A000292000F085F92C2000F082F9012210217B
:1013B0002046FFF705F8BDE870400120FEF714BF96
:1013C000000C0240000002402DE9F05F81462D48EC
:1013D0001C468846B0F800A0B9F1E00F50D8B8F527
:1013E000987F4DD808F10F00203A83B2D6B209F1A8
:1013F000070082B241464846FFF74CFE2248002CC7
:101400004FF0000420D1DFF88490DFF87880834625
:1014100004EB061100251BF80170F80702D0A8F8AC
:1014200000A003E0B9F80010A8F80010B8F8000018
:1014300000F012F96D1C7F08EDB2082DEDD3641C8D
:10144000E4B2102CE4D318E00F4804EB0611002599
:10145000475C08EB040BF80706D009EB05001FFA00
:101460008BF180B2FFF768FE6D1C7F08EDB2082D8E
:10147000F1D3641CE4B2102CE6D30249A1F800A019
:10148000BDE8F09F06000020ECC604080400002020
:101490002DE9FF5F9A4600981446B0F5947F3CD83A
:1014A0000198E22839D8173083B200980D3082B203
:1014B000DDE90001FFF7EEFD0027203CC4EBC4008E
:1014C000DFF86C9000EB40084FF0010B0026002580
:1014D0000BFA06F405EB450101EB4800C119BAF11E
:1014E000000F19F8010004EA000018D048B1019873
:1014F00006EBC701084481B20098284480B2FFF788
:101500001BFE6D1CEDB20E2DE4D3761CF6B2082E38
:10151000DDD37F1CFFB2032FD8D3BDE8FF9F08B1F6
:10152000044800E00448008800F096F8E9E700006D
:10153000DCE7040806000020040000202DE9F04745
:10154000124F16460D468046002499462246102129
:101550003846FEF735FF0120FEF746FE09E0C2B22D
:101560004B4641462846FFF793FF0E35641CADB24B
:10157000E4B2305D0028F2D1012210213846FEF796
:101580001FFFBDE8F0470120FEF72EBE000002401D
:101590002DE9F047DFF8609017460C460546002617
:1015A0009A46324610214846FEF70AFF0120FEF710
:1015B0001BFE4FF4987812E0E02C02D9002410357D
:1015C000ADB2454501D900242546C2B2534629464D
:1015D0002046FFF7F9FE0834761CA4B2F6B2B85DD7
:1015E0000028E9D1012210214846FEF7E9FEBDE8B6
:1015F000F0470120FEF7F8BD000002402DE9F04160
:10160000144E0546002210213046FEF7D9FE012077
:10161000FEF7EAFD002140F23F13EF220846FFF7F4
:1016200039FD00244FF4963705EB440015F81410EB
:10163000407841EA002000F00FF8641CBC42F3D36C
:10164000012210213046FEF7BBFEBDE8F04101202B
:10165000FEF7CABD0000024008B5010A8DF800106F
:101660008DF80100012211030548FEF7A9FE4FF491
:10167000FA73022269460348FFF760FA08BD0000CA
:10168000000C02400C00002008B501228DF800007B
:1016900011030548FEF794FE4FF4FA7301226946E0
:1016A0000248FFF74BFA08BD000C02400C00002076
:1016B00008B500228DF800004FF480510548FEF770
:1016C0007FFE4FF4FA73012269460348FFF736FAAA
:1016D00008BD0000000C02400C0000200010F000CB
:1016E0004001011B3685DFE77EEF5DEF5DEF5DEFCB
:1016F0007DEF7DEF5DEF7DEF5DEF5DEF5DEF5DEF2A
:101700007DEF7DEF7DEF5DEF7DEF5DEF5DEF5DEFF9
:101710007DEF7DEF7DEF5DEF7DEF7DEF7DEF5DEFA9
:101720007DEF5DEF7DEF7DEF5DEF9EF75DEF5DEFB0
:101730007DEF7DEF7DEF7DEF7DEF7DEF7DEF5DEF69
:101740005DEF7DEF5DEF5DEF5DEF5DEF7DEF7DEFD9
:101750007DEF7DEF7DEF7DEF7DEF7DEF7DEF7DEF29
:101760007DEF7DEF7DEF7DEF7DEF7DEF7DEF7DEF19
:101770007DEF7DEF7DEF7DEF7DEF7DEF7DEF7DEF09
:101780007DEF7DEF7DEF7DEF7DEF7DEF7DEF7DEFF9
:101790007DEF7DEF7DEF7DEF7DEF7DEF7DEF7DEFE9
:1017A0007DEF7DEF5DEF5DEF5DEF5DEF5DEF5DEF99
:1017B0007DEF7DEF5DEF5DEF5DEF5DEF5DEF5DEF89
:1017C0005DEF5DEF5DEF5DEF5DEF5DEF5DEF5DEFB9
:1017D0005DEF5DEF5DEF5DEF5DEF5DEF5DEF5DEFA9
:1017E0005DEF5DEF5DEF5DEF5DEF5DEF5DEF5DEF99
:1017F0005DEF5DEF5DEF5DEF5DEF5DEF5DEF5DEF89
:101800005DEF5DEF5DEF5DEF5DEF5DEF5DEF5DEF78
:101810005DEF5DEF5DEF5DEF5DEF5DEF5DEF7DEF48
:101820005DEF5DEF5DEF5DEF7DEF7DEF7DEF7DEFD8
:101830007DEF5DEF7DEF7DEF5DEF5DEF5DEF5DEFE8
:101840005DEF5DEF5DEF5DEF5DEF5DEF5DEF5DEF38
:101850005DEF5DEF5DEF5DEF7DEF5DEF7DEF7DEFC8
:101860005DEF7DEF7DEF5DEF7DEF5DEF5DEF5DEFB8
:101870007DEF5DEF5DEF5DEF5DEF5DEF5DEF5DEFE8
:101880005DEF5DEF7DEF7DEF7DEF5DEF5DEF5DEF98
:101890005DEF5DEF5DEF9EF75DEF5DEF7DEF3CE7A8
:1018A0007DEF7DEF5DE77DEF5DEF5DEF5DEF5DEF80
:1018B0005DE77EEF5EEF5EEF5EEF5DEF5CEF7DEF8D
:1018C0005FD7388D3685DFE77EEF5DEF5DEF5DEF4B
:1018D0007DEF7DEF5DEF5DEF5DEF5DEF7DEF7DEF28
:1018E0007DEF5DEF7DEF7DEF7DEF7DEF5DEF7DEFD8
:1018F0007DEF5DEF7DEF7DEF5DEF7DEF5DEF7DEFE8
:101900007DEF7DEF5DEF5DEF9EF75DEF7DEF7DEFAE
:101910007DEF5DEF7DEF7DEF7DEF7DEF7DEF7DEF87
:101920007DEF7DEF7DEF7DEF7DEF7DEF7DEF7DEF57
:101930007DEF7DEF7DEF7DEF7DEF7DEF7DEF7DEF47
:101940007DEF7DEF7DEF7DEF7DEF7DEF7DEF7DEF37
:101950007DEF7DEF7DEF7DEF7DEF7DEF7DEF7DEF27
:101960007DEF7DEF7DEF7DEF7DEF7DEF7DEF7DEF17
:101970007DEF7DEF7DEF7DEF7DEF7DEF7DEF7DEF07
:101980007DEF7DEF5DEF5DEF5DEF5DEF5DEF5DEFB7
:101990005DEF5DEF5DEF5DEF5DEF5DEF5DEF5DEFE7
:1019A0005DEF5DEF5DEF5DEF5DEF5DEF5DEF5DEFD7
:1019B0005DEF5DEF5DEF5DEF5DEF5DEF5DEF5DEFC7
:1019C0005DEF5DEF5DEF5DEF5DEF5DEF5DEF5DEFB7
:1019D0005DEF5DEF5DEF5DEF5DEF5DEF5DEF5DEFA7
:1019E0005DEF5DEF5DEF5DEF5DEF5DEF5DEF5DEF97
:1019F0005DEF5DEF5DEF5DEF5DEF5DEF5DEF5DEF87
:101A00005DEF5DEF5DEF5DEF5DEF7DEF7DEF7DEF16
:101A10007DEF5DEF7DEF7DEF5DEF5DEF5DEF5DEF06
:101A20005DEF5DEF5DEF5DEF5DEF5DEF5DEF5DEF56
:101A30005DEF5DEF5DEF5DEF7DEF5DEF7DEF5DEF06
:101A40005DEF5DEF5CEF7DEF5DEF7DEF5DEF7DEFD7
:101A50007DEF5DEF5DEF5DEF5DEF5DEF5DEF5DEF06
:101A60005DEF5DEF5DEF5DEF5DEF5DEF5DEF5DEF16
:101A70005DEF5DEF7DEF3CE75DEF7DEF3CE79EF7CF
:101A80005DEF3CE77EEF3DE75DEF5DEF7DF75DEFFE
:101A90007DEF5DEF5DEF5EEF5DEF5DEF5CEF7EEFA5
:101AA0005FD737853685DFE77EEF5DEF5DEF5DEF72
:101AB0007DEF7DEF5DEF5CEF7EEF5DEF9EF73CE746
:101AC0007DEF7DEF3CE79EF73CE73CE79EF75DEF5F
:101AD0007DEF7DEF7DEF5DEF9EF75DEF7DEF7DEFBD
:101AE0003CE77DEF7DEF7DEF7DEF5DEF5DEF7DEF1F
:101AF0005DEF9EF75DEF7DEF7DEF7DEF7DEF7DEF9D
:101B00007DEF7DEF7DEF7DEF7DEF7DEF7DEF7DEF75
:101B10007DEF7DEF7DEF7DEF7DEF7DEF7DEF7DEF65
:101B20007DEF7DEF7DEF7DEF7DEF7DEF7DEF7DEF55
:101B30007DEF7DEF7DEF7DEF7DEF7DEF7DEF7DEF45
:101B40007DEF7DEF7DEF7DEF7DEF7DEF7DEF7DEF35
:101B50007DEF7DEF7DEF7DEF7DEF7DEF7DEF7DEF25
:101B60007DEF7DEF5DEF5DEF5DEF5DEF5DEF5DEFD5
:101B70005DEF5DEF5DEF5DEF5DEF5DEF5DEF5DEF05
:101B80005DEF5DEF5DEF5DEF5DEF5DEF5DEF5DEFF5
:101B90005DEF5DEF5DEF5DEF5DEF5DEF5DEF5DEFE5
:101BA0005DEF5DEF5DEF5DEF5DEF5DEF5DEF5DEFD5
:101BB0005DEF5DEF5DEF5DEF5DEF5DEF5DEF5DEFC5
:101BC0005DEF5DEF5DEF5DEF5DEF5DEF5DEF5DEFB5
:101BD0005DEF5DEF5DEF5DEF5DEF5DEF5DEF5DEFA5
:101BE0005DEF5DEF7DEF7DEF7DEF7DEF7DEF7DEFD5
:101BF0007DEF7DEF7DEF7DEF5DEF5DEF5DEF5DEF05
:101C00005DEF5DEF5DEF5DEF5DEF5DEF5DEF5DEF74
:101C10005DEF5DEF7DEF5DEF3CE77DEF3CE75DEF76
:101C20005DEF7DEF5DEF5DEF5DEF5DEF5DEF5DEF34
:101C30007DEF7DEF5DEF5DEF5DEF5DEF5DEF5DEF04
:101C40005DEF5DEF5DEF5DEF5DEF5DEF5DEF5DEF34
:101C50005DEF5DEF7DEF7DEF7DEF5DEF7DEF7DEF84
:101C60003CE77DEF3CE77EEF3DE77EEF5DEF5DEF2C
:101C70007DEF5DEF5DEF5DEF5DEF5DEF5DEF7EEFC3
:101C80005FD717853685DFE77EEF5DEF5DEF5DEFB0
:101C90007DEF7DEF5DEF7DEF5DEF7DEF5DEF5DEF64
:101CA0007DEF5DEF7DEF3CE75DEF5DEF5DEF5DEFBD
:101CB0005DEF7DEF5DEF7DEF5DEF5DEF5DEF5DEF84
:101CC0007DEF7DEF5DEF7DEF5DEF7DEF7DEF7DEFF4
:101CD0005DEF5DEF7DEF7DEF7DEF7DEF5DEF7DEF04
:101CE0007DEF5DEF7DEF7DEF7DEF7DEF7DEF7DEFB4
:101CF0007DEF7DEF7DEF7DEF7DEF7DEF7DEF7DEF84
:101D00007DEF7DEF7DEF7DEF7DEF7DEF7DEF7DEF73
:101D10007DEF7DEF7DEF7DEF7DEF7DEF7DEF7DEF63
:101D20007DEF7DEF7DEF7DEF7DEF7DEF7DEF7DEF53
:101D30007DEF7DEF7DEF7DEF7DEF7DEF7DEF5DEF63
:101D40005DEF5DEF5DEF5DEF5DEF5DEF5DEF5DEF33
:101D50005DEF5DEF5DEF5DEF5DEF5DEF5DEF5DEF23
:101D60005DEF5DEF5DEF5DEF5DEF5DEF5DEF5DEF13
:101D70005DEF5DEF5DEF5DEF5DEF5DEF5DEF5DEF03
:101D80005DEF5DEF5DEF5DEF5DEF5DEF5DEF5DEFF3
:101D90005DEF5DEF5DEF5DEF5DEF5DEF5DEF5DEFE3
:101DA0005DEF5DEF5DEF5DEF5DEF5DEF5DEF5DEFD3
:101DB0005DEF5DEF5DEF5DEF5DEF5DEF5DEF5DEFC3
:101DC0005DEF5DEF7DEF7DEF7DEF7DEF7DEF7DEFF3
:101DD0007DEF7DEF5DEF5DEF5DEF5DEF5DEF5DEF63
:101DE0005DEF5DEF5DEF5DEF5DEF5DEF5DEF5DEF93
:101DF0005DEF5DEF5DEF3CE79EF75DEF5DEF7DEF43
:101E00007DEF5DEF5DEF7DEF5DEF7DEF5DEF7DEFF2
:101E10005DEF5DEF5DEF5DEF5DEF5DEF5DEF5DEF62
:101E20005DEF5DEF5DEF5DEF5DEF5DEF5DEF5DEF52
:101E30005DEF7DEF5DEF7DEF5DEF5DEF7DEF5DEFE2
:101E40005DEF3CE77DEF5DEF5DEF5DEF5DEF7DEF1B
:101E50005DEF5DEF5DEF5DEF5DEF5DEF5CEF7DEF03
:101E60005FD7F7843685DFE77EEF5DEF5DEF5DEFEF
:101E70007DEF7DEF7DF77DEF3DEF7DEF5DEF9EF731
:101E80005DEF9DEF5DEF7DEF7DEF9EF77DEF7DEFE9
:101E90005DEF7DEF7DEF5DEF5DEF9EF77DEF5DEF39
:101EA0007DEF5DEF5DEF7DEF7DEF5DEF5DEF5DEF72
:101EB0009EF75DEF7DEF7DEF7DEF7DEF7DEF7DEFB9
:101EC0007DEF7DEF5DEF5DEF5DEF5DEF5DEF7DEF52
:101ED0007DEF7DEF7DEF7DEF5DEF5DEF7DEF7DEFE2
:101EE0007DEF7DEF7DEF7DEF7DEF7DEF7DEF7DEF92
:101EF0007DEF7DEF7DEF7DEF7DEF7DEF7DEF7DEF82
:101F00007DEF7DEF7DEF7DEF7DEF7DEF5DEF5DEFB1
:101F10007DEF7DEF7DEF7DEF7DEF5DEF5DEF5DEFC1
:101F20005DEF5DEF5DEF5DEF5DEF5DEF5DEF5DEF51
:101F30005DEF5DEF5DEF5DEF5DEF5DEF5DEF5DEF41
:101F40005DEF5DEF5DEF5DEF5DEF5DEF5DEF5DEF31
:101F50005DEF5DEF5DEF5DEF5DEF5DEF5DEF5DEF21
:101F60005DEF5DEF5DEF5DEF5DEF5DEF5DEF5DEF11
:101F70005DEF5DEF5DEF5DEF5DEF5DEF5DEF5DEF01
:101F80005DEF5DEF5DEF5DEF5DEF5DEF5DEF5DEFF1
:101F90005DEF5DEF5DEF5DEF5DEF5DEF5DEF5DEFE1
:101FA0005DEF5DEF5DEF5DEF5DEF5DEF5DEF5DEFD1
:101FB0005DEF5DEF5DEF5DEF5DEF5DEF5DEF5DEFC1
:101FC0005DEF5DEF5DEF5DEF5DEF5DEF5DEF5DEFB1
:101FD0005DEF5DEF7DEF7DEF5DEF3CE75DEF7DEF6A
:101FE0003CE75DEF7DEF1CE75DEF7DEF3CE73CE715
:101FF0007DEF7DEF5DEF5DEF5DEF5DEF5DEF5DEF41
:102000005DEF5DEF5DEF5DEF5DEF5DEF5DEF5DEF70
:102010005DEF5DEF7DEF3CE77DEF9EF73CE73CE752
:102020007DEF5DEF5DE73DE75EEF7DEF5DEF5DEF3F
:102030005DEF7DEF5DEF5EEF5DEF5DEF5CEF7DEF00
:102040005FD7F7843685DFE77EEF5DEF5DEF5DEF0D
:102050007DEF7DEF3CEF7DEF5DEF5DEF5DEF1CE72A
:102060007DEF5CE77DEF5DEF7DEF3CE75DEF5DEFE2
:102070007DEF5DEF5DEF7DEF7DEF3CE75DEF5DEFC9
:102080007DEF7DEF5DEF7DEF5DEF7DEF5DEF5DEF70
:102090005DEF7DEF5DEF5DEF5DEF7DEF7DEF5DEF80
:1020A0007DEF7DEF5DEF5DEF5DEF5DEF5DEF7DEF70
:1020B0007DEF7DEF5DEF5DEF5DEF5DEF5DEF7DEF60
:1020C0007DEF7DEF7DEF7DEF7DEF7DEF7DEF7DEFB0
:1020D0007DEF7DEF7DEF7DEF7DEF7DEF7DEF7DEFA0
:1020E0007DEF7DEF7DEF7DEF7DEF5DEF5DEF5DEFF0
:1020F0005DEF5DEF7DEF7DEF7DEF5DEF5DEF5DEF20
:102100005DEF5DEF5DEF5DEF5DEF5DEF5DEF5DEF6F
:102110005DEF5DEF5DEF5DEF5DEF5DEF5DEF5DEF5F
:102120005DEF5DEF5DEF5DEF5DEF5DEF5DEF5DEF4F
:102130005DEF5DEF5DEF5DEF5DEF5DEF5DEF5DEF3F
:102140005DEF5DEF5DEF5DEF5DEF5DEF5DEF5DEF2F
:102150005DEF5DEF5DEF5DEF5DEF5DEF5DEF5DEF1F
:102160005DEF5DEF5DEF5DEF5DEF5DEF5DEF5DEF0F
:102170005DEF5DEF5DEF5DEF5DEF5DEF5DEF5DEFFF
:102180005DEF5DEF5DEF5DEF5DEF5DEF5DEF5DEFEF
:102190005DEF5DEF5DEF5DEF5DEF5DEF5DEF5DEFDF
:1021A0005DEF5DEF5DEF5DEF5DEF5DEF5DEF5DEFCF
:1021B0005DEF5DEF5DEF5DEF5DEF5DEF7DEF9EF756
:1021C000DFFF9EF77DEFDFFF9EF77DEF5DEF5DEFB9
:1021D0005DEF3CE75DEF5DEF5DEF5DEF5DEF5DEFC8
:1021E0005DEF5DEF5DEF5DEF5DEF5DEF5DEF5DEF8F
:1021F0005DEF5DEF7DEF5DEF7DEF3CE77DEF9EF7FF
:102200003CE77DEF9EEF7DEF5DEF5DEF5DEF5CEF17
:102210009EF73DE75DEF5EEF5DEF5DEF5CEF5DE745
:102220005FD7F67C3685DFE77EEF5DEF5DEF5DEF34
:102230007DEF7DEF7DEF1CE7DFFFDFFFFFFFDEFFC0
:102240003CE79DEF5DEF3CE7DFFFBEF77DEF5DEF25
:102250007DEF7DEF7DEF7DEF5DEF9EF75DEFFFFFA3
:102260005DEF5DEF5DEF5DEF5DEF3CE79EF77DEFCE
:102270003CE79EF77DEF5DEF5DEF7DEF7DEF5DEF7E
:102280005DEF7DEF5DEF5DEF5DEF5DEF5DEF5DEFCE
:102290007DEF7DEF5DEF5DEF5DEF5DEF5DEF7DEF7E
:1022A0007DEF7DEF7DEF7DEF7DEF7DEF7DEF7DEFCE
:1022B0007DEF7DEF7DEF7DEF7DEF7DEF7DEF7DEFBE
:1022C0007DEF7DEF7DEF7DEF7DEF5DEF5DEF5DEF0E
:1022D0005DEF5DEF7DEF7DEF5DEF5DEF5DEF5DEF5E
:1022E0005DEF5DEF5DEF5DEF5DEF5DEF5DEF5DEF8E
:1022F0005DEF5DEF5DEF5DEF5DEF5DEF5DEF5DEF7E
:102300005DEF5DEF5DEF5DEF5DEF5DEF5DEF5DEF6D
:102310005DEF5DEF5DEF5DEF5DEF5DEF5DEF5DEF5D
:102320005DEF5DEF5DEF5DEF5DEF5DEF5DEF5DEF4D
:102330005DEF5DEF5DEF5DEF5DEF5DEF5DEF5DEF3D
:102340005DEF5DEF5DEF5DEF5DEF5DEF5DEF5DEF2D
:102350005DEF5DEF5DEF5DEF5DEF5DEF5DEF5DEF1D
:102360005DEF5DEF5DEF5DEF5DEF5DEF5DEF5DEF0D
:102370005DEF5DEF5DEF5DEF5DEF5DEF5DEF5DEFFD
:102380005DEF5DEF5DEF5DEF5DEF5DEF5DEF5DEFED
:102390005DEF5DEF7DEF7DEF7DEF5DEF1CE7518C35
:1023A000518C718C518C718C518C1CE75DEF7DEFE1
:1023B0007DEF5DEF5DEF5DEF5DEF5DEF5DEF5DEF9D
:1023C0005DEF5DEF5DEF5DEF5DEF5DEF5DEF5DEFAD
:1023D0005DEF7DEF5DEF5DEF5DEFFBDE38C67DEF1E
:1023E0005DEF3CE77DEF1CE718C65DEF5DEF7DEF2D
:1023F0005DEF5DEF5DEF5DEF5DEF5DEF5CEF7DEF5E
:102400005FD7D67C3685DFE77EEF5DEF5DEF5DEF72
:102410007DEF7DEF7DEFBEF710848A52284255ADE7
:10242000BEF79EF79EF7BEF7308496B59EF7BEF7CF
:102430009EF77DEF9EF75DEF5DEF9EF75DEF694ADA
:10244000FFFF9EF7BEF77DEFBEF7F7BD9EF77DEF6E
:102450009EF79EF79EF77DEF7DEF9EF79EF77DEF4F
:102460007DEF7DEF5DEF5DEF5DEF5DEF5DEF7DEFAC
:102470007DEF7DEF5DEF5DEF5DEF5DEF5DEF7DEF9C
:102480007DEF7DEF7DEF7DEF7DEF7DEF7DEF7DEFEC
:102490007DEF7DEF7DEF7DEF7DEF7DEF7DEF7DEFDC
:1024A0007DEF7DEF7DEF7DEF7DEF5DEF5DEF5DEF2C
:1024B0005DEF5DEF7DEF7DEF5DEF5DEF5DEF5DEF7C
:1024C0005DEF5DEF5DEF5DEF5DEF5DEF5DEF5DEFAC
:1024D0005DEF5DEF5DEF5DEF5DEF5DEF5DEF5DEF9C
:1024E0005DEF5DEF5DEF5DEF5DEF5DEF3CE73CE7DE
:1024F0005DEF5DEF5DEF5DEF5DEF5DEF5DEF5DEF7C
:102500005DEF3CE75DEF5DEF5DEF5DEF5DEF5DEF94
:102510005DEF5DEF5DEF5DEF5DEF5DEF5DEF5DEF5B
:102520005DEF5DEF5DEF5DEF5DEF5DEF5DEF5DEF4B
:102530005DEF5DEF5DEF5DEF5DEF5DEF5DEF5DEF3B
:102540005DEF5DEF5DEF5DEF5DEF5DEF5DEF5DEF2B
:102550005DEF5DEF5DEF5DEF5DEF5DEF5DEF5DEF1B
:102560005DEF5DEF5DEF5DEF5DEF5DEF5DEF5DEF0B
:102570005DEF5DEF5DEF5DEF5DEFBEF7F39C108407
:1025800038C659CE38C659CEEF7BF39CBEF75DEF07
:102590005DEF7DEF5DEF5DEF5DEF5DEF5DEF5DEFBB
:1025A0005DEF5DEF5DEF5DEF5DEF5DEF5DEF5DEFCB
:1025B0005DEF5DEF5DEF5DEF7DEF5DEF8A52D7BDC3
:1025C000FFFF9EF7DBDE083AFCE67EF73DEF5DEFAE
:1025D0005DEF7DEF5DEF5DEF3DEF5DEF5CEF7EEF7B
:1025E0005FD7D67C3685DFE75EEF5DEF5DEF5DEFB1
:1025F0007DEF7DEFBEFFEF7B3184FFFFDFFFBAD6BB
:102600001CE7F39C55ADFFFF108434A5FFFFD7BD39
:102610009294DBDE18C65DEF3CE759CE3CE70842FA
:10262000FFFF18C69294FCDEFCDEA31092949EF786
:10263000FCDEB39455ADFFFFDBDE79CE34A53DE77C
:102640007DEF3DE77DEF5DEF5DEF5DEF7DEF7DEFD2
:102650007DEF5DEF5DEF5DEF7DEF7DEF5DEF5DEFBA
:102660007DEF7DEF7DEF7DEF7DEF7DEF7DEF7DEF0A
:102670007DEF7DEF5DEF5DEF7DEF7DEF7DEF7DEF3A
:102680007DEF5DEF7DEF5DEF5DEF7DEF7DEF7DEF4A
:102690007DEF5DEF5DEF5DEF5DEF5DEF5DEF5DEFBA
:1026A0005DEF5DEF5CEF5CEF5DEF5DEF5DEF5DEFCC
:1026B0005DEF5DEF5DEF5DEF5DEF5DEF5DEF5CEFBB
:1026C0005CEF5CEF5DEF5CEF5CEF5CEF5DEF5DEFAF
:1026D0005CEF5CEF5CEF5CEF5CEF5CEF5CEF5CEFA2
:1026E0005CEF5DEF5DEF5CEF5CEF5CEF5CEF5CEF90
:1026F0005DEF5DEF5DEF5DEF5DEF5DEF5DEF5DEF7A
:102700005DEF5DEF5DEF5DEF5DEF5DEF5DEF5DEF69
:102710005DEF5DEF5DEF7DEF5DEF5DEF7DEF9EF7D0
:10272000DFFFDFFFBEF7FFFFBEF7DFFF7DEF5DEFEF
:102730005DEF7DEF5DEF5DEF5DEF5DEF5DEF5DEF19
:102740005DEF5DEF5DEF5DEF5DEF5DEF5DEF5DEF29
:102750005DEF5DEF5DEF3CE75DEF9EF714A555ADD6
:10276000BFF79EF79EF7BEF755AD14A57EEF7DEF40
:102770005DEF7DEF5DEF5DEF5DEF5DEF5DEF5DEFD9
:102780005DEF5DEF5DEF5DEF5DEF5DEF5DEF5DEFE9
:102790005DEF5DEF5DEF5DEF9EF77EEFBEF7CB5A2D
:1027A000F7BD9AD66A4A1CE77EF75DEF3CEF5DEF16
:1027B0005DEF5DEF5DEF5DEF5DEF5DEF5CEF5DE7C2
:1027C0005FD7D67C3685DFE75EEF5DEF5DEF5DEFCF
:1027D0007DEF7DEF7DF7C639FFFF3CE75DEFDFFF63
:1027E000D7BDF7BD4D6B18C61084F7BD75ADAA52A5
:1027F00096B538C6C7397DEF3CE7E739FFFFE739C3
:10280000DFFF718C18C62942BFF7252155AD1CE7A3
:10281000494AF7BD8E73D39CB6B54529F8BD5DEF27
:102820007EEF7EEF5DEF5DEF5DEF5DEF5DEF7DEFE6
:102830005DEF5DEF5DEF5DEF7DEF7DEF7DEF7DEFB8
:102840007DEF7DEF7DEF7DEF7DEF7DEF7DEF7DEF28
:102850007DEF7DEF7DEF7DEF7DEF7DEF7DEF7DEF18
:102860007DEF7DEF7DEF7DEF7DEF7DEF7DEF7DEF08
:102870005DEF5DEF5DEF5DEF5DEF5DEF5DEF5DEFF8
:102880005DEF5DEF5CEF5CEF5DEF5DEF5DEF5DEFEA
:102890005DEF5DEF5CEF5CEF5CEF5CEF5CEF5CEFDE
:1028A0005CEF5CEF5DEF5DEF5DEF5CEF5CEF5CEFCD
:1028B0005CEF5CEF5CEF5CEF5CEF5CEF5CEF5CEFC0
:1028C0005CEF5CEF5DEF5CEF5CEF5CEF5CEF5CEFAF
:1028D0005DEF5DEF5DEF5DEF5DEF5DEF5DEF5DEF98
:1028E0005DEF5DEF5DEF5DEF5DEF5DEF5DEF5DEF88
:1028F0005DEF5DEF7DEF5DEF9EF75DEF9EF7D7BD7E
:102900008A52CB5AAA52EB5AEB5A2842FBDE5DEFB1
:102910007DEF5DEF5DEF5DEF5DEF5DEF5DEF5DEF37
:102920005DEF5DEF5DEF5DEF5DEF5DEF5DEF5DEF47
:102930005DEF5DEF3CE77DEF3DE7BEF714A514A525
:102940007EEF7DEF3DE79EF7F49C34A5BEF73DE7B3
:102950009EF73DE75DEF5DEF5DEF5DEF5DEF5DEFF6
:102960005DEF5DEF5DEF5DEF5DEF5DEF5DEF5DEF07
:102970005DEF5DEF7DEF9EF71CE77DEF5DEFFFFF05
:10298000294265299EF7BEF77EEF3DEF5DEF5CEFD4
:102990007DEF5DE75DEF5DEF5DEF5DEF5CEF5DE7C8
:1029A0005FD7D67C3685DFE75EEF5DEF5DEF5DEFED
:1029B0007DEF7DEF5DEFC639FFFF9EF73CE77DEFD2
:1029C00079CE0C63E739D39C718C96B50C635DEFBF
:1029D000BEF7FFFF08427DEF3CE72842DFFF0842D9
:1029E000FFFFD39C0C632521BFF70842BFF79294E9
:1029F00014A5DFFF9EF76A4AD7BD1084FFFF7DEF65
:102A00005DEF5DEF5DEF5DEF5DEF5DEF5DEF5DEF66
:102A10005DEF5DEF5DEF7DEF7DEF7DEF7DEF7DEFB6
:102A20007DEF7DEF7DEF7DEF7DEF7DEF5DEF5DEF86
:102A30005DEF5DEF5DEF7DEF7DEF7DEF7DEF7DEF96
:102A40007DEF7DEF7DEF7DEF7DEF5DEF5DEF5DEF86
:102A50005DEF5DEF5DEF5DEF5DEF5DEF5DEF5DEF16
:102A60005DEF5DEF5CEF5CEF5DEF5DEF5DEF5DEF08
:102A70005DEF5DEF5CEF5CEF5CEF5DEF5DEF5DEFF9
:102A80005DEF5DEF5DEF5DEF5DEF5DEF5CEF5CEFE8
:102A90005CEF5CEF5CEF5CEF5CEF5CEF5CEF5CEFDE
:102AA0005CEF5CEF5DEF5CEF5CEF5CEF5CEF5CEFCD
:102AB0005CEF5CEF5DEF5DEF5DEF5DEF5DEF5DEFB8
:102AC0005DEF5DEF5DEF5DEF5DEF5DEF5DEF5DEFA6
:102AD0005DEF5DEF5DEF5DEF7DEF5DEF5DEF9EF72D
:102AE000BEF7BEF7FFFFBEF7DFFFDFFF5DEF7DEF55
:102AF0005DEF7DEF5DEF5DEF5DEF5DEF5DEF5DEF56
:102B00005DEF5DEF5DEF5DEF5DEF5DEF5DEF5DEF65
:102B10005DEF5DEF5DEF9EF73DE79EF714A5F49C3A
:102B2000BEF75DEF5DEFDFFF14A5F49C9EF75DEF50
:102B30003CE75DEF5DEF5DEF5DEF5DEF5DEF5DEF5E
:102B40005DEF5DEF5DEF5DEF5DEF5DEF5DEF5DEF25
:102B50005DEF5DEF5DEF3DE79EF73DE7BEF7D7BD6B
:102B60000C63EF7BD39C9EF75DEF5DEF5CEF5CEF5A
:102B70005DEF5DEF5DEF5DEF5DEF5DEF5CEF5DE7FE
:102B80005FD7D67C3685DFE75EEF5DEF5DEF5DEF0B
:102B90007DEF7DEFBFFF2C639294FFFFDFFF5CEFC3
:102BA0006529FFFFB294518C1084D7BD8E73F7BD99
:102BB000FFFF9EF708425DEF9AD6A631FFFF494A14
:102BC00075ADCF7BFFFFC7399EF7C739FFFF96B5BD
:102BD000CF7BFFFFDBDECB5AD7BD1084DFFF3DE7A5
:102BE0005DEF7DEF5DEF5DEF5DEF5DEF5DEF5DEF65
:102BF0005DEF5DEF7DEF7DEF7DEF7DEF7DEF7DEFB5
:102C00007DEF7DEF5DEF5DEF7DEF7DEF5DEF5DEFE4
:102C10005DEF5DEF5DEF5DEF5DEF5DEF7DEF7DEF14
:102C20007DEF7DEF7DEF7DEF5DEF5DEF5DEF5DEFC4
:102C30005DEF5DEF5DEF5DEF5DEF5DEF5DEF5DEF34
:102C40005DEF5DEF5CEF5CEF5DEF5DEF5DEF5DEF26
:102C50005DEF5DEF5DEF5DEF5DEF5DEF5DEF5DEF14
:102C60005DEF5DEF5CEF5DEF5DEF5DEF5CEF5CEF07
:102C70005CEF5CEF5CEF5CEF5CEF5CEF5CEF5CEFFC
:102C80005CEF3CE75CEF3CE73CE75CEF5CEF5CEF64
:102C90005CEF5DEF5DEF5DEF5DEF5DEF5DEF5DEFD5
:102CA0005DEF5DEF5DEF5DEF5DEF5DEF5DEF5DEFC4
:102CB0005DEF5DEF5DEF7DEF5DEF7DEF5DEF1CE7BD
:102CC0007DEF9EF75DEF5DEF1CE77DEF7DEF5DEF44
:102CD0005DEF5DEF5DEF5DEF5DEF5DEF5DEF5DEF94
:102CE0005DEF5DEF5DEF5DEF5DEF5DEF5DEF5DEF84
:102CF0005DEF5DEF7DEF3DE77DEFBFF7F49C55ADF8
:102D0000FFFFBFF7BFF7FFFF55AD34A57EEF5DEFC7
:102D10005DEF3DE75DEF5DEF5DEF5DEF5DEF5DEF7B
:102D20005DEF5DEF5DEF5DEF5DEF5DEF5DEF5DEF43
:102D30005DEF5DEF3DE79EF73CE7BFF775AD8A526B
:102D4000FFFFDFFFAF731084DFFF5DEF1CE77DEF58
:102D50005DEF5DEF5DEF5DEF5DEF5DEF5CEF5DE71C
:102D60005FD7D67C3685DFE75EEF5DEF5DEF5DEF29
:102D70007DEF7DEF3CE7DEFF6D6BAA522842DADE85
:102D8000CF7B694A2C63F39CF39CB6B5FBDE494AC2
:102D90008A52F7BD18C608422C63CB5ADFFFCB5AC4
:102DA000DFFFC7396E6B494ABEF7F39CC7399EF700
:102DB000EF7B6A4A6A4ABEF755AD9294BEF75DEF63
:102DC0005DEF7DEF5DEF5DEF5DEF5DEF5DEF5DEF83
:102DD0005DEF7DEF7DEF7DEF5DEF5DEF5DEF5DEF33
:102DE0005DEF7DEF5DEF5DEF7DEF7DEF7DEF5DEF03
:102DF0005DEF5DEF5DEF5DEF5DEF5DEF5DEF5DEF73
:102E00005DEF5DEF5DEF5DEF5DEF5DEF5DEF5DEF62
:102E10005DEF5DEF5DEF5DEF5DEF5DEF5DEF5DEF52
:102E20005DEF5DEF5CEF5CEF5DEF5DEF5DEF5CEF45
:102E30005CEF5CEF5CEF5CEF5CEF5CEF5CEF5CEF3A
:102E40005CEF3CE75CEF5CEF5CEF5CEF5CEF5CEF52
:102E50005CEF5CEF5CEF5CEF5CEF5CEF3CE73CE76A
:102E60003CE75CEF3CE73CE73CE75CEF5CEF5CEFAA
:102E70005CEF5DEF5DEF5DEF5DEF5DEF5DEF5DEFF3
:102E80005DEF5DEF5DEF5DEF5DEF5DEF5DEF5DEFE2
:102E90005DEF5DEF7DEF3CE77DEF5DEF5DEF7DEF9B
:102EA0005DEF3CE75DEF9EF75DEF5DEF5DEF3CE7CB
:102EB0005DEF5DEF5DEF5DEF5DEF5DEF5DEF5DEFB2
:102EC0005DEF5DEF7DEF5DEF5DEF5DEF5DEF5DEF82
:102ED0005DEF5DEF5DEF5DEF3DE79EF7B7B5C7399D
:102EE000CB5ACB5AAA52CB5AC739D7BD7EEF3DE752
:102EF0005DEF5DEF5DEF5DEF5DEF5DEF5DEF5DEF72
:102F00005DEF5DEF5DEF5DEF5DEF5DEF5DEF5DEF61
:102F10005DEF5DEF5DEF5DEF5DEF79CE0C63DFFFA1
:102F20005DEF5DEFFFFF308456AD7DEF7DF75CEF29
:102F30003CE75DEF5DEF5DEF5DEF5DEF5CEF5DE763
:102F40005FD7F77C3685DFE75EEF5DEF5DEF5DEF26
:102F50007DEF7DEF7DEF5CEFBFF7FFFFDFFF5DEF04
:102F6000DFF7FFFFDFFFBEF77DEF9EF7BEF7FFFF46
:102F7000BEF79EF7BEF7FFFFBEF7FFFF5DEFFFFF57
:102F80005DEFDFFFFFFFDFFF7DEFBEF7DFFF7DEFD0
:102F9000DFFFBEF7DFFF5DEF9EF7BEF75DEF5DEF92
:102FA0007EEF3CE75DEF5DEF5DEF5DEF5DEF5DEFC9
:102FB0005DEF5DEF7DEF5DEF5DEF5DEF5DEF5DEF91
:102FC0005DEF5DEF5DEF5DEF7DEF7DEF7DEF5DEF41
:102FD0005DEF5DEF5DEF5DEF5DEF5DEF5DEF5DEF91
:102FE0005DEF5DEF5DEF5DEF5DEF5DEF5DEF5DEF81
:102FF0005DEF5DEF5DEF5DEF5DEF5DEF5DEF5DEF71
:103000005DEF5DEF5CEF5CEF5DEF5CEF5CEF5CEF65
:103010005CEF5CEF5CEF5CEF5CEF5CEF5CEF5CEF58
:103020003CE73CE73CE75CEF5CEF5CEF5CEF5CEFC0
:103030005CEF5CEF3CE75CEF5CEF5CEF3CE73CE7B0
:103040003CE75CEF5CEF3CE73CE75CEF5CEF3CE7C8
:103050003CE75CEF5DEF5DEF5DEF5DEF5DEF5DEF3A
:103060005DEF5DEF5DEF5DEF5DEF5DEF5DEF5DEF00
:103070005DEF5DEF5DEF5DEF5DEF7DEF7DEF5DEFB0
:103080005DEF9EF77DEF3CE75DEF5DEF5DEF7DEF80
:103090005DEF7DEF5DEF5DEF5DEF5DEF5DEF5DEFB0
:1030A0005DEF5DEF5DEF5DEF5DEF5DEF5DEF5DEFC0
:1030B0005DEF5DEF3DE75DEF5DEF5DEF9EF7DFFFFD
:1030C000DFFFBFF7DFFFBFF7DFFF9EF73DE77DEFD5
:1030D0003DE75DEF5DEF5DEF5DEF5DEF5DEF5DEFB8
:1030E0005DEF5DEF5DEF5DEF5DEF5DEF5DEF5DEF80
:1030F0005DEF5DEF7DEF3DE75DEFBEF79EF75DEFC6
:103100007EEF3CE73CE7DFF75DEF5DEF5DEF5CEF07
:103110009EEF5DEF5DEF5DEF5DEF5DEF5CEF5DE717
:103120005FD7F77C3685DFE75EEF5DEF5DEF5DEF44
:103130007DEF7DEF3DEF7DEF5DEF5DEF5DEF7DEFCF
:103140005DEF7DEF3CE77DEF7DEF5DEF5DEF3CE711
:103150007DEF5DEF5DEF3CE79EF73CE79EF7FBDE22
:103160009EF75DEF5DEF3CE77DEF3DE79EF75DEF9E
:103170003CE77DEF5DEF5DEF5DEF5DEF7EEF3DE7FF
:103180005DEF7EEF5DEF5DEF7DEF5DEF5DEF5DEF9E
:103190005DEF5DEF5DEF5DEF5DEF5DEF5DEF5DEFCF
:1031A0005DEF5DEF5DEF5DEF5DEF5DEF5DEF5DEFBF
:1031B0005DEF5DEF5DEF5DEF5DEF5DEF5DEF5DEFAF
:1031C0005DEF5DEF5DEF5DEF5DEF5DEF5DEF5DEF9F
:1031D0005DEF5DEF5DEF5DEF5DEF5DEF5DEF5DEF8F
:1031E0005DEF5DEF5DEF5DEF5CEF5CEF5CEF5CEF83
:1031F0005CEF5CEF5CEF5CEF5CEF5CEF5CEF5CEF77
:103200005CEF3CE75CEF3CE73CE73CE73CE75CEF2E
:103210003CE73CE73CE73CE73CE73CE73CE73CE796
:103220003CE73CE75CEF3CE73CE75CEF5CEF3CE70E
:103230003CE75CEF5CEF5CEF5DEF5DEF5DEF5DEF5A
:103240005DEF5DEF5DEF5DEF5DEF5DEF5DEF5DEF1E
:103250005DEF5DEF5DEF5DEF7DEF5DEF5DEF5DEFEE
:103260003CE75DEF5DEF5DEF7DEF3CE73CE75DEF59
:103270005DEF7DEF5DEF5DEF5DEF5DEF5DEF5DEFCE
:103280005DEF5DEF5DEF5DEF5DEF5DEF5DEF5DEFDE
:103290005DEF5DEF5DEF5DEF5DEF3DE75DEF7EEFD5
:1032A0001DE77EEF3DE75DEF5DEF5DEF5DEF5DEF0D
:1032B0005DEF7EEF5DEF5DEF5DEF5DEF5DEF5DEF8D
:1032C0005DEF5DEF5DEF5DEF5DEF5DEF5DEF5DEF9E
:1032D0005DEF5DEF5DEF3DE75DEF5DEF7DEF3DE7BE
:1032E0005DEF5DEF5DE77EEF5DEF5DEF3CEF5CEF87
:1032F0003CE75DEF5DEF5DEF5DEF5DEF5CEF5DE7A0
:103300005FD7D67C3685DFE75EEF5DEF5DEF5DEF83
:103310007DEF7DEF7DEF5CEF5DEF5DEF7DEF5DEFCE
:103320005DEF7DEF7DEF3CE77DEF7DEF7DEF7DEFA6
:103330007DEF3CE75DEF7DEF3CE77DEF5DEF7DEFFF
:103340003CE77DEF3DE77EEF3CE75DEF7DEF5DEF36
:103350007DEF3DE73CE75DEF7EEF1CE75DEF7DEF46
:103360005DEF5DEF5DEF7DEF7DEF5DEF5DEF5DEFBD
:103370005DEF5DEF5DEF5DEF5DEF5DEF5DEF5DEFED
:103380005DEF5DEF5DEF5DEF5DEF5DEF5DEF5DEFDD
:103390005DEF5DEF5DEF5DEF5DEF5DEF5DEF5DEFCD
:1033A0005DEF5DEF5DEF5DEF5DEF5DEF5DEF5DEFBD
:1033B0005DEF5DEF5DEF5DEF5DEF5DEF5DEF5DEFAD
:1033C0005DEF5DEF5DEF5DEF5CEF5CEF5CEF5CEFA1
:1033D0005CEF5CEF3CE73CE73CE75CEF5CEF5CEF0D
:1033E0003CE73CE75CEF3CE73CE73CE73CE73CE79D
:1033F0003CE73CE73CE73CE73CE73CE73CE75CEF8D
:103400003CE73CE73CE73CE73CE73CE75CEF3CE77C
:103410003CE75CEF5CEF5CEF5DEF5DEF5DEF5DEF78
:103420005DEF5DEF5DEF5DEF5DEF5DEF5DEF5DEF3C
:103430005DEF5DEF5DEF7DEF5DEF7DEF5DEF5DEFEC
:103440007DEF3CE75DEF5DEF3CE79EF75DEF5DEF05
:103450007DEF5DEF5DEF5DEF5DEF5DEF5DEF5DEFEC
:103460005DEF5DEF5DEF5DEF5DEF5DEF5DEF5DEFFC
:103470005DEF5DEF5DEF7DEF5DEF5DEF5DEF1CE715
:103480007EEF5DEF5DEF5DEF3CE77EEF5DEF7DEFA3
:103490007DEF3DE75DEF5DEF5DEF5DEF5DEF5DEFD4
:1034A0005DEF5DEF5DEF5DEF5DEF5DEF5DEF5DEFBC
:1034B0005DEF5DEF5DEF5DEF7DEF5DEF1CE7BEF76C
:1034C0003DE73CE75DEF3CE73DE73DEF3CEF5CEF80
:1034D0007DEF3CE73DE73DEF5DEF5DEF5CEF5DE7E6
:1034E0005FD7D67C1685DFE77EEF5DEF5DEF5DEFA2
:1034F0007DEF7DEF7DEF7DEF7DEF7DEF7DEF5DEF8C
:103500005DEF7DEF7DEF7DEF5DEF5DEF5DEF5DEFFB
:103510005DEF5DEF5DEF5DEF5DEF5DEF5DEF5DEF4B
:103520005DEF5DEF5DEF5DEF5DEF5DEF5DEF5DEF3B
:103530005DEF5DEF5DEF5DEF5DEF5DEF5DEF7DEF0B
:103540007DEF7DEF5DEF5DEF5DEF5DEF5DEF5DEFDB
:103550005DEF5DEF5DEF5DEF5DEF5DEF5DEF5DEF0B
:103560005DEF5DEF5DEF5DEF5DEF5DEF5DEF5DEFFB
:103570005DEF5DEF5DEF5DEF5DEF5DEF5DEF5DEFEB
:103580005DEF5DEF5DEF5DEF5DEF5DEF5DEF5DEFDB
:103590005DEF5DEF5DEF5DEF5DEF5DEF5DEF5DEFCB
:1035A0005CEF5CEF5CE75CE75CE75CE75CE75CE7F3
:1035B0005CE75CE75CE73CE75CE75CE75CE73CE733
:1035C0003CE75CE75CE73CE73CE73CE73CE73CE7A3
:1035D0005CE75CE75CE75CE75CE75CE75CE75CE7D3
:1035E0005CE75CE75CE75CE75CE75CE75CE75CE7C3
:1035F0005CE75CE75CE75CE75CE75CE75CE75CE7B3
:103600005CE75CE75CE75CE73CE73CE75CEF5CEFD2
:103610005CEF5CEF5CEF5DEF5DEF5DEF5DEF5DEF4D
:103620005DEF5DEF5DEF5DEF5DEF5DEF5DEF5DEF3A
:103630005DEF5DEF5DEF5DEF5DEF5DEF5DEF5DEF2A
:103640005DEF5DEF5DEF5DEF5DEF5DEF5DEF5DEF1A
:103650005DEF5DEF5DEF5DEF5DEF5DEF5DEF5DEF0A
:103660005DEF5DEF7DEF7DEF5DEF5DEF5DEF5DEFBA
:103670005DEF5DEF5DEF5DEF5DEF5DEF5DEF5DEFEA
:103680005DEF5DEF5DEF5DEF5DEF5DEF5DEF5DEFDA
:103690005DEF5DEF5DEF5DEF5DEF5DEF5DEF5DEFCA
:1036A0005DEF5DEF5DE75DE75DEF5DEF5DEF5CEFCB
:1036B0005DEF5DEF5DEF3DEF5DEF3CE75CEF5DE7FC
:1036C0005FD7D67C1685DFE77EEF5DEF5DEF5DEFC0
:1036D0005DEF7DEF7DEF7DEF7DEF5DEF5DEF7DEFEA
:1036E0007DEF7DEF7DEF7DEF5DEF5DEF5DEF5DEFFA
:1036F0005DEF5DEF5DEF5DEF5DEF5DEF5DEF5DEF6A
:103700005DEF5DEF5DEF5DEF5DEF5DEF5DEF5DEF59
:103710005DEF5DEF5DEF5DEF5DEF5DEF5DEF5DEF49
:103720005DEF5DEF5DEF5DEF5DEF5DEF5DEF5DEF39
:103730005DEF5DEF5DEF5DEF5DEF5DEF5DEF5DEF29
:103740005DEF5DEF5DEF5DEF5DEF5DEF5DEF5DEF19
:103750005DEF5DEF5DEF5DEF5DEF5DEF5DEF5DEF09
:103760005DEF5DEF5DEF5DEF5DEF5DEF5DEF5DEFF9
:103770005DEF5DEF5DEF5DEF5DEF5DEF5DEF5DEFE9
:103780005CEF5CEF5CE75CE75CE75CE75CE75CE711
:103790005CE75CE75CE75CE75CE75CE75CE73CE731
:1037A0003CE73CE75CE75CE73CE73CE75CE75CE781
:1037B0005CE75CE75CE75CE75CE75CE75CE75CE7F1
:1037C0005CE75CE75CE75CE75CE75CE75CE75CE7E1
:1037D0005CE75CE73CE75CE75CE75CE75CE75CE7F1
:1037E0005CE75CEF5CE75CE75CEF5CEF5CEF5CEF99
:1037F0005CEF5CEF5CEF5DEF5DEF5DEF5DEF5DEF6C
:103800005DEF5DEF5DEF5DEF5DEF5DEF5DEF5DEF58
:103810005DEF5DEF5DEF5DEF5DEF5DEF5DEF5DEF48
:103820005DEF5DEF5DEF5DEF5DEF5DEF5DEF5DEF38
:103830005DEF5DEF5DEF5DEF5DEF5DEF5DEF5DEF28
:103840005DEF5DEF5DEF5DEF5DEF5DEF5DEF5DEF18
:103850005DEF5DEF5DEF5DEF5DEF5DEF5DEF5DEF08
:103860005DEF5DEF5DEF5DEF5DEF5DEF5DEF5DEFF8
:103870005DEF5DEF5DEF5DEF5DEF5DEF5DEF5DEFE8
:103880005DEF5DEF5DEF5DEF5DEF5DEF5DEF5CEFD9
:103890005DEF5DEF5DEF3DE75DEF3CE75CEF5DE722
:1038A0005FD7D67C1685DFE77EEF5DEF5DEF5DEFDE
:1038B0005DEF7DEF7DEF7DEF5DEF5DEF5DEF7DEF28
:1038C0007DEF7DEF7DEF5DEF5DEF5DEF5DEF5DEF38
:1038D0005DEF5DEF5DEF5DEF5DEF5DEF5DEF5DEF88
:1038E0005DEF5DEF5DEF5DEF5DEF5DEF5DEF5DEF78
:1038F0005DEF5DEF5DEF5DEF5DEF5DEF5DEF5DEF68
:103900005DEF5DEF5DEF5DEF5DEF5DEF5DEF5DEF57
:103910005DEF5DEF5DEF5DEF5DEF5DEF5DEF5DEF47
:103920005DEF7DEF5DEF5DEF5DEF5DEF5DEF5DEF17
:103930005DEF5DEF5DEF5DEF5DEF5DEF5DEF5DEF27
:103940005DEF5DEF7DEF5DEF5DEF5DEF5DEF5DEFF7
:103950005DEF5DEF5DEF5DEF5DEF5DEF5CEF5CEF09
:103960005CEF5CEF5CE75CE75CE75CE75CE75CE72F
:103970005CE75CE75CEF5CE75CE75CE75CE75CE727
:103980003CE73CE75CE75CE75CE75CE75CE75CE75F
:103990005CE75CE75CE75CE75CE75CE75CE75CE70F
:1039A0005CE75CE75CE75CE75CE75CE75CE75CE7FF
:1039B0005CE75CE73CE73CE73CE75CE75CE75CE74F
:1039C0005CE75CE75CE75CE75CE75CE75CEF5CEFCF
:1039D0005CEF5CEF5CEF5DEF5DEF5DEF5DEF5DEF8A
:1039E0005DEF5DEF5DEF5DEF5DEF5DEF5DEF5DEF77
:1039F0005DEF5DEF5DEF5DEF5DEF5DEF5DEF5DEF67
:103A00005DEF5DEF5DEF5DEF5DEF5DEF5DEF5DEF56
:103A10005DEF5DEF5DEF5DEF5DEF5DEF5DEF5DEF46
:103A20005DEF5DEF3CE75DEF5DEF5DEF5DEF5DEF5F
:103A30005DEF5DEF5DEF5DEF5DEF5DEF5DEF5DEF26
:103A40005DEF5DEF5DEF5DEF5DEF5DEF5DEF5DEF16
:103A50005DEF5DEF5DEF5DEF5DEF5DEF5DEF5DEF06
:103A60005DEF5DEF5DEF5DEF5DEF5DEF5DEF5CEFF7
:103A70005DEF5DEF5DEF3DEF5DEF3CE75CEF5DE738
:103A80005FD7D67C1685DFE77EEF5DEF5DEF5DEFFC
:103A90005DEF7DEF7DEF7DEF5DEF5DEF5DEF7DEF46
:103AA0007DEF7DEF5DEF5DEF5DEF5DEF5DEF5DEF76
:103AB0005DEF5DEF5DEF5DEF5DEF5DEF5DEF5DEFA6
:103AC0005DEF5DEF5DEF5DEF5DEF5DEF5DEF5DEF96
:103AD0005DEF5DEF5DEF5DEF5DEF5DEF5DEF5DEF86
:103AE0005DEF5DEF5DEF5DEF5DEF5DEF5DEF5DEF76
:103AF0005DEF5DEF5DEF5DEF5DEF5DEF5DEF5DEF66
:103B00005DEF5DEF5DEF5DEF5DEF5DEF5DEF5DEF55
:103B10005DEF5DEF5DEF5DEF5DEF5DEF5DEF5DEF45
:103B20005DEF5DEF5DEF5DEF5DEF5DEF5DEF5DEF35
:103B30005DEF5DEF5DEF5DEF5DEF5DEF5CEF5CEF27
:103B40005CEF5CEF5CE75CE75CE75CE75CE75CE74D
:103B50005CE73CE75CE75CE75CE75CE75CE75CE76D
:103B60005CE75CE75CE75CE75CE75CE75CE75CE73D
:103B70005CE75CE73CE73CE73CE73CE73CE73CE7ED
:103B80003CE73CE73CE73CE73CE73CE73CE73CE71D
:103B90005CE75CE75CE75CE75CE75CE75CE75CE70D
:103BA0005CE75CE75CE75CE75CE75CE75CEF5CEFED
:103BB0005CEF5CEF5CEF5DEF5DEF5DEF5DEF5DEFA8
:103BC0005DEF5DEF5DEF5DEF5DEF5DEF5DEF5DEF95
:103BD0005DEF5DEF5DEF5DEF5DEF5DEF5DEF5DEF85
:103BE0005DEF5DEF5DEF5DEF5DEF5DEF5DEF5DEF75
:103BF0005DEF5DEF5DEF5DEF5DEF5DEF5DEF5DEF65
:103C00005DEF5DEF3CE75DEF5DEF5DEF5DEF5DEF7D
:103C10005DEF5DEF5DEF5DEF5DEF5DEF5DEF5DEF44
:103C20005DEF5DEF5DEF5DEF5DEF5DEF5DEF5DEF34
:103C30005DEF5DEF5DEF5DEF5DEF5DEF5DEF5DEF24
:103C40005DEF5DEF5DEF5DEF5DEF5DEF5DEF5CEF15
:103C50005DEF5DEF5DEF3DEF5DEF5DEF5CEF5DE72D
:103C60005FD7D67C1685DFE77EEF5DEF5DEF5DEF1A
:103C70005DEF7DEF7DEF7CEF7DEF7DEF5DEF5DEF45
:103C80005DEF7DEF5DEF5DEF5DEF5DEF5DEF5DEFB4
:103C90005DEF5DEF5DEF5DEF5DEF5DEF5DEF5DEFC4
:103CA0005DEF5DEF5DEF5DEF5DEF5DEF5DEF5DEFB4
:103CB0005DEF5DEF5DEF5DEF5DEF5DEF5DEF5DEFA4
:103CC0005DEF5DEF5DEF5DEF5DEF5DEF5DEF5DEF94
:103CD0005DEF5DEF5DEF5DEF5DEF5DEF5DEF5DEF84
:103CE0005DEF5DEF5DEF5DEF5DEF5DEF5DEF5DEF74
:103CF0005DEF5DEF5DEF5DEF5DEF5DEF5DEF5DEF64
:103D00005DEF5DEF5DEF5DEF5DEF5DEF5DEF5DEF53
:103D10005DEF5DEF5DEF5DEF5CEF5CEF5CEF5CEF47
:103D20005CEF5CEF5CE75CE75CE75CE75CE75CE76B
:103D30005CE75CE75CE75CE75CE75CE75CE75CE76B
:103D40005CE75CE73CE75CE75CE75CE75CE75CE77B
:103D50005CE75CE73CE73CE73CE73CE73CE73CE70B
:103D60003CE73CE75CE75CE75CE75CE75CE75CE77B
:103D70003CE73CE73CE73CE73CE73CE73CE73CE72B
:103D80003CE73CE75CE75CE75CE75CE75CE75CE75B
:103D90005CEF5CEF5CEF5CEF5DEF5DEF5DEF5DEFC7
:103DA0005DEF5DEF5DEF5DEF5DEF5DEF5DEF5DEFB3
:103DB0005DEF5DEF5DEF5DEF5DEF5DEF5DEF5DEFA3
:103DC0005DEF5DEF5DEF5DEF5DEF5DEF5DEF5DEF93
:103DD0005DEF5DEF5DEF5DEF5DEF5DEF5DEF5DEF83
:103DE0005DEF5DEF5DEF5DEF3CE73CE75DEF5DEFC5
:103DF0005DEF5DEF5DEF5DEF5DEF5DEF5DEF5DEF63
:103E00005DEF5DEF5DEF5DEF5DEF5DEF5DEF5DEF52
:103E10005DEF5DEF5DEF5DEF5DEF5DEF5DEF5DEF42
:103E20005DEF5DE75DEF5DEF5DEF5DEF5DEF5CEF3B
:103E30005DEF5DEF5DEF3DEF5DEF5DEF5CEF5DE74B
:103E40005FD7F77C1685DFE77EEF5DEF5DEF5DEF17
:103E50005DEF7DEF5DEF7CEF7DEF7DEF5DEF5DEF83
:103E60005DEF7DEF5DEF5DEF5DEF5DEF5DEF5DEFD2
:103E70005DEF5DEF5DEF5DEF5DEF5DEF5DEF5DEFE2
:103E80005DEF5DEF5DEF5DEF5DEF5DEF5DEF5DEFD2
:103E90005DEF5DEF5DEF5DEF5DEF5DEF5DEF5DEFC2
:103EA0005DEF5DEF5DEF5DEF5DEF5DEF5DEF5DEFB2
:103EB0005DEF5DEF5DEF5DEF5DEF5DEF5DEF5DEFA2
:103EC0005DEF5DEF5DEF5DEF5DEF5DEF5DEF5DEF92
:103ED0005DEF5DEF5DEF5DEF5DEF5DEF5DEF5DEF82
:103EE0005DEF5DEF5DEF5DEF5DEF5DEF5DEF5DEF72
:103EF0005DEF5DEF5DEF5DEF5CEF5CEF5CEF5CEF66
:103F00005CEF5CEF3CE73CE73CE75CE75CE75CE7E9
:103F10005CE75CE75CE75CE75CE75CE75CE73CE7A9
:103F20003CE73CE73CE73CE73CE75CE75CE75CE719
:103F30005CE73CE75CE75CE75CE75CE75CE75CE789
:103F40005CE75CE73CE73CE73CE73CE73CE73CE719
:103F50003CE73CE73CE73CE73CE73CE73CE75CE729
:103F60005CE75CE73CE73CE73CE75CE75CE75CE799
:103F70003CE75CEF5CEF5CEF5DEF3CE73CE75DEF5F
:103F80005DEF5DEF5DEF5DEF5DEF5DEF5DEF5DEFD1
:103F90005DEF5DEF5DEF5DEF5DEF5DEF5DEF5DEFC1
:103FA0005DEF5DEF5DEF5DEF5DEF5DEF5DEF5DEFB1
:103FB0005DEF5DEF5DEF5DEF5DEF5DEF5DEF5DEFA1
:103FC0005DEF5DEF5DEF5DEF3CE73CE75DEF5DEFE3
:103FD0005DEF5DEF3CE73CE75DEF5DEF5DEF5DEFD3
:103FE0005DEF5DEF5DEF5DEF5DEF5DEF5DEF5DEF71
:103FF0005DEF5DEF5DEF5DEF5DEF5DEF3DE73DE7B1
:104000003DE73DE75DE75DEF5DEF5DEF5DEF5CEFA9
:104010005DEF5DEF3DEF3DEF5DEF5DEF5CEF5DE789
:104020005FD7F77C1685DFE77EEF5DEF5DEF5DEF35
:104030005DEF5DE75DEF7CEF5DEF5DEF5DEF5DEF09
:104040005DEF7DEF5DEF5DEF5DEF5DEF5DEF5DEFF0
:104050005DEF5DEF5DEF5DEF5DEF5DEF5DEF5DEF00
:104060005DEF5DEF5DEF5DEF5DEF5DEF5DEF5DEFF0
:104070005DEF5DEF5DEF5DEF5DEF5DEF5DEF5DEFE0
:104080005DEF5DEF5DEF5DEF5DEF5DEF5DEF5DEFD0
:104090005DEF5DEF5DEF5DEF5DEF5DEF5DEF5DEFC0
:1040A0005DEF5DEF5DEF5DEF5DEF5DEF5DEF5DEFB0
:1040B0005DEF5DEF5DEF5DEF5DEF5DEF5DEF5DEFA0
:1040C0005DEF5DEF5DEF5DEF5DEF5DEF5DEF5DEF90
:1040D0005DEF5DEF5CEF5CEF5CEF5CEF5CEF5CEF86
:1040E0005CE75CE73CE73CE73CE75CE75CE75CE718
:1040F0005CE75CE75CE75CE75CE75CE75CE73CE7C8
:104100003CE73CE73CE73CE73CE73CE73CE73CE797
:104110003CE73CE73CE73CE73CE73CE73CE73CE787
:104120003CE73CE73CE73CE73CE73CE73CE73CE777
:104130003CE73CE73CE73CE73CE73CE75CE75CE727
:104140005CE75CE75CE75CE75CE75CE75CE75CE757
:104150005CE75CE75CEF5CEF5CEF3CE75DEF5DEF3D
:104160005DEF5DEF5DEF5DEF5DEF5DEF5DEF5DEFEF
:104170005DEF5DEF5DEF5DEF5DEF5DEF5DEF5DEFDF
:104180005DEF5DEF5DEF5DEF5DEF5DEF5DEF5DEFCF
:104190005DEF5DEF5DEF5DEF5DEF5DEF5DEF5DEFBF
:1041A0005DEF3DE75DEF5DEF3CE73CE75DEF5DEF29
:1041B0005DEF5DEF3CE73CE73CE75DEF5DEF5DEF1A
:1041C0005DEF5DEF5DEF5DEF5DEF5DEF3DE75DEFB7
:1041D0005DEF5DEF5DEF5DEF5DEF5DEF5DEF3DE7A7
:1041E0003DE73DE75DE75DE73DEF3DEF5DEF5CEF10
:1041F0005DEF5DEF3DEF5DEF5DEF5DEF3CEF7DE788
:104200005FD7F77C1685DFE77EEF5DEF5DEF5DEF53
:104210005DEF5DE77DEF5CEF5DEF5DEF5DEF5DEF27
:104220005DEF5DEF5DEF5DEF5DEF5DEF5DEF5DEF2E
:104230005DEF5DEF5DEF5DEF5DEF5DEF5DEF5DEF1E
:104240005DEF5DEF5DEF5DEF5DEF5DEF5DEF5DEF0E
:104250005DEF5DEF5DEF5DEF5DEF5DEF5DEF5DEFFE
:104260007DEF7DEF5DEF5DEF5DEF5DEF5DEF5DEFAE
:104270005DEF5DEF5DEF5DEF5DEF5DEF5DEF5DEFDE
:104280005DEF7DEF5DEF5DEF5DEF5DEF5DEF5DEFAE
:104290005DEF5DEF5DEF5DEF5DEF5DEF5DEF5DEFBE
:1042A0005DEF5DEF5DEF5DEF5DEF5DEF5DEF5DEFAE
:1042B0005DEF5DEF5CEF5CEF5CEF5CEF5CEF3CE7CC
:1042C0005CE75CE75CE75CE75CE75CE75CE73CE7F6
:1042D0003CE73CE73CE73CE73CE75CE75CE73CE786
:1042E0003CE73CE73CE73CE73CE73CE73CE73CE7B6
:1042F0003CE73CE73CE73CE73CE73CE73CE73CE7A6
:104300003CE73CE73CE73CE73CE73CE73CE73CE795
:104310003CE73CE73CE73CE73CE73CE73CE73CE785
:104320003CE73CE75CE75CE75CE75CE75CE75CE7B5
:104330005CE75CE73CE73CE75CEF3CE73CE75DEFD4
:104340005DEF3CE75DEF5DEF5DEF5DEF5DEF5DEF36
:104350005DEF5DEF5DEF5DEF5DEF5DEF5DEF5DEFFD
:104360005DEF5DEF5DEF5DEF5DEF5DEF5DEF5DEFED
:104370005DEF5DEF5DEF5DEF5DEF5DEF5DEF3DE705
:104380003DE73DE75DEF5DEF5DEF5DEF3CE73CE76F
:104390003CE73CE73CE73CE73CE73CE73CE73CE705
:1043A0003CE73CE73DE73DE73DE73DE73DE73DE7EF
:1043B0005DEF5DEF5DEF5DEF5DEF5DEF5DEF5DEF9D
:1043C0005DEF5DE73DE73DE73DEF3DEF3DEF5CEF46
:1043D0005DEF5DEF3DEF5DEF3DEF5DEF3CEF7DE7C6
:1043E0003FD7F77C1685BFE75EEF5DEF5DEF5DEFD2
:1043F0005DEF5DE75CEF7DEF5DEF7DEF3CEF5CEF48
:104400007DEF7DEF5DEF5DEF5DEF5DEF5DEF7DEFEC
:104410005DEF7DEF5DEF5DEF5DEF5DEF5DEF5DEF1C
:104420005DEF5DEF5DEF5DEF5DEF5DEF5DEF5DEF2C
:104430005DEF5DEF5DEF3CE77DEF3CE75DEF7DEF2E
:104440003CE75DEF5DEF5DEF5DEF5DEF5DEF5DEF35
:104450005DEF5DEF5DEF5DEF5DEF5DEF5DEF5DEFFC
:104460005DEF7DEF7DEF7DEF3CE77DEF5DEF5DEF95
:104470005DEF5DEF5DEF5DEF5DEF7DEF5DEF5DEFBC
:104480005DEF3CE75DEF5DEF5DEF7DEF3CE75DEFFE
:104490005DEF5DEF5CEF5CEF5CE75CE75CE75CE7E2
:1044A0005CE75CE75CE73CE73CE73CE73CE75CE774
:1044B0003CE73CE73CE75CE73CE73CE73CE73CE7C4
:1044C0003CE73CE73CE73CE73CE73CE73CE73CE7D4
:1044D0003CE73CE73CE73CE73CE73CE73CE73CE7C4
:1044E0003CE73CE73CE73CE73CE73CE73CE73CE7B4
:1044F0003CE73CE73CE73CE73CE73CE73CE73CE7A4
:104500003CE73CE75CE75CE75CE75CE73CE73CE713
:104510005CE75CE75CEF5CEF3CE73CE73CE75DEFCA
:104520005DEF5DEF5DEF5DEF5DEF5DEF5DEF5DEF2B
:104530005DEF5DEF5DEF5DEF5DEF5DEF5DEF5DEF1B
:104540005DEF5DEF5DEF5DEF5DEF5DEF5DEF5DEF0B
:104550005DEF5DEF5DEF5DEF5DEF5DEF5DEF5DEFFB
:104560005DEF5DEF5DEF5DEF3DE73DE73DE73DE78B
:104570003DE73DE75DEF5DEF5DEF5DEF3DE73DE77B
:104580003DE73DE73DE73DE73DE73DE73DE73DE70B
:104590003DE75DEF5DEF5DEF3CE73DE75DEF3DE75C
:1045A0003DE73DE75DEF5DE71CE75DEF3CE75CEF76
:1045B0003DE75DEF3DE75DEF3DEF3CE73CE75DE765
:1045C0003FD7F77C1685BFE75EEF5DEF5DEF5DEFF0
:1045D0005DEF5DE77DEF5CEF5DEF3CE79DF75DEF45
:1045E0005DEF7DEF3CE79EF75DEF7DEF7DEF3CE714
:1045F0005DEF5DEF5DEF5DEF5DEF5DEF5DEF5DEF5B
:104600005DEF5DEF5DEF7DEF7DEF3CE73CE75DEF5C
:104610005DEF5DEF5DEF7DEF3CE75DEF3CE73CE795
:104620007DEF3CE75DEF5DEF5DEF7DEF7DEF5DEFF3
:104630005DEF5DEF5DEF5DEF5DEF5DEF3CE77DEF23
:104640007DEF3CE73CE75DEF7DEF3CE77DEF5DEF25
:104650005DEF5DEF5DEF1CE77DEF7DEF3CE77DEF0C
:104660005DEF3CE73CE75DEF5DEF3CE75DEF3CE78E
:104670005DEF3CE75CEF5CEF5CE75CE75CE75CE729
:104680005CE73CE75CE73CE73CE73CE73CE75CE7B2
:104690003CE73CE73CE73CE73CE73CE73CE73CE702
:1046A0003CE73CE73CE73CE73CE73CE73CE73CE7F2
:1046B0003CE73CE73CE73CE73CE73CE73BE73BE7E4
:1046C0003CE73CE73BE73CE73CE73CE73CE73CE7D3
:1046D0003CE73CE73CE73CE73CE73CE73CE73CE7C2
:1046E0003CE73CE75CE75CE73CE73CE75CE75CE732
:1046F0005CE75CE73CE73CE73CE73CE75DEF5DEF10
:104700005DEF5DEF5DEF5DEF3CE73CE75DEF5DEF9B
:104710003CE73CE73CE73CE73CE73CE73CE75DEF58
:104720005DEF5DEF5DEF5DEF5DEF5DEF5DEF3CE752
:104730003CE73CE75DEF5DEF5DEF5DEF5DEF5DEF6B
:104740005DEF5DEF5DEF5DEF5DEF5DEF5DEF5DEF09
:104750005DEF5DEF5DEF5DEF5DEF5DEF5DEF5DEFF9
:104760005DEF5DEF3DE73DE73DE73DE73DE73DE7D9
:104770003DE75DEF3CE73CE77DEF3DE71CE75DEFA4
:104780005DEF1CDF5DEF1CE75EEF5DEF3DEF5DEF82
:104790003CE75DEF3DEF5DEF5DEF5DEF3CEF5DE72B
:1047A0003FD7F77C1685BFE75EEF5DEF5DEF5DEF0E
:1047B0005DEF5DE77DEF5CEF7DEF5DEF3CEF5CEF84
:1047C0005DEF5DEF7DEF3CE77DEF3CE77DEF7DEF5B
:1047D0005DEF7DEF5DEF5DEF5DEF5DEF5DEF5DEF59
:1047E0005DEF5DEF5DEF7DEF3CE77DEF7DEF5DEF32
:1047F0003CE77DEF5DEF5DEF7DEF5DEF5DEF7DEF22
:104800003CE73CE75DEF5DEF5DEF5DEF5DEF7DEF7A
:104810007DEF5DEF5DEF5DEF7DEF7DEF5DEF5DEFD8
:104820005DEF7DEF7DEF5DEF5DEF5DEF3CE77DEFF1
:104830005DEF5DEF5DEF7DEF5DEF5DEF5DEF1CE741
:104840007DEF5DEF7DEF5DEF5DEF5DEF3CE75DEFF1
:104850003CE75CEF5CE75CE75CE75CE75CE75CE758
:104860003CE73CE75CE73CE73CE73CE73CE75CE7F0
:104870003CE73CE73CE73CE73CE73CE73CE73CE720
:104880003CE73CE73CE73CE73CE73CE73CE73CE710
:104890003CE73CE73CE73CE73CE73CE73CE73CE700
:1048A0003CE73CE73CE73CE73CE73CE73CE73CE7F0
:1048B0003CE73CE73CE73CE73CE73CE73CE73CE7E0
:1048C0003CE73CE73CE73CE73CE73CE75CE75CE790
:1048D0005CE75CE75CE75CE73CE73CE73CE75CEF18
:1048E0005DEF5DEF5DEF5DEF5DEF5DEF5DEF5DEF68
:1048F0003CE73CE73CE73CE73CE75DEF5DEF5DEF25
:104900005DEF5DEF5DEF5DEF5DEF5DEF3CE73CE799
:104910003CE73CE73DE73DE73DE73DE73DE73DE779
:104920003DE73DE75DEF5DEF5DEF5DEF5DEF5DEF77
:104930005DEF5DEF5DEF5DEF5DEF3DE73DE73DE78F
:104940005DEF5DEF3DE73DE73DE73DE73DE73DE7F7
:104950003DE73DE73DE75DEF3CE75DEF5DEF3DE7C0
:104960001CE79EEF7DEF7DEF7EEF5DEF3CE73CE7E0
:104970005DEF3DE73DE75DEF3DEF5DEF3CEF5DE770
:104980003FD7F77C1685BFE75DE75DEF5DEF5DEF35
:104990005DEF5DE75CEF3CE77DEF5DEF7DF75DEFA1
:1049A0007DEF5DEF5DEF7DEF5DEF7DEF3CE75DEF70
:1049B0007DEF5DEF5DEF5DEF5DEF5DEF5DEF5DEF77
:1049C0005DEF5DEF5DEF5DEF7DEF1CE73CE75DEFD9
:1049D0003CE75DEF5DEF5DEF7DEF5DEF5DEF5DEF80
:1049E0003CE75DEF5DEF7DEF7DEF5DEF5DEF5DEF50
:1049F0005DEF5DEF5DEF5DEF5DEF5DEF3CE75DEF80
:104A00005DEF3CE73CE75DEF3CE79EF77DEF1CE7A1
:104A10007DEF7DEF5DEF7DEF3CE75DEF7DEF7DEFBF
:104A20003CE75DEF3CE73CE73CE75DEF3CE77DEFD3
:104A30005CEF7DEF5CE75CE75CE75CE75CE73CE74D
:104A40003CE73CE75CE73CE73CE73CE75CE75CE7EE
:104A50003CE73CE73CE73CE73CE73CE73CE73CE73E
:104A60003CE73CE73BE73BE73BE73BE73BE73BE734
:104A70003BE73BE73CE73CE73CE73BE73BE73BE723
:104A80003CE73CE73CE73BE73BE73CE73CE73CE710
:104A90003CE73CE73CE73BE73BE73CE73CE73CE700
:104AA0003CE73CE73CE73CE73CE73CE73CE73CE7EE
:104AB0005CE75CE75CE75CE73CE73CE73CE73CE75E
:104AC0003CE73CE73CE73CE73CE75DEF5DEF5DEF53
:104AD0005DEF5DEF5DEF5DEF5DEF5DEF5DEF5DEF76
:104AE0003CE73CE73CE73CE73CE73CE73CE73CE7AE
:104AF0003CE73CE73DE73DE73DE73DE73DE73DE798
:104B00003DE73DE73DE73DE73DE73DE73DE73DE785
:104B10003DE73DE73DE73DE73DE73DE73DE73DE775
:104B20003DE73DE73DE73DE73DE73DE73DE73DE765
:104B30003DE73DE73DE75DEF3DE73CE75DEF3CE707
:104B40007EEF9EF776AD718C728C18C6DFFF7DEF1D
:104B50005DEF3DE73DE73DEF3DE73CE73CEF5DE7DF
:104B60003FD7F77C1685BFE75DE75DEF5DEF5DEF53
:104B70005DEF5DE77DEF7DEF5DEF5DEF5DEF5DEF9D
:104B80003CE77DEF5DEF5DEF3CE75DEF7DEF5DEFD7
:104B90007DEF5DEF5DEF5DEF5DEF5DEF5DEF5DEF95
:104BA0005DEF5DEF3CE75DEF3CE75DEF7DEFBEF76E
:104BB000FFFFFFFFFFFF7DEF1CE79EF75DEF5DEF5F
:104BC0007DEF5DEF5DEF5DEF3CE75DEF7DEF7DEF4E
:104BD0005DEF3CE75DEF3CE75DEF7DEF3CE73CE7F9
:104BE0007DEF5DEF3CE75DEFBEF7D39CFBDE7DEF35
:104BF0003CE73CE75DEF5DEF5DEF5DEF3CE73CE7F9
:104C00007DEF7DEF5DEF5DEF5DEFFBDE7DEF5CEF58
:104C1000DADE54AD3CE75CE75CEF5CE73CE73CE7A1
:104C20003CE73CE75CE75CE73CE73CE73CE75CE70C
:104C30003CE73CE73CE73CE73CE73CE73CE73CE75C
:104C40003CE73CE73BE73BE73BE73BE73BE73BE752
:104C50003BE73BE71BE71BE71BE71BE71BE71BE704
:104C60001BE71BE71BE71BE71BE73BE73CE73CE7D2
:104C70003BE73BE73CE73CE73BE73CE73CE73CE71F
:104C80003CE73CE73CE73CE73CE73CE73CE73CE70C
:104C90003CE73CE75CE73CE73CE73CE73CE73CE7DC
:104CA0003CE73CE73CE73CE73CE73CE73CE73CE7EC
:104CB0003CE73CE73CE73CE73CE73CE73CE73CE7DC
:104CC0003CE73CE73CE73CE73CE73CE73CE73CE7CC
:104CD0003CE73CE73DE73DE73DE73DE73DE73DE7B6
:104CE0003DE73DE73DE73DE73DE73DE73DE73DE7A4
:104CF0003DE73DE73DE73DE73DE73DE73DE73DE794
:104D00003DE73DE73DE73DE73DE73DE73DE73DE783
:104D10003DE73DE75DEF3CE73CE73DE7FBDEBEF707
:104D2000B394C731CF73F49CD49CEC62E7399AD624
:104D3000BEF75DEF3DEF3DEF3DE75DEF5CEF5DE71B
:104D40003FD7F7841685BFE75DE75DEF5DEF5DEF69
:104D50005DEF5DE77DEFDEF7BEF7DFFFDFFFBEF75C
:104D6000DFFFDEF7BEF7DFFFDFFFBEF71CE77DEFFB
:104D70005DEF5DEF5DEF5DEF5DEF5DEF5DEF5DEFD3
:104D80005DEF5DEF7DEF3CE75DEF5DEF5DEFCF7BCE
:104D900082102000A21018C69EF7FBDE59CE5DEFF0
:104DA0003CE73CE73CE75DEF5DEF3CE73CE73CE799
:104DB0005DEF5DEF7DEF7DEF3CE73CE75DEF5DEFA5
:104DC0003CE73CE77DEF3CE7FFFF200079CE7DEF3D
:104DD0007DEF5DEF5DEF7DEF3CE75DEF5DEF1CE7A5
:104DE0005DEF1CE75DEF5DEF3CE77DEF3CE75CEFDF
:104DF00038C600003CE75CE75CEF5CE73CE73CE77B
:104E00003CE73CE75CE75CE73CE73CE73CE73CE74A
:104E10003CE73CE73CE73CE73CE73CE73CE73BE77B
:104E20003CE73CE73BE73BE71BE71BE71BE71BE7F0
:104E30001BE71BE71BE71BE71BE71BE71BE71BE762
:104E40001BE71BE71BE71BE71BE73BE73BE73BE7F2
:104E50003BE73BE73CE73BE73BE73CE73CE73CE73E
:104E60003CE73CE73CE73CE73CE73CE73CE73CE72A
:104E70003CE73CE73CE73CE73CE73CE73CE73CE71A
:104E80003CE73CE73CE73CE73CE73CE73CE73CE70A
:104E90003CE73CE73CE73CE73CE73CE73CE73CE7FA
:104EA0003CE73CE73CE73CE73CE73CE73CE73CE7EA
:104EB0003CE73CE73DE73DE73DE73DE73DE73DE7D4
:104EC0003DE73DE73DE73DE73DE73DE73DE73DE7C2
:104ED0003DE73DE73DE73DE73DE73DE73DE73DE7B2
:104EE0003DE73DE73DE73DE73CE73CE73CE73CE7A6
:104EF0003DE73DE73CE73DE77DEF9EF7AA52AF7304
:104F00002D633DE7DFF7DFFF9EF79EF779CE65293A
:104F100059CE5DEF3DEF3DEF3DE75DEF3CEF5DE7E7
:104F20003FD7F77C1685BFE75DE75DEF5DEF5DEF8F
:104F30005DEF5DE758CE484AAA528A52AA5A8A5271
:104F4000AA52AA52AA528A528A523084BEF75DEF00
:104F50003CE73CE75DEF5DEF5DEF5DEF5DEF5DEF43
:104F60005DEF5DEF3CE75DEF5DEFDFFF494A45290F
:104F700038C6BAD614A5B6B5FFFFCF7B494AFFFFA6
:104F80007DEF5DEF7DEF7DEF7DEF7DEF7DEF5DEF01
:104F90005DEF7DEF3CE79EF79EF77DEF5DEF3CE731
:104FA0005DEF7DEF5DEF9EF7FFFF000079CE5DEFD7
:104FB0007DEF5DEF9EF77DEF3CE75DEF5DEF9EF7E8
:104FC0005DEF7DEF5DEF1CE75DEF5CEF7DEFFFFFD9
:104FD00018C661083CE75CE75CE73CE73CE73CE778
:104FE0003CE73CE73CE73CE73CE73BE73BE73BE7AC
:104FF0003CE73CE73CE73CE73BE73CE73CE71CE7BA
:105000001CE73CE71BE71BE71BE71BE71BE71BE76E
:105010001BE71BE71BE71BE71BE71BE71BE71BE780
:105020001BE71BE71BE71BE73BE73BE73BE73BE7F0
:105030003BE73CE73BE71BE71BE73BE73BE73CE79E
:105040003CE73BE73CE73CE73CE73CE73CE73CE749
:105050003CE73CE73CE73CE73CE73CE73CE73CE738
:105060003CE73CE73CE75DEF5DEF3CE73CE73CE7D6
:105070003CE73CE73CE73CE73CE73CE73CE73CE718
:105080005DEF5DEF3CE73CE73CE73CE73CE73CE7B6
:105090003CE73CE73DE73DE73DE73DE73DE73DE7F2
:1050A0003DE73DE73DE73DE73DE73DE73DE73DE7E0
:1050B0003DE73DE73CE73CE73CE73CE73DE73DE7D4
:1050C0003DE73DE73CE73CE73CE73CE73CE73CE7C6
:1050D0003CE73DE75DEF3DE71CE7FFFFE739A21046
:1050E00059CE5DEF3CE7AA529EF75DEF9EF779CE71
:1050F000494ABEF73DEF3DE73DE73CE73CEF5DE762
:105100003FD7F77C1685BFE75DE75DEF5DEF5DEFAD
:105110005DEF7DEF7DEFFFFFFFFFFFFFFFFFFFFF75
:10512000FFFFFFFFFFFFFFFFBEF7DFFF3CE75DEF85
:105130005DEF5DEF5DEF5DEF5DEF5DEF5DEF3CE738
:105140005DEF5DEF5DEF5DEF5DEFFFFF00009AD675
:10515000DFFF7DEF9EF7BEF759CE694AE739B6B556
:10516000DBDE7DEFFBDED7BD75ADBAD6BEF75DEFFA
:105170009AD659CE7DEFB6B5D7BD5DEF7DEF5DEF29
:105180007DEF5DEFB6B596B5FFFF0000BAD67DEFB7
:105190007DEF9AD655ADF7BD9EF73CE77DEF18C67B
:1051A0001CE7BAD6D7BD5DEF9EF7BAD6B6B5D6BD69
:1051B00079CE81083CE75CE75CE73CE73CE73CE70D
:1051C0005CE73CE73CE73CE73BE73BE73BE73BE7AB
:1051D0003BE73BE73CE73BE73BE73BE73CE71CE7DC
:1051E0001BE71BE71BE71BE71BE71BE71BE71BE7AF
:1051F0001BE71BE71BE71BE71BDF1BDF1BDF1BDFBF
:105200001BE71BE71BDF1BE71BE71BE71BE71BE796
:105210001BE73BE71BE71BE71BE71BE71BE73BE73E
:105220003BE73BE73BE73BE73BE73BE73CE73CE76C
:105230003CE73CE73CE73CE73CE73CE73CE73CE756
:105240003CE73CE73CE73CE73CE73CE73CE73CE746
:105250003CE73CE73CE73CE73CE73CE73CE73CE736
:105260003CE73CE73CE73CE73CE73CE73CE73CE726
:105270003CE73CE73DE73DE73DE73DE73DE73DE710
:105280003DE73DE73CE73CE73CE73CE73CE73CE704
:105290003CE73CE73CE73CE73CE73CE73CE73CE7F6
:1052A0003CE73DE73CE73CE73CE73CE73CE73CE7E5
:1052B0003CE73DE71CE75DEF3CE75DEF55ADAE73C6
:1052C0006E6B3DE73DE7A731DFFF3DE73DEFBEF702
:1052D000CB5A18BE5DEF3DEF3DE75DEF5CEF5DE75C
:1052E0003FD7F77C3685DFE77EE75DEF5DEF5DEF6B
:1052F0005DEF7DEFFBDE34A596B555AD75B575B5A3
:1053000075AD95AD75AD75AD55AD18C67DEF5DEF5D
:105310007DEF7DEF5DEF5DE75DE75DE75DE75CE716
:105320005DE75DE75DE75DEF5DEFFFFF4529C731B5
:105330001CE7DFF77DEF9EF74D6BA2108210C73997
:1053400075AD5CE7A210C63186296108F7BDBEF7CE
:10535000F39CC310694AE739A2108631DEF79DEF4E
:1053600058C6E3182421C739694A0000BAD6BEF7E7
:10537000518CE3180842A210E7395DEF9EF7A63181
:10538000494A0421A6317DEF75AD2000A631A63132
:105390008631C2183CE75CE73CE73CE73CE75CE76A
:1053A0003CE73CE73CE73CE73CE73CE73CE73CE7E5
:1053B0003CE73BE73BE73BDF1BE71BE71BE71BE764
:1053C0001BE71BE71BDF1BDF1BDF1BDF1BDF1BDFFD
:1053D0001BDF1BDF1BDF1BDF1BDF1BDF1BDF1BDFFD
:1053E0001BDF1BDF1BDF1BDF1BDF1BDF1BDF1BDFED
:1053F0001BDF3BDF1BDF1BDF1BDF1BDF3BDF3BDF7D
:105400003BDF3BDF3BE73CE73CE73CE73CE73CE797
:105410003CE73CE73CE73CE73CE73CE73CE73CE774
:105420003CE73CE73CE73CE73CE73CE73CE73CE764
:105430003CE73CE73CE73CE73CE73CE73CE73CE754
:105440003CE73CE73CE73CE73DE73DE73DE73DE740
:105450003DE73DE73DE73DE73DE73DE73DE73DE72C
:105460003DE73DE73DE73DE73DE73DE73DE73CE71D
:105470003CE73CE73DE73CE73CE73CE73CE73CE713
:105480003CE73DE73DE73DE73CE73CE73CE73CE701
:105490003CE73DE73DE75DEF1CE73DE75DEF9EF74D
:1054A0009EF75DEF3DE78631DFFF5DEF1CE7BEF75E
:1054B000EF7B34A57EEF3DE73DE73CE75CEF5DE742
:1054C0003FD7D67C3685DFE77DE75DEF5DEF5DEFAB
:1054D0005DEF7DEFDBDEB294F39C14A5F3A413A57E
:1054E000139D149DF39CF39CF39CB6B57DEF3CE7B4
:1054F0007DEF3CE75DEF5DE75DE75DE75DE75CE77E
:105500005CE75DE75CE75DEF3CE73CE7FBDE2842FC
:1055100041000B5B1CE79EF7FFFF8E73CA52FFFF33
:10552000BEF7FBDEDAD6FFFFFFFFCB5A894AFFFF4B
:10553000139D000038C6DFFFBEF7000038C6FFFF2E
:10554000E3180F7CFFFFFFFFB6B5000079CE7DEFBB
:10555000DBDEBEF7FFFFFFFF0000D7BDDFFFE7394F
:1055600004215DEFDEFF3CE70000F7BDFFFFFFFF1A
:10557000EF7B00003CE75CE75CE73CE73CE73CE7AF
:105580003CE73CE73CE73CE73CE73CE73CE73CE703
:105590003BE73BE73BE73BDF1BE71BDF1BDF1BE793
:1055A0001BE71BE71BDF1BDF1BDF1BDF1BDF1BDF1B
:1055B0001BDF1BDF1BDF1BDF1BDF1BDF1BDF1BDF1B
:1055C0001BDF1BDF1BDF1BDF1BDF1BDF1BDF1BDF0B
:1055D0001BDF1BDF1BDF1BDF1BDF1BDF3BDF3BDFBB
:1055E0003BDF3BDF3BE73CE73CE73CE73CE73BE7B7
:1055F0003CE73CE73CE73CE73CE73CE73CE73CE793
:105600003CE73CE73CE73CE73CE73CE73CE73CE782
:105610003CE73CE73CE73CE73CE73CE73CE73CE772
:105620003CE73CE73CE73CE73DE73DE73DE73CE75F
:105630003CE73CE73DE73DE73DE73DE73CE73CE74E
:105640003CE73CE73CE73CE73CE73CE73CE73CE742
:105650003CE73CE73CE73CE73CE73CE73CE73CE732
:105660003CE73CE73CE73CE73CE73CE73CE73CE722
:105670003CE73CE73CE71CE73CE71CE73DE7FCDE9A
:105680005DEF1CDF9EF70C63AF73BFFF3CE79EF737
:10569000AE7375AD5EEF3DE73DE73CE75CEF5DE780
:1056A0003FD7F77C3685DFE77DE75DEF5DEF5DEFA8
:1056B0005DEF7DEF9EF7FFFFFFFFFFFFDFFFDFFFE7
:1056C000FFFFFFFFFFFFFFFFFFFFDFFF3CE77DEF77
:1056D0007DEF5CE75DEF5DE75DE75DE75DE75CE77C
:1056E0005DE75DE75DEF1CE77DEF3CE75CE7FFFF13
:1056F00059CEE7390000BAD6FFFF4D6BAA52DEF74C
:105700005DEFBEF738C6EF7BCB5A2421894AFFFFF5
:10571000F39C24217DEF7DEF9EF7E31814A5DAD6E4
:105720008208DBDE5DEF1CE7FFFF00009AD67DEF0D
:105730005DEF75AD0C63EB5A0000D7BDFFFFA631DE
:105740008E73DFFFBEF754AD4000FFFF1BE75CEF39
:1057500079CE61083CE75CE75CE73CE73CE73CE787
:105760003CE73CE73CE73CE73CE73BE73BE73BE724
:105770003BE73BDF3BE73BDF1BDF1BDF1BDF1BDFC9
:105780001BE71BE71BDF1BDF1BDF1BDF1BDF1BDF39
:105790001BDF1BDF1BDF1BDF1BDF1BDF1BDF1BDF39
:1057A0001BDF1BDF1BDF1BDF1BDF1BDF1BDF1BDF29
:1057B0001BDF1BDF1BDF1BDF1BDF1BDF3BDF3BDFD9
:1057C0003BDF3BDF3BE73BE73CE73CE73BE73BE7D7
:1057D0003BE73CE73CE73CE73CE73CE73CE73CE7B2
:1057E0003CE73CE73CE73CE73CE73CE73CE73CE7A1
:1057F0003CE73CE73CE73CE73CE73CE73CE73CE791
:105800003CE73CE73CE73CE73CE73CE73CE73CE780
:105810003CE73CE73DE73DE73CE73CE73CE73CE76E
:105820003CE73CE73CE73CE73CE73CE73CE73CE760
:105830003CE73CE73CE73CE73CE73CE73CE73CE750
:105840003CE73CE73CE73CE73CE73DE73DE73CE73E
:105850003CE73CE71CE75DEF5DEF9EF714A58E7318
:105860009EF75DEF1CE79EF72D6B10845DEFBEF792
:105870000842BBD65DEF3DE73DE73CE73CEF3DE747
:105880003FD7F77C3685DFE77DE75DEF5DEF5DEFC6
:105890005DEF7DEF38C62842AB52AA528A52CB5AEE
:1058A000AA52AA528A52AA528A5210849EF75DEFD7
:1058B0003CE77DEF5DEF5DE75DE75DE75DE75CE7BA
:1058C0005DE75DEF3CE75DEF5CE73CE77DEF3CE7E4
:1058D0009EF7FFFF0C638629FFFF4C63694AFFFFB9
:1058E0007DEF918C6108518CD7BD0C5B2842FFFF86
:1058F000139D6529BEF77DEF7DEF04213084DBDE4B
:10590000A2103CE77DEF7DEFFFFF00009AD69EF7E7
:105910000842A631F39C79CE0000B6B5FFFFC73927
:10592000518CBEF77DEFF39C8210FFFF3CE77DEFCB
:1059300058C661083CE75CE75CE73CE73CE73CE7CE
:105940003CE73CE73CE73CE73CE73BE73BE73BDF4A
:105950003BDF1BDF3BDF1BDF1BDF1BDF1BDF1BDF37
:105960001BDF1BDF1BDF1BDF1BDF1BDF1BDF1BDF67
:105970001BDF1BDF1BDF1BDF1BDF1BDF1BDF1BDF57
:105980001BDF1BDF1BDF1BDF1BDF1BDF1BDF1BDF47
:105990001BDF1BDF1BDF1BDF1BDF1BDF1BDF1BDF37
:1059A0001BDF1BDF3BDF3BDF3BE73BE73BE73BE747
:1059B0003BE73BE73BE73BE73CE73CE73CE73CE7D3
:1059C0003CE73CE73CE73CE73CE73CE73CE73CE7BF
:1059D0003CE73CE73CE73CE73CE73CE73CE73CE7AF
:1059E0003CE73CE73CE73CE73CE73CE73DE73CE79E
:1059F0003CE73CE73CE73CE73CE73CE73CE71CE7AF
:105A00001CE71CE71CE71CE71CE71CE71CE73CE75E
:105A10003CE73CE71CE73CE73CE73CE73CE73CE78E
:105A20003CE71CE73CE73CE73CE73CE73CE73CE77E
:105A30003CE73CE73CE71CE7FBDE5DEF7EEF042143
:105A4000DBDE9EF73CE75DEF9EF759CEFFFFAE73BE
:105A5000107CBEF73DE73DE73DE73CE73CE73DE72F
:105A60003FD7F77C3685DFE77DE75DEF5DEF5DEFE4
:105A70005DEF7DEF7DEFDEFFBFF7FFFFDFFFBEF7DE
:105A8000DFFFFFFFFFFFBEF7DFFF7DEF5DEF5DEFA5
:105A90005DEF5CE75DE75CE75CE75CE75CE75CE7E4
:105AA0005CE75DE73CE75DEF3CE77DEF5DE7DEF758
:105AB000DFF7FFFFEF7BA631FFFF4C638A52FFFF4A
:105AC000DFFF85299294FFFFFFFF494A4942DFFF2C
:105AD00014A565293CE75DE7BEF7A210B294BEF7B6
